:020000040000FA
:1000000028090020F1000000F5000000D5000000E4
:1000100000000000000000000000000000000000E0
:10002000000000000000000000000000F9000000D7
:100030000000000000000000FB000000FD000000C8
:10004000FF000000FF000000FF000000FF000000B4
:10005000FF000000FF000000FF000000FF000000A4
:10006000FF000000FF000000FF000000FF00000094
:10007000FD6E0000FF000000FF000000FF00000018
:10008000FF000000FF000000FF000000FF00000074
:10009000FF000000FF000000FF000000FF00000064
:1000A000FF000000FF000000FF000000FF00000054
:1000B000FF000000FF000000FF000000FF00000044
:1000C0000348854600F08AF8004800473D75000067
:1000D0002809002004207146084202D0EFF309806D
:1000E00001E0EFF308807146004A1047DD2400006C
:1000F00003480047FEE7FEE7FEE7FEE7FEE7FEE710
:10010000C100000030B50B4601460020202201242A
:1001100009E00D46D5409D4205D31D469540491B3B
:100120002546954040191546521E002DF1DC30BD84
:1001300070B500242546002801DA01244042002938
:1001400001DA01254942FFF7DDFFAC4200D0404211
:10015000002C00D0494270BD0549064A086850434A
:10016000054A8018086040087047014908607047D8
:10017000940000206D4EC64139300000F0B51FB428
:100180000646002082B005464024019100901BE005
:10019000019922460F46304600F042F8049A059B2A
:1001A000801A994110D310461946224600F028F8CB
:1001B000361A8F410197224601200021009F00F04E
:1001C0001FF838184D4100902046641E0028DFDCDF
:1001D000019B00982946324607B0F0BD064C012528
:1001E000064E05E0E36807CC2B430C3C98471034DF
:1001F000B442F7D3FFF768FF407700006077000054
:1002000010B5202A04DB0146203A9140002010BDA1
:10021000914020239C1A0346E3401943904010BDAF
:1002200010B5202A04DB0846203AD040002110BD3A
:100230000B46D340D0402024A21A914008431946CF
:1002400010BD000070B5094D0023074C2D7807E064
:100250005E009E19A0553619B1705B1C7270DBB23E
:10026000AB42F5D370BD0000C40300205000002055
:10027000F7B51D4A8E468446D1781C4D00241C4E8D
:100280001C4B1D4F1D48012905D0297808290ED285
:10029000491C2970FEBDD4701C703C700022047093
:1002A00011461046FFF7CEFF2C703470FEBD2C7047
:1002B0003578E90711D01C703C7004706D1CE9B2F0
:1002C0003170052903D9517811700121D17002785C
:1002D00039781878FFF7B6FFFEBD61461970714690
:1002E000397002990170E9E72A0000203B000020E4
:1002F0008401002032000020330000203400002060
:1003000000B50548C178012905D10021C1700A4610
:100310000846FFF797FF00BD2A000020F8B52948DE
:100320004278002A2CD005250146274E2D07274F5D
:10033000C9780024012A06D0022A22D0032A1FD11C
:1003400001292AD033E0012909D11E480022C470B6
:1003500004700C211E4802F0A9F80120B061194870
:100360000178491CC9B20170142909D9047044707C
:10037000686B38406863686B0321890208436863CF
:10038000F8BDC4700470B4614470686B3840686331
:10039000686B6863B462F462F8BDC4700470B461E1
:1003A000696B39406963696B6963B462F4620178AF
:1003B000491CC9B201700529EED9047001214170B0
:1003C000C170F8BD6600002000420050F3F3FFF357
:1003D0004040005070B52848C669284903248A1C4B
:1003E00001250B1F0020012E17D0087048701178CE
:1003F000491CC9B21170322909D310705178491CB7
:10040000C9B251700A2902D350705C70DD701B496B
:100410009A78091D012A11D014E0107050700A78E2
:10042000521CD2B20A70322AF1D308704A78521C98
:10043000D2B24A700A2AEAD34870E6E79870087088
:10044000487088700A78521CD2B20A70322A10D3CF
:1004500008704A78521CD2B24A703C2A09D34870BC
:100460008A78521CD2B28A703C2A02D388705C709F
:10047000DD70FFF753FF70BD004200506A0000209E
:10048000F8B5B1480024C278B04D012A7ED10026CB
:10049000C670AF480670AF48067042E0AE480178BB
:1004A0002046FFF72FFEC8B2AA490870410047183E
:1004B000AA481921C05DFFF725FEA9490870A74881
:1004C00019213F187878FFF71DFEA6490870B87803
:1004D0001921FFF717FEA44F3870A4480188113185
:1004E00089B201800846FFF740FEFFF735FEC0B233
:1004F0001921FFF707FE9A480278600023189C48EC
:100500004A43C254974A181812784A4382703A787C
:100510004A43427097480655974806552E55641C25
:10052000A4B2964800788442B8D3F8BD8A480178CE
:100530002046FFF7E7FDC8B286490870410047181A
:1005400086481921C05DFFF7DDFD854E1921307009
:1005500082483F187878FFF7D5FD82490870B8784F
:100560001921FFF7CFFD804F83493870285D00289F
:100570008148005D38D0401C08557C480188113105
:1005800089B201800846FFF7F0FD00E01DE0FFF7AB
:10059000E3FDC0B20521FFF7B5FD7748C91C005D3A
:1005A000814210D27448002101557248005D002834
:1005B0007AD0600022186E48815410188170417002
:1005C0006C4801552955641CA4B26C4F387884429C
:1005D000ACD35F480178491CC9B201701429A4D377
:1005E000002101700E46A9E0401C08555F480188B3
:1005F000113189B201800846FFF7B7FDFFF7ACFD66
:10060000C0B20321FFF77EFD5B48491C005D8142BB
:10061000D9D25949002008555648005D002827D0F6
:100620006000534920180A5C317819234B439446E3
:100630009A420FD34E4A1926821800929378494A5B
:1006400012787243934205D3009A53783A787243F2
:1006500093422ED2464A614411544249801882780E
:1006600009785118817041783A7889184170AAE761
:10067000600021183E48425C002A08D10B189C46B5
:100680009B78002B03D163465B78002B0DD0337829
:10069000D21A42540818334982780978511A817065
:1006A00041783A78891AE1E707E03248012101559B
:1006B00089E730490020085585E732781920424300
:1006C00060002B4920180A54264A19231278401832
:1006D0005A438270397859434170E6E723490888C4
:1006E000113080B20880FFF740FDFFF735FD397803
:1006F000FFF71EFD8CB2285D0128EFD001202855A0
:100700001C49002008551C4908551348017820460B
:10071000FFF7F8FCC8B20F490870410042180F48B3
:10072000835C60002118124843540C4B0818D218FF
:10073000537883709178761C4170B6B21048008867
:10074000001D8642CAD3F8BD2A00002034030020D1
:100750003B000020390000202E000020C4000020B3
:10076000360000203700002038000020280000203C
:10077000C403002084010020F40000205000002069
:10078000480000200248016AC2011143016270471B
:1007900000020050F3B58BB00C46FFF7F3FF0B9847
:1007A00000287448016813D004221143016010200E
:1007B00000F0F0F90120C00409906F480090042077
:1007C00008906E486E49201888420ED800251DE01A
:1007D00089088900491C0160012000F0DBF9002034
:1007E0000990684800900220EAE7674866492018A7
:1007F0004942884202D80125640007E06348634902
:100800002018494288427DD20325A4000026F643E1
:10081000089F22E039460098FFF774FC5C49844643
:1008200041185C48814217D2554B02225B1C534849
:1008300061465143401C0818984209D8A14201D989
:10084000081B00E0601AB04202D2060004920CD0ED
:100850005148521C8242EAD97F1C212FDAD900204C
:100860000696C0430190089E54E00999A8030843E6
:1008700001217A028902511A08430499891E08430A
:100880003C490862042000F085F9691C794300980E
:10089000FFF738FC049948430DB0F0BD314600988D
:1008A000FFF730FC3A4942183A498A4231D20221D4
:1008B000324B02464A435B1CD7185B429F4224D806
:1008C000A24201D9121B00E0A21A019B9A421CD23B
:1008D0000192069B0F469A4217D10999A803084333
:1008E000012172028902511A0843B91E08432149A5
:1008F0000862042000F04EF9691C71430098FFF76C
:1009000001FC00E008E07843C6E7234A491C914215
:10091000CED9761C212EC1D90B9800280FD01F49A3
:1009200014480162042000F035F91DA0006803900E
:100930001048016A0013014203D00020ACE71949B6
:10094000EEE7080301D50C4800E00E488A03A3D463
:100950000A04920F03AB9B5CCA058904D20DC90E31
:10096000891C8008921C59435043FFF7CBFB800041
:1009700092E700000002005000805101FF1E0AFAB9
:10098000FFE0F505001BB700800F05FDC08782FE64
:10099000FF95E7FFBF77CC00010200001844080074
:1009A0000102020416400000044982070A6801D0CF
:1009B0009208920002430A60704700000002005053
:1009C00008B511A0006800901048016A00130142A8
:1009D00001D0002008BD080301D50D4800E00D48F6
:1009E0008A03F7D40A04920F6B469B5CCA058904FC
:1009F000D20DC90E891C8008921C59435043FFF741
:100A000081FB800008BD00000102020400020050CA
:100A100000805101001BB70070B503F02DFB2D487D
:100A200041682D4A114041604168032529434160D6
:100A30000120FFF7B9FF012000F0ACF800062749BC
:100A4000000E087009D10420FFF7AEFF102000F05F
:100A5000A1F80021072000F08BF8214800F046F8AB
:100A6000204C08262660304600F094F80120A06053
:100A7000606928436061A168E0018143A160A168C9
:100A80000143A16060690321090688436061052074
:100A90000007416B144A11404163416B03229202EB
:100AA00011434163A06804210843A06060690721E5
:100AB000090288436061A0683043A0606069090151
:100AC0008843606106F076F902490020C031086071
:100AD00070BD000040000050FCFCFFFF5A000020E9
:100AE000006CDC0200020050F3F3FFF3F8B51E4C7B
:100AF0000546E66810201D49064048108D4201D980
:100B00000D4602E0854200D205462068042738439E
:100B10002060102000F03EF8206907210843206182
:100B2000A06900090001A06120688007800F0128EA
:100B30000ED069007804FFF72DFEE6680546102008
:100B400006400121022000F013F8002E06D008E034
:100B500069000020FFF71EFE0546F2E72068B84353
:100B600020606808F8BD00000002005080F0FA0222
:100B700010B5074A93691B091B010B439361116967
:100B8000C908C9000143116106F014F910BD000045
:100B90000002005010B50749074A05E00B46491E00
:100BA000002B01DC002010BDD4680346A343F5D11F
:100BB000012010BD80F5200000020050F0B5F9487A
:100BC000F94989B0C37809880191C9B20591F749FB
:100BD00001240978079101468D79CA79002B15D136
:100BE0008178491CC9B2817096290FD3F049C4702D
:100BF0000C704C704C238B704123CB7037230B71DE
:100C0000059B4B71079B8B71CD710A72837C002110
:100C1000002B09D0437C5B1CDBB243740F2B03D346
:100C20004174FF2303718174E24B1E78002E63D060
:100C30000021DC48197084744174DF490C70C3785A
:100C4000DE48002B0178009101D1F0292ED00F074A
:100C5000DA493F0F0B79049349790691072F06D0A3
:100C60000B2F04D0AB4247D10699914244D1009951
:100C70000F2905D00B09CB490E79B3423CD00B713B
:100C8000CF483B0040780390CD4800780290CB4895
:100C90004678C178807806F0C1FA102F0C0C1A2F14
:100CA000313989FD2FFCFBFAF9F8F72FC0480470A1
:100CB00002E0BF480221017044704C218170412143
:100CC000C17037210171059941710799A9E10A2E77
:100CD00001D9FF2E10D11C280ED8B94D002E2E7030
:100CE000EC7009D0FF2E05D0A87000F0A9FB287881
:100CF000687008E10398287009B0F0BD0C28FBD893
:100D0000B0498871B0484C71047071E1330006F04D
:100D100085FA08060BF9171A2D384505ECE7A249A4
:100D200000200880A1490CE001990029E4D00028A6
:100D3000E2D09E490880FE21A1480170C470DBE723
:100D4000994908800DE00199974A0029D4D0974924
:100D50000880019B984204D2002010800880FF2167
:100D600000E0FD2196480170C470CCE0974900284E
:100D700005D0002008709448FC210470DCE70C705A
:100D8000F9E78B480221017006214170817090497A
:100D90008978C17000210171417142E112225043F2
:100DA0008B4A908012204143D180ACE07D4BDF7BA9
:100DB0001B7B012F9C467B4B5B7B00930DD07C48BB
:100DC0000221017008214170042181700021C1704D
:100DD000017161464171837124E1724F0023FB73FD
:100DE00046400498754F414006984E40864211D0C7
:100DF0007348FF210170C4706D4802210170082101
:100E00004170042181700021C170017161464171FE
:100E1000009906E1002001467F1C7B5C1B025840C4
:100E20000023C60B03D06B4E4000704000E0400032
:100E30005B1CDBB280B2082BF3D3491CC9B2042976
:100E4000EBD361460B020099564E591889B2814284
:100E5000CED16046000901F055FB5F4D2870307B14
:100E60000007000F01F04EFB6870707B000901F075
:100E700049FBA870707B0007000F01F043FBE8708E
:100E80004B480821047006E029E10BE1E1E050E065
:100E90003CE02AE012E04170032181700021C17022
:100EA0000171327B4271737B8371B579C571F579BC
:100EB0000572B271F3713173717352E7012E21D053
:100EC000022E00D018E7374BDC7318735973384B78
:100ED00002241C70009E5E709C700024DC701C71EB
:100EE00058719971DD711A7206E7032EEAD8002E47
:100EF000E8D00828E6D832490A360E704E70CC7019
:100F00008870A3E074E030480470F5E602992C483C
:100F10000029D7D00E2902D00E210170C4702F48AD
:100F2000314906702E4804702E4804700020088055
:100F3000E2E6224BDB785F00DB192C4F0093DF19D0
:100F4000330006F06BF90A071D55575F7272727213
:100F50007206D1E60529B5D200280BD023480099A6
:100F6000445478780028CED1154803997970807858
:100F7000B870C8E71D49009A002088547870C2E70D
:100F800005299FD219480099405C00289AD00C4D41
:100F9000787868702870B878A87000F051FAEC7012
:100FA000B1E70000150000204600002048000020A6
:100FB0009800002004000020680000200F0000209E
:100FC0002A0000205E0000204F0000205100002079
:100FD00052000020211000000600002072000020B6
:100FE00073000020740000207C000020B500002069
:100FF000FB21A1E6052988D24A490098085C00280F
:10100000F6D179E6052993D24748022303700C23D1
:10101000437004238370C17079780171B97841718C
:1010200000218171C571027266E6761FF2B253002B
:10103000D3183C4AD55C002D00D1D4549A18507076
:1010400091703A4A507010709170084600F0F8F9AB
:1010500059E70D21002E16D0012ED2D1324802229E
:10106000027041703249097881703249C97AC17081
:101070001921017121214171182181715721C171FB
:101080004321017238E628480223037041704C2145
:1010900081704121C1703721017105994171264943
:1010A0008979BEE70C090D0724492D0F0A78B24251
:1010B000A7D1234A1226D27813091207120F7343BD
:1010C0007243AC4203D08C88E41AA4188C80019C33
:1010D000A04296D28888C01A801888800CE6154BEA
:1010E000301F1D7C174A030006F098F80A07070C0A
:1010F0000C0C070707070706FEE502990B48B142EB
:1011000009D0F9E5029B0948B3428DD1019B002B20
:101110008AD0012988D10749002D85D1C4700C746B
:101120001470E9E5B5000020980000202A00002096
:101130005A000020150000205E0000205200002010
:101140000F0000204E000020F0B5AC48AD4EC37833
:10115000AB48AE490778AC48AD4A91B0012B5ED0A0
:10116000AC4BAD4C1F8823786578A4785B1CA646F1
:10117000AA4CDBB29C466D1C2478EBB20E937346EE
:101180005B1CDBB20D9333461B78641C5B1CDBB22B
:101190000C93E3B2039303461C78631DDBB20B93FD
:1011A0000B461B78DD1FEDB20A9515462D78AE462D
:1011B000AD1FEDB2099525460935EDB20895DD1D47
:1011C000EDB2079575462D1FEDB20695651FEDB280
:1011D00002951D460835083BEDB2DBB20595E41FCC
:1011E0001093E4B2864B75460494ED1C1B78EDB267
:1011F0005B1EDBB20193884B6446002F1C703AD013
:10120000042C0AD300241C70854BDF88854B1B8877
:101210009F4271D983485B1C038011B0F0BD774BAE
:101220000024DC707C4B1C705C709C703470052357
:1012300073700323B3707C4B7C4E1C7002E07455BA
:101240006D1C1D701D78BD42F9D304700C7073487D
:10125000147004707648784D0470724804807548A4
:1012600004802878002804D1002211461046FEF799
:10127000E9FF2C70D1E7042CCFD300241C700E9F03
:101280005F701E2F15D35C700D9F9F70002F10D0C4
:101290009C700C9B3370052B0BD934705F4B039FF4
:1012A0001F70052F05D91C70544F0123FB70604F30
:1012B0003B703678330005F0B1FF0604090E141AAE
:1012C000202414700B9B03700A9B0EE00C70099B8A
:1012D0001370089B0EE00470079B0B70069B137045
:1012E0000FE01470029B0370059B0B7009E00C70FB
:1012F0001570049B037004E01DE00470109B0B70DC
:101300001570494B019C10E06300E5184B4BEF183A
:101310003B46203BDE7FBE70BC46484E5F7F775524
:101320009B7F67467B70404B641E1C703E4B1C7855
:10133000002CE9D15AE0384B0E9F5F701E2F15D359
:101340005C700D9F9F70002F10D09C700C9B3370B1
:10135000052B0BD93470314B039F1F70052F05D916
:101360001C70264F0123FB70314F3B7036783300E1
:1013700005F054FF0604090E141A1F2314700B9B6A
:1013800003700A9B0EE00C70099B1370089B0EE023
:101390000470079B0B70069B13700EE01470029B89
:1013A0000370059B0B7008E00C701570049B0370B4
:1013B00003E00470109B0B7015701B4B019C10E038
:1013C0006300E5181D4BEF183B46203BDE7FBE70E7
:1013D000BC461A4E5F7F77559B7F67467B70124BEA
:1013E000641E1C70104B1C78002CE9D10378134844
:1013F000037009788170117841700EE72A0000208F
:101400005000002084010020320000203300002022
:101410003400002046000020F40000203F0000209F
:10142000520000204A00002030000020140200205A
:101430001A0000204C0000204E000020C4030020B1
:10144000F8B50146FA4800240078FA26F94D2746F7
:101450000A2878D9F84A0C2010700B0005F0DEFE3F
:1014600007154C7DA2D6FF051400F44861006118F1
:10147000425C6A540A18491953784B70641C92787C
:10148000E4B28A70102CF1D3F8BD05212046FEF796
:1014900039FE002908D001290CD0022910D00329D7
:1014A00016D004291CD022E0600020182F544019C7
:1014B000467013E0600020182E54401947700DE06C
:1014C0006100C8206118685449194E7088700EE098
:1014D000600020182F54962140194170877006E053
:1014E0006000962120182954401946708670641CAB
:1014F000E4B2102CC9D3F8BD07212046FEF702FE46
:1015000000290CD0012912D0022908D003291BD0B0
:1015100004290CD0052902D0062908D00EE060006D
:1015200020182E54322140194170642105E06000DA
:1015300020182E544019477032218170641CE4B287
:10154000102CD9D3F8BDC3E06000642120182954C1
:10155000C821401941708770F0E7A00709D0A007A3
:10156000800F01280CD0022810D0E043800707D05C
:1015700013E0600020182E544019477087700CE06B
:10158000600020182F544019477005E06000962134
:1015900020182954401946708670641CE4B2102C3F
:1015A000DBD3CFE705212046FEF7ACFD002908D0AC
:1015B00001290ED0022911D0032917D0042920D0E7
:1015C0001AE0600020182F544019467032218170B3
:1015D00012E0600020182E54322104E060006421E3
:1015E00020182954C8214019417004E060002018D7
:1015F0002E54401947708770641CE4B2102CD1D36C
:10160000A0E7600020182E549621ECE7A00712D026
:10161000A007800F012815D002281BD0600064218C
:1016200020182954C821401941708770641CE4B205
:10163000102CEBD386E7600020182F544019467019
:10164000F3E70CE0600020182F5440194670322157
:101650008170EBE7600020182F549621E3E7092101
:101660002046FEF74FFD002910D0012913D0022992
:1016700029D0032914D004290DD005291CD006290E
:1016800009D007291FD008290AD010E060002018CF
:101690002E54322101E0642103E04019417010E032
:1016A0003221600020182954401947708670641C4C
:1016B000E4B2102CD3D345E7600020182F54401912
:1016C00046708770F3E7600020182F549621E4E7F6
:1016D00010290BD2480009185848425C2A70081893
:1016E000417869708078A870012175E01039042074
:1016F00003220B0005F092FD0D091622333E497CB2
:1017000087A4B1EBFBF908001CE72F7032206E7044
:101710006421A870E970C8232B716F71AE71E871F4
:10172000297224E02F706E70AF70EE702F716F71A0
:101730006421A971C821E9712F72E1E032212E7074
:101740006970AF70EE7096222A716F71AE71E97197
:101750002F726E72AF72EE7237490870F2E6962001
:1017600028706E70AE70EF702E716E7147E0324867
:101770000270E7E62E706F70AF70EF702E716F71B0
:10178000C820A871EE712872F1E707212046FEF704
:10179000B9FC00290CD0012912D0022908D0032954
:1017A0001DD004290CD0052902D0062908D00EE04E
:1017B000600020182E54322140194170642105E048
:1017C000600020182E544019477032218170641C2B
:1017D000E4B2102CD9D3072117480170B2E660009B
:1017E000642120182954C821401941708770EEE700
:1017F0002E706F70AF70C820E8702E716871AF7175
:10180000EF712E72B3E72F706E703220A870EE70F9
:1018100028716F71AE71EF712F7264206872C820E9
:10182000A872EF7296202E736873AF730521D3E709
:101830002A000020C40000202E000020687600004E
:101840002F706E70AF70EF702E713220687164204F
:10185000A871C820E8712F7289E709212046FEF798
:1018600051FC002910D0012913D002292AD00329C4
:1018700014D004290DD005291DD0062909D0072927
:1018800020D008290AD010E0600020182E54322100
:1018900001E0642103E04019417011E03221600051
:1018A00020182954401947708670641CE4B2102C2B
:1018B000D3D3092050E7600020182F5440194670F8
:1018C0008770F2E7600020182F549621E3E72E700E
:1018D0006F70AF70EE70322129716F71AE71962109
:1018E000E9712F726E72AE720DE00EE0FFE72F709D
:1018F0006F70AE70EF702E716F71AF71EE712E72EE
:101900006E723221A972EF7226E7084861006118F1
:10191000425C6A540A18491953784B70641C9278D7
:10192000E4B28A700C2CF1D30C2015E76876000025
:10193000F0B52D482D4A84790123002C05D0467935
:10194000851E0021012E0BD016E028482038016AA0
:10195000890104D5016A8402A14301629360F0BD4C
:10196000417141708170C170017129801668012731
:10197000BF073E43166093609668F607F60FEED0F9
:1019800093602A881A4E521C92B22A80B24201D326
:101990002980F0BD8278521CD2B282703C2A0ED3CC
:1019A0008170C278521CD2B2C2703C2A07D3C17077
:1019B0000279521CD2B20271182A00D30171427806
:1019C000002AE6D18278002AE3D1C278002AE0D149
:1019D0000279002A05D0A242DBD102220270C17135
:1019E000F0BD0370C371F0BD5E0000202000014017
:1019F000E62D000030B5154A154800211368435400
:101A000093695B0403D4491CC9B21429F6D3012598
:101A1000022402290F4B017802D0FD290CD00EE0E0
:101A2000FD2905D14178F02902D18078FE2801D026
:101A30005C7030BD5D7030BDC079FE2804D05C7034
:101A400090682043906030BD5D70F9E7000005406C
:101A5000A10000200400002030B5124A0020547874
:101A6000002C1DD00021104B012C07D0022C17D1C7
:101A70001954401CC0B21428FAD310E00124147089
:101A8000084C0B341D186D782554401CC0B2062834
:101A9000F8D300201954401CC0B21428FAD3517056
:101AA00030BD000004000020A100002030B5284B0C
:101AB00000201C78002C16D02649012C14D00022BE
:101AC000254D032C25D0042C31D0022C0BD1FD2424
:101AD0000C601C1864780C60401CC0B20828F8D355
:101AE000FE2008601A7030BDFC220A604C220A6099
:101AF00041220A6037220A60174C241F225C0A60C8
:101B0000401CC0B20428F9D3FE20086002201870DF
:101B100030BD1A70FA230B600A600A600E220A6058
:101B20002A5C0A60401CC0B20528F9D30CE01A7088
:101B3000FA230B600A600A600F220A602A5C0A60BE
:101B4000401CC0B20528F9D3FE20086030BD00005B
:101B500098000020000005400A00002010B500F0A9
:101B6000C1FE0D490B78002B0ED0002201240B483A
:101B7000012B02D0022B04D006E00A7041780170DC
:101B800001E00A700270C47001F0DAFD05F0E2F8BD
:101B9000FFF714F810BD00005E0000202A000020AE
:101BA000F0B52A4B2A4DD8780024012805D0287892
:101BB000032819D2401C2870F0BD2648DC70047040
:101BC000254E264F002234703C7011461046FEF719
:101BD00039FB23482C7004701E48FF2101703470BB
:101BE00020483C700480F0BD002028701E481F492A
:101BF0000578681E08701E480DE0610066183218EE
:101C0000114620394F7F8755CE7F9670897F51705E
:101C10001649641E0C7015490C78002CEDD10D4945
:101C2000097801700C49097881700C490978417074
:101C30000C480188491C89B20180A942D3D90021EE
:101C40000180587818700120D870F0BD2A0000205B
:101C50003B00002032000020330000203400002030
:101C6000840100204C0000205000002030000020A3
:101C7000C40300200A492222CA604860012008618A
:101C80000869C007FCD10868400606D508684022EC
:101C9000104308600020C0437047002070470000D8
:101CA00000C00050024801680122114301607047E2
:101CB00000C0005005490022CA6048600120086148
:101CC0000869C007FCD188687047000000C0005058
:101CD000054A2123D3605060916001201061106992
:101CE000C007FCD17047000000C00050F8B50124C7
:101CF000240502F0B3F9FFF7D5FF38490868202220
:101D0000104308602046FFF7D5FF354C607035481A
:101D1000FFF7D0FFA0703348001DFFF7CBFF32491B
:101D2000887130480830FFF7C5FF304908702D48EA
:101D30000C30FFF7BFFF2E49C0B208802948103091
:101D4000FFF7B8FF2B49C0B2088026481430FFF7D0
:101D5000B1FF2949087023481830FFF7ABFF274926
:101D6000087020481C30FFF7A5FF254908701D4862
:101D700020300446FFF79EFF2249234E08700025BD
:101D8000241D2046FFF796FF69006F18F055241DAB
:101D90002046FFF78FFFBF197870241D2046FFF7FC
:101DA00089FF6D1CEDB2B870052DE9D3201D0446E6
:101DB000FFF780FF154D241D28702046FFF77AFF9E
:101DC000A870241D2046FFF775FFA880201DFFF78F
:101DD00071FFE8800E4900200860F8BD00C0005087
:101DE0002A000020040010005E00002051000020A6
:101DF00046000020480000201D0000201B0000209D
:101E00001C0000201F000020B50000205200002010
:101E100000010050F8B53E4801240178240501294D
:101E200075D10021017002F019F9FFF73BFF394825
:101E300001682022114301602046FFF71BFF364D49
:101E400020466978FFF744FF201DA978FFF740FF7F
:101E5000334932488979FFF73BFF30483149001D4B
:101E60000978FFF735FF2D482F4908300988FFF71B
:101E70002FFF2A482D490C300988FFF729FF2748F2
:101E80002B4910300978FFF723FF244829491430E3
:101E90000978FFF71DFF2148274918300978FFF717
:101EA00017FF1E4825491C3004460978FFF710FF2C
:101EB000234E002568002F18241DF15D2046FFF7F2
:101EC00007FFBF19241D79782046FFF701FF241D65
:101ED000B9782046FFF7FCFE6D1CEDB2052DE9D365
:101EE000184D241D29782046FFF7F2FE241DA978FD
:101EF0002046FFF7EDFE241DA9882046FFF7E8FEE7
:101F0000201DE988FFF7E4FE0F4900200860F8BDB6
:101F10004F00002000C000502A00002008001000E0
:101F20005E000020510000204600002048000020F4
:101F30001E0000201B0000201C0000201F000020AD
:101F4000B50000205200002000010050F0B5FE480E
:101F5000FF4FC178FD48FF4C00888BB0012909D0A4
:101F6000002870D0FC48017808296BD2491C017008
:101F70000BB0F0BD0025F4490028CD7004D0F7481F
:101F8000007800282AD02EE0002211461046FEF7E5
:101F900059F9F34C257016E0F24E3088411C31801F
:101FA000FEF7E3F8308811303080FEF7D5F8C0B284
:101FB0001E21FEF7A7F8EC4A20781154EB493D5456
:101FC0000D54401C2070EA48217800788142E3D308
:101FD000E14832210170E74805702FE000221146E8
:101FE0001046FEF72FF9DC483D700570E2481921D4
:101FF0000580E2480580E2480570E2480570E24845
:1020000025700570E148E34C0570E14805702078C3
:10201000FEF778F881004018DF49087060781921D0
:10202000FEF770F881004118DC480170A078192192
:10203000FEF768F881004018D9490870C748057054
:1020400096E700E0DFE0C64800210170C84ED3E00B
:10205000D44920460978FEF755F8CD48017048006C
:102060000D18CC481921405D0090FEF74BF8CA4985
:1020700008700490C74819212D1868780390FEF75E
:1020800041F8C64908700690A87819210290FEF719
:1020900039F80546C2480570385D002815D001287A
:1020A00051D00228B1485AD0015DAF4A491CC9B28B
:1020B0000155125D914245D9002101556000BA4990
:1020C0002018095C002971D167E0A848A64A015D83
:1020D000491CC9B20155125D914233D90021015505
:1020E00005210098FEF70EF8014660002018AE4A60
:1020F0000790105C0090814213D805210398FEF7E9
:1021000001F80246A848079908180390807882428F
:1021100007D805210298FDF7F5FF03994978884211
:102120000ED9049A0099A0488918079A81540799F2
:10213000081882780699511881704178491940E051
:102140000120385554E0600097492018009A0A543D
:102150004018039A8270029941700220F1E7015DF4
:102160007D4A491CC9B2015512787D4D91423FD933
:1021700000210155032038557A4C2088FDF7F5FFE2
:10218000208811302080FDF7E7FFC0B20A21FDF75B
:10219000B9FF75482A7881542AE0834A83189A78CF
:1021A000002A03D15B786E4A002B0CD0049B7E4A38
:1021B000C91A1154801882780699511A8170417891
:1021C000491B417014E000203855664C15462088A4
:1021D000FDF7CBFF208811302080FDF7BDFFC0B296
:1021E0001E21FDF78FFF604A2878115400213954D1
:1021F0005B480178491C01705948317804788C4259
:1022000000D225E7B4E60021017068488188C688BD
:1022100057484D08007809903218574808920188AD
:10222000481C80B2954201D3AB1A02E0AE4205D3FE
:10223000731B514A8B4201DD108099E64448524994
:1022400007785548524B0078002F84465348007851
:1022500006905348007805900A783E484B4900782C
:1022600009781B7802D0012F63D11BE05F00DB19D6
:10227000484FFF5C874207D8464FDF197B7893426F
:1022800002D8BB788B420AD960442070069B3E4836
:10229000D2180270059A3D488918017049E02C490E
:1022A000012045E0074617430F430BD06346C01A91
:1022B0002070069B3448D21A02700598334A081AD7
:1022C000107036E02248002202705B1C3048D9B200
:1022D000344B01701B7899420DD3294902700B7859
:1022E0005B1CDBB20B70052B05D90A70164A012165
:1022F000D170244A117000784100471825481921EF
:10230000C05DFDF7FFFE81004118234801702148A0
:1023100019213F187878FDF7F5FE810040181F4914
:102320000870B8781921FDF7EDFE810040181C49AE
:1023300008700F4908980F787F1E854254D30849CA
:102340000020087018483EE02A00002046000020C7
:1023500084010020320000203B0000204E000020BD
:10236000300000202800002014020020F40000208B
:1023700050000020310000204A0000204C000020C6
:102380003F0000201A00002033000020340000200D
:1023900039000020C4000020360000203700002053
:1023A000380000202E000020C4030020520000202E
:1023B0005300D5182B18DE7846555D799D701D7930
:1023C0005D70521C0A700A78BA42F1DB09992278D2
:1023D0004B00C918081820382F4942770978C1776F
:1023E0002E4909788177C3E52D480078401EC2B296
:1023F000AE4215D32B4B2C481A700CE069006E18B6
:102400003218114620394F7F8755CE7F9670897FCD
:1024100051706D1E1D701D78002DEFD1217833E0B5
:102420002049002008701E480078401EC30F18186D
:1024300045100CE048001C4B0E18F018C7789F554B
:1024400043798370037943701648491C017015481D
:1024500001788D42EEDC0270134A0DE058001E1820
:10246000B11808462038477F9755C67F8E70807F09
:1024700048700C485B1E03700A4803789D42EDDBF0
:102480006800217828188018017003490978817044
:102490000249097841706BE53300002034000020C8
:1024A0005000002030000020C4030020F0B50023BD
:1024B0000125944603272A469A400A4209D0066815
:1024C0005C003A46A2409643224664469440264326
:1024D00006605B1C082BEED3F0BD0000044603A091
:1024E00004F08CFE204605F06BF8FEE7496E2048AC
:1024F000617264204661756C742048616E646C651D
:10250000720A00000F2801D90007000F0A2801D223
:10251000303000E03730C0B270470000F0B53A4BC1
:10252000FF24D8780025012806D0384801780329EF
:102530001BD2491C0170F0BD354EDD70354F357032
:1025400035483D700022057011461046FDF77AFEB1
:102550002E480570314805703148058031480580A6
:1025600034702D483D700570F0BD002101702E487B
:10257000C2882B4801888A4202D9491C0180F0BDDB
:102580002A482B490078401E08702A480DE069004F
:102590006E183218114620394F7F8755CE7F9670BE
:1025A000897F517022496D1E0D7021490D78002DD3
:1025B000EDD1174A174D117801702978164E8170A8
:1025C000317841701749184F0888401C80B2088044
:1025D000BF888742D3D20020088010490F78002F8F
:1025E00006D0012F09D0587818700120D870F0BD9E
:1025F00010702C703070012003E01070287034705F
:1026000002200870F0BD00002A0000203B000020DE
:10261000320000203300002034000020840100201C
:102620004A0000204C0000205200002050000020F2
:1026300030000020C4030020F8B595489649C278C0
:102640009448964D00780026954C964F012A60D00C
:102650000A78521CD2B20A70052A59D30E709249D8
:102660000B7892490A78511CC9B2012B7ED0824264
:102670007DD28F490888113080B20880FDF775FD42
:10268000FDF76AFD8349C0B20978FDF73BFD894833
:102690000170785C0128ECD086480121007839541B
:1026A000854943000978C0184A008918834A525C5A
:1026B0002A54824A401989184A7882708978417070
:1026C0007A480178491C0170784801783C291FD369
:1026D00006707948744A0178491CC9B201701278B1
:1026E00091420DD3067076480178491CC9B2017039
:1026F000052905D9067066490120C870714908701E
:10270000267020783E54401CC0B220702428F8D394
:10271000F8BD5F4AD6706C4A16700E706B490E7029
:1027200065490E706A490E7060490E70267002E0AD
:102730007E54491C217021788142F9D365490A7879
:10274000002A1BD00E705D4C19212078FDF7DAFCB1
:102750006149087060781921FDF7D4FC5F49087061
:10276000A0781921FDF7CEFC5D4901E014E08CE072
:1027700008705448067052480670F8BD267007E08D
:102780004A008A18AE54521996705670491C21702E
:1027900021788142F4D3D6E74B4B1B78002B03D032
:1027A0002878002847D140E082423CD2404908883E
:1027B000113080B20880FDF7D8FCFDF7CDFC35491B
:1027C000C0B20978FDF79EFC3A480170785C012898
:1027D000ECD0384801210078395437494300097852
:1027E000C0184A008918354A525C2A54334A4019A5
:1027F00089184A788270897841702C480178491C80
:1028000001702A4801783C29B7D306702E48017818
:10281000491C0170267020783E54401CC0B22070C4
:102820003C28F8D3F8BD2148EAE7A878002802D16F
:102830006878002819D02670274A28492848137834
:102840000F7802782078410041186E5C401CF61A1F
:102850006E5449198E78C0B2F61B8E704E78B61A37
:102860004E7020702428EDD3F8BD17480670144828
:102870000178491CC9B201700A29F5D906701149BD
:10288000012008700249C870F8BD08481BE7000025
:102890002A000020500000203B000020C40300203C
:1028A0002F000020340300202E00002040000020D4
:1028B000280000203000002039000020C400002043
:1028C0003F0000201A000020840100203100002079
:1028D000140200204E0000203600002037000020A7
:1028E00038000020F8B5414900220F784048012403
:1028F000012F29D03F4B41491B780E783E4D9C4615
:10290000B6464B78AE791B01ED79022F4BD0032FE1
:1029100019D1364F3A7002228A70394F242139700A
:102920003849FD270F70CC700470032036499B1C7A
:102930000870364871460170614641708370C670F8
:1029400005712E484270F8BD2E4D0A702B7829462D
:102950000B264978002B10D00470AB785B1CDBB2DF
:10296000AB70062B0AD9491CC9B2AA7069702970CC
:102970000D2903D96E702A7010E0297069780B292F
:1029800006D00C2904D00D2902D06E702E70047070
:10299000A978062902D90621A9700470A878FEF743
:1029A0004FFDEC70F8BD114F3A708A78921CD2B28C
:1029B0008A70042A04D9134FFD223A7002228A70C9
:1029C0000E4912278A78114679430D4F39700D4907
:1029D000CC7004700C49032008700C4871460170DB
:1029E0006146417099188170A9E70000030000203A
:1029F0004F0000204600002015000020520000205B
:102A0000500000202A000020980000200A0000202A
:102A10001648426B164801230178002A03D04278F9
:102A2000114319D01CE0002902D04278002A12D1AB
:102A30008278521CD2B28270642A04D9002902D151
:102A400003700221C170FA2A05D94178002902D108
:102A500043700321C17070478178012900D9C37088
:102A600000218170017041707047000000420050E9
:102A70000000002070B543480188841C113101809A
:102A800020780A2846D008DC030004F0C7FB0A259A
:102A9000282B2E3134373A3D401AFB2849D008DC28
:102AA0000B283AD00C283BD00D283CD00E2808D15A
:102AB0003CE0FC284AD0FD283ED0FE2849D0FF2823
:102AC00040D00A20207020780B38032858D82F488F
:102AD00024242D4D067851E0FDF712FCF3E704F0B5
:102AE00003F9F0E7FDF7CCFCEDE704F017F8EAE7AF
:102AF000FFF7A2FDE7E701F0CDFAE4E701F0C0F847
:102B0000E1E700F0CBFFDEE7FFF720FADBE700F0BC
:102B100039FED8E7FEF718FBD5E701F0C5FBD2E791
:102B200002F09CF8CFE702F0FBFFCCE700F02AFBB5
:102B3000C9E7FA22002101E00022FA210020FDF776
:102B400097FBC0E700221146FA20F8E7FFF728F8C4
:102B5000B9E7FFF7E3FCB6E724212046FDF7D2FAF8
:102B6000480008182A5C610061186A544019491924
:102B700082788A704078641C4870A4B2B442EBD367
:102B800070BD000028000020C40300205000002079
:102B9000F8B53F48002500784100471804F016FAC0
:102BA0003C4E3D4C6FE030780321761CFDF7AAFACD
:102BB00000210A46C3092DD00123236100BF00BFB5
:102BC00000BF00BF00BF00BF00BF00BF00BF00BF0D
:102BD00000BF00BF00BF00BF00BF00BF00BF00BFFD
:102BE00000BF00BF00BF00BF00BF00BF00BF00BFED
:102BF00000BF00BF00BF00BF00BF00BF00BF00BFDD
:102C000000BF00BF00BF00BF00BF00BF00BF00BFCC
:102C1000226120E00123236100BF00BF00BF00BF8D
:102C200000BF00BF226100BF00BF00BF00BF00BFE8
:102C300000BF00BF00BF00BF00BF00BF00BF00BF9C
:102C400000BF00BF00BF00BF00BF00BF00BF00BF8C
:102C500000BF00BF00BF00BF00BF00BF00BF00BF7C
:102C600000BF00BF00BF00BF00BF00BF00BF00BF6C
:102C700000BF00BF00BF4006491C000EC9B20829B2
:102C800098D36D1CADB2BD428DD300202061F8BD3C
:102C900050000020740500204042005070B5FDF740
:102CA000BBFE01F0E9F90321274809020160016830
:102CB0000222114301600124446001688022114313
:102CC0000160224800250560214E03228021304604
:102CD000FFF7ECFB1E48032220214030FFF7E6FB04
:102CE000012240213046FFF7E1FB19480122102163
:102CF0008030FFF7DBFB17480561164840388461D8
:102D0000154C1421204604F03DF960681021084359
:102D100060600802114908604B21C901204604F097
:102D2000F1F8B40032227103204604F0BFF82168A4
:102D3000A003014321600A4921620A4961620A49EC
:102D40000A6802430A6070BD004000400001005064
:102D500000400050404200500000054000E100E00B
:102D6000FF0000081BB7000020000140F8B5364DF9
:102D70000024E879012824D1EC710321287AFDF799
:102D8000C1F968720D2801D90D2068722F48314FA2
:102D900004702F480470687A41004618B85D192104
:102DA000FDF7B0F92C49F619087070781921FDF774
:102DB000A9F92A490870B0781921FDF7A3F9284923
:102DC00008702A7927482849012A12D0047002780D
:102DD0005300D318CC545B18521C9C70D2B25C7058
:102DE0000270242AF3D3EC7000202C70C043A87129
:102DF000F8BD174A13785B1C1B061B0E1370F7D027
:102E0000124B14701A78192A1BD2521C1A700470B3
:102E1000114D124C124B2D7824781B785543544396
:102E20005A43EDB2E6B2D3B20278540014190D55EC
:102E30006418521CA670D2B263700270242AF3D3B5
:102E4000F8BD2C71F8BD0000720000204400002085
:102E5000F400002019770000360000203700002021
:102E60003800002030000020C4030020F8B53B49A2
:102E70003B4BCC793B4A0020012C0ED1C87110701D
:102E800018700C7A4C72384C2070384CE5786D1CF8
:102E9000EDB2E5700C2D00D3E0700C79012C05D05B
:102EA000C87008700020C0438871F8BD1C78641C8D
:102EB000E4B21C70042CF8D3187015782C4C2D4EED
:102EC0000C2D3CD22C49062D1DD20D702070C0B2A5
:102ED00006210746FDF716F9A9420ED12348274BD4
:102EE000C078410041185A5C780038183254C9182B
:102EF0004A7880198270897841707F1CF8B22070FE
:102F00002428E4D317E0AA1FD7B20F702070C0B2F4
:102F100006210646FDF7F6F8B94207D1710072188E
:102F2000144900208854511888704870761CF0B2FB
:102F300020702428EBD30B486D1C0570F8BD207061
:102F400022785300D318F0549B19521C9870D2B2B7
:102F500058702270242AF3D30871F8BD7200002043
:102F6000F40000204400002084010020A40200207E
:102F700030000020C40300203A0000201977000030
:102F8000F0B5434E434BF079434D444A00240128A9
:102F900005D1F471307A70722C705C7014703779CE
:102FA0003F494048012F0FD01F787F1CFFB21F7090
:102FB000022F25D31C702F783B0004F02FF9082531
:102FC000282D3135393D41442B462A78757AAA425D
:102FD00017D20470344D54001619AC5D761975780B
:102FE000B77803785E009E198C5576185B1CB57017
:102FF000DBB277700370242BF3D32748521C027086
:10300000F0BD34711C70F0BD0123137002E0072382
:10301000137002232B7028E0042313700323F9E7B5
:10302000062313700423F5E7022313700523F1E749
:10303000032313700623EDE7052313700723E9E745
:1030400014700823E6E7047003785D005D194C55A1
:103050006D185B1CAC70DBB26C700370242BF3D367
:1030600034700023F470DB43B3710470137802787A
:1030700055076D0F9D4205D1550055194C556D18DA
:10308000AC706C70521CD2B20270242AEFD3F0BD27
:1030900072000020F4000020440000208401002081
:1030A000C4030020300000209E760000F0B52D4BB8
:1030B0002D4FD8792D4D2E4E0022012818D1DA71CE
:1030C0003A702A70187A58722A488178491CC9B215
:1030D00081700C2900D3827081783478A14205D1A7
:1030E000491CC9B281700C2900D38270807830707D
:1030F0001C7921482149012C14D002700478650004
:1031000065194A556D18641CAA70E4B26A7004709F
:10311000242CF3D3FF203070DA7000201A70C043E3
:103120009871F0BD2C78641CE4B22C700F2C02D383
:103130002A701A713A7002703378114A5C001B19B8
:10314000D55C9A18567893780278540014190D5566
:103150006418521CA670D2B263700270242AF3D392
:10316000F0BD00007200002044000020F4000020A8
:1031700039000020A402002030000020C4030020F9
:1031800019770000F8B53E4C6078002865D060895A
:103190000025401C81B23B4801266181FA2904D3F5
:1031A00065700A210170C67002E0C178012923D13F
:1031B000C57035483549057002785300D318CD5491
:1031C0005B18521C9D70D2B25D700270242AF3D33A
:1031D0002F4B304F0570304A017855545D542F4ABB
:1031E0007D545554491CC9B201702429F3D32C498C
:1031F000FF2008702B480570A07801281ED1A5700B
:10320000207805210746FCF77DFF40B2607106215A
:103210006156814204DDE278002A0FD1002F0DD9DA
:10322000032801D0052804D1884202D1217901293F
:103230000FD0E6712671A071E77027720521207A00
:10324000FCF760FF030003F0E9FF0606090C0F120C
:103250001518E571EEE7FFF789FDF8BD00F024F8D9
:10326000F8BDFFF723FFF8BDFFF700FEF8BD00F043
:10327000A1F8F8BDFFF784FEF8BD00F0C5F9F8BD70
:10328000720000202A00002030000020C40300202B
:103290008401002034030020F4000020A402002058
:1032A0003900002014020020F0B53A4C3A4DE27982
:1032B0003A4900203A4B012A17D1E07108701222D6
:1032C0001A70384A5678761CF6B256700C2E00D317
:1032D000507056782F78BE4205D1761CF6B25670E3
:1032E0000C2E00D3507052782A7027792E4E012F61
:1032F0002E4A0F781ED07F1CFFB20F70022F18D3FA
:103300000870197800293ED0491EC9B219704B00C7
:10331000CB18D0549B18987058702323591AC9B2EF
:1033200031704B00C9185054891888704870FF20BC
:103330002870F0BD7F1CFFB20F70032FF9D3087007
:10334000197800291BD0491EC8B218702978184C6A
:103350004B00CD18615D4300C318D1542D196C7812
:103360009B189C70AD785D702323181AC0B2307022
:103370004300C0181154801884704570F0BD20714E
:1033800012201870F0BDE07020700020C043A071C2
:10339000F0BD00007200002039000020F400002081
:1033A00044000020A402002030000020C4030020BC
:1033B00019770000F8B58949894BC879894A0128ED
:1033C0000DD10020C871884C187020700C7A4C7296
:1033D0001479641CE4B214710C2C00D310717F4872
:1033E0000079012873D17E48804B0078804F814955
:1033F000002807D0012837D002286BD00878002891
:1034000067D19BE0002477493C700C79774A6100D2
:1034100061188C468B183978CA070BD1734A6546F8
:10342000565D4A008D18734A56555E78AA189670F4
:103430009D785570491CC9B239702429EBD36A4A6A
:103440001178491CC9B211700C2976D30021117072
:10345000634A401C1070641C6248E2B202710C2A7C
:1034600000D301710179B6E000245E493C700B790C
:103470005E4A590059188C468A183978CC070BD007
:103480005A4C6546665D4C000D195A4C6655567887
:103490002C19A67095786570491CC9B23970242919
:1034A000EBD351490A78521CD2B20A70082A44D38D
:1034B00010220A704A49401C08705B1C4948D9B266
:1034C00001710C2901D300210171C9B283E034E0FC
:1034D00000E039E000243C70127954001219D4182D
:1034E000A57864789A5C3B785E009E198A557618B8
:1034F0005B1CB470DBB275703B70242BF3D33A497C
:103500000B785B1CDBB20B70082B16D310230B70EF
:103510003349401C087019211046FCF7F3FD364969
:10352000087019212046FCF7EDFD34490870192177
:103530002846FCF7E7FD32490870F8BD8878002876
:1035400002D1487800283FD0002038702A4B2B4AFF
:103550002B481B78127800783C78650065194E5D21
:10356000641CF61A4E556D18AE78E4B2B61AAE70F9
:103570006E78361A6E703C70242CEDD30C78002CCB
:1035800005D18C78002C02D14C78002C1CD0002462
:103590003C70E4B2650065194E5D641CF61A4E5528
:1035A0006D18AE78E4B2B61AAE706E78361A6E70D8
:1035B0003C70242CEDD308780028BED188780028F0
:1035C000BBD148780028B8D104480021C1700170EF
:1035D000491E8171FF210B480170F8BD7200002067
:1035E00044000020A4020020F4000020197700000D
:1035F00030000020C40300203600002037000020E7
:103600003800002039000020F8B5424E0024F0793F
:103610003146414D0F7A012823D1F47177723F4929
:1036200038462C701D3808703D483E4904707800BB
:1036300038180090085C1921FCF764FD3A490870BD
:10364000384900984018009040781921FCF75AFD3D
:1036500036490870009819218078FCF753FD3449E9
:10366000087032793348012A2C4A3349137822D022
:103670005B1C1B061B0E13701CD014702F4A137892
:103680002A7893423FD2521ED3B22B700470254A3F
:103690005C001B19D55C9A18537896780278540010
:1036A00014190D556418521CA370D2B266700270C2
:1036B000242AF3D3F8BD5B1CDBB21370022BF9D3C1
:1036C00014702A78192A1BD2521C2A700470164BC7
:1036D000164D174C1B782D7824785343554354438B
:1036E000DBB2EDB2E4B20278560096198B5576182B
:1036F000521CB570D2B274700270242AF3D3F8BD94
:1037000034712F70F8BD34700020F470C043B07174
:10371000F8BD00007200002044000020F4000020EA
:10372000840100209E760000360000203700002033
:103730003800002030000020C403002014020020C4
:103740000E480021027A002A0BD0827B521CD2B292
:103750008273FA2A05D381730172094B41720122E7
:103760001A70C27B002A07D00278521CD2B20270B3
:10377000FA2A00D3C173704701707047150000200A
:103780004F000020F0B5B448B44AC378B449B548F6
:1037900000248AB0012B06D01378052B24D25B1CA1
:1037A00013700AB0F0BDAC4BAF4DDC702B785B1CD6
:1037B0002B70AE4BFF251C70AD4B1D7004700C7050
:1037C000AC4814700480AC48AE4D0480AB48047023
:1037D000AB4804702878002804D100221146104616
:1037E000FCF730FD2C70DCE700231370A64A138829
:1037F000A24A1278521CD2B205929C4A002B16782B
:10380000974A15789A4A1478964A127809D09F4BAD
:10381000DF88984B1B889F427ED996485B1C0380AB
:10382000BFE7904B914F1B7803935B1CDBB208936F
:103830008F4B1B789E465B1EDBB20793884B1B7831
:103840009C465B1CDBB20693039B5B1EDBB20393BF
:1038500073465B1CDBB2049363465B1EDBB20993C9
:10386000330003F0DBFC0B070D141A212930343927
:103870003D414700FF2A01D2089A11E0012237E0BA
:103880007B4A002C01D0079B12E0022230E0FF2D82
:1038900001D2069A13E003222AE0002A02D0039AFA
:1038A000027036E0042223E0714AFF2C02D2049B0E
:1038B00013702EE005221BE0002D02D0099A0A7039
:1038C00027E0062214E0FF2DE3D3072210E0684A28
:1038D000002CD8D108220BE0FF2ACDD3092207E023
:1038E000002DEBD10A2203E0614AFF2CDFD30B222B
:1038F0003A700EE0002AD2D100233B705F4A059C4B
:103900001470052C05D91370534B0122DA705C4BEF
:103910001A700A78017800E004E055480078FCF756
:1039200091FC3EE74F4B514F1B7804930F33DBB2B2
:1039300008934F4B1B789E460F3BDBB20793484BD7
:103940001B789C460F33DBB20693049B0F3BDBB224
:10395000049373460F33DBB2039363460F3BDBB232
:103960000993330003F05AFC0B070D141A21293078
:1039700034393D414700FF2A01D2089A11E0012263
:1039800037E03B4A002C01D0079B12E0022230E0D6
:10399000FF2D01D2069A13E003222AE0002A02D06A
:1039A000049A027036E0042223E0314AFF2C02D24E
:1039B000039B13702EE005221BE0002D02D0099A14
:1039C0000A7027E0062214E0FF2DE3D3072210E05F
:1039D000274A002CD8D108220BE0FF2ACDD3092298
:1039E00007E0002DEBD10A2203E0214AFF2CDFD3B0
:1039F0000B223A700EE0002AD2D100233B701F4AFE
:103A0000059C1470052C05D91370134B0122DA7034
:103A10001B4B1A701E4A1F4B1278521E1A701E4AF8
:103A20000DE06B00EE18B4182346203B5F7F9755DE
:103A3000DE7FA6709B7F6370164B6D1E1D70154B4D
:103A40001D78002DEDD10A4B1B7813700078907013
:103A500008785070A5E600002A0000203B000020F6
:103A60003400002033000020F400002084010020F6
:103A7000320000204A0000204C0000203F000020BF
:103A80001A0000204E0000204600002052000020B6
:103A90005000002030000020C4030020F8B5614A27
:103AA0006148D1780678614D0024614F012906D024
:103AB00060480178082941D2491C0170F8BDD470D2
:103AC0005D495E4A0C7008E05D4B14541C545D4B1C
:103AD0001C545D4B1C54401C08700878B042F3D352
:103AE0005448192104702C705848594D0470287896
:103AF000FCF708FB387068781921FCF703FB55497F
:103B00000870A8781921FCF7FDFA5349534D087045
:103B10002878002804D1002211461046FCF792FBB9
:103B20004F480088002807D04E4804804E48048043
:103B30004E4804704E4804702C70F8BD047048481C
:103B40000088002808D04B48C388464801888B422B
:103B500002D9491C0180F8BD394934480B780078F6
:103B6000002B02D0012B39D105E0192801D2401DCC
:103B700004E0012031E0052802D9401F28702DE023
:103B800032480C7001783C4B491CC9B201701B785B
:103B900099420CD3354904700B785B1CDBB20B7077
:103BA000052B04D90C700121D170314A11700078B5
:103BB0004100441826481921005DFCF7A3FA38702B
:103BC0002348192124186078FCF79CFA21490870D1
:103BD000A0781921FCF796FA1F4908701649761E3D
:103BE0000E7026480DE059005C1822181146203945
:103BF0004E7F0655CC7F9470897F51700E495B1EB5
:103C00000B700D490B78002BEDD13A7829784A4397
:103C10000270104A12784A4382700F4A12784A435F
:103C20004270F8BD2A00002050000020350000201E
:103C3000360000203B00002030000020F40000206F
:103C40008401002014020020A4020020390000207A
:103C5000C400002037000020380000204E00002063
:103C6000460000204A0000204C0000203F000020B9
:103C70001A000020520000202E000020C403002063
:103C8000FEB5DF48E04AC178DE4815780688DF488F
:103C900001290478DE4880780090DD484078029061
:103CA000DB48007810D0DB4909784A1CD3B2D64AE9
:103CB0001278521ED7B2D84A002E1278D54E7DD037
:103CC00006297CD23370FEBDCD4A0021D170192166
:103CD000FCF718FAD1490870019019210298FCF7F5
:103CE00011FACF490870029019210098FCF70AFADE
:103CF000CC49002E0870009011D0CB4900200870EC
:103D0000CA49CF4E0880CA490880CA494870CA4982
:103D10000870CA4908703178002933D047E0C94F8C
:103D2000002038701AE021463046FCF7EBF9BE4817
:103D3000012C017001D1F00714D048000A18B448D2
:103D4000835C70003118C0484354B14BD21853788B
:103D50000818837091784170761C3E703E78AE42B0
:103D6000E1D325E001980A21484371007218B64951
:103D70000A23885402985118584388700098584371
:103D80004870E9E7AF49B04B087007E054001419D8
:103D90001855E418A0706070521C0A700A78AA4284
:103DA000F4D3AA490870AA490870AA49087030706B
:103DB0009849002008709849087001E006E05AE030
:103DC000487088709C4908709D49C4E0282900D239
:103DD00078E700233370012C11D0680029189A4825
:103DE000081820389949427F0A709949C27F0A70A1
:103DF000817F98480170934993480F702EE086495F
:103E0000002A09D0914A1070914A02981070914A84
:103E1000009810700B70EEE7804814220078504331
:103E20008A4A10707E48142200785043884A1070E5
:103E30007C48142200785043864A10700120087094
:103E4000D9E76200A5182B181A46203A567F465526
:103E5000D57F9D70927F5A70641E0C700C78002C78
:103E6000EFD17A49097801707949097881707949E7
:103E700009784170FEBD002131707749CE886B49C9
:103E80000B889E4202D95B1C0B80FEBD6D490F70F2
:103E900015E04B006C4FCE18F3199E46203B9C4614
:103EA0005F7F3346684E491EF7546346DE7F734694
:103EB0009E7063469E7F73465E70624B1970614BC5
:103EC00019780029E5D1614E5F4933780B70604B5A
:103ED0001B788B705F4B1B784B7057490B784E49A2
:103EE0005B1C4978DBB2491CC9B2012C35D04E4865
:103EF0000778781CC5B278003F1845483818002A62
:103F000057D0012AC1D1424A0629D25D3270504AA7
:103F10004678167082784F4802703F4A5170B4D983
:103F20000020414950700D70A542AED3414C08703D
:103F300025786D1CEDB22570032DA6D92070107068
:103F400092780A703C49052B0B709ED908702C4959
:103F50000120C87039490870FEBD2F4C002A06D0D8
:103F600000203B49307008703A4908701FE03070FB
:103F7000374A02981070374A009810702D486170C7
:103F800042789142E8D90021521CD2B26170AD1E34
:103F90004270AA420ADD41702748052B037005D9FB
:103FA000017017490120C870244908700120207051
:103FB000FEBD174AD25D3270254A4378137082786D
:103FC0002448254B02701A4A1088401C80B2108089
:103FD0009B888342ECD200201080134AA5421570C2
:103FE00000D310700C4B02295970E1D95870117828
:103FF0009970012119700F4908701070FEBD000002
:104000002A00002046000020500000202E00002042
:10401000C40000203B000020840100203600002066
:104020003700002038000020390000204A0000201E
:104030004C000020140200203F0000201A00002045
:104040004E00002030000020C40300203200002079
:1040500033000020340000205200002010B5592108
:104060000448162288230160026003600468002C63
:10407000F9D010BD0001005010B559210448162296
:1040800088230160026003600468002CF9D010BD31
:1040900000010050F8B56848694FC17867480024AE
:1040A00001291ED00178491CC9B20170042952D3DC
:1040B00000210170384607786248664906786248F0
:1040C0000A7805786148644904786148634B007850
:1040D00009781B78002F3FD0012F5AD0022F71D1C1
:1040E00063E05549604ACC705D495E4B0C701678B0
:1040F00007E0550055195C55ED18AC706C70521CFA
:104100000A700A78B242F4D358495A4D0C70534998
:104110003C700C7004705648192104704C480470AF
:104120004C4804704C4804702878FBF7EBFF454975
:10413000087068781921FBF7E5FF43490870A878F3
:104140001921FBF7DFFF414908704B4804704B48C9
:1041500004704B480470F8BD5F00DF19454BDB5D10
:10416000834207D8434BFB185F78974202D89B786D
:104170008B4208D9364B8019187036485219027094
:10418000354809191DE02E480121017000203849E9
:1041900048E037480178491CC9B20170322942D33E
:1041A00000210170264802210BE0074617430F4308
:1041B00009D0274B801B18702648521B02702648D6
:1041C000091B01702FE01E48002202705B1C23486F
:1041D000D9B22C4B01701B7899420DD3274902703C
:1041E0000B785B1CDBB20B70052B05D90A70124AE9
:1041F0000121D170204A117000781E4C41004518F1
:10420000605D1921FBF77EFF0E492C19087060785C
:104210001921FBF777FF0C490870A0781921FBF7EB
:1042200071FF0A4908700C4802780A48017808486A
:104230000078FCF707F8F8BD2A0000203B000020BA
:1042400084010020360000203700002038000020C4
:10425000320000203300002034000020390000200C
:1042600030000020C403002050000020F400002093
:1042700014020020C40000201A0000203F0000208B
:104280004E0000202E00002006498A691202FCD44C
:1042900008600A2804D188690002FCD40D20086057
:1042A0007047000000000540F8B5254E0021F07869
:1042B000244A254D012810D02B88244C0120002BA6
:1042C00016D01F46FF3FCD3F05D005277F02BB42DA
:1042D00010D1022712E0107011E0F17029801170E6
:1042E0001B480022017011461046FBF7ABFFF8BDDA
:1042F000117004E0174FBB4202D1032717702070E2
:104300005B1C9BB2144C2B80A34203D12980104923
:10431000F07008701078002808D0012809D0022811
:104320000AD00328E3D100F009FBF8BD00F016F82D
:10433000F8BD00F0C1F8F8BD00F036FAF8BD000095
:104340002A0000203D000020420000203E00002006
:104350001A000020840D000094110000FEB54948A9
:10436000494D01780024494E01291AD02878401C73
:10437000C0B22870022828D3002028703046017867
:1043800043480078401CC4B242480029077842489C
:104390000678424805784248007817D0012968D14C
:1043A00048E00022047011461046FBF74BFF3948E5
:1043B0002C70047038480470384804703448047015
:1043C00037480470374834700470FEBD410040180F
:1043D00035490090085C1921FBF794FE01463348EB
:1043E00001700191304900984018029040781921DD
:1043F000FBF788FE01462E480170009102981921B2
:104400008078FBF77FFE2B49224A08700199281813
:10441000791811700099204A711811701F49192CD0
:1044200008701B48047024D3002101701748012133
:1044300001701EE01D4A17491278BA1A0A701C4A08
:1044400015491278B21A0A701A4A14491278AA1A2F
:104450000A700F49192C0C700BD300220A700B49FB
:10446000401C0A700E4AC0B21070032801D9022005
:1044700008700A4802780848017806480078FBF777
:10448000E1FEFEBD3E0000203B0000204400002075
:104490002F000020320000203300002034000020D4
:1044A0003900002040000020C40000203600002019
:1044B0003700002038000020FEB5AB48AB4C017837
:1044C000012920D02778AA487A1C0078D5B2401C50
:1044D000A94AC6B2A748137800785A1CD2B20192F2
:1044E000A64A411C127800925A009A18A44B0292D4
:1044F000D218C9B23B0002F091FE091F5D9DD59D07
:10450000D59DD5FEFD00002505702A462946284682
:10451000FBF798FE96489C4A05709A4825700570EE
:1045200001785554491CC9B201703229F8D3974813
:10453000057090480570FEBD8D4A042E1670FAD3A2
:1045400000238C4D137024282AD28F4F904E91490E
:104550000888113080B20880FBF707FEFBF7FCFDEE
:10456000C0B22421FBF7CEFD3170785C0128EED07B
:10457000307801213954804982080A70510052185C
:104580007F49460086198B5C8348511883554A78C9
:1045900030188270897841702878401C287000E0BB
:1045A000297028783C28C6D320787849401C207090
:1045B0000020ADE06E480A2E0670BCD300210170C9
:1045C0007548764A6030417A11700191744AC17A17
:1045D00011700091807A7349844608706C482321D9
:1045E00001706D486A490B7859005E1832181146FF
:1045F00020394F7F8755CE7F9670897F51705B1E23
:104600001906634A090E1170ECD1019901700099E5
:104610008170614641705D480178491CC9B20170E2
:10462000502988D3002101705248257001705248EA
:104630000170FEBD4E4F142E3E70FAD300233B7026
:1046400006281DD2524B00261E70514B06261B78A1
:104650009C4673431B18242B0BD2494E029FF75DD7
:104660005E009E194C4B9F555778F3189F709678B3
:104670005E706646761C464BF6B21E70062EE4D37C
:104680003C480170024610780828D2D325703A4978
:1046900001980870009B984201D300200870002008
:1046A0001070FEBD324F142E3E70FAD30023062840
:1046B00030483B7001701AD235480370304B029E6F
:1046C0009B5D567802969278944602780626564369
:1046D000761A7700F719304E521CBE19B374029F38
:1046E00037756746D2B2F7740270062AEDD32149B6
:1046F000087801E034E00DE00828D2D325701E4888
:10470000019A0270009B9A4201D30022027000209D
:104710000870FEBD164B0A2E1E70FAD300221A70C6
:10472000062815D21A4B1A701B4B194E37780626DD
:10473000BC4677433E187700F6199A55F618B270C2
:10474000674672707F1CFEB2114F062E3E70ECD38E
:104750000848017001780829DBD325700270FEBD7E
:10476000FF202070FEBD00003E000020440000201D
:104770003B00002040000020390000202E000020D7
:10478000C40000202F000020340300203C00002043
:104790003000002028000020C40300203200002048
:1047A0003300002034000020FEB55948594E0178EE
:1047B000594C01293FD030460578204601950078B4
:1047C0005649401CC3B256480278501CC0B28446B9
:1047D000087856009219554E009286465149524823
:1047E0009219052D237036D3082B23D30023237071
:1047F00023230B70DDB26B00EE1834182346203BE8
:104800005F7F8755DE7FA6709B7F63706D1E2B06D2
:104810001B0E0B70EED1454B009C41491B5D037094
:10482000537883709278427060460870F44501D3E3
:1048300000200870FEBD002505702A46294628463E
:10484000FBF700FD3A48257005703548057039487A
:1048500005703570FEBD082B46D30023237011234D
:104860000B70DDB22E4606235D432C182346203BF9
:104870009F7E47551D7FA570DB7E6370761E3306D5
:104880001B0E0B70EDD1294B009C254E1B5D037058
:10489000537883709378437000270C780623634322
:1048A0001B185D7ADD70DD7A5D719D7A1D71641C67
:1048B000E3B20B70112BF0D31B48D17860304172FA
:1048C0001179C172517981721A480178491CC9B2B3
:1048D0000170062908D3077072466046521E394699
:1048E0003070944500DB317013480178491CC9B21F
:1048F00001706429AED3002101700198054A401C63
:10490000C0B210700528A5D30A480170FEBD000092
:104910003E0000203C0000203B0000202E00002034
:104920003900002030000020C4030020C400002013
:10493000440000204000002041000020FEB5B448A3
:10494000B44D0178002401291AD0B348B449037842
:10495000B248B44AB44E2F78007809781278367885
:104960000296B24E5B1C36780196B14E36780096B0
:10497000DEB23B0002F052FC052A6FADCAF96E00B0
:104980000022047011461046FBF75CFCA248192176
:104990000470A8480470A84804702C70A74D2878AB
:1049A000FBF7B0FB9D49087068781921FBF7AAFB5B
:1049B0009B490870A8781921FBF7A4FB9949087056
:1049C00099480470994804709948CBE0924B082E9E
:1049D0001E703FD31C70029E934B3018C0B21870EB
:1049E000019E924B7118C9B21970009F904BBA1872
:1049F000D2B28C4E1A70FBF725FC8E480178491C08
:104A0000C9B201700A2925D9047028788D4A401C42
:104A100028708B48047088480178491CC9B201701D
:104A20001278914200D304700078844C41004518FC
:104A3000605D1921FBF766FB78492C1908706078D6
:104A40001921FBF75FFB76490870A0781921FBF765
:104A500059FB3070FEBD0301181A734BC0B21870B9
:104A60000B01591A714BC9B2197013019A1A704B84
:104A7000D2B26B4E6B4F1A70FBF7E4FB70480178B3
:104A8000491CC9B201702829E4D9047028786D4AFC
:104A9000401C287068480178491CC9B2017012781E
:104AA000914200D304700078644C41004518605D69
:104AB0001921FBF727FB59492C1908706078192137
:104AC000FBF720FB3070A0781921FBF71BFB387037
:104AD000FEBD5948544B017848000A185749885C74
:104AE00018705218514B51781970514B92781A70B6
:104AF000FBF7A8FB52480178491CC9B20170502944
:104B0000E6D904702878401C28707CE0424B062EC1
:104B10001E70DDD31C70029E434B301AC0B2187059
:104B2000019E424B711AC9B21970009E404BB21AD5
:104B3000D2B21A70FBF786FB3E480178491CC9B215
:104B400001700F29C4D9047029783F4A491C297083
:104B50003B490C7001785454491CC9B20170322988
:104B6000F8D33A480470FEBDFFE72B48062E0670C6
:104B7000F9D3047035480078242846D2344F354E96
:104B80003888113080B23880FBF7EFFAFBF7E4FA8F
:104B9000C0B22421FBF7B6FA2B483170405C0128E3
:104BA000EED02949307801220A54410041182A48A0
:104BB000445408188470254944700878401C0870D3
:104BC000224800783C28CED317482C700470174830
:104BD0001A4D0470164804701748007841004618B2
:104BE000A85D1921FBF78EFA0C49751908706878D1
:104BF0001921FBF787FA0A490870A8781921FBF7F1
:104C000081FA084908700B48ACE71049D6E7000064
:104C10003E000020440000203B0000203600002021
:104C20003700002038000020320000203300002030
:104C3000340000202F00002039000020C400002094
:104C4000410000202E0000203403002040000020FE
:104C50002800002030000020C4030020F8B5284EB2
:104C60000024F0782749284D01280AD02A88274BAC
:104C70000120002A10D0CD27FF00BA420ED10870C3
:104C80001BE0F4702C8000220C7011461046FBF7DC
:104C9000D9FA1F480470F8BD0C700EE01D4FBA42DF
:104CA00001D1022708E01C4FBA4201D1032703E0DB
:104CB0001A4FBA4202D104270F701870521C92B2D8
:104CC000174B2A809A4203D12C80114AF070107041
:104CD0000878030002F0A2FA0505080B0E11040083
:104CE000D9E700F08BF9F8BD00F01CF8F8BD00F032
:104CF000A9FAF8BD00F05AFCF8BD00F075FEF8BD49
:104D00002A0000203D000020420000203E0000203C
:104D10001A000020520D00006E0F000092130000D8
:104D2000581B0000F8B5A148A14C0178A14EA24D36
:104D30000027012942D02078401CC0B220700428EE
:104D40007ED32770284602789C489D4D00789D4C64
:104D5000411CC9B2002A47D0012A72D0974F24289B
:104D600070D299490888113080B20880FBF7FDF9AC
:104D7000FBF7F2F9C0B22421FBF7C4F99348217084
:104D8000405C0128EDD091492478012008559048D5
:104D900001782046FBF7B6F9317048000918600029
:104DA00022186B5C8B48491983544B781018837018
:104DB000897841703878401C3870EFE00022077025
:104DC00011461046FBF73EFA0320307027708248E8
:104DD0002F707E4A077001785754491CC9B2017080
:104DE0003229F8D3754854E0242854D276490888EB
:104DF000113080B20880FBF7B8F9FBF7ADF9C0B20B
:104E00002421FBF77FF971482170405C0128EDD027
:104E100020786E4A01211154317843004A008918E4
:104E2000C3186A5C6B484919C2544A7818188270D2
:104E30008978417061480178491C01705F4802E03F
:104E400028E02AE0A9E000783C2823D35A48634EA2
:104E50000178491C01702770614C01255A49088866
:104E6000113080B20880FBF780F9FBF775F9C0B20A
:104E70001421FBF747F9534A5A4B1078195425541B
:104E80003754401CC0B210703228E7D35648077020
:104E900056480770F8BD4948CFE70020504F2070B2
:104EA000C0B2395C002910D0012923D0410042183A
:104EB00048498B5C5B088B5451188A7852088A7079
:104EC0004A7852084A70002131E031784A008A1845
:104ED0009446AB5C41003F4A411853546246521914
:104EE000944653783B4A89188B70624692784A7090
:104EF00001211CE039493B4B0A5C521CD2B20A54D6
:104F00001B5C9A4214D900220A542F490888113098
:104F100080B20880FBF729F9FBF71EF9C0B2142113
:104F2000FBF7F0F82F4A20781154395C491C3954AA
:104F30002078401CC0B220702428B1D32A480178C0
:104F4000491CC9B201703229A4D900241A4F047037
:104F50003C703078264A41004118685C10704A194C
:104F6000244B51781970244B92781A70FBF76AF928
:104F70003078401CC0B23070052801D9022038704A
:104F80001548124A047001785454491CC9B2017082
:104F90003229F8D309480470F8BD397038783C28B4
:104FA000FAD30548FF210170F8BD00003E00002043
:104FB0003B00002039000020440000204000002079
:104FC000C40000203000002028000020340300200E
:104FD0002E000020C40300202F000020F400002039
:104FE0008401002014020020410000203C00002029
:104FF000320000203300002034000020F0B5844847
:10500000844902788DB0844F0978844C0091012A3C
:105010005AD083480278834801788348491C037832
:10502000C9B25B1CD8B28446501CC0B20390002A9F
:1050300072D07E480078401CC0B208907C4803784B
:105040005E00581C9E193B46F318012A754AC0B2EF
:1050500011707DD00A2935D3002111707549BA5DD0
:105060000A70019274495A780A7003929A787349C7
:1050700094460A70724923220A700B461D78690013
:105080006E183219114620394F7FA755CE7F967082
:10509000897F51706D1E2906090E1970EED1019994
:1050A00021700399A170614661706049089A0A7085
:1050B0000C2A07D900220A705D490870009B9842AB
:1050C00000D30A700DB0F0BD002101705C48017082
:1050D0000646307800990546FBF714F854480170ED
:1050E0004800091868007A5C28182254C9194A78BF
:1050F00000198270897841706D1CE8B230702428E4
:10510000E7D34B49002008704649087044490870AD
:1051100045490870D6E7FFE7424814290170D1D30A
:105120000021017043482278027006924248A2781A
:105130000270424865780570414817460170CAB24E
:10514000510053181919CE78E6544B798B7000E052
:105150001AE00B794B70521CD1B201702429EED3A6
:105160002E48069960304172C77285722E4861469A
:1051700001701429A6D3002101702948039A0270F6
:105180002B480170294840E00A299BD30021117067
:105190002849BA5D0A70069227495A780A70019226
:1051A00026499A780A7026490A9223220A700B46E9
:1051B0001D7869006E183219114620394F7FA755A6
:1051C000CE7F9670897F51706D1E2906090E197069
:1051D000EED1069921700199A1700A996170134965
:1051E000089A0A70052A07D900220A701049087027
:1051F000009B984200D30A700B48614601706429F5
:1052000088D3002101700648039901705AE7000015
:105210003E0000202E000020C4000020C403002017
:10522000440000203B0000204100002040000020FE
:10523000390000203200002033000020340000201C
:1052400030000020F0B5CB49CB4A087889B001285E
:105250001ED010460278CA48C8490078401CC5B222
:10526000C8480378581CC4B20878511C0090C8B2D2
:10527000039058001F18C4483E18002A13D0012A72
:1052800040D0022A5DD0032A7ED00521BA4836E0FC
:1052900000200870BB490870BC490870B8491070FC
:1052A0000870BB497DE0BB4800210170B94803216B
:1052B00000780690FAF726FF00290BD1B248C25DAC
:1052C000069841004118B448425472780818827018
:1052D000B17841700699AF48491CC9B201702429C0
:1052E000E4D3A748142D05700AD300210170A54806
:1052F0000470009A944200D301709F480399017092
:1053000009B0F0BDA34800210170A2480321007834
:105310000690FAF7F7FE01290BD19B48C25D06986B
:10532000410041189C484254727808188270B17844
:10533000417006999748491CC9B201702429E4D3E9
:10534000CFE794480021017092480321007806902D
:10535000FAF7D8FE02290BD18B48C25D06984100AE
:1053600041188D484254727808188270B1784170A3
:1053700006998848491CC9B201702429E4D38049A0
:10538000142D0D70BCD300E00DE0002008707D49A5
:105390000C70009A944200D308707749039A0A70FF
:1053A0007E490870ACE779480178491CC9B20170A0
:1053B0000229A5D3002101707548774C0078217827
:1053C000420003908018704A8518002905D1A17801
:1053D000002902D16178002934D06B49085C192179
:1053E000FAF790FE6E490870059068781921FAF76F
:1053F00089FE6C4907460870A8781921FAF782FEE1
:105400006949644E0870029000203070C0B20321D8
:105410000490FAF777FE00290ED104984100401855
:10542000225C0599511A215400198178C91B817099
:1054300042780299511A41700498401CC0B23070F1
:105440002428E3D35548007804900F283CD3E07813
:10545000002805D16079002802D12079002833D0B6
:10546000E8781921FAF74EFE4D490870079028791F
:105470001921FAF747FE4B49074608706879192148
:10548000FAF740FE4849434E0870059000203070FE
:10549000C0B203210290FAF735FE01290ED102981D
:1054A00041004018225C0799511A21540019817853
:1054B000C91B817042780599511A41700298401CAD
:1054C000C0B230702428E3D304981E283AD3A079C0
:1054D000002805D1207A002802D1E079002839D0AF
:1054E000A8791921FAF70EFE2D4908700290E87983
:1054F0001921FAF707FE2B4908700190287A192123
:10550000FAF700FE284907460870224D002028704F
:10551000C0B203210646FAF7F5FD02290DD170004D
:105520003018225C0299511A21540019827801998D
:10553000511A81704178C91B4170761CF0B22870F5
:105540002428E5D304981F2800D3D9E6134801780E
:10555000491CD4E6084900200870039A0C4BD21C61
:10556000D2B21A70092A01D304220A700B490870BA
:10557000ECE700003E000020440000202E00002048
:105580004100002039000020C40000203B00002022
:105590008401002030000020C403002040000020CF
:1055A000360000203700002038000020F0B5FA480F
:1055B000FA4D01780024FA4E85B001292AD03046F0
:1055C0000778F848002F00780390F7480078029099
:1055D000F64800780190F6480378F6480178F648D6
:1055E00002783ED028460678701CC0B28446EC484B
:1055F0000078401CC0B20090F048012F0078049061
:105600007ED0022F7DD0032F7CD0E5490420087086
:1056100005B0F0BD0022047011461046FAF712FEE4
:10562000E64832210470E64804703470E5482C7076
:105630000470DC480470DC480470DC480470E24C00
:105640002078FAF75FFDDA49087060783221FAF7BE
:1056500059FDD8490870A0783221FAF753FDD64990
:10566000D5E70398CF4EC018C0B23070029ECE4B23
:105670007118C9B21970019ECC4BB218D2B21A700F
:10568000FAF7E0FD2878401CC0B228703228BFD35A
:10569000C348CD4E0178491C0170C84800784100CC
:1056A0004718F05D3221FAF72DFDC149BE19087087
:1056B00070783221FAF726FDBE490870B0783221A1
:1056C000FAF720FDBC49C24E08702C70BF4DC14F87
:1056D0002C70C148297844543088113080B2308011
:1056E000FAF743FDFAF738FDC0B20A21FAF70AFDCE
:1056F00028783954401CC0B228703228E9D387E793
:1057000001E083E0FEE0242E39D2B0480470AF48B7
:10571000B14D00782D5C012D2AD0B04DAD4F2E5CDF
:10572000761CF6B22E543F5CBE420DD32C5445007D
:105730004619AB4DAF5DFF1AAF557519AE78761AA5
:10574000AE706E78B61A6E7045004619A44DAF5D06
:10575000002F0DD17519AE78002E09D16D78002D6E
:1057600006D18E4E35786D1C35709B4E0125355413
:10577000401C964DC0B228702428C8D302E0874848
:1057800061460170854D28783C28B8D3844800993B
:10579000017004998948491CC9B2924A0170127873
:1057A000914200D304700078874E41004718F05DA5
:1057B0003221FAF7A7FC7E49BE19087070783221B1
:1057C000FAF7A0FC7B490870B0783221FAF79AFC0E
:1057D00079497F4E08702C707C4D7F4F2C70287853
:1057E0003C543088113080B23080FAF7BEFCFAF7B2
:1057F000B3FCC0B20A21FAF785FC764A2878115426
:10580000401CC0B228703228E9D301E76B48007809
:10581000450040196C4D029040190190242E43D24E
:105820006A48047069486C4D00782D5C012D34D0B5
:105830006A4F684D3E5C761CF6B23E542D5CAE421B
:105840000DD33C544500664F45197E5DF6187E55D4
:10585000ED19AE787618AE706E78B6186E70450099
:1058600046195F4DB446AF5D574D029EAD5DAF42E8
:1058700013D15B4D66467719019DBE786D78AE42B7
:105880000BD1019D7E78AD78AE4206D1434D2E7886
:10589000761C2E70504E01253554401C4B4DC0B225
:1058A00028702428BED302E03C48614601703B4882
:1058B00000783C28A9D33A480099017042480299DF
:1058C000475C32213846FAF71DFC01463848017022
:1058D0000198322146783046FAF714FC35490870B1
:1058E0000198322185782846FAF70CFC01463248A7
:1058F00001702A4804702B4807702B4806702B480B
:10590000057085E60398274EC01AC0B23070029B1E
:10591000254E591AC9B23170019B244F9A1AD2B23E
:105920003A70FAF78FFC2878401CC0B228703228F1
:10593000E7D32C701B481A4D047034703C701F481C
:105940002C700178274A491CC9B201701278914223
:1059500000D3047000781C4C41004618A05D322131
:10596000FAF7D0FB12493419087060783221FAF73F
:10597000C9FB10490870A0783221FAF7C3FB0E4921
:10598000087010480178491CC9B201700229B8D3C7
:10599000042028703CE600003E000020400000206B
:1059A000440000203200002033000020340000209A
:1059B0003600002037000020380000203900002089
:1059C0003B0000203C000020C400002030000020EC
:1059D000280000201402002034030020F4000020DE
:1059E000C40300202E000020F8B5434800270178AA
:1059F000424C434D434E012910D1002207701146FD
:105A00001046FAF71FFC40480770404807704048AE
:105A100007704048077027702F7037703B48017837
:105A2000491CC9B20170032964D90770394801784B
:105A3000491CC9B20170282908D907703448017877
:105A4000491CC9B20170052900D907703048007897
:105A5000030001F0E3FB06040B1219212930377013
:105A60002078401D20702878C01F13E02F703078F8
:105A7000801F30702078093014E027702878C01D0E
:105A800028703078001F15E037702078401F207094
:105A90002878083028700EE02F703078C01C3070E5
:105AA0002078C01F207006E02770287808382870FA
:105AB0003078C01C307018482321017017481649EF
:105AC00009784A008B188C461A1811462039CF7F66
:105AD00097704F7FC754897F51706146491E0906F0
