:020000040000FA
:10000000E8030020F1000000F5000000D50000002A
:1000100000000000000000000000000000000000E0
:10002000000000000000000000000000F9000000D7
:100030000000000000000000FB000000FD000000C8
:10004000FF000000FF000000FF000000FF000000B4
:10005000FF000000FF000000FF000000FF000000A4
:10006000FF000000FF000000FF000000FF00000094
:1000700071610000FF000000FF000000FF000000B1
:10008000FF000000FF000000FF000000FF00000074
:10009000FF000000FF000000FF000000FF00000064
:1000A000FF000000FF000000FF000000FF00000054
:1000B000FF000000FF000000FF000000FF00000044
:1000C0000348854600F076F800480047C166000006
:1000D000E803002004207146084202D0EFF30980B3
:1000E00001E0EFF308807146004A1047351E00001A
:1000F00003480047FEE7FEE7FEE7FEE7FEE7FEE710
:10010000C100000030B50B4601460020202201242A
:1001100009E00D46D5409D4205D31D469540491B3B
:100120002546954040191546521E002DF1DC30BD84
:100130000549064A08685043054A80180860400887
:100140007047014908607047840000206D4EC64129
:1001500039300000F0B51FB40646002082B00546D5
:100160004024019100901BE0019922460F46304641
:1001700000F042F8049A059B801A994110D310466A
:100180001946224600F028F8361A8F410197224678
:1001900001200021009F00F01FF838184D41009009
:1001A0002046641E0028DFDC019B00982946324669
:1001B00007B0F0BD064C0125064E05E0E36807CC0C
:1001C0002B430C3C98471034B442F7D3FFF77CFF25
:1001D0009C680000BC68000010B5202A04DB0146C2
:1001E000203A9140002010BD914020239C1A0346E4
:1001F000E3401943904010BD10B5202A04DB0846A7
:10020000203AD040002110BD0B46D340D0402024DE
:10021000A21A91400843194610BD000030B5064CA3
:1002200000235D005D1960552D195B1C6970DBB200
:10023000AA70032BF5D330BDDE010020F7B51D4AAF
:100240008E468446D1781C4D00241C4E1C4B1D4FFD
:100250001D48012905D0297808290ED2491C29708A
:10026000FEBDD4701C703C70002204701146104614
:10027000FFF7D4FF2C703470FEBD2C703578E90781
:1002800011D01C703C7004706D1CE9B231700529EE
:1002900003D9517811700121D1700278397818781A
:1002A000FFF7BCFFFEBD61461970714639700299B7
:1002B0000170E9E72600002036000020160100202A
:1002C0002E0000202F0000203000002000B505483F
:1002D000C178012905D10021C1700A460846FFF7FF
:1002E0009DFF00BD26000020F8B529484278002A6D
:1002F0002CD005250146274E2D07274FC97800240D
:10030000012A06D0022A22D0032A1FD101292AD08D
:1003100033E0012909D11E480022C47004700C2169
:100320001E4801F06FFD0120706319480178491CD7
:10033000C9B20170142909D904704470686B38403F
:100340006863686B0321890208436863F8BDC47061
:10035000047074634470686B38406863686B6863EA
:10036000B462F462F8BDC47004707463696B3940A0
:100370006963696B6963B462F4620178491CC9B24C
:1003800001700529EED9047001214170C170F8BDDA
:100390005800002000420050F3F3FFF340400050AB
:1003A00070B52848066B284903248A1C01250B1FB9
:1003B0000020012E17D0087048701178491CC9B26E
:1003C0001170322909D310705178491CC9B251708B
:1003D0000A2902D350705C70DD701B499A78091DA0
:1003E000012A11D014E0107050700A78521CD2B259
:1003F0000A70322AF1D308704A78521CD2B24A707D
:100400000A2AEAD34870E6E7987008704870887046
:100410000A78521CD2B20A70322A10D308704A7875
:10042000521CD2B24A703C2A09D348708A78521CB6
:10043000D2B28A703C2A02D388705C70DD70FFF7FC
:1004400053FF70BD004200505C000020FEB57A4AA8
:100450007A4CD3787A4D00217A48012B06D07A4A1B
:1004600013780A2B4DD25B1C1370FEBDD170774AF6
:10047000017012780092734F009938780646FFF7A2
:1004800041FE73484A0001700020207071488918AD
:100490000A189378415C9C465378207832185700AC
:1004A000D219A9545219401C537067460006977020
:1004B000000E2070F1D0761C6249F0B2087003285B
:1004C000D9D300250C46644E644F25703088FFF761
:1004D00038FE308811303080FFF72AFEC0B2142178
:1004E000FFF710FE5E4A20781154012139545D490E
:1004F0000D54401CC0B220700328E7D35248057049
:10050000FEBD0023544913700A88521C0A800370F0
:100510004C4952480E78805D0090002804D0012894
:1005200025D002287ED144E0484801783046FFF7C4
:10053000E9FD47484A0001700020207045488918AD
:100540000A1893789C465378425C207831184F0003
:10055000C9196A544919401C4B70674600068F70D0
:10056000000E2070F1D000983C49401C59E03D48F5
:100570003B4F825D521CD2B28255BB5D9A4251D92B
:1005800000228255344E3088411C3180FFF7D9FD5E
:10059000308811303080FFF7CBFDC0B21421FFF757
:1005A000B1FD2848007839542C490A5C521C0A5481
:1005B00038E0264801783046FFF7A4FD2448254A54
:1005C000017000202070480008180090105C19216C
:1005D000FFF798FD81004018C7B21E4900984018E7
:1005E000019040781921FFF78DFD81004018C0B2BD
:1005F0000090019819218078FFF784FD8100401850
:10060000C1B2207832185300D218AF545219009B4F
:10061000401C537000069170000E2070F1D00F49FD
:100620000020885507480178491CC9B20170032988
:1006300000D26DE7FEBD0000260000202C00002047
:10064000DE01002035000020360000202A000020B6
:1006500034000020B40000202400002016010020F7
:1006600048010020E40000200248016AC201114351
:100670000162704700020050F3B58BB00C46FFF7E3
:10068000F3FF0B9800287448016813D0042211432B
:100690000160102000F034FA0120C00409906F4876
:1006A0000090042008906E486E49201888420ED8A9
:1006B00000251DE089088900491C0160012000F027
:1006C0001FFA00200990684800900220EAE7674876
:1006D000664920184942884202D80125640007E093
:1006E000634863492018494288427DD20325A4000B
:1006F0000026F643089F22E039460098FFF702FDE6
:100700005C49844641185C48814217D2554B02220D
:100710005B1C534861465143401C0818984209D855
:10072000A14201D9081B00E0601AB04202D20600C3
:1007300004920CD05148521C8242EAD97F1C212FCE
:10074000DAD900200696C0430190089E54E009992A
:10075000A803084301217A028902511A0843049927
:10076000891E08433C490862042000F0C9F9691C4D
:1007700079430098FFF7C6FC049948430DB0F0BDDB
:1007800031460098FFF7BEFC3A4942183A498A427E
:1007900031D20221324B02464A435B1CD7185B42DE
:1007A0009F4224D8A24201D9121B00E0A21A019B49
:1007B0009A421CD20192069B0F469A4217D1099980
:1007C000A8030843012172028902511A0843B91E85
:1007D000084321490862042000F092F9691C714322
:1007E0000098FFF78FFC00E008E07843C6E7234A53
:1007F000491C9142CED9761C212EC1D90B980028D4
:100800000FD01F4914480162042000F079F91DA09F
:10081000006803901048016A0013014203D00020D1
:10082000ACE71949EEE7080301D50C4800E00E4893
:100830008A03A3D40A04920F03AB9B5CCA05890404
:10084000D20DC90E891C8008921C59435043FFF7F2
:1008500059FC800092E70000000200500080510126
:10086000FF1E0AFAFFE0F505001BB700800F05FD2B
:10087000C08782FEFF95E7FFBF77CC000102000032
:1008800018440800010202041640000004498207CF
:100890000A6801D09208920002430A607047000083
:1008A0000002005008B511A0006800901048016ACD
:1008B0000013014201D0002008BD080301D50D48F6
:1008C00000E00D488A03F7D40A04920F6B469B5C44
:1008D000CA058904D20DC90E891C8008921C59438F
:1008E0005043FFF70FFC800008BD00000102020426
:1008F0000002005000805101001BB70070B502F0EB
:1009000083FC38484168384A1140416041680325FA
:10091000294341600120FFF7B9FF012000F0F0F802
:1009200000063249000E087009D10420FFF7AEFF1F
:10093000102000F0E5F80021072000F0A7F82C486F
:1009400000F062F82B4C08262660304600F0D8F8FC
:100950000120A060606928436061A168E0018143D3
:10096000A160A1680143A160606903210906884371
:10097000606105252D07686B1F4908406863686B37
:100980000321890208436863A06804210843A0602A
:1009900060690721090288436061A0683043A06054
:1009A0006069090188436061A068E1020843A060B2
:1009B000A06889000843A0600022C9010F4800F028
:1009C00077F8002220210E4800F072F8286B0D49BC
:1009D0000843286305F028FB02490020C031086065
:1009E00070BD000040000050FCFCFFFF4C000020E8
:1009F000006CDC0200020050F3F3FFF31400C0A708
:100A0000160040E6F0F00000F8B51E4C0546E6681A
:100A100010201D49064048108D4201D90D4602E0C4
:100A2000854200D205462068042738432060102004
:100A300000F066F82069072108432061A0690009D9
:100A40000001A06120688007800F01280ED0690096
:100A50007804FFF711FEE6680546102006400121E4
:100A6000022000F013F8002E06D008E069000020F4
:100A7000FFF702FE0546F2E72068B84320606808E9
:100A8000F8BD00000002005080F0FA0210B5074ADD
:100A900093691B091B010B4393611169C908C900C4
:100AA0000143116105F0C0FA10BD000000020050C2
:100AB00070B5430E1B070DD043009B0F0F4C9B00DE
:100AC0001C192368C5002D0FC601F60EB540AB43B7
:100AD0000B432360840A2106090E0DD00103074B46
:100AE000890F89000833CB1819688005E4B2C00E5D
:100AF0008440A1431143196070BD000010020050F2
:100B000010B50749074A05E00B46491E002B01DCDA
:100B1000002010BDD4680346A343F5D1012010BDC9
:100B200080F5200000020050F0B5FD48FD4987B077
:100B3000C3788979019101468E79CD79002201240B
:100B4000002B14D18178491CC9B2817096290ED32B
:100B5000F549C4700C704C704C238B704123CB70E2
:100B600032230B71019B4B718A71CE710D72817CA6
:100B7000002909D0417C491CC9B241740F2903D313
:100B80004274FF2101718274E8490B78002B64D014
:100B900000220A70E248E649847442740C70C278FC
:100BA000E448002A0178009101D1F0292ED00F07E6
:100BB000E0493F0F0A79049249790391072F06D043
:100BC0000B2F04D0B24248D10399A94245D10099D4
:100BD0000F2905D00A09D2490B799A423DD00A71F2
:100BE000D548D44A40780290D349D0780978059105
:100BF000517892783B0005F0D3FB10300C0C1A3082
:100C000032303ABE30D7E7FDFB30FA30C6480470C8
:100C100002E0C5480221017044704C2181704121DD
:100C2000C1703221017101994171002173E10A29DA
:100C300001D9FF2911D11C2A0FD8BF4D00292970D5
:100C4000EC700AD0FF2906D0AA70104600F092FA84
:100C500028786870F6E00298287007B0F0BD0C2A7A
:100C6000FBD8B04882714471B448047097E0AC4B33
:100C7000DF7B1B7B012F9C46A94B5B7B00930DD038
:100C8000A9480221017008214170042181700021CE
:100C9000C17001716146417183713DE1A04F002334
:100CA000FB735140049AA34F504041400398814246
:100CB00011D0A148FF210170C4709B48022101702E
:100CC00008214170042181700021C17001716146C9
:100CD000417100991FE1002001467F1C7A5C1202DD
:100CE00050400022C30B03D0954B4000584000E019
:100CF0004000521CD2B280B2082AF3D3491CC9B2B8
:100D00000429EBD361460A020099854F511889B234
:100D10008142CED16046000901F0A0F8894D2870CB
:100D2000387B0007000F01F099F86870787B0009A4
:100D300001F094F8A870787B0007000F01F08EF89E
:100D4000E870794808210470417003218170002106
:100D5000C17001713A7B42717B7B8371BD79C57132
:100D6000FD790572BA71FB71397379737248FD218F
:100D70000170C47066E0012911D0022900D06CE72F
:100D800067490223CC730A73487367490B70009C50
:100D90004C708B700023CB700B714A717CE06648FD
:100DA000FB210170C47058E70329FCD80029FAD050
:100DB000082AF8D860480A3101704170C470827006
:100DC00010467DE0047048E7059A5B48002AEAD0A7
:100DD0000E2A02D00E220270C4705B4801705B487C
:100DE0005C4904705A4804700020088035E7B9E077
:100DF00069E0FFE74F4BDB785F00DB19564F00934C
:100E0000DF190B0005F0CCFA0A08200731394C4CE9
:100E10004C4C4C0621E7C2E70528C4D2002A06D074
:100E20004D48009944547878002806D00AE04A4991
:100E3000009A00208854787004E03F480299797045
:100E40008078B8703D48BDE70528ACD2424800998B
:100E5000405C0028A7D0384D787868702870B87842
:100E6000A87000F087F9EC70ECE705289BD23A49AE
:100E70000098085C002892D1EFE6052893D22A4911
:100E800002220A700C224A7004228A70C870787894
:100E90000871B878487100208871CE710D72DCE657
:100EA000491FC9B24B00CB182B49CD5C002D00D196
:100EB000CC5459184A7088701F494A700A7088705B
:100EC00000F058F9BEE70D22002916D001298DD176
:100ED000154802210170214942700978817010493A
:100EE000C97AC170192101712121417118218171C3
:100EF0005721C17143210172AFE60B4802210170F5
:100F000042704C2181704121C1703221017114491C
:100F10000978417101998171C67105729DE60000E1
:100F20001100002050000020880000200000002058
:100F30005A0000200B00002026000020470000205F
:100F40002110000002000020640000206500002045
:100F5000660000206E000020A50000204C0000204C
:100F600042000020081F030005F01AFA0A070706CE
:100F700006060707070707066FE60598054A884231
:100F80008DD10548017C002989D1D47004740348AF
:100F900018E7000026000020110000204600002075
:100FA000F0B5664F664DFB7800206649664A674C8F
:100FB00085B0012B3BD0664B1E78761CF6B21E70B6
:100FC000042E5DD318705E78761CF6B25E701E2E0D
:100FD0001AD358709E78761C3606360E9E7013D043
:100FE00098702B785B1CDBB22B70052B0CD9594BFE
:100FF00028701E78761CF6B21E70142E04D9187054
:101000000123554EFB7033704D4B1F784F4B1B78AF
:101010000093DB1CDBB203934A4B1E784A4B1D78CE
:101020003B0005F0BDF9062F343A40464C51F870AC
:10103000434B4A4F18704A4B38703D786E00AE19DA
:101040009855F6186D1C7070EDB2B0703D70032DA0
:10105000F3D3087010703F49207008703E49424C2D
:10106000087037493A4B48703E4908700A789854DE
:10107000A054521CD2B20A70032AF7D33B4908701D
:1010800005B0F0BD761D20700E70ED1F0FE01070E2
:10109000009B9B1F237009360FE00870ED1D157033
:1010A000009B1B1F0FE0761F20700E700835157017
:1010B0000AE01070039B2370F61F0E7004E00870A6
:1010C000083D1570039B23701D4B5D78002D18D0D3
:1010D000012D1FD0022D27D0254800250570204D59
:1010E0000E781278277801784C000C192E55641967
:1010F000491C6270C9B2A77001700329F3D30020A4
:1011000010E01748097801701178417021788170DA
:10111000012007E01248097881711178C1712178A6
:10112000017202205870ABE70D480978C170117840
:101130000171217841710320F4E7000026000020AE
:10114000160100202E0000202F000020300000207B
:10115000E40000203A000020160000202C000020AF
:10116000DE01002035000020480100202D00002075
:101170002B000020F8B50146F94800240078FA2633
:10118000F84D27460A286FD9F7480C2202700B0049
:1011900005F006F90715487FA4D9F1051400F348B6
:1011A00061006118425C6A540A18491953784B70FF
:1011B000641C9278E4B28A70102CF1D3F8BD05213A
:1011C0002046FEF79FFF002908D001290CD00229F4
:1011D00010D0032912D0042918D01EE06000201876
:1011E0002F54401946700FE0600020182E5440190B
:1011F000477009E0600020182E540BE060002018B2
:101200002F54962140194170877006E096216000A6
:1012100020182954401946708670641CE4B2102CC2
:10122000CDD3F8BD07212046FEF76CFF00290CD076
:10123000012912D0022918D0032922D004290CD068
:10124000052912D0062908D016E0600021186E5436
:1012500032204919487088700EE0600020182E5422
:1012600040194770322106E0CEE0600020182E546D
:101270003221401941708170641CE4B2102CD1D32A
:10128000F8BD6000962120182954401946708770D7
:10129000F2E7A00709D0A007800F01280CD0022890
:1012A00010D0E043800707D013E0600020182E54D0
:1012B0004019477087700CE0600020182F544019C7
:1012C000477005E0600096212018295440194670A7
:1012D0008670641CE4B2102CDBD3F8BD05212046D7
:1012E000FEF710FF002908D001290ED0022911D0E5
:1012F000032916D004291AD020E0600020182F54AA
:10130000401946703221817018E0600020182E5478
:10131000322110E0600096212018295440194670AF
:101320000BE0600020182E544019477005E0600063
:1013300020182E549621401941708770641CE4B225
:10134000102CCBD3F8BDA00711D0A007800F012827
:1013500012D0022818D09621600020182954401974
:1013600046708770641CE4B2102CECD3F8BD6000AA
:1013700020182F54F3E70EE0600020182F54401976
:10138000467032218170EDE7600020182F549621BD
:1013900040194170E5E709212046FEF7B3FE002918
:1013A00010D0012913D0022929D0032914D00429EF
:1013B0000DD005291CD0062909D007291FD00829DE
:1013C0000AD010E0600020182E54322101E096214E
:1013D00003E04019417010E03221600020182954C8
:1013E000401947708670641CE4B2102CD3D3F8BD4A
:1013F000600020182F54401946708770F3E7600092
:1014000020182F549621E4E710290BD24800091820
:101410005648425C2A700818417869708078A87034
:1014200001217DE01039042003220B0004F0B8FFF5
:101430000D091520313A437B85A0ACE6F6F408008F
:10144000D5E72F7032206E70A8709621E9702E714A
:101450006F71AE71E871287221E02F706E70AF70FD
:10146000EE702F716F719621A971EE712F72DEE00F
:1014700032212E706970AF70EE7096222A716F71F2
:10148000AE71E9712F726E72AF72EA7236490870EE
:10149000F8BD962028706E70AE70EF7047E032484D
:1014A0000270F8BD2E706F70AF70EF702E716F719B
:1014B000AE71EE713FE007212046FEF723FE0029C2
:1014C00012D0012909D002290ED0032914D00429F1
:1014D00003D0052918D006291DD1600020182E54EC
:1014E00040194770322115E0600021186E543220F7
:1014F0004919487088700EE0600096212018295420
:1015000040194670877006E0600020182E54322182
:10151000401941708170641CE4B2102CCBD30721B8
:1015200011480170F8BD2E706F70AF70EE702E71A3
:101530006E71AF71EF712E72B1E72F706E70322045
:10154000A870EE7028716F71AE71EF7196202F72D6
:101550006872AE72EF722E736873AF730521DFE7A6
:1015600026000020B40000202A000020E8670000C8
:101570002F706E70AF70EF702E71322068719620F0
:10158000A871EE712F728AE709212046FEF7BAFD95
:10159000002910D0012913D002292AD0032914D000
:1015A00004290DD005291DD0062909D0072920D0EE
:1015B00008290AD010E0600020182E54322101E0E2
:1015C000962103E04019417011E03221600020189B
:1015D0002954401947708670641CE4B2102CD3D390
:1015E00009219DE7600020182F544019467087702C
:1015F000F2E7600020182F549621E3E72E706F70F9
:10160000AF70EE70322129716F71AE719621E97160
:101610002F726E72AE720DE00EE0FFE72F706F70EA
:10162000AE70EF702E716F71AF71EE712E726E72BF
:101630003221A972EF7229E7084861006118425C03
:101640006A540A18491953784B70641C9278E4B2B2
:101650008A700C2CF1D30C2018E70000E86700001A
:10166000F0B52D482D4A84790123002C05D0467908
:10167000851E0021012E0BD016E028482038016A73
:10168000890104D5016A8402A14301629360F0BD1F
:10169000417141708170C170017129801668012704
:1016A000BF073E43166093609668F607F60FEED0CC
:1016B00093602A881A4E521C92B22A80B24201D3F9
:1016C0002980F0BD8278521CD2B282703C2A0ED39F
:1016D0008170C278521CD2B2C2703C2A07D3C1704A
:1016E0000279521CD2B20271182A00D301714278D9
:1016F000002AE6D18278002AE3D1C278002AE0D11C
:101700000279002A05D0A242DBD102220270C17107
:10171000F0BD0370C371F0BD5000002020000140F7
:101720008467000030B5154A1548002113684354FA
:1017300093695B0403D4491CC9B21429F6D301256B
:10174000022402290F4B017802D0FD290CD00EE0B3
:10175000FD2905D14178F02902D18078FE2801D0F9
:101760005C7030BD5D7030BDC079FE2804D05C7007
:1017700090682043906030BD5D70F9E7000005403F
:10178000910000200000002030B5124A002054785B
:10179000002C1DD00021104B012C07D0022C17D19A
:1017A0001954401CC0B21428FAD310E0012414705C
:1017B000084C0B341D186D782554401CC0B2062807
:1017C000F8D300201954401CC0B21428FAD3517029
:1017D00030BD0000000000209100002030B5284BF3
:1017E00000201C78002C16D02649012C14D0002291
:1017F000254D032C25D0042C31D0022C0BD1FD24F7
:101800000C601C1864780C60401CC0B20828F8D327
:10181000FE2008601A7030BDFC220A604C220A606B
:1018200041220A6032220A60174C241F225C0A609F
:10183000401CC0B20428F9D3FE20086002201870B2
:1018400030BD1A70FA230B600A600A600E220A602B
:101850002A5C0A60401CC0B20528F9D30CE01A705B
:10186000FA230B600A600A600F220A602A5C0A6091
:10187000401CC0B20528F9D3FE20086030BD00002E
:1018800088000020000005400600002010B50D492A
:101890000B78002B0ED0002201240B48012B02D024
:1018A000022B04D006E00A704178017001E00A7052
:1018B0000270C47001F070F904F086FBFFF734F990
:1018C00010BD000050000020260000200A492222FE
:1018D000CA604860012008610869C007FCD1086837
:1018E000400606D508684022104308600020C04327
:1018F000704700207047000000C000500248016897
:10190000012211430160704700C0005005490022C8
:10191000CA604860012008610869C007FCD1886876
:101920007047000000C00050054A2123D36050607A
:101930009160012010611069C007FCD17047000060
:1019400000C00050F8B50124240501F04FFCFFF75A
:10195000D5FF2E4908682022104308602046FFF773
:10196000D5FF2B4C60702B48FFF7D0FFA0702948A3
:10197000001DFFF7CBFF2849887126480830FFF784
:10198000C5FF2649087023480C30FFF7BFFF2449E4
:10199000C0B208801F481030FFF7B8FF2149C0B21D
:1019A00008801C481430FFF7B1FF1F490870194820
:1019B0001830FFF7ABFF1D49087016481C30FFF7C1
:1019C000A5FF1B490870134820300446FFF79EFF0F
:1019D0001849194E08700025241D2046FFF796FF70
:1019E00069006F18F055241D2046FFF78FFFBF19BF
:1019F0007870241D2046FFF789FF6D1CEDB2B8708A
:101A0000052DE9D30D4900200860F8BD00C0005045
:101A10002600002004001000500000204B00002091
:101A20004200002044000020190000201700002080
:101A3000180000201B000020A5000020000100501D
:101A4000F8B53448012401782405012961D1002129
:101A5000017001F0CBFBFFF751FF2F4801682022F6
:101A6000114301602046FFF731FF2C4D2046697875
:101A7000FFF75AFF201DA978FFF756FF294928488C
:101A80008979FFF751FF26482749001D0978FFF79C
:101A90004BFF2348254908300988FFF745FF2048B8
:101AA00023490C300988FFF73FFF1D4821491030BA
:101AB0000978FFF739FF1A481F4914300978FFF7F2
:101AC00033FF17481D4918300978FFF72DFF1448D8
:101AD0001B491C3004460978FFF726FF194E0025E4
:101AE00068002F18241DF15D2046FFF71DFFBF1968
:101AF000241D79782046FFF717FF241DB97820466A
:101B0000FFF712FF6D1CEDB2052DE9D30E49002041
:101B10000860F8BD4700002000C0005026000020EB
:101B200008001000500000204B0000204200002060
:101B3000440000201A000020170000201800002098
:101B40001B000020A500002000010050F0B59D49B9
:101B50000024CA788BB0012A43D09B4900220A7026
:101B60009A480178984800780446FEF7CBFA9848DE
:101B7000984D017048000E18A85D0090192105903D
:101B8000FEF7C0FA9449074608707519687819215C
:101B90000490FEF7B7FA914906460870A878192113
:101BA0000390FEF7AFFA8E49054608708D48015D37
:101BB000002943D001297DD002298B497BD0085DC3
:101BC0008A4A401CC0B20855125D7F4B904273D9BF
:101BD000002008556000864920180A5C002A6CD154
:101BE000B0E0844ECC70844D804F3470307841002A
:101BF00041187F4844540818447084702888411C58
:101C00002980FEF79EFA288811302880FEF790FA86
:101C1000C0B21421FEF776FA3078395471490C5469
:101C200071490C54401CC0B230700328DED3734994
:101C300032200870724804700BB0F0BD6A486B4ADD
:101C4000015D491CC9B20155125D9142BFD9002105
:101C5000015505210598FEF755FA02466000201847
:101C600063490090085C824213D805210498FEF76E
:101C700049FA01465E48009A101800904078814267
:101C800007D805210398FEF73DFA00998978884224
:101C90001ED9584800210170554856490B78E11863
:101CA0004A008918425CD219425409184A7892199C
:101CB0004A7003E00FE026E043E04AE08A785219D8
:101CC0008A705B1C19064B4A090E1170E5D06FE053
:101CD0004448012115E0474800220270444A037835
:101CE000009EE5186F00ED195655AD18049E6E70F4
:101CF0005B1C039E1B06AE701B0E0370EFD03948B1
:101D0000491C015554E0085D3C4A401CC0B20855CE
:101D100012782D4D90424BD90020085531480321AF
:101D20000155354C2088FEF70CFA208811302080B0
:101D3000FEF7FEF9C0B20A21FEF7E4F92B482A7833
:101D4000815435E042185078002802D19278002A58
:101D500019D0284800220270084626490B78E1185D
:101D60004A008918425CD21B425409184A78921BD7
:101D70004A708A78521B8A705B1C19061D4A090E2C
:101D80001170EAD014E0174E002535551A4C1F4645
:101D90002088FEF7D6F9208811302080FEF7C8F998
:101DA000C0B21421FEF7AEF9104A387811543554F8
:101DB00005480178491CC9B20170032900D2CFE659
:101DC0003AE7000026000020350000202A0000200D
:101DD00034000020B4000020310000203200002038
:101DE0003300002016010020E400002048010020FC
:101DF000DE0100202C0000202400002036000020FE
:101E00002D000020F0B500230125944603272A4623
:101E10009A400A4209D006685C003A46A2409643BE
:101E2000224664469440264306605B1C082BEED392
:101E3000F0BD0000044603A004F0A2FA204604F01E
:101E40007FFCFEE7496E2048617264204661756C34
:101E5000742048616E646C65720A00000F2801D915
:101E60000007000F0A2801D2303000E03730C0B23E
:101E700070470000F8B586488649C3788648002236
:101E8000012B3CD00B785B1CDBB20B70062B59D3BB
:101E90000A708249844C0F78009781492678097826
:101EA0007400491CCDB27F49B44609783419491CE5
:101EB0007E4ECBB20121A619012F7D4F3F7851D024
:101EC000002F7AD07B4C25786D1CEDB225702F2D1C
:101ED0000BD32270764C142B2270724C237004D9D1
:101EE0006B4B2270D970744B19706D4B1C78734B0F
:101EF000002C6FD0012C6ED0022C6DD1C6E0644B4B
:101F0000DA706B4B1A700A7065490A7066490A707C
:101F100068490A706A490B78002B14D00A70634C28
:101F200019212078FEF7EEF86649087060781921CB
:101F3000FEF7E8F864490870A0781921FEF7E2F886
:101F400062490870F8BD62490A700B785C001C1980
:101F5000025524185B1C6270DBB2A2700B70032B5D
:101F6000F3D3DCE7002F05D0012F27D00478002C15
:101F700039D132E04D4B584F1B5D564C032D237029
:101F800074783C70B778554E3770454E357002D333
:101F9000474D327029704E490A7035780A78A81872
:101FA000460086193C488355301844708770521C8F
:101FB0001006000E0870F1D0F8BD3BE03D480178F6
:101FC000491CC9B201702F29F6D30270384802218A
:101FD0000170F1E749E04AE04AE04478002C02D180
:101FE0008478002C1AD03E49364C0A70364B374A5A
:101FF00027781D7814780A785300D318C65C521CD1
:10200000F61BC6541B185E78D2B2761B5E709E78A3
:10201000361B9E700A70032AEDD3CDE72448142B9B
:10202000027020480370C7D9027023480170184815
:10203000C170C1E71D4B1C4F1C5D264B032D1C704E
:10204000254B74781C70254BB4781C70144B1D7094
:1020500000D24AE76446641C1A70E4B23C70009DEA
:10206000AC4200D33A70124B3EE71A7000E0197090
:1020700018490A7819784B00C9184254164A0818AA
:102080001278164942700978817095E70221EEE7CF
:102090002600002036000020DE0100202A0000205B
:1020A0002D0000203A00002034000020B400002061
:1020B000160100204801002016000020AC0100207D
:1020C00046000020310000203200002033000020B4
:1020D0002C0000202E0000202F00002030000020C7
:1020E0002B00002010B53048018811310180811C7F
:1020F0000878092839D008DC030004F051F9091BDD
:102100001E2124272A2D303318000E283CD008DC4D
:102110000A282DD00B282ED00C282FD00D2806D120
:102120002FE0FB2833D0FD2834D0FF2836D00A20FA
:10213000087010BDFEF7CAF810BD03F003FF10BD14
:10214000FEF784F910BD03F0D1FD10BDFFF792FE3C
:1021500010BD01F067F810BD00F010FF10BD00F0D9
:10216000FFFD10BDFFF7F2FC10BD00F037FD10BD04
:10217000FEF716FF10BD01F063F910BD01F0A6FDDA
:1021800010BD02F0E1FC10BD00F0F8FA10BDFA221B
:10219000002101E00022FA21002002E00022114685
:1021A000FA20FEF74BF810BD24000020F0B5012204
:1021B0005D4800215300D4185C4BE61800243578A4
:1021C0000023761CEF0970D00127076100BF00BF14
:1021D00000BF00BF00BF00BF00BF00BF00BF00BF07
:1021E00000BF00BF00BF00BF016100BF00BF00BF54
:1021F00000BF00BF00BF00BF00BF00BF00BF00BFE7
:1022000000BF00BF00BF00BF00BF00BF00BF00BFD6
:1022100000BF00BF00BF00BF00BF00BF00BF00BFC6
:1022200000BF00BF00BF00BF00BF6D065B1C2D0ECE
:10223000DBB2082BC6D3641CE4B2032CBFD3521C00
:10224000D2B2032AB6D3394B394A3A485D78567828
:102250000403002D4FD0012E06D001265670866B48
:1022600001277F033E438663A563314E1D78367890
:10227000002D48D0012E06D001261670866B01274E
:102280007F023E438663A5629D78294B002D9B7893
:1022900041D0012B06D001219170816B01221203E4
:1022A000114381636563F0BDFFE70127076100BF4C
:1022B00000BF00BF00BF00BF00BF00BF00BF00BF26
:1022C00000BF00BF00BF00BF00BF00BF00BF00BF16
:1022D00000BF00BF00BF00BF00BF00BF00BF00BF06
:1022E00000BF00BF00BF00BF00BF00BF00BF00BFF6
:1022F00000BF016191E7002EB7D05170856B0E4E83
:1023000035408563B1E7002EBED01170856B0B4E52
:1023100035408563B8E7002BC5D09170816B084AC2
:1023200011408163BFE7000040420050DE01002001
:102330004800002040000440DFDFFFFFFDFDFFFFFD
:10234000EFEFFFFF70B5FEF7D9FA00F05DFF032154
:102350002948090201600168022211430160012439
:102360004460016880221143016024480025056013
:10237000234E032210213046FFF744FD0122202185
:102380003046FFF73FFD1E480122E0214038FFF7AD
:1023900039FD1B48012210214030FFF733FD194859
:1023A0000561184840384463174C1421204603F057
:1023B00023FF606810210843606008021349086029
:1023C0004B21C901204603F0D7FE114C3222710582
:1023D000204603F0A5FE2168A003014321600D49BA
:1023E00021620D4961620A4920310A6802430A608C
:1023F00000F0AAFB70BD000000400040000100504A
:1024000040400050404200500000054000E100E024
:1024100000000140FF0000081BB70000F0B5404C71
:10242000404AE0790023404D012804D1E371207A2D
:1024300060722B70137027793C4E3D493D48012F47
:1024400020D017787F1CFFB21770022F19D313709A
:102450002A78002A3AD0521ED2B22A700B7053004A
:10246000D218B55C9219567894780A785300D3182C
:10247000C5541B18521C5E70D2B29C700A70032A9D
:10248000F3D3F0BD2A78677ABA4216D20B705300A4
:10249000D318F45C9B195F789D780B785E009E19C9
:1024A000845536185B1C7770DBB2B5700B70032B4C
:1024B000F3D31D48521C0270F0BD1F4823710A213E
:1024C00001701E4803701E480370F0BD0278002A98
:1024D00005D14278002A02D18278002A19D00B70E7
:1024E000154C164B164A27781D7814780A78530035
:1024F000D318C65C521CF61BC6541B185E78D2B2A9
:10250000761B5E709E78361B9E700A70032AEDD390
:10251000F0BDE37000202370C043A071F0BD000047
:1025200064000020E4000020400000201E6800003D
:102530002C000020DE0100203100002032000020AD
:102540003300002030B52148214BC4790021214AB5
:10255000012C04D1C17111701970047A447204798C
:10256000012C1FD11C78641CE4B21C70022C05D312
:1025700019701378062B01D25B1C13701278164C5D
:10258000164B032A0FD22270407A550041004118A1
:1025900013485219445C08189C544478D1184C7064
:1025A0008078887030BD062A09D2D21ED0B2207041
:1025B000420080181954C0184170817030BDC1703C
:1025C00000220170D2438271017130BD640000208D
:1025D000E4000020400000202C000020DE0100204C
:1025E0001E680000F0B52849284AC8790023284E03
:1025F000012806D1CB71087A4872337025481370D0
:1026000003700C792448012C147811D0641CE4B2B6
:102610001470022C0BD313703278032A2ED251007F
:1026200051184354081843708370521C3270F0BD27
:10263000641CE4B21470022CF9D3137032784C7A13
:10264000A24218D2154954000B70154B15195C5D48
:10265000EB185D789F780B785E009E1984553618CC
:102660005B1C7570DBB2B7700B70032BF3D308489B
:10267000521C0270F0BD0B713370F0BD0B70002066
:10268000CB70C0438871F0BD64000020E4000020DE
:102690004000002016010020DE0100202C00002058
:1026A0001E68000070B52F4B2F4CD8792F4D00229B
:1026B000012804D1DA712A702270187A58721E79B2
:1026C0002B482C49012E12D0027004786500651940
:1026D0004A556D18641C6A70E4B2AA700470032C29
:1026E000F3D3DA7000201A70C043987170BD267859
:1026F000761CF6B226700F2E07D322702C78032C8E
:1027000002D2641C2C7000E01A712C78002C13D0BB
:10271000012C03D0022C0FD0032CE7D102700378D8
:102720005C001C190A5564185B1C6270DBB2A27055
:102730000370032BF3D370BD02705B7A0E4A5C000A
:102740001B19D55C9A18537896780278540014199E
:102750000D556418521C6370D2B2A6700270032A21
:10276000F3D370BD64000020E4000020400000208E
:102770002C000020DE0100201E680000F8B545484E
:102780004178002973D041890024491C89B24181D4
:102790004148FA2906D33F494C700A2101700121B2
:1027A000C17002E0C17801292CD1C4703B4E3C4974
:1027B0003C483470047032780378D5186F00ED19F6
:1027C0004C556D185B1C6C701B06AC701B0E0370B7
:1027D000F2D0521CD2B23270032AEBD3324A334BBE
:1027E000334D344E0470017854545C546C5474541A
:1027F000491CC9B201700329F5D32F49FF20087085
:102800002E480470234DA878012820D1AC70287878
:1028100005210646FDF776FC40B26871062169562F
:10282000814204DDEA78002A11D1002E0FD9032855
:1028300001D0052804D1884202D12979012911D07B
:102840000121E97101212971A871EE702E72052113
:10285000287AFDF757FC030003F0A2FD06070A0DD6
:1028600010131619EC71EDE701E0FFF7D7FDF8BD85
:1028700000F026F8F8BDFFF715FFF8BDFFF762FE80
:10288000F8BD00F06BF8F8BDFFF7ACFEF8BD00F046
:10289000B1F8F8BD640000202600002035000020BB
:1028A000DE0100202C000020E400002016010020A2
:1028B000AC0100207A0100203400002048010020F3
:1028C00030B52149214BCC790020214A012C02D17D
:1028D000C871187010700D791E4C012D0BD0137833
:1028E000032B2AD25900591860540919487088706E
:1028F0005B1C137030BD1D786D1CEDB21D70022D78
:10290000F8D318701378082B14D25B1CD8B210704F
:102910000428EFD2097A45004A008A180E49401966
:1029200000198B5C2038437751184A788277897870
:10293000C17730BD1070087130BDC87008700020BC
:10294000C043887130BD000064000020E400002016
:1029500040000020DE0100201E68000030B51F4A44
:102960001079012825D11E4B1E491878401CC4B28D
:1029700000201C70052C05D318700B78062B01D293
:102980005B1C0B700C78184B1849032C12D20220D8
:10299000001BC0B21870527A45005300D318144A75
:1029A0004019D45C0C549A185378401843709178AD
:1029B000817030BD062C0AD20522121BD2B21A70C9
:1029C0005300D218885451184870887030BDD070A8
:1029D00000211070C9439171107130BD6400002056
:1029E000E4000020400000202C000020DE01002038
:1029F0001E680000F0B54A484A4CC179057A87B094
:102A0000012936D10027C7714572474849490770E7
:102A10004648077046480770680028180090085C10
:102A20001921FDF76FFB444906460870414900989B
:102A30004018009040781921FDF764FB01463F489B
:102A400001700191009819218078FDF75BFB3C49EA
:102A5000024608703B490F7008784300C318E654DB
:102A60001B19019F401C5F7000069A70000E0870D1
:102A7000F2D02B480179012926D02C4A1178491C23
:102A80000906090E11701DD000211170264A137815
:102A9000002B3FD05B1EDBB213702A485A00017036
:102AA00024499A188D5C51184A788E7801784B0029
:102AB000CB18E5541B19491C5A70C9B29E7001709D
:102AC0000329F3D307B0F0BD174A117819291DD295
:102AD000491C11701B4800220270174D174B184AF1
:102AE0002D781B7812784D434B434A43EDB2DBB24D
:102AF000D6B201784A008A18A5541219491C53709D
:102B0000C9B2967001700329F3D3DBE7002101718C
:102B10001570D7E70170C1700021C9438171D1E7F9
:102B200064000020DE01002040000020E4000020BE
:102B3000160100201E680000310000203200002035
:102B4000330000202C0000200F480E4901600F497F
:102B5000416081680E4A11438160FF21C1600161BB
:102B6000C161016200214162816241638163064962
:102B70004031CA6933231A43CA618168054A114347
:102B8000816070473B003B0000000440330033008D
:102B900088008800110011000E480021027A002AE6
:102BA0000BD0827B521CD2B28273FA2A05D3817376
:102BB0000172094B417201221A70C27B002A07D0B0
:102BC0000278521CD2B20270FA2A00D3C173704745
:102BD000017070471100002047000020F0B55548F3
:102BE000554BC57855480021554C564A89B0012DA2
:102BF00006D01D78052D11D26D1C1D7009B0F0BDD9
:102C00004C4DE970FF25257011704F4A4F4C1170E3
:102C10002278521C227001701970EFE700211970A0
:102C2000484907780E78711CC9B2039144490D7860
:102C30006B1ED9B20791444909784B1CDBB205934E
:102C4000731EDBB206936B1CDBB204934B1EDBB22C
:102C500008933B0003F0A4FB0B070D131A21283047
:102C600035393D424700FF2E01D2039811E0012182
:102C700037E0002D01D0079812E0022131E0324BFD
:102C8000FF2901D2059813E003212AE0002E02D08B
:102C90000698107038E0042123E0FF2D02D204983A
:102CA000207031E005211CE0274B002902D0089854
:102CB000187029E0062114E0234BFF29E2D30721F5
:102CC0000FE0002DD7D108210BE0FF2ECDD3092135
:102CD00007E01D4B0029EAD10A2102E0FF2DDED3D7
:102CE0000B21017010E0002ED2D100210170184894
:102CF00003785B1CDBB20370142B05D901700D49FE
:102D00000120C870134908701348002101700E4E4D
:102D100023781249157834780278560096198B5525
:102D20007618521C7570D2B2B4700270032AF3D3B5
:102D300064E7000026000020360000201601002075
:102D40002E0000202F00002030000020E400002092
:102D50003A000020160000202C000020DE01002098
:102D6000F8B57749774FCA780024012A6DD07649A3
:102D700000220A707548744C0188724DC91D01808B
:102D80002078295C491C2954FDF7D2F9C0B20521ED
:102D9000FDF7B8F92478285D814255D200202855E6
:102DA0006B4801782046FDF7ADF96A486A4F01701B
:102DB00048000E18B85D1921FDF7A4F967490546CA
:102DC0000870F71978781921FDF79CF964490646CF
:102DD0000870B8781921FDF795F9624908706249C1
:102DE000095D002957D061006118604A604F8C4628
:102DF000525C395D0B466B439A420CD85B4A0F46D6
:102E0000624453787743BB4205D892784E4B584F73
:102E100041438A427ED9574900220A705349554A94
:102E20001778E2195300D2188B5C5B1B8B54521835
:102E300053789B1B537093781B1A93707F1C3A0630
:102E40004C4B120E1A70EAD071E04A4DCC70474ECE
:102E50002C70287841004118745489194C708C707A
:102E600041493C540C5439490888421C0A80FDF7FA
:102E700068F9FDF75DF9C0B21921FDF743F93C4A45
:102E800028781A311154401CC0B228700328E0D3AE
:102E900039480470F8BD61006118344A344F8C46DB
:102EA000525C395D0B466B439A420CD32F4A0F4656
:102EB000624453787743BB4205D39278224B2C4F20
:102EC00041438A421AD22B4A002111702749294ACC
:102ED0001778E2195300D2188B5C5B198B54521887
:102EE00053789B19537093781B1893707F1C3A0684
:102EF000204B120E1A70EAD019E00BE01A4801219B
:102F00001D460155FDF714F9C0B20A21FDF7FAF884
:102F100028780BE0144900201D460855FDF708F9F4
:102F2000C0B21921FDF7EEF828781A313954064855
:102F30000178491CC9B20170032900D21AE7F8BD13
:102F400026000020E400002035000020240000209E
:102F50002A00002034000020B400002031000020AE
:102F6000320000203300002016010020DE01002086
:102F7000480100202C00002036000020FEB58C49BE
:102F80008D4ACB788B48127800928C4C8C4F857888
:102F900046780278012B06D08A490B78282B7DD2FF
:102FA0005B1C0B70FEBD0023CB7019211046FDF792
:102FB000A9F885490870019019213046FDF7A2F85B
:102FC00082490646087019212846FDF79BF880497A
:102FD000054608700098012830D07E49002008700E
:102FE0007C4E009930780446FDF78CF87A48734A95
:102FF0000170002010706F484B00C918435C08181E
:103000004578877811786018460086196C48835592
:10301000301845708770491C0806000E1070F1D0FA
:10302000641C6C49E0B208700328D9D365490020BC
:1030300008706A49087068490870FEBD0020207059
:10304000C0B207460099FDF75DF863480170F807C4
:10305000019815D03221484379007A185849322313
:103060008854304658435118487028461A465043F1
:1030700088707F1CF8B220700328E1D3D6E70DE0FA
:103080000A21484379007A184D490A23885430466A
:1030900058435118487028461A46E8E700230B7039
:1030A00000994F4B012949D04B4D2A7851005118B6
:1030B000465C1E70081802964A4943780B70817866
:1030C0004948521C0170D0B20191287000999C4669
:1030D000884201D3002028703E4802210170384602
:1030E000002121703B490B78257859194A008E1828
:1030F0003218114620394F7F87558E7F5670C97F11
:1031000091706D1C2906090E2170EDD05B1E3149AE
:103110001A06120E0A70E3D100212170CAB25100C2
:103120005118029B4354091863464B70019B8B70E6
:10313000521C1106090E2170F0D0FEBD27480178FF
:10314000002906D027491A700E7027490D700021FA
:1031500010E01D4914220978514319701B49097860
:103160005143204A11701A491422097851431E4ACA
:103170001170012101700220207038462578690005
:103180006E183218114620394F7F87558E7F567042
:10319000C97F91706D1E2906090E2170EED1197834
:1031A00001701049097841700F4909788170FEBD9E
:1031B00026000020B40000202A0000202C0000205F
:1031C000DE01002036000020310000203200002007
:1031D00033000020350000203400002016010020BC
:1031E0002E0000202F0000203000002010B55921B3
:1031F0000448162288230160026003600468002CE2
:10320000F9D010BD0001005010B559210448162214
:1032100088230160026003600468002CF9D010BDAF
:1032200000010050F8B56B486B4DC0786B4E002420
:1032300001281ED02878401CC0B2287004284CD326
:103240002C703046077866486949067865480A78E0
:103250000078684984466448674B05786348097874
:1032600000781B78002F39D0012F54D0022F51D174
:103270005CE058486249C4706048047002785300AA
:10328000D318CC545B18521C5C70D2B29C70027084
:10329000032AF3D35B481921047057483470047033
:1032A00059482C7004705148584D047050480470AF
:1032B000504804702878FCF725FF49490870687861
:1032C0001921FCF71FFF47490870A8781921FCF75E
:1032D00019FF454908704E480470F8BD5F00DB19BE
:1032E0004A4FFF5C874207D8484FDF197B789342EB
:1032F00002D8BB788B4208D93C4B801918703C48E7
:10330000624402703B4849191DE0344801210170B4
:103310003D48047048E03C480178491CC9B201703E
:10332000322941D304702D4802210CE0074617438F
:103330000F430AD02D4B801B18702D486346D21ABC
:1033400002702C48491B01702EE024485B1C04705D
:103350002948D9B22F4A0170127891420DD32E49D3
:1033600004700A78521CD2B20A70062A05D90C7071
:10337000184A0121D170294A11700078234D41006B
:103380004618A85D1921FCF7BDFE1549751908708E
:1033900068781921FCF7B6FE12490870A87819213F
:1033A000FCF7B0FE104908701448114B04700F4C24
:1033B000104A1E781249257813780278540014199F
:1033C0000D556418521C6670D2B2A3700270032AA5
:1033D000F3D3F8BD2600002036000020160100209F
:1033E0003100002032000020330000202E00002099
:1033F0002F00002030000020340000202C0000208E
:10340000DE010020E400002048010020B40000207C
:10341000460000202A0000203A000020160000206C
:1034200006498A691202FCD408600A2804D1886916
:103430000002FCD40D200860704700000000054029
:10344000F8B5254E0022F178244B2548012910D0EB
:1034500004880121234D002C16D02746FF3FCD3F85
:1034600005D005277F02BC4211D102220CE0197061
:103470000BE0F27002801C481A70027000221146A4
:103480001046FCF7CBFEF8BD1A7029700BE0174F01
:10349000BC4201D10322F7E7154DAC4203D10280B3
:1034A000144AF17011700188491C018018780028B5
:1034B00008D0012809D002280AD00328E3D100F05F
:1034C000A3FAF8BD00F018F8F8BD00F0C7F8F8BD91
:1034D00000F042FAF8BD000026000020380000206D
:1034E0003E0000203900002041000020840D000033
:1034F0009411000016000020FEB54A484A4D01789C
:1035000000244A4E01291AD02878401CC0B22870E5
:1035100002282AD3002028703046017844480078D9
:10352000401CC4B243480029077843480678434802
:1035300005784348007819D001296AD14AE0002271
:10354000047011461046FCF769FE3A482C7004706E
:10355000394804703948047035480470384804709C
:1035600038483470047038480470FEBD410040187B
:1035700036490090085C1921FCF7C4FD0146344827
:10358000017001913149009840180290407819214A
:10359000FCF7B8FD01462F480170009102981921EF
:1035A0008078FCF7AFFD2C49224A08700199281851
:1035B000791811700099204A711811701F49192C3F
:1035C00008701B48047024D30021017017480121A2
:1035D00001701EE01E4A17491278BA1A0A701D4A75
:1035E00015491278B21A0A701B4A14491278AA1A9D
:1035F0000A700F49192C0C700BD300220A700B496A
:10360000401C0A700E4AC0B21070032801D9022073
:1036100008700A4802780848017806480078FCF7E4
:10362000FDFDFEBD390000203600002040000020D6
:103630002B0000202E0000202F0000203000002052
:10364000340000203700002041000020B40000209A
:10365000310000203200002033000020F0B5B148D6
:10366000B14C0178B14F00268BB001292ED02046F5
:103670000178AF4A3846007812780492AD4A401C6F
:103680001278C0B2521CD2B20992AB4A1278089298
:10369000521CD2B20792049A521CD2B203924A1C14
:1036A000D5B2A64A13785A1CD2B20192A44A147811
:1036B0005A009A18A34B0A92D2180B0002F070FE1F
:1036C00009204B94D694D694D6FDFC0000220670B7
:1036D00011461046FCF7A2FD3E709B4826709B4A9F
:1036E000067001785654491CC9B201703229F8D3CA
:1036F000914806708F4806708D4806700BB0F0BD7B
:1037000038700428FAD33E708A4909980870032853
:1037100012D90E700898884C03280DD242008018E8
:10372000884B8B4A1D5C1554C3185D788018457012
:103730009A788270079820707D4A0398107032281A
:10374000DCD37948012202708248062202707A484E
:1037500006700E70D2E738700A28CFD30020387078
:1037600074490998087003282DD300200870764802
:1037700002210170744876490278500016187718B3
:103780003B46203B587F8855987F7870D87FB8702B
:10379000521E10066C49000E0870EBD16D496C4B3F
:1037A000087842008618674A401C975DB2181F705F
:1037B00056785E709278C0B29A700870A04202D3B8
:1037C0006448002101705B490878401CC0B2087051
:1037D000502893D30020087053490D705649087043
:1037E0005349087055493FE03870142886D30020AB
:1037F00038705548022101705348554B00784100FC
:1038000046188446F11808462038477F9F55837F25
:103810004B70C07F88706046401E00064A49000E0B
:103820000870E9D147490A9B4448CB5C48490B7072
:1038300053784B7092788A7001990170A14201D33C
:10384000002101703A49039A0A70082A85D3364A42
:1038500015700278521CD2B20270A24201D300222B
:103860000270002008703449087047E73870142847
:10387000FBD300203449387008703348344903784A
:1038800058001E187018C7788F550179417041791A
:1038900081705B1CD8B22C4902280870EDD32948EE
:1038A0000A9B2649C35C2A4883715378C371927876
:1038B00002720198087001E031E00AE0A04201D3F1
:1038C0000020087004981A490828CED316480570BD
:1038D000C7E738700A28C8D3002038701A4B022076
:1038E00018701B481C786100661832181146203980
:1038F0004F7F87558E7F5670C97F9170641E210659
:10390000090E1970EED10170417081700A48079A52
:103910000270082AA9D3044A15700170EEE6FF214F
:103920000148FAE73900002040000020360000205E
:1039300041000020370000203B0000203400002020
:103940002A000020B40000202B000020AC01002041
:10395000DE0100207A010020F8B52048204D0178D2
:10396000204E0024204F01291CD02878401CC0B2D2
:103970002870082815D32C70307839460978032828
:1039800022D24A008A1819494300C4188D5C184B8A
:1039900051181D55E2184D78557089789170401C6A
:1039A0003070F8BD0022047011461046FCF736FC5A
:1039B00010482C7004703C700F48347004700F482D
:1039C00004700F480470F8BD491CC8B234700D492A
:1039D000387009788842F6D33C70F8BD3900002071
:1039E000360000203B00002034000020B4000020FE
:1039F000DE010020400000203C00002037000020B5
:103A00007A0100202A000020F0B59E4800240178A9
:103A100085B0012922D09C48A34B07789B480078A9
:103A200003909B48007802909A48007801909A4849
:103A30001B78067899485D00017899485B190278EF
:103A400098489A4D00785D19401C0093C0B23B0025
:103A500002F0A6FC052F6D97B1E06B000022047008
:103A600011461046FCF7DAFB88488F4D04708848F1
:103A70008E4E047087480470287841004718F05D26
:103A80001921FCF73FFB8449BE1908707078192191
:103A9000FCF738FB81490870B0781921FCF732FB3C
:103AA0007F4908707F480470814804702C70764804
:103AB000AEE07C4B0828187037D31C700398734B0A
:103AC0008019C0B21870029E714B7118C9B219707A
:103AD000019F704BBA18D2B2704D714E1A70FCF73C
:103AE0009DFB73480178491CC9B201700A291CD991
:103AF000047065480178491C01706E48047035E017
:103B000000786A4C41004718E05D1921FCF7FAFA89
:103B100061493C19087060781921FCF7F3FA2870A4
:103B2000A0781921FCF7EEFA307005B0F0BD300135
:103B3000801B564BC0B218700B01591A544BC9B2B6
:103B4000197013019A1A534BD2B2544D544E1A7035
:103B5000FCF764FB57480178491CC9B20170282959
:103B6000E3D9047048480178491C01704E48524A14
:103B70000178491CC9B2017012789142C0D3047017
:103B8000BEE74A480099424A405C4049414B0870B0
:103B900069781170AA781A70FCF740FB45480178E3
:103BA000491CC9B201705029BFD904703648017848
:103BB000491C017064E03B4B06281870B5D31C709B
:103BC0000398324B801BC0B21870029D304B691AAB
:103BD000C9B21970019D2F4BAA1AD2B21A70FCF704
:103BE0001DFB33480178491CC9B201700F299CD9CB
:103BF000254904700A78521C0A702E492F4A0C700D
:103C000001785454491CC9B201703229F8D32C48A8
:103C100004708AE723490628087086D30C70284967
:103C20000878032808D24200264B82189C54D218E8
:103C300054709470401C087023480178491CC9B224
:103C400001703229E5D310490C7004700F480470DC
:103C50000F4804700F48047014480099405C192103
:103C6000FCF750FA0C49087068781921FCF74AFAF9
:103C70000A490870A8781921FCF744FA0849087025
:103C80000B48C5E739000020400000202E0000202E
:103C90002F000020300000203100002032000020E2
:103CA000330000203600002034000020B400002043
:103CB0002B0000203C0000202A000020AC01002046
:103CC0003B000020DE01002041000020F8B5274E17
:103CD0000023F178264A274801290AD004880121C7
:103CE000254D002C0ED0CD27FF00BC420DD1117008
:103CF00009E0F37003801370002211461046FCF7B0
:103D00008DFAF8BD1370297015E01C4FBC4201D12B
:103D10000223F7E71A4FBC4201D10323F2E7194F00
:103D2000BC4201D10423EDE7174DAC4203D103801F
:103D3000164BF17019700188491C0180107803003E
:103D400002F02EFB0505080B0E110400D9E700F068
:103D500049F9F8BD00F01CF8F8BD00F0D5FAF8BD3F
:103D600000F014FCF8BD00F039FEF8BD260000207C
:103D7000380000203E00002039000020520D0000D5
:103D80006E0F000092130000581B00001600002068
:103D9000F8B58048804D0178804E002401292DD04F
:103DA0002878401CC0B22870042826D30020287030
:103DB00030467C4907780E787948711C0078CBB280
:103DC0007A4C7100401C7218774D1119C0B2002F47
:103DD0002DD0012F63D0734F032E07D2AE5CA654B3
:103DE000521954784C7092788A703B706C4928282C
:103DF000087002D36948FF210170F8BD00220470E9
:103E000011461046FCF70AFA6948032101702C702C
:103E100068483470684A047001785454491CC9B227
:103E200001703229F8D35F4804705D4835E0032EF5
:103E30000CD25F4E36787700F619AF5DA754721931
:103E400054784C7092788A7056490B7054493228D5
:103E50000870D2D351490120584D08700024584EA3
:103E6000584F2C7058490888113080B20880FCF7F0
:103E700068F9FCF75DF9C0B21421FCF743F9534A25
:103E800028781154012139543454401CC0B2287090
:103E90003228E7D34E4804704E480470F8BD474EB0
:103EA0000020484F3070C0B2395C00290FD0012982
:103EB0001DD041004118625C5208625409194A78C9
:103EC00052084A708A7852088A7000212CE03849DA
:103ED00009784A008B184100EA5C411862545A196B
:103EE000537809194B7092788A7001211CE0344B89
:103EF00036491A5C521CD2B21A54095C8A4214D94F
:103F00000021195430490888113080B20880FCF72C
:103F100018F9FCF70DF9C0B21421FCF7F3F82B4A9D
:103F200030781154395C491C39543078401CC0B287
:103F300030700328B7D326480178491CC9B20170F4
:103F40003229ABD90024154F0470194E3C703078DB
:103F5000214A41004118685C10704A191F4B517882
:103F600019701F4B92781A70FCF758F93078401C82
:103F7000C0B23070052801D9022038700D480E4AB1
:103F8000047001785454491CC9B201703229F8D325
:103F900049E70000390000203600002040000020E2
:103FA000410000203B000020B4000020DE01002082
:103FB000340000202B000020AC0100202C00002049
:103FC000E400002016010020240000204801002009
:103FD0003C000020370000202E0000202F00002091
:103FE00030000020F0B5B949B9480E780578B94AD3
:103FF000B94BBA4C002089B0012E46D01146B94ABF
:104000000E781278B649521CD2B209789446721CC6
:10401000D2B2491C0592B44FB44AC9B2002E5BD04B
:10402000012EAF4E31707DD00A2953D330703978CC
:10403000002978D0012977D0022976D0AC48002118
:1040400001701146097806914A0089185A5CC9180E
:1040500004924A788E7894460178049B4A008A1824
:10406000A35412196346491C5370C9B2967001706B
:104070000329F1D306999D48491CC9B20170A94290
:1040800001D300210170002008E100200870994947
:10409000934E08703070964E10703070C0B2294642
:1040A0000746FCF72FF893488B4B0170480008181F
:1040B00079001A5C79186254C018427809194A705C
:1040C000807888707F1CF8B230700328E6D3854969
:1040D0000020087009B0F0BD814B14291970F9D384
:1040E00000211970844B207818700690834B6078FB
:1040F00018700090824BA078187003907C48017073
:10410000CBB259005D182919CE7866550D794D70DE
:104110004D798D705B1CD9B201700229F0D30698DD
:10412000A07103E017E090E0A4E0B9E00098E0712E
:10413000039820726B49604608701428CAD3002087
:1041400008706449059B0B706A4908706D490870D6
:1041500038701070BEE70A29BCD330703978002956
:1041600033D0012946D002295AD061495F4A0870EC
:1041700012780892560092199E5CD21807965378CE
:104180000393927801920A78079E5300D318E6545D
:104190001B19039E5E70521C019ED2B29E700A7063
:1041A000032AF0D3089A5149521CD2B20A70AA428B
:1041B00000D3087038704B4962460A70642A89D36C
:1041C000087044480599017084E7484909784A0015
:1041D0008A189E5C2670D218537863709278A27009
:1041E000491CC9B2414AA942117001D31146087055
:1041F000012113E03D4909784A008A189E5CA671A6
:10420000D2185378E37192782272491CC9B2374AA6
:10421000A942117001D31146087002213970CAE712
:10422000324909784A008A189E5CE670D2185378A1
:10423000237192786271491CC9B22C4AA94211704B
:1042400001D3114608700321E8E7284909784A009C
:104250008A189E5C2670D218537863709278A27088
:10426000491CC9B2214AA942117001D311460870F4
:10427000012013E01D4909784A008A189E5CA67146
:10428000D2185378E37192782272491CC9B2174A46
:10429000A942117001D3114608700220387019E745
:1042A000124909784A008A189E5CE670D218537841
:1042B000237192786271491CC9B20C4AA9421170EB
:1042C00001D3114608700320E8E700003900002000
:1042D0002A00002040000020B4000020DE01002061
:1042E000360000203C000020160100207A0100204A
:1042F0002B000020340000202E0000202F00002082
:10430000300000203B000020F0B59349934D087821
:1043100087B0012819D09348914B0078934C401CEA
:10432000C1B291482E7802781B781746521CD0B241
:104330007A00BF183A19002E14D0012E27D0022E71
:1043400039D0032E4DD005201FE00020087086498B
:10435000087087490870834928700870854908707B
:1043600007B0F0BDE65D844C14292670567866705F
:104370009278A2707B4A1170F2D300247A491470AB
:104380000870984200D30C7001202870E8E7E65DC1
:10439000794C1429E6705678267192786271714AC8
:1043A0001170DDD30024704914700870984200D356
:1043B0000C700220E9E7E65D6F4C1429A67156786F
:1043C000E67192782272674A1170C9D30021117088
:1043D000654A9842107000D3117003202870674816
:1043E000A9E063480178491CC9B201700229B7D31A
:1043F000002101706048017805914778867800298E
:1044000003D1002F01D1002E27D05A480078410057
:1044100040180290205C1921FBF774FE584908707F
:10442000049002981921001902904078FBF76AFE67
:10443000544908700390029819218078FBF762FEB6
:10444000024651484C490270059B0498181A08709E
:104450000398381A4870B01A887048480078069057
:104460000F2830D34448C1780591027901924679EA
:10447000002903D1002A01D1002E24D03D48007824
:10448000410040180719F8781921FBF73BFE3C4919
:104490000870049038791921FBF734FE3949087007
:1044A000039078791921FBF72DFE024636483249F0
:1044B0000270059B0498181AC870019B0398181A7B
:1044C0000871B01A487106981E282DD32A488179A0
:1044D0000591C779067A002903D1002F01D1002E5A
:1044E0002BD024480078410040180519A8791921DB
:1044F000FBF708FE224908700490E8791921FBF7C0
:1045000001FE204904460870287A1921FBF7FAFDBC
:104510001D4902460870059B04981749181A8871AE
:10452000381BC871B01A087206981F2800D317E705
:1045300012480178491C017012E700200D492870CB
:104540000A78D21CD2B20A70092A01D30421297038
:104550000A490870ECE70000390000204000002004
:104560002A0000203C00002034000020B40000207D
:104570003600002016010020DE0100203B00002054
:10458000310000203200002033000020F0B5FE4949
:1045900000240A78FD488BB0012A28D00778FC480F
:1045A000002F00788446FB4800780090FA48007895
:1045B0000690FA480378FA480178FA48027844D01D
:1045C000F248FA4E0078401CC0B20590F6483678A2
:1045D00000780996451CEDB2012F7CD0022F7BD0CC
:1045E000032F7AD0E949042008700BB0F0BD0C709D
:1045F000EE4DEF492C700C700470EB4800220470F3
:10460000EC4811460470EC4804701046FBF706FEB7
:10461000DF480470DF480470DF4804702878E74CF6
:1046200041004518605D3221FBF76CFDDB492C1918
:10463000087060783221FBF765FDD9490870A078D1
:104640003221FBF75FFDD749CEE76046D04EC01858
:10465000C0B23070009ECF4B7118C9B21970069E5F
:10466000CD4BB218D2B2CD4D1A70FBF7D7FDD24860
:104670000178491CC9B201703229B6D3C348CF4E64
:104680000178491C0170C948017848000F18F05D95
:104690003221FBF737FD2870BD1968783221FBF70E
:1046A00031FDBF490870A8783221FBF72BFDBD49C9
:1046B000C34D0870BC48C34E0470BF48C24F04705D
:1046C0002C70C248297844543088113080B2308030
:1046D000FBF737FD02E010E092E00AE1FBF728FD6E
:1046E000C0B20521FBF70EFD2878491D3954401C46
:1046F000C0B228703228E4D377E7032839D2B04813
:104700000470AF48B14D00782D5C012D2AD0B04D1A
:10471000AD4F2E5C761CF6B22E543F5CBE420DD3DC
:104720002C5445004619AB4DAF5DFF1AAF557519B6
:104730006E78761A6E70AE78B61AAE70450046196D
:10474000A44DAF5D002F0DD175196E78002E09D1E3
:10475000AD78002D06D1944D2E78761C2E709B4E90
:1047600001253554401C964DC0B228700328C8D38B
:1047700001E08D4805708C4801783729BCD304705E
:1047800082480599017009998848491CC9B2924A22
:1047900001701278914200D304700078874D410077
:1047A0004618A85D3221FBF7ADFC7C4975190870ED
:1047B00068783221FBF7A6FC79490870A878322185
:1047C000FBF7A0FC77497E4D08707E4E7E4F2C7023
:1047D0007E48297844543088113080B23080FBF70D
:1047E000B0FCFBF7A5FCC0B20521FBF78BFC2878D9
:1047F000491D3954401CC0B228703228E8D3F4E671
:104800006A4E36787700F6196C4F0196F6190696BF
:10481000032843D26A48047069486C4D00782D5CC7
:10482000012D34D06A4F684D3E5C761CF6B23E5482
:104830002D5CAE420DD33C544500664F45197E5D5C
:10484000F6187E55ED196E7876186E70AE78B6183B
:10485000AE70450046195F4DB446AF5D574D019EA1
:10486000AD5DAF4213D15B4D66467719069D7E78EC
:104870006D78AE420BD1069DBE78AD78AE4206D1C2
:10488000494D2E78761C2E70504E01253554401C13
:104890004B4DC0B228700328BED301E042480570DA
:1048A000414801783729AAD3047038480599017026
:1048B00042480199445C32212046FBF723FC014623
:1048C000364801700698322146783046FBF71AFCCC
:1048D000334908700698322185782846FBF712FC88
:1048E000304908702A4804702A4806702A48057022
:1048F0007BE66046264DC01AC0B22870009B254D4D
:10490000591AC9B22970069B234E9A1AD2B2327034
:10491000FBF784FC28480178491CC9B20170322990
:10492000E6D3047021482C4A0178491CC9B20170B1
:104930001278914200D304700078410047181F4854
:104940003221C05DFBF7DEFB144908701B483221A1
:104950003F187878FBF7D6FB11490870B8783221F8
:10496000FBF7D0FB0F4908700948124904702C70FE
:104970000648347004700A78521CD2B20A70022AB7
:10498000B6D30421017030E6390000204000002039
:104990002E0000202F0000203000002031000020D9
:1049A00032000020330000203B00002034000020B3
:1049B000360000203700002041000020B400002015
:1049C0002C0000202400002048010020AC01002021
:1049D000E4000020DE0100202A000020F8B54F4846
:1049E000002701784E4C4F4D4F4E012912D1002225
:1049F000077011461046FBF711FC4C4807704C48F5
:104A000007704C4807704C48077027702F704B4850
:104A10003770077046480178491CC9B201700329F4
:104A200072D9077044480178491CC9B2017028291D
:104A300008D907703F480178491CC9B2017005299F
:104A400000D907703B480078030001F0A9FC060478
:104A50000B121921293037702078401D20702878DA
:104A6000C01F13E02F703078801F3070207809301D
:104A700014E027702878C01D28703078001F15E0DA
:104A800037702078401F20702878083028700EE09A
:104A90002F703078C01C30702078C01F207006E066
:104AA00027702878083828703078C01C3070234967
:104AB00023480A78002A17D0012A1DD0022A24D0C0
:104AC000204A002313702F782478357813785E00FD
:104AD0009E19845536185B1C7770DBB2B570137065
:104AE000032BF3D300200EE0227802702A78427064
:104AF00032788270012006E0227882712A78C271B1
:104B00003278027202200870F8BD2278C2702A78CA
:104B10000271327842710320F5E70000390000206D
:104B20002E0000202F000020300000203400002044
:104B30003600002040000020370000201601002031
:104B4000DE0100202B000020F8B5274E0023F1786D
:104B5000264A2748012909D004880121254D002C27
:104B60000DD0254FBC420DD1117009E0F3700380C8
:104B70001370002211461046FBF750FBF8BD13706E
:104B8000297015E01D4FBC4201D10223F7E71C4FED
:104B9000BC4201D10323F2E71A4FBC4201D10423E6
:104BA000EDE7194DAC4203D10380184BF170197039
:104BB0000188491C01801078030001F0F1FB050514
:104BC000080B0E110400D9E700F022F8F8BD00F040
:104BD000DDFAF8BD00F0B6FDF8BD00F04DFEF8BD01
:104BE00000F036FFF8BD000026000020380000204D
:104BF0003E00002039000020640A0000E614000096
:104C000044160000CE1900003421000016000020D8
:104C1000F0B5FD48FD4D017800278BB001292AD061
:104C2000FB482A780378FB485B1C0478FA48DBB21F
:104C300001780993531CDBB20693F84B491C1E788C
:104C4000641C731CDBB20893F54BC9B21B78079345
:104C50005B1CDBB20593F34BE4B21B78009373004B
:104C6000F318F14E03939E19130001F099FB0517F9
:104C700054ABFDFCFB000022077011461046FBF709
:104C8000CDFAE6482F700770E5480770E7480770CF
:104C9000DF480770DF4807700BB0F0BD01700629D0
:104CA000FAD300210170DA4809990170052922D34D
:104CB00000210170DE4902200870DE48DC490978D5
:104CC0004A008B188C461A18114620394F7FC7545A
:104CD0008B7F5370C97F91706146491E0A06D44983
:104CE000120E0A70EAD1D049039A895C017071787A
:104CF0004170B1788170C748322C0470CCD3002247
:104D0000027006982870C54808990170009B994266
:104D1000C2D30270C0E701700629BDD30021017023
:104D2000BB480999017005291DD300210170C04AB3
:104D3000C0481170BE490A78510053181918CF782D
:104D4000C7540B794B704B798B70521CD1B2B84A57
:104D500002291170EED3B449039A895C817171788C
:104D6000C171B1780172AB48282C047094D3002132
:104D70000170AA48089A0270009B9A4200D3017001
:104D8000AA4E29703078401CC0B23070022883D9F6
:104D9000317002202870A248A54B0170A64DA54A8B
:104DA000A64F19701878440004191155A4186170A1
:104DB000A170295431543854401CC0B218700328D3
:104DC000F0D369E701700629A4D30021984F017040
:104DD000397099483E78815D491CC9B28155B1420C
:104DE00056D3002383559148805D002802D00128C6
:104DF0004ED14EE0700030188E490590095C8F4806
:104E00000391805D42008018874A0790105C8142C0
:104E10000FD38849059A51188C464B788249079AD6
:104E2000521851788B4204D3614689789278914226
:104E30002BD21921FBF766F98149087002907A4953
:104E400007984018089040781921FBF75BF97D49D5
:104E500008700790089819218078FBF753F90346EA
:104E6000794802E07CE164E16FE00370039A029903
:104E700070485118059A8154059909184A7807987D
:104E8000101848708A78D01842E06848012181558E
:104E90004BE07000301867490890085C03900028C8
:104EA00008D16448089908184178002902D180780F
:104EB00000282FD06148805D410040185A49059074
:104EC000085C1921FBF71EF95D49087002905649EC
:104ED00005984018059040781921FBF713F95949B6
:104EE00008700790059819218078FBF70BF90346A5
:104EF00055480370039A02994E48511A089A8154F2
:104F0000089909184A780798101A48708A78D01AB0
:104F100088700AE0454883554848815D491CC9B2FC
:104F20008155009A914200D38355761CF0B23870B7
:104F3000032800D24DE73748322C047000D2ABE68C
:104F40000021017006982870A6E601700629F6D3A4
:104F50000021374F0170397037483E78815D491C18
:104F6000C9B28155B14271D3002181552F48805D6E
:104F7000002802D0012869D16DE0700031182D4859
:104F80000691415C2D480391805D42008018264ABD
:104F90000790105C81420FD32649069A51188C461F
:104FA0004B782149079A521851788B4204D36146B5
:104FB0008978927891424AD21921FBF7A3F82049C7
:104FC00008700290184907984018089040781921F5
:104FD000FBF798F81B49087007900898192180780A
:104FE000FBF790F8034618480370039A029911489A
:104FF0005118069A8154069909184A78079810188A
:1050000048708A78D01865E0390000204000002000
:10501000370000204100002036000020340000202E
:105020003B0000202A000020B400002016010020D0
:105030002B000020DE010020E40000207A01002087
:1050400031000020320000203300002050E04548AD
:10505000012181554CE070003018434A0790105CE4
:105060000390002808D14048079A10184278002A77
:1050700002D1807800282FD03C48805D4100401844
:105080003B490690085C1921FBF73CF83949087048
:105090000290374906984018069040781921FBF78E
:1050A00031F8354908700890069819218078FBF787
:1050B00029F8324903460870039A02992A48511A7E
:1050C000079A8154079909184A780898101A487065
:1050D0008A78D01A88700BE00B46224923488B55FA
:1050E000815D491CC9B28155009A914200D3835514
:1050F000761CF0B23870032800D22DE72049322CFC
:105100000C7000D2C8E500200870022129701D49EA
:10511000059A0A70022AF5D90870042129701A4AE2
:10512000387039785054491CC9B239703229F8D3D3
:10513000B2E501700629E5D30770079811490328E5
:1051400008D24200821808488754101847708770A8
:10515000059808700A48322C0470D3D30520F2E673
:10516000FF20F0E616010020DE0100207A01002079
:10517000B400002031000020320000203300002065
:10518000410000203B000020AC010020F0B5FF48AA
:10519000FF4D0178002489B001292FD0297806918C
:1051A000FD4AFC481678FD4AFD4B007812781B78C2
:1051B000FC4F401C3F780297F619F6B20796FA4E5C
:1051C000C0B23678FB4F9219D2B20592F74A1278E4
:1051D00001929A18F64BD2B21B7803905B1CDBB29B
:1051E0000493F54B38781B7800930B0001F0D8F846
:1051F000092C4C7CFEFCFBFAFAFAF9000022047040
:1052000011461046FBF70AF8E9482C700470EB4889
:1052100032210470EA480470EA480470DD480470E2
:10522000E94C2078FAF76EFFDE4908706078322189
:10523000FAF768FFDC490870A0783221FAF762FFBC
:10524000DA49087009B0F0BD02980A214843D249F2
:10525000C0B208700A214E43D04AF1B21170019ACF
:105260000A235A43CE4BD2B21A70FAF7D7FFD54869
:105270000178491CC9B201700A29E3D30470287867
:10528000401C28703C70DDE7C34907980870C34B89
:1052900005991970C24B1A70FAF7C0FF3978491C8A
:1052A000C9B239701429CDD33C702878C84E401C3F
:1052B0002870C64DC74F2C70C74829784454308891
:1052C000113080B23080FAF73CFFFAF731FFC0B2FC
:1052D0000521FAF717FF2878491D3954401CC0B240
:1052E00028703228E8D3ADE703283BD2B7490C70C9
:1052F000B94A0878125C012A2ED0B84AB54F135C1F
:105300005B1CDBB213543F5CBB4211D3145442000C
:10531000B34B82189F5C029BFB1AB14FBB543B46B8
:10532000D21853789B1B53709778019BFB1A93708C
:1053300042008318AA4AD75C002F0DD19B185A78D7
:10534000002A09D19A78002A06D19A4A13785B1C60
:105350001370A14B01221A54401CC0B208700328DC
:10536000C6D302E09349401C087092480078372861
:1053700089D39248047093482C7004708C48049927
:105380000170009A914200D3047000788E4E410063
:105390004718F05D1921FAF7B5FE8249BE19087069
:1053A00070781921FAF7AEFE7F490870B07819219C
:1053B000FAF7A8FE7D4908707E4804707548039985
:1053C000017002298FD90470032028708548824A11
:1053D000047001785454491CC9B201703229F8D3C1
:1053E00030E79DE1A0E096E06BE0FFE73E46032852
:1053F00065D27D4F76490888113080B20880FAF76F
:10540000A0FEFAF795FEC0B20321FAF77BFE7248C0
:105410003970405C0128EDD0CAB26F490120885430
:105420003078401C30705A48674D0178491C017033
:10543000584804705848047058480470584804701C
:105440005B48017848000F18E85D3221FAF75AFEF0
:1054500054497D19087068783221FAF753FE524991
:105460000870A8783221FAF74DFE50490870534869
:105470000178491CC9B201703229B1D344490522CF
:105480000A7004703470514D514E524F2C70524876
:10549000297844543088113080B23080FAF751FEB8
:1054A000FAF746FEC0B21421FAF72CFE28780A312A
:1054B0003954401CC0B228703228E8D3C2E6042018
:1054C000B0E73549079B0B703449059B0B70344995
:1054D00003280A7010D84448029A00784100411805
:1054E0003F48435C9A184254081841788919417022
:1054F00082780199511881702649039808703228E2
:10550000DCD3032028702A4804990170009A914244
:10551000D4D3047096E6002211461046FAF77EFEB8
:10552000287877E028708DE6284E00203070C0B2D1
:1055300003210446FAF7E6FD28480129015D6BD0F6
:10554000491CC9B2234A0155125D914253D9002723
:10555000075520460099FAF7D5FD154801702248F5
:10556000025D002A7ED04A008A18174994468B5C57
:10557000610061181A4A8E46535413496246521804
:1055800094465378164A714689182FE03900002056
:1055900040000020370000202E0000202F000020B7
:1055A00030000020310000203200002033000020B5
:1055B000340000203B0000202A0000204100002091
:1055C0003C00002036000020B40000202C00002009
:1055D0002400002048010020AC010020E40000204D
:1055E000DE0100202B000020160100204B706246D7
:1055F00092788A700755641CE0B23070032896D305
:1056000048480178491CC9B20170C8298BD30021D0
:1056100001700698401C85E7491CC9B20155022952
:10562000E9D30021015520460099FAF76BFD3E4869
:10563000017048000F183D481921C05D0590FAF728
:1056400061FD3B4908700290384819213F1878786D
:105650000490FAF757FD374908700190B87819217E
:10566000039000E046E0FAF74DFD334908703349F6
:10567000095D00291FD06100314A6118525C059B09
:105680009A420BD32E4BCB189C465F78049B9F42CB
:1056900004D363469B78039FBB4227D2029F284BCB
:1056A000D2195A54C9184B78019A9A184A708A78B4
:1056B000101888709FE76100214A6118535C002B25
:1056C00006D18F187A78002A02D1BA78002A0BD036
:1056D000029F1B4ADB1B535489184B78019A9A1A74
:1056E0004A708A78101AE4E7144816E0134900203B
:1056F000085580E74A008F180C49114AC95D4B08CC
:10570000610061185354094A0D4BBF187A78C918C3
:1057100052084A70BA7852088A70012101556AE726
:10572000FF20FFE63600002034000020B4000020F7
:10573000310000203200002033000020160100203C
:10574000DE010020F8B54049404C0878404E414DFC
:1057500001280DD040482778027830460178284645
:1057600000783B0000F01CFE061F4149515D656D4D
:105770000020087039492070087039493B4B087087
:10578000FF21297034493070087036490870364955
:1057900008700A789854521CD2B20A70322AF8D390
:1057A00033490870F8BD2D4B1D786D1CEDB21D708E
:1057B000062DF7D300252E4E1D703378032B09D20A
:1057C0005E002C4F9E19B855F01941708270284820
:1057D0005B1C037022480178491CC9B20170322950
:1057E000E0D3057001202070F8BDFF2901D20F31F0
:1057F0001AE002211BE0317810E0002801D00F38B8
:105800001AE003201BE0287808E0134BFF2A02D29D
:105810000F321A7001E0042222701A78FAF7FEFCA7
:10582000F8BD002902D00F393170E4E7052121705D
:10583000E1E7FF2802D20F302870E4E7062020704D
:10584000E1E7FF20CFE70000390000204000002002
:105850002F0000202E000020300000203600002005
:1058600041000020370000202B000020AC01002068
:105870003B000020DE010020F8B56649664C087840
:10588000012815D06548674B00781D78401CC1B2CF
:105890006348277802785300501CD618624AC0B279
:1058A000B2183B0000F07CFD050E24394E80B40098
:1058B000002008705A49207008705C4908705749E8
:1058C0000870F8BD584F564BBF5D594E322937709E
:1058D000577877709278B270504A1170F1D30021E6
:1058E00011701870A84200D3197001202070F8BD03
:1058F0004D4F4B4BBF5D4E4E3229F7705778377185
:1059000092787271454A1170F1D3002111701870AC
:10591000A84200D319700220E8E7434F404BBF5D17
:10592000434E3229B7715778F771927832723B4AF9
:105930001170DCD3002111701870A84200D31970C7
:105940000320D3E7384D3B49A85D08703A4B5178A6
:1059500019703A4B9278324F1A70FAF75FFC2F4861
:105960000178491CC9B201703229C0D300260670E3
:10597000387841004718E85D3221FAF7C3FB304917
:105980007D19087068783221FAF7BCFB2D49087040
:10599000A8783221FAF7B6FB2B4908702078401C12
:1059A00020702A480670F8BD224925480A780078F8
:1059B000101AC0B20870204A224913780978591A7F
:1059C000C9B211701D4B204A1D781278AA1AD2B2A2
:1059D0001A70FAF723FC1D480178491CC9B20170FE
:1059E0003229E0D3002101700D48217002780D4B5F
:1059F000521CD2B202701B789A4200D301700B483D
:105A00000178491CC9B201700329CCD905206DE782
:105A1000FF206BE739000020400000203700002005
:105A2000340000202A000020B400002036000020AE
:105A3000DE0100202E0000202F000020300000207A
:105A40003100002032000020330000203B00002005
:105A5000F8B5954A954D137895490020954C012B42
:105A60000FD00A4612782F78521CD3B2924A0126E0
:105A7000002F21D0012F52D0022F7DD0FF2028707F
:105A8000F8BD10708D4A2870107008708C498D4ACE
:105A90000870FF2111708C4908708C4908708C497E
:105AA00008700A78A054521CD2B20A70322AF8D375
:105AB00088490870884930E00B70062BE0D300203D
:105AC00008708449087803280FD27E4B41001F7864
:105AD00043188249CF547C4F59183F787B4B4F7005
