:020000040000FA
:1000000040080020F1000000F5000000D5000000CD
:1000100000000000000000000000000000000000E0
:10002000000000000000000000000000F9000000D7
:100030000000000000000000FB000000FD000000C8
:10004000FF000000FF000000FF000000FF000000B4
:10005000FF000000FF000000FF000000FF000000A4
:10006000FF000000FF000000FF000000FF00000094
:1000700075770000FF000000FF000000FF00000097
:10008000FF000000FF000000FF000000FF00000074
:10009000FF000000FF000000FF000000FF00000064
:1000A000FF000000FF000000FF000000FF00000054
:1000B000FF000000FF000000FF000000FF00000044
:1000C0000348854600F08AF800480047C57C0000D8
:1000D0004008002004207146084202D0EFF3098056
:1000E00001E0EFF308807146004A10472D1E000022
:1000F00003480047FEE7FEE7FEE7FEE7FEE7FEE710
:10010000C100000030B50B4601460020202201242A
:1001100009E00D46D5409D4205D31D469540491B3B
:100120002546954040191546521E002DF1DC30BD84
:1001300070B500242546002801DA01244042002938
:1001400001DA01254942FFF7DDFFAC4200D0404211
:10015000002C00D0494270BD0549064A086850434A
:10016000054A8018086040087047014908607047D8
:10017000B40000206D4EC64139300000F0B51FB408
:100180000646002082B005464024019100901BE005
:10019000019922460F46304600F042F8049A059B2A
:1001A000801A994110D310461946224600F028F8CB
:1001B000361A8F410197224601200021009F00F04E
:1001C0001FF838184D4100902046641E0028DFDCDF
:1001D000019B00982946324607B0F0BD064C012528
:1001E000064E05E0E36807CC2B430C3C98471034DF
:1001F000B442F7D3FFF768FF987E0000B87E000096
:1002000010B5202A04DB0146203A9140002010BDA1
:10021000914020239C1A0346E3401943904010BDAF
:1002200010B5202A04DB0846203AD040002110BD3A
:100230000B46D340D0402024A21A914008431946CF
:1002400010BD0000F0B50023094D722600245E4366
:1002500075196600A719EE197070641CE955E4B2AF
:10026000B270262CF5D35B1CDBB2072BECD3F0BDB0
:100270001F030020F7B51D4A8E468446D1781C4DD9
:1002800000241C4E1C4B1D4F1D48012905D0297808
:1002900008290ED2491C2970FEBDD4701C703C7018
:1002A0000022047011461046FFF7CCFF2C7034700A
:1002B000FEBD2C703578E90711D01C703C700470BD
:1002C0006D1CE9B23170052903D9517811700121F3
:1002D000D170027839781878FFF7B4FFFEBD614617
:1002E00019707146397002990170E9E76A000020BF
:1002F00079000020730100207100002072000020AE
:1003000073000020F0B51049C87800281BD00020E9
:10031000C8700E4F0E49387008703E780D4A72232F
:1003200073439A180B785C001D19541960705B1C9C
:100330005055DBB2A0700B70262BF3D3761CF2B2B3
:100340003A70062AE8D9F0BD6A0000207800002043
:10035000660000201F030020F8B52A488378002B90
:100360002ED005250146284E2D07284FCA78002497
:10037000012B08D024494039022B22D0032B1FD156
:10038000012A2AD033E0012A09D11E480022C47074
:1003900044700C211E4801F031FD012070631948A2
:1003A0004178491CC9B24170142909D9447084703C
:1003B000686B38406863686B03218902084368638F
:1003C000F8BDC470447074638470686B38406863AF
:1003D000686B68638C62CC62F8BDC47044707463EF
:1003E0006A6B3A406A636A6B6A638C62CC6241787A
:1003F000491CC9B241700529EED9447001218170B0
:10040000C170F8BD9600002040420050F3F3FFF3A6
:100410004040005070B5FFF79FFF1248002102785E
:10042000002A12D0104A156BFF24F5340322012351
:10043000012D0DD08180C5886D1CADB2C580A5424F
:1004400002D3C1808270C37070BD8180C18070BDD5
:10045000C18085886D1CADB28580A542F7D38180AF
:10046000F0E700009600002040420050FEB5974D96
:100470009948EE78007800909549964C0020974A6C
:10048000012E7DD00D786D1CEDB20D700A2D7BD93B
:100490000870214609788C46002973D0012973D150
:1004A00010708F48002101708C4804782620214666
:1004B00041438C48081801907220214641438A48E4
:1004C0000D18874901980F780099C65D3046FFF7EF
:1004D00019FE8648864B0170480008187200195CA6
:1004E000B218AE187170C0184178A9548078B070F5
:1004F0007F1CF8B27A4903280870E2D3641C77485D
:10050000E1B201700529CCD97A48002101701A4660
:10051000754F152115785478937849010278560063
:100520009619F61976187573521C3473D2B2B373D8
:100530000270072AF2D367490020684C0870694F9F
:10054000674D6D4E2070002028703088411C31802E
:10055000FFF70BFEFFF700FE2621FFF7E9FD2078ED
:1005600026225043C21928781154401CC0B228706A
:100570000328EAD32078401CC0B22070052802E08E
:1005800003E001E068E0DED9FEBDE8705B4E10706C
:100590004F4D117868546054594D70546854491C3B
:1005A000C9B211700529F3D91070524900200870A2
:1005B0004A484D49047826202246424349481018AB
:1005C00001907220604346184A4800990078054619
:1005D000FFF798FD4548017048000B184448690032
:1005E000C75C6A18B1184F7018184378B3548078F4
:1005F00088700199002048556D1CE8B23D49394F7B
:1006000008702628E0D3641C3448E1B20170052943
:10061000CBD9324C0020324D374E2070002028704C
:100620003088411C3180FFF7A0FDFFF795FD2621A2
:10063000FFF77EFD207826225043C21928781154F6
:10064000401CC0B228700328EAD32078401CC0B2F6
:1006500020700528E2D9FEBD214E10701F49307070
:100660000978204B26240A466243D71872230A468B
:100670005A431D4BD2183378FC5C5B1C650065192E
:10068000541960705055DBB2A0703370032BF2D355
:10069000491C124AC9B211700529DFD91549124AFD
:1006A000152308705B010C7865006519AD18ED180D
:1006B0006873641C2873E4B2A8730C70072CF2D31F
:1006C00004486146491C0170FEBD00006A0000201C
:1006D00041010020730100206E00002078000020FE
:1006E0006F0000203B0200201F0300207700002045
:1006F000110100206600002068000020090200208F
:10070000D70100200248016AC2011143016270470B
:1007100000020050F3B58BB00C46FFF7F3FF0B98C7
:1007200000287448016813D004221143016010208E
:1007300000F0F0F90120C00409906F4800900420F7
:1007400008906E486E49201888420ED800251DE09A
:1007500089088900491C0160012000F0DBF90020B4
:100760000990684800900220EAE767486649201827
:100770004942884202D80125640007E06348634982
:100780002018494288427DD20325A4000026F64362
:10079000089F22E039460098FFF7B4FC5C49844684
:1007A00041185C48814217D2554B02225B1C5348CA
:1007B00061465143401C0818984209D8A14201D90A
:1007C000081B00E0601AB04202D2060004920CD06E
:1007D0005148521C8242EAD97F1C212FDAD90020CD
:1007E0000696C0430190089E54E00999A803084367
:1007F00001217A028902511A08430499891E08438B
:100800003C490862042000F085F9691C794300988E
:10081000FFF778FC049948430DB0F0BD31460098CD
:10082000FFF770FC3A4942183A498A4231D2022114
:10083000324B02464A435B1CD7185B429F4224D886
:10084000A24201D9121B00E0A21A019B9A421CD2BB
:100850000192069B0F469A4217D10999A8030843B3
:10086000012172028902511A0843B91E0843214925
:100870000862042000F04EF9691C71430098FFF7EC
:1008800041FC00E008E07843C6E7234A491C914256
:10089000CED9761C212EC1D90B9800280FD01F4924
:1008A00014480162042000F035F91DA0006803908F
:1008B0001048016A0013014203D00020ACE7194937
:1008C000EEE7080301D50C4800E00E488A03A3D4E4
:1008D0000A04920F03AB9B5CCA058904D20DC90EB2
:1008E000891C8008921C59435043FFF70BFC800081
:1008F00092E700000002005000805101FF1E0AFA3A
:10090000FFE0F505001BB700800F05FDC08782FEE4
:10091000FF95E7FFBF77CC000102000018440800F4
:100920000102020416400000044982070A6801D04F
:100930009208920002430A607047000000020050D3
:1009400008B511A0006800901048016A0013014228
:1009500001D0002008BD080301D50D4800E00D4876
:100960008A03F7D40A04920F6B469B5CCA0589047C
:10097000D20DC90E891C8008921C59435043FFF7C1
:10098000C1FB800008BD000001020204000200500B
:1009900000805101001BB70070B503F01DFB2D480E
:1009A00041682D4A11404160416803252943416057
:1009B0000120FFF7B9FF012000F0ACF8000627493D
:1009C000000E087009D10420FFF7AEFF102000F0E0
:1009D000A1F80021072000F08BF8214800F046F82C
:1009E000204C08262660304600F094F80120A060D4
:1009F000606928436061A168E0018143A160A1684A
:100A00000143A160606903210906884360610520F4
:100A10000007416B144A11404163416B032292026B
:100A200011434163A06804210843A0606069072165
:100A3000090288436061A0683043A06060690901D1
:100A40008843606106F0F2FD02490020C031086071
:100A500070BD000040000050FCFCFFFF8B00002038
:100A6000006CDC0200020050F3F3FFF3F8B51E4CFB
:100A70000546E66810201D49064048108D4201D900
:100A80000D4602E0854200D205462068042738431F
:100A90002060102000F03EF8206907210843206103
:100AA000A06900090001A06120688007800F01286B
:100AB0000ED069007804FFF72DFEE6680546102089
:100AC00006400121022000F013F8002E06D008E0B5
:100AD00069000020FFF71EFE0546F2E72068B843D4
:100AE00020606808F8BD00000002005080F0FA02A3
:100AF00010B5074A93691B091B010B4393611169E8
:100B0000C908C9000143116106F090FD10BD000045
:100B10000002005010B50749074A05E00B46491E80
:100B2000002B01DC002010BDD4680346A343F5D19F
:100B3000012010BD80F5200000020050F0B5F848FB
:100B4000F84987B0C3788979019101468E79CD79CA
:100B500000220124002B14D18178491CC9B2817074
:100B600096290ED3F049C4700C704C704C238B70D6
:100B70004123CB7043230B71019B4B718A71CE7162
:100B80000D72817C002909D0417C491CC9B2417495
:100B90000F2903D34274FF2101718274E34B19784A
:100BA000002943D00021DE48197084744174E04864
:100BB000E1490470DF4802780092F02A30D0E02A40
:100BC00032D0170701460A7904923F0F4979039101
:100BD000072F06D00B2F04D0B24227D10399A94288
:100BE00024D100990F2905D00A09CD490B799A42E1
:100BF0001CD00A71D148CF4A40780290CF49D078B2
:100C000009780591517892783B0006F0CBFE100FE1
:100C100011111F0F360F3EC20FDBEBFDFC0FFB0F58
:100C2000C1480C70047006E00020087007B0F0BDE9
:100C3000BD480221017044704C2181704121C17076
:100C40004321017101994171002199E10A2901D9DA
:100C5000FF29EBD11C2AE9D8B84D00292970EC7086
:100C6000E4D0FF2906D0AA70104600F083FA287855
:100C70006870FAE002982870D8E70C2AD6D8A948FC
:100C800082714471AE48047097E0A54BDF7B1B7BFB
:100C9000012F9C46A24B5B7B00930DD0A248022102
:100CA000017008214170042181700021C17001711F
:100CB00061464171837164E1994F0023FB73514098
:100CC000049A9C4F504041400398814211D09B4868
:100CD000FF210170C4709448022101700821417005
:100CE000042181700021C170017161464171009938
:100CF00046E1002001467F1C7A5C1202504000222F
:100D0000C30B03D08F4B4000584000E04000521C02
:100D1000D2B280B2082AF3D3491CC9B20429EBD35A
:100D200061460A0200997E4F511889B28142CED1A4
:100D30006046000901F08EF8834D2870387B00076B
:100D4000000F01F087F86870787B000901F082F8E5
:100D5000A870787B0007000F01F07CF8E8707248FB
:100D6000082104704170032181700021C17001715C
:100D70003B7B43717A7B8271BD79C571FD790572C8
:100D8000BB71FA71397379736C48FD210170C470BD
:100D90006BE0012911D0022900D047E76049022306
:100DA000CC730A73487360490B70009C4C708B7055
:100DB0000023CB700B714A7181E06048FB21017008
:100DC000C47033E70329E8D80029E6D0082AE4D81C
:100DD0005A480A3101704170C4708270104682E036
:100DE000047023E7059D554B002DD6D00E2D02D063
:100DF0000E251D70DC70554B19709A70D8700498D0
:100E0000187102E0C0E071E007E0514852490470F7
:100E1000504804700020088008E7464BDB785F00EC
:100E2000DB194E4F0093DF190B0006F0BBFD0A08DB
:100E3000200731394C4C4C4C4C06F7E6BDE71428E2
:100E4000ABD2002A06D0454800994454787800284F
:100E500006D00AE04149009A00208854787004E0E6
:100E60003648029979708078B8703548B8E7142808
:100E700093D23A480099405C00288ED02F4D787864
:100E800068702870B878A87000F074F9EC70ECE71E
:100E9000142896D231490098085C00288DD1C5E607
:100EA00014288ED2204902220A700C224A70042291
:100EB0008A70C87078780871B87848710020887195
:100EC000CE710D72B2E6491FC9B24B00CB1823494F
:100ED000CD5C002D00D1CC5459184A708870174948
:100EE0004A700A70887000F045F9BEE70D220029AB
:100EF00038D0012990D10C48022101701849427064
:100F0000097881700649C97AC170192101712121BE
:100F10004171182181715721C1714321017285E608
:100F2000520000208E000020B80000204100002068
:100F30009E0000204C000020960000206A00002047
:100F40008900002021100000430000200C00002038
:100F500004000020400000200A000020D5000020EE
:100F60008B00002014480221017042704C218170D6
:100F70004121C170432101711049097841710199E2
:100F80008171C671057251E6081F030006F00AFD63
:100F90000A070706060607070707070646E6059835
:100FA000074A88428ED10748017C00298AD1D47033
:100FB0000474054814E70000B800002084000020F5
:100FC0006A0000205200002088000020F0B55E4D2D
:100FD0005E4EEF785E4B5F4C5F4A6049002085B003
:100FE000012F32D037787F1CFFB23770052F53D3D3
:100FF000307077787F1CFFB277701E2F13D370701C
:101000001E78761CF6B21E70052E0CD9544E187040
:1010100037787F1CFFB23770142F04D93070012647
:10102000EE70504D2E701F784C4B1B780093DB1CDC
:10103000DBB20393474B1E78474B1D783B0006F00D
:10104000B1FC062D32383E444A4FE87018702070CB
:101050001070087030704249707008704149012268
:101060000A70414A41491070174608703E78404A5C
:10107000722373439A180B785C001D195419607021
:101080005B1C5055DBB2A0700B70262BF3D3761C83
:10109000F3B23B70052BE8D905B0F0BD761D0870A2
:1010A0002670ED1F0FE01070009B9B1F0B70093620
:1010B0000FE02070ED1D1570009B1B1F0FE0761FC9
:1010C00008702670083515700AE01070039B0B70CD
:1010D000F61F267004E02070083D1570039B0B700E
:1010E000214F00203870257814780B782048397803
:1010F00072260A467143091860310D74CC734B7423
:10110000521CD1B239700529F1D900213970174824
:10111000002101703A781649722353435B18047812
:101120006100651859190E794E70CE785E554D796B
:101130008D70641CE1B201702529F0D3521CD0B22D
:1011400038700528E3D9A7E76A0000204101002094
:101150007301002071000020720000207300002045
:101160007D0000205700002078000020660000204D
:101170001F030020F8B50146F94800240078FA263C
:10118000F84D27460A2874D9F74A0C2010700B0036
:1011900006F008FC07154D8BB2E7FB051400F34978
:1011A000600020180A5C2A54431840195A7842708B
:1011B000641C9A78E4B28270102CF1D3F8BD05213A
:1011C0002046FEF79FFF002908D001290CD00229F4
:1011D00010D0032916D004291CD023E06000201869
:1011E0002F544019467013E0600020182E54401907
:1011F00047700DE06100C8206118685449194870B3
:1012000088700FE0600020182F549621401941701B
:10121000877007E06000642120182954C821401914
:1012200041708170641CE4B2102CC8D3F8BD072152
:101230002046FEF767FF00290CD0012911D00229B2
:1012400018D003291DD0042923D0052912D006293E
:101250001FD025E0600021186E54322049194870D3
:1012600005E0600020182E5441194F70322088701C
:1012700016E0D8E0600020182E5432214019417049
:101280000DE060009621201829544019467087709F
:1012900006E0600020182E544019477032218170FA
:1012A000641CE4B2102CC2D3F8BDA00709D0A0077B
:1012B000800F012815D002280AD0E043800710D003
:1012C00015E0600020182E544019477087700EE01A
:1012D0006000642120182954C82140194170817090
:1012E00005E0600020182F54401947708670641C78
:1012F000E4B2102CD9D3F8BD05212046FEF702FF39
:10130000002908D001290ED0022911D0032916D0B6
:1013100004291AD020E0600020182F54401946708C
:101320003221817018E0600020182E54322110E024
:101330006000962120182954401946700BE0600087
:1013400020182E544019477005E0600020182E54D4
:101350009621401941708770641CE4B2102CCBD3E5
:10136000F8BDA00712D0A007800F012813D00228D3
:1013700019D061009620611868544819467087702A
:10138000641CE4B2102CECD3F8BD13E0600020180C
:101390002F544019F2E7600020182F54401946706E
:1013A00032218170ECE7600020182F5496214019FB
:1013B0004170E4E709212046FEF7A4FE002910D081
:1013C000012913D0022929D0032914D004290DD0D2
:1013D00005291CD0062909D007291FD008290AD0C1
:1013E00010E0600020182E54322101E0962103E025
:1013F0004019417010E03221600020182954401932
:1014000047708670641CE4B2102CD3D3BCE7600034
:1014100020182F54401946708770F3E76000201899
:101420002F549621E4E710290BD2480009184F48A1
:10143000425C2A700818417869708078A870012190
:1014400070E01039042003220B0006F0ABFA0D09FE
:10145000131E2F3B467E91A4B0EAFAF8080093E7EA
:101460002F7032206E70A8709621E9702E716F7106
:10147000AE712FE02F706E70AF70EE702F716F71C4
:101480009621A971EE712F72E4E032212E706970FD
:10149000AF70EE7096222A716F71AE71E9712F7282
:1014A0006E72AF72EA72304908706DE7642028707E
:1014B000C8206870A870EF702E716E714CE02A48D9
:1014C000027061E72E706F70AF70EF702E716F71E8
:1014D000C820A871E8712872F1E707212046FEF7BD
:1014E00011FE002929D0012909D002290ED0032993
:1014F0001BD0042903D005291FD006290DD1600077
:1015000020182E5440194770322105E06000201841
:101510002E543221401941708170641CE4B2102CA9
:10152000DBD30721104801702EE7600096212018B8
:101530002954401946708770EFE7600021186E54F7
:101540003220491948708870E7E72E706F70AF70CD
:10155000C820E87028716871AF71EF712E72AEE724
:101560006A000020110100206E000020627E000051
:101570002F706E703220A870EE7028716F71AE718E
:10158000EF7196202F726872AE72EF722E736873CD
:10159000AF730521C6E72F706E70AF70EF702E71BC
:1015A000322068719620A871EE712F7287E70921A9
:1015B0002046FEF7A7FD002910D0012913D00229EB
:1015C0002AD0032914D004290DD005291DD00629BD
:1015D00009D0072920D008290AD010E0600020187F
:1015E0002E54322101E0962103E04019417011E0B0
:1015F0003221600020182954401947708670641CFD
:10160000E4B2102CD3D309218CE7600020182F54AA
:10161000401946708770F2E7600020182F54962119
:10162000E3E72E706F70AF70EE70322129716F7129
:10163000AE719621E9712F726E72AE720DE00EE0FE
:10164000FFE72F706F70AE70EF702E716F71AF711A
:10165000EE712E726E723221A972EF7223E7084882
:1016600061006118425C6A540A18491953784B703A
:10167000641C9278E4B28A700C2CF1D30C2012E72F
:10168000627E0000F0B52E482E4A84790123002C9A
:1016900005D04679851E0021012E0BD016E0294881
:1016A0002038016A890104D5016A8402A1430162DC
:1016B0009360F0BD417141708170C17001712980EA
:1016C00016680127BF073E43166093609668F607C9
:1016D000F60FEED093602A88E126521C92B2B60132
:1016E0002A80B24201D32980F0BD8278521CD2B246
:1016F00082703C2A0ED38170C278521CD2B2C27062
:101700003C2A07D3C1700279521CD2B20271182A46
:1017100000D301714278002AE6D18278002AE3D111
:10172000C278002AE0D10279002A05D0A242DBD19A
:1017300002220270C171F0BD0370C371F0BD0000E0
:101740008E0000202000014030B51449144C0020C8
:101750000A6822548A69520403D4401CC0B2142877
:10176000F6D30125022302280E4A207802D0FD2854
:1017700009D00BE0FD2802D1A078FE2801D05370DB
:1017800030BD557030BDE079FE2804D053708868B4
:101790001843886030BD5570F9E70000000005402F
:1017A000C10000204100002030B5124A00205478CA
:1017B000002C1DD00021104B012C07D0022C17D17A
:1017C0001954401CC0B21428FAD310E0012414703C
:1017D000084C0B341D186D782554401CC0B20628E7
:1017E000F8D300201954401CC0B21428FAD3517009
:1017F00030BD000041000020C100002030B5284B62
:1018000000201C78002C16D02649012C14D0002270
:10181000254D032C25D0042C31D0022C0BD1FD24D6
:101820000C601C1864780C60401CC0B20828F8D307
:10183000FE2008601A7030BDFC220A604C220A604B
:1018400041220A6043220A60174C241F225C0A606E
:10185000401CC0B20428F9D3FE2008600220187092
:1018600030BD1A70FA230B600A600A600E220A600B
:101870002A5C0A60401CC0B20528F9D30CE01A703B
:10188000FA230B600A600A600F220A602A5C0A6071
:10189000401CC0B20528F9D3FE20086030BD00000E
:1018A000B8000020000005404700002010B500F0FF
:1018B0008BFC0D490B78002B0ED0002201240B4825
:1018C000012B02D0022B04D006E00A70417801708F
:1018D00001E00A700270C47001F0ECFF05F076FEC2
:1018E000FFF72CF910BD00008E0000206A000020D8
:1018F0000A492222CA604860012008610869C007BD
:10190000FCD10868400606D50868402210430860EC
:101910000020C043704700207047000000C0005006
:1019200002480168012211430160704700C0005065
:1019300005490022CA604860012008610869C007A3
:10194000FCD188687047000000C00050054A212380
:10195000D36050609160012010611069C007FCD114
:101960007047000000C00050F8B50124240502F0C3
:1019700025FBFFF7D5FF2E49086820221043086099
:101980002046FFF7D5FF2B4C60702B48FFF7D0FFA8
:10199000A0702948001DFFF7CBFF28498871264811
:1019A0000830FFF7C5FF2649087023480C30FFF7C1
:1019B000BFFF2449C0B208801F481030FFF7B8FFAE
:1019C0002149C0B208801C481430FFF7B1FF1F49FD
:1019D000087019481830FFF7ABFF1D49087016480A
:1019E0001C30FFF7A5FF1B49087013482030044640
:1019F000FFF79EFF1849194E08700025241D204648
:101A0000FFF796FF69006F18F055241D2046FFF779
:101A10008FFFBF197870241D2046FFF789FF6D1CCA
:101A2000EDB2B870142DE9D30D4900200860F8BD5F
:101A300000C000506A000020040010008E0000204A
:101A40008A00002084000020860000205A00002028
:101A500058000020590000205C000020D500002024
:101A600000010050F8B5344801240178240501290B
:101A700061D10021017002F0A1FAFFF751FF2F4858
:101A800001682022114301602046FFF731FF2C4DF1
:101A900020466978FFF75AFF201DA978FFF756FF07
:101AA000294928488979FFF751FF26482749001D11
:101AB0000978FFF74BFF2348254908300988FFF7CD
:101AC00045FF204823490C300988FFF73FFF1D4898
:101AD000214910300978FFF739FF1A481F4914309F
:101AE0000978FFF733FF17481D4918300978FFF7C9
:101AF0002DFF14481B491C3004460978FFF726FFC8
:101B0000194E002568002F18241DF15D2046FFF7AF
:101B10001DFFBF19241D79782046FFF717FF241DEC
:101B2000B9782046FFF712FF6D1CEDB2142DE9D3F2
:101B30000E4900200860F8BD8900002000C0005058
:101B40006A000020080010008E0000208A0000209B
:101B500084000020860000205B0000205800002048
:101B6000590000205C000020D5000020000100503A
:101B7000FEB57948794AC37879497A4F7A4D00247D
:101B8000012B16D010460078784A0290127800286F
:101B90004AD001287ED002280AD1521C7348D1B203
:101BA000734A01701278914200D904706B48047036
:101BB000FEBDC4706F4B704E3C7038780C5414549A
:101BC0001C543454401CC0B238700528F5D93C7000
:101BD0002C703E78694872217143081829784A00B0
:101BE0008B18C2185470491CC454C9B2947029701F
:101BF0002629F3D3761CF0B238700528E8D9604D59
:101C000019212878FEF77EFA5E4908706878192154
:101C1000FEF778FA5C490870A8781921FEF772FA85
:101C20005A4908705148C2E74C494878262803D3DE
:101C30004C708878401C887048782870431C4B7022
:101C40008B78052B02D98C70012022E03B70722525
:101C50006B435100494D541849495B1945000A5DD1
:101C600040191D186A7061184C781C548E78AE703B
:101C700032211046FEF746FA4249087032212046CA
:101C8000FEF740FA4049087032213046FEF73AFA32
:101C90003E4900E001E00870FEBD4878BE2801D250
:101CA000401C4870002028702D48262440780521CB
:101CB000FEF728FA201A01902B490B7898422FDC66
:101CC00058002E49181842185478002C05D10C5C85
:101CD000002C02D19278002A22D000223A70294C9E
:101CE000294D2478294A00942C781278A4469646E7
:101CF000397872240A466143204C009D0C19211842
:101D00004E78521C751B4D70255C6646AD1B2554E4
:101D10008C787546641B8C70D1B239700529E7D96F
:101D20005B1C1148D9B20170262901D20198C3E782
:101D3000124841780029AFD101780029ACD18078D0
:101D40000028A9D102980549401C0870002048705D
:101D5000887003494870FEBD6A00002073010020AE
:101D6000410100207800002066000020770000205C
:101D70006E00002009020020D70100201F03002070
:101D80001101002074000020750000207600002062
:101D900070B5184C03222021204600F02FF8154D75
:101DA000032280351021284600F028F80122202146
:101DB000284600F023F80F480122F021403800F0B7
:101DC0001DF80C4801223021403000F017F80122A4
:101DD0001021204600F012F80749002008614861F0
:101DE0008861C861044A4032506110610863012073
:101DF000506370BD4040005000420050F0B50023D9
:101E00000125944603272A469A400A4209D00668CB
:101E10005C003A46A24096432246644694402643DC
:101E200006605B1C082BEED3F0BD0000044603A047
:101E300005F0A8FD204605F087FFFEE7496E204823
:101E4000617264204661756C742048616E646C65D3
:101E5000720A00000F2801D90007000F0A2801D2DA
:101E6000303000E03730C0B270470000FEB5C54AE0
:101E7000C549D378C548C64E0025C64CC64F012B70
:101E800005D00A78082A58D2521C0A70FEBDD570B7
:101E90003D70C24DBC4A387800211154BB4A2623FC
:101EA0001154BF4A3154115402465A4321705319F8
:101EB00022789954521CD2B22270262AF8D3401CA0
:101EC000C0B238700528E5D9B648017800291AD083
:101ED00000210170B44C32212078FEF713F9B34988
:101EE000087060783221FEF70DF9B1490870A078CA
:101EF0003221FEF707F9AF490870A4490020487065
:101F0000AD490870FEBD0020387020703E78AB49A6
:101F100072227243511822785300D5184B19587009
:101F2000521C4855D2B298702270262AF3D3761CE0
:101F3000F1B239700529E8D9CCE7A14A0D701278C1
:101F4000012A41D09148007806287DD23D70904DFD
:101F50003878285C262878D29A4E3088411C318007
:101F6000FEF703F9FEF7F8F8C0B22621FEF7CAF82B
:101F70002170387826225043884A8018405C002817
:101F8000EBD13878295C491C2954854909784A00E5
:101F90008E18854972228B5D01465143874A8A1803
:101FA00021788C464D00491955186B707E4BF318FB
:101FB0005E7856549978A9702621484377490122C2
:101FC000401861464254AFE04178002904D07B4973
:101FD0004A78002A5FD158E06C480078062846D23B
:101FE0003D706B4E3878305C262836D2754A1088A2
:101FF000411C1180FEF7B9F8FEF7AEF8C0B22621F9
:10200000FEF780F82170387826225043634A801802
:10201000405C0028EAD138787222315C491C315486
:1020200061490B7801465143644A891822789446E5
:10203000560092198E1873705B4B5B788B545A491B
:102040008978B170012101E076E069E026225043F1
:10205000524A80186246815403E04C480178491C7A
:1020600001703878401CC0B238700528B9D9524880
:102070000178491CC9B20170322900D242E70570CB
:1020800042484178491C4170FEBD0A78002A02D1BD
:102090008A78002A2DD045483D70454A0078019045
:1020A000444B107800901878844600203A492070FC
:1020B0000978424872224A4310182578019E6A0026
:1020C000AB18C21857786D1CBE1B5670C75C009EBB
:1020D000BE1BC654937866469B1B9370EAB222706F
:1020E000262AEAD3491C2C4AC8B210700528DCD92C
:1020F000FEBD2A4B3D7038782449355426220D54B4
:1021000042432570D21821785554491CC9B2217018
:102110002629F8D3401CC0B238700528EBD9FEBD83
:102120001A480178491C01703878401CC0B23870D8
:10213000052800D80BE7FEBD4878401CC0B24870A7
:102140000C28F8D916484D700178491CC9B20170A5
:10215000914200D30570114B3D7038780B493554CE
:102160000D54262141432570CA1821785554491C25
:10217000C9B221702629F8D3401CC0B23870052896
:10218000EBD9FEBD6A000020410100207301002050
:102190000902002066000020780000203B02002099
:1021A000D7010020880000201101002074000020C9
:1021B0007500002076000020700000201F03002022
:1021C0006E0000206800002070B51E491E4C0A7881
:1021D000267801250020012A07D0022A04D10870A0
:1021E000002E01D02070E57070BD0870164A0B21DA
:1021F0005278164B002E10D01D70A678761CF6B2C1
:10220000A670062E0AD9521CD2B2A070627022703B
:102210000D2A03D96170207010E0227060780B28BD
:1022200006D00C2804D00D2802D0617021701D70DA
:10223000A078062802D90620A0701D70A078FEF7AD
:1022400099FFD0E7020000206A00002089000020EA
:102250000E48436B0E4801220178002B02D0002962
:102260000CD00FE0002908D14178491CC9B2417057
:10227000462902D9027002218170704741780129F4
:1022800000D98270002141700170704700420050F7
:102290000000002070B53D4C6088251D1130608025
:1022A0002878092839D008DC030005F07BFB091BDE
:1022B0001E2124272A2D303318000E283CD008DC9C
:1022C0000A282DD00B282ED00C282FD00D2806D16F
:1022D0002FE0FB2833D0FD2834D0FF2852D00A202D
:1022E000287037E0FEF70EF831E005F029F92EE00E
:1022F000FEF7BCF82BE004F0A7FF28E0FFF7B6FDDF
:1023000025E001F077FE22E001F0C8FC1FE001F0BB
:10231000AFFB1CE0FFF72CFC19E001F0EDFA16E032
:10232000FEF754FE13E001F093FF10E002F02CFDE5
:102330000DE003F01DFE0AE000F0B4FB07E0FA2216
:10234000002101E00022FA210020FDF793FF287808
:102350000E2816D000200E49207015256D01084664
:1023600060302378067C5A009A1852185219567316
:10237000467C1673C67B96735B1CDAB22270062A03
:10238000EFD370BD00221146FA20DEE76600002080
:102390001F030020F8B5FE4C64200146401EC0B269
:1023A0000029FAD10027FB4D3E4620780321641C0A
:1023B000FDF7A8FE00220121C30929612BD000BF2F
:1023C00000BF00BF00BF00BF00BF00BF00BF00BF15
:1023D00000BF00BF00BF00BF00BF00BF00BF00BF05
:1023E00000BF00BF00BF00BF00BF00BF00BF00BFF5
:1023F00000BF00BF00BF00BF00BF00BF00BF00BFE5
:1024000000BF00BF00BF00BF00BF00BF00BF00BFD4
:1024100000BF2E6126E000BF00BF00BF00BF00BFAD
:1024200000BF2E6100BF00BF00BF00BF00BF00BFE4
:1024300000BF00BF00BF00BF00BF00BF00BF00BFA4
:1024400000BF00BF00BF00BF00BF00BF00BF00BF94
:1024500000BF00BF00BF00BF00BF00BF00BF00BF84
:1024600000BF00BF00BF00BF00BF00BF00BF00BF74
:1024700000BF00BF4006521C000ED2B2082A9BD3F8
:102480007F1CFFB2722F90D363200246401EC0B261
:10249000002AFAD1002720780321641CFDF732FEC0
:1024A00000220121C30969612BD000BF00BF00BF1A
:1024B00000BF00BF00BF00BF00BF00BF00BF00BF24
:1024C00000BF00BF00BF00BF00BF00BF00BF00BF14
:1024D00000BF00BF00BF00BF00BF00BF00BF00BF04
:1024E00000BF00BF00BF00BF00BF00BF00BF00BFF4
:1024F00000BF00BF00BF00BF00BF00BF00BF6E61D4
:1025000026E000BF00BF00BF00BF00BF00BF6E617C
:1025100000BF00BF00BF00BF00BF00BF00BF00BFC3
:1025200000BF00BF00BF00BF00BF00BF00BF00BFB3
:1025300000BF00BF00BF00BF00BF00BF00BF00BFA3
:1025400000BF00BF00BF00BF00BF00BF00BF00BF93
:1025500000BF00BF00BF00BF00BF00BF00BF00BF83
:102560004006521C000ED2B2082A9BD37F1CFFB239
:10257000722F90D363200246401EC0B2002AFAD1C7
:10258000002720780321641CFDF7BCFD00210122F7
:10259000C309AA612BD000BF00BF00BF00BF00BFAE
:1025A00000BF00BF00BF00BF00BF00BF00BF00BF33
:1025B00000BF00BF00BF00BF00BF00BF00BF00BF23
:1025C00000BF00BF00BF00BF00BF00BF00BF00BF13
:1025D00000BF00BF00BF00BF00BF00BF00BF00BF03
:1025E00000BF00BF00BF00BF00BFAE6126E000BF5C
:1025F00000BF00BF00BF00BF00BFAE6100BF00BF93
:1026000000BF00BF00BF00BF00BF00BF00BF00BFD2
:1026100000BF00BF00BF00BF00BF00BF00BF00BFC2
:1026200000BF00BF00BF00BF00BF00BF00BF00BFB2
:1026300000BF00BF00BF00BF00BF00BF00BF00BFA2
:1026400000BF00BF00BF00BF00BF00BF4006491C65
:10265000000EC9B208299BD37F1CFFB2722F90D302
:1026600063200146401EC0B20029FAD1002720781D
:102670000321641CFDF746FD00210122C309EA6124
:102680002BD000BF00BF00BF00BF00BF00BF00BF16
:1026900000BF00BF00BF00BF00BF00BF00BF00BF42
:1026A00000BF00BF00BF00BF00BF00BF00BF00BF32
:1026B00000BF00BF00BF00BF00BF00BF00BF00BF22
:1026C00000BF00BF00BF00BF00BF00BF00BF00BF12
:1026D00000BF00BF00BFEE6126E000BF00BF00BF2B
:1026E00000BF00BF00BFEE6100BF00BF00BF00BF62
:1026F00000BF00BF00BF00BF00BF00BF00BF00BFE2
:1027000000BF00BF00BF00BF00BF00BF00BF00BFD1
:1027100000BF00BF00BF00BF00BF00BF00BF00BFC1
:1027200000BF00BF00BF00BF00BF00BF00BF00BFB1
:1027300000BF00BF00BF00BF4006491C000EC9B269
:1027400008299BD37F1CFFB2722F90D300272078DB
:102750000321641CFDF7D6FC00210122C3090E4BA6
:102760005A6132D000BF00BF00BF00BF00BF00BF32
:1027700000BF00BF00BF00BF00BF00BF00BF00BF61
:1027800000BF00BF00BF00BF00BF00BF00BF05E02B
:102790001F030020004200504042005000BF00BF15
:1027A00000BF00BF00BF00BF00BF00BF00BF00BF31
:1027B00000BF00BF00BF00BF00BF00BF00BF00BF21
:1027C00000BF00BF00BF5E6126E000BF00BF00BFCA
:1027D00000BF00BF00BF5E6100BF00BF00BF00BF01
:1027E00000BF00BF00BF00BF00BF00BF00BF00BFF1
:1027F00000BF00BF00BF00BF00BF00BF00BF00BFE1
:1028000000BF00BF00BF00BF00BF00BF00BF00BFD0
:1028100000BF00BF00BF00BF00BF00BF00BF00BFC0
:1028200000BF00BF00BF00BF4006491C000EC9B278
:10283000082993D37F1CFFB2722F88D363200146EF
:10284000401EC0B20029FAD1002720780321641C61
:10285000FDF758FC00220121C3096B4B19612FD0F1
:1028600000BF00BF00BF00BF00BF00BF00BF00BF70
:1028700000BF00BF00BF00BF00BF00BF00BF00BF60
:1028800000BF00BF00BF00BF00BF00BF00BF00BF50
:1028900000BF00BF00BF00BF00BF00BF00BF00BF40
:1028A00000BF00BF00BF00BF00BF00BF00BF00BF30
:1028B00000BF00BF00BF00BF00BF00BF1E6126E019
:1028C00000BF00BF00BF00BF00BF00BF1E6100BF50
:1028D00000BF00BF00BF00BF00BF00BF00BF00BF00
:1028E00000BF00BF00BF00BF00BF00BF00BF00BFF0
:1028F00000BF00BF00BF00BF00BF00BF00BF00BFE0
:1029000000BF00BF00BF00BF00BF00BF00BF00BFCF
:1029100000BF00BF00BF00BF00BF00BF00BF400638
:10292000521C000ED2B2082A96D37F1CFFB2722F1F
:102930008BD363200246401EC0B2002AFAD1002089
:1029400023780022641CDF09296323D000BF00BF65
:1029500000BF00BF00BF00BF00BF00BF00BF00BF7F
:1029600000BF00BF00BF00BF00BF00BF00BF00BF6F
:1029700000BF00BF00BF00BF00BF00BF00BF00BF5F
:1029800000BF00BF00BF00BF00BF00BF00BF00BF4F
:102990002E6326E000BF00BF00BF00BF00BF00BF26
:1029A00000BF00BF00BF00BF00BF00BF00BF00BF2F
:1029B0002E6300BF00BF00BF00BF00BF00BF00BF4D
:1029C00000BF00BF00BF00BF00BF00BF00BF00BF0F
:1029D00000BF00BF00BF00BF00BF00BF00BF00BFFF
:1029E00000BF00BF00BF00BF00BF00BF00BF00BFEF
:1029F00000BF5B06521C1B0ED2B2082AA3D3401C98
:102A0000C0B212289CD3F8BD4042005010B5FDF76B
:102A1000C3FF01F0E1FA03211B48090201600168CC
:102A200002221143016001214160016880221143AB
:102A30000160164900200860FFF7AAF9144C142120
:102A4000204604F0DBFE6068102108436060080245
:102A5000104908604B21C901204604F08FFE0E4C3E
:102A600001213222C906204604F05CFE2168A00341
:102A70000143216009492162094961620649203107
:102A80000A6802430A6010BD004000400001005087
:102A90000000054000E100E000000140FF000008E8
:102AA0001BB70000F0B5FF488AB0017800297DD03F
:102AB000C1880246491C8DB2C580FB4C01231832E7
:102AC0000020FA49FA2D05D3F64D28700A25257005
:102AD000E37002E0E578012D56D1E070F44C2070EF
:102AE000F44C2070F24C25787224AC4665436D1886
:102AF000F04C24786600A619AF197870A855641CAC
:102B0000E4B2EC4EB8703470262CF1D365466D1CDF
:102B1000E74CEDB22570062DE2D32070FA26E54C85
:102B200072252070E24C247803946C436518E14CC4
:102B300024786700A446E719EC196670E855A07080
:102B40006446641CE4B2DB4F022C3C70EFD3039C60
:102B5000D74D641CE4B22C70062CE0D315243870D9
:102B600064013D786E00AE197618361970736D1CCD
:102B70003073EDB2B0733D70062DF2D300241055C2
:102B8000641CE4B2062CFAD3C64C0D342678641FBC
:102B90002578C94CB446AE4207D3C24EF7780A37FF
:102BA000BD4236D97679022E33D200E0FBE3BD4E2A
:102BB000AC45737003D177797F1C777100E0707139
:102BC000B84FB84E0D373D70B57003953071B94EA2
:102BD00030706E00AE193719BD78A65D02967E780A
:102BE0000196B44E37787E00BC46BE19771815267C
:102BF0007601BE197573029F3773019FB7736746DD
:102C00007F1CFEB2AB4F062E3E70EAD3A54D039E4D
:102C1000EE70A44D6E78012E28D0EE780496002E2A
:102C200030D0A44E3070049D6E00AE193719BD78B7
:102C3000A65D02967E7801969E4E37787E00BC4651
:102C4000BE19771815267601BE197573029F377362
:102C5000019FB77367467F1CFEB2964F062E3E70EB
:102C6000EAD3049E8F4D761EEE7023E0AE781327D4
:102C70007608BE1B2F79BE4202DD7F1C2F7119E042
:102C8000687017E0874D0D3528706D1F2870894DCD
:102C9000287015256D01874E36787700F7197F1853
:102CA0007F1978733873B873761CF6B2814F062E8D
:102CB0003E70F0D37B4D7B4F0835AD7804952E07E1
:102CC000784D1E370D35AD780395360F2D072D0F36
:102CD0003F78B4460297AE4206D81678B61C6645D1
:102CE00016D2029E022E13D26E4E1236771F33700A
:102CF000654504D1029D0C366D1C357002E0694DAE
:102D00001E352870039D66462D092D013543BD7083
:102D1000644E049D0D36B67804963709614E2D0930
:102D20001E36767803965F4E0836B6783609360139
:102D30000796BD4206D85678B61CAE4217D2039EFF
:102D4000022E14D2574E12367370AF4204D1039D37
:102D50000C366D1C757002E0524D1E356870514F77
:102D6000049D0D372D07079E2D0F3543BD704D4D2A
:102D70000835ED7805952F074A4D3F0F02970D3521
:102D8000ED7804952E07474D360F01961E35AD7828
:102D9000B74205D89678B61CBE4217D2022D15D27E
:102DA000404E1236B370019EBE4204D13D4E1E36D7
:102DB0006D1CB57002E03B4D1E35A870394F049D67
:102DC0000D372D09029E2D013543FD70059D354EB1
:102DD0002D090D360195F67806963709314E1E36C7
:102DE000F67804962F4E0836F678360936010596A1
:102DF000BD4207D8D578019EAD1CB54219D2049DBD
:102E0000022D16D2274D1235EB70019EB74205D127
:102E10002E46049D0C366D1CF57002E0214D1E35CA
:102E2000E870204F069D0D372D07059E2D0F354369
:102E3000FD701C4D08352D7908952F07194D3F0F52
:102E400001970D352D7906952E07164D360F0396F1
:102E50001E352D79B74205D81679B61CBE4217D259
:102E6000022D15D20F4E12363371039EBE4204D18D
:102E70000C4E1E366D1C357102E00A4D1E35287150
:102E8000084F069D0D372D09019E2D0135433D71DB
:102E9000089D044E2D090D3603953679099637099C
:102EA000004E0BE0040000206A0000201F030020F9
:102EB0007800002066000020F07D00001E36767944
:102EC0000896FE4E3679360936010696BD4207D879
:102ED0005579039EAD1CB54219D2089D022D16D21C
:102EE000F64D0A356B71039EB74205D12E46089DFB
:102EF0000C366D1C757102E0F04D16356871EF4FA0
:102F0000099D7F1D2D07069E2D0F35433D71EB4D0D
:102F10000A352E782435012E167819D0B446002EA5
:102F200066D066467600B646F6B27700F619771890
:102F3000787088557646761CB870F6B27700F61928
:102F40007718787088556646B870761E167058E007
:102F5000664529D2761C167076000396F6B2770085
:102F6000F619B446A75D7618079677706646361947
:102F7000B646777866468F557646B778079EB7701F
:102F8000039E761CF6B27700F619B446A75D761854
:102F90000496777066463719BE467E786746CE55EA
:102FA0007746BF78049E2BE07600C44FB61CF6B27D
:102FB0001C373E7000962F78B74215D27700F6196D
:102FC000B446A75D76180796777066463619B646FA
:102FD000777866468F557646B778079EB770009E1D
:102FE0002E70B64E22363370B44E0A36307008E07A
:102FF000B24E761DB7783F093F01B770079F761F25
:10300000B770AE4E22363678012E16D0AB4E28362B
:1030100037787F1CFFB23770022F44D330702E7880
:10302000002E01D0761E2E70A44E0A363678012E60
:10303000167808D07600361D2DE0A04E223630706E
:10304000B61D30702FE07600B61C0FE037467600D4
:10305000BF197E18049737797770B646049FF678C3
:10306000CE5576467779B7706646761CF6B2B4468A
:10307000252EEBD313E037467600BF197E18049750
:1030800037797770B646049FF678CE5576467779CD
:10309000B7706646761CF6B2B446252EEBD3884E42
:1030A0003074F0737074854E0A367678012E567837
:1030B0001BD0B446002E6AD066467600B646F6B2FD
:1030C0007700F61976186036F074B074307576466D
:1030D000761CF6B27700F61976186036F074B07484
:1030E00030756646761E56705CE0744FBF783F09B7
:1030F000BE4226D2761C56707600B646F6B27700EF
:10310000F619B446A75D76186036F77467463F191E
:10311000BC467F78B7746746BF7837757646761CAD
:10312000F6B27700F619B446A75D76186036F774E4
:1031300067463F19BC467F78B7746746BF783775D6
:1031400030E07600B61CF7B25C4EBC461C36777099
:103150006E78BE4217D267467E006644B646A75DCB
:10316000761860360396F77476463619B646777841
:10317000039EB7747646B778039E377566466E70C1
:103180004E4E223673704D4E0A3670700AE04B4E2A
:10319000761DB7783F073F0FB770761FB7783F07A8
:1031A0003F0FB770454E22367678012E16D0434E2B
:1031B000283677787F1CFFB27770022F3DD370706E
:1031C0006E78002E01D0761E6E703C4E0A367678F0
:1031D000012E567808D07600361D25E0374E22366F
:1031E0007070B61D707028E07600B61C0BE076009B
:1031F000664476186036B77DF774777DB774F77DCF
:1032000037756646761CF6B2B446252EEFD30FE02E
:103210007600664476186036B77DF774777DB774AC
:10322000F77D37756646761CF6B2B446252EEFD389
:10323000234E8036B0707070F070204E0A36B6782B
:10324000012E96781BD0B446002E6DD066467600CF
:10325000B646F6B27700F6197618E036707130711E
:10326000B0717646761CF6B27700F6197618E0361D
:1032700070713071B0716646761E96705DE0029F87
:10328000BE422CD2761C96707600B646F6B2770017
:10329000F619B446A75D7618E036777167463F1990
:1032A000BC467F7837716746BF78B7717646761C23
:1032B000F6B27700F619B446A65D03E00C000020D4
:1032C0007F03002067467F18E0377E716646361917
:1032D000B44676783E716646B678BE712DE07600CB
:1032E000B61CF7B2FE4EBC46B770AE78BE4217D2DF
:1032F00067467E006644B646A75D7618E0360296BD
:10330000777176463619B6467778029E37717646DB
:10331000B778029EB7716646AE70F14EB61DB370B7
:10332000EF4E123EB07008E0ED4E173EF7783F09C1
:103330003F01F770761F059FF770E94EB61DB6780E
:10334000012E16D0E64E0C36B7787F1CFFB2B77050
:10335000022F3DD3B070AE78002E01D0761EAE7035
:10336000DF4E123EB678012E967808D07600361DD4
:1033700026E0DB4EB61DB070B61DB07028E07600BA
:10338000B61C0BE0760066447618E036377A777123
:10339000F7793771777AB7716646761CF6B2B4461C
:1033A000252EEFD310E053E2760066447618E0361F
:1033B000377A7771F7793771777AB7716646761C05
:1033C000F6B2B446252EEFD3C64E3075F074707544
:1033D000C34E123EF678012ED6781DD0B446002E8C
:1033E00071D066467600B646F6B27700F6197618C2
:1033F000FF364136F075B07530767646761CF6B2FB
:103400007700F6197618FF364136F075B0753076CC
:103410006646761ED67061E0B14F1C3FFF783F09CB
:10342000BE4229D2761CD6707600B646F6B2770038
:10343000F619B446A75D7618FF364136F77567462C
:103440003F19BC467F78B7756746BF7837767646B2
:10345000761CF6B27700F619B44667467F18FF3738
:10346000A65D4137FE7566463619B4467678BE7558
:103470006646B6783E7631E07600B61CF7B2984ED6
:10348000BC46F770EE78BE4218D267467E006644AE
:10349000B646A75D7618FF3641360296F775764632
:1034A0003619B6467778029EB7757646B778029E8B
:1034B00037766646EE708A4EB61DF370884E123E21
:1034C000F0700BE0FFE7864E173EF7783F073F0F9F
:1034D000F770761FF7783F073F0FF770804EB61DE5
:1034E000F678012E16D07E4E0C36F7787F1CFFB290
:1034F000F770022F3FD3F070EE78002E01D0761EC9
:10350000EE70774E123EF678012ED67808D076000F
:10351000361D27E0724EB61DF070B61DF0702AE021
:103520007600B61C0CE0760066447618FF3641360D
:10353000B77EF775777EB775F77E37766646761C69
:10354000F6B2B446252EEED310E076006644761827
:10355000FF364136B77EF775777EB775F77E3776DB
:103560006646761CF6B2B446252EEED35D4E803606
:10357000B0717071F0715A4E123E3679012E167983
:103580001DD0B446002E6DD066467600B646F6B223
:103590007700F6197618FF36C13670723072B07245
:1035A0007646761CF6B27700F6197618FF36C136E5
:1035B00070723072B0726646761E16715BE0019FC3
:1035C000BE4229D2761C16717600B646F6B2770056
:1035D000F619B446A75D7618FF36C136777267468E
:1035E0003F19BC467F7837726746BF78B772764618
:1035F000761CF6B27700F619B44667467F18FF3797
:10360000A65DC1377E7266463619B44676783E723C
:103610006646B678BE722EE07600B61CF7B2304E23
:10362000BC4637712E79BE4218D267467E0066448A
:10363000B646A75D7618FF36C13601967772764694
:103640003619B6467778019E37727646B778019E6E
:10365000B77266462E71224EB61D3371204E123E51
:10366000307108E01E4E173E37793F093F01377130
:10367000761F069F37711A4EB61D3679012E16D069
:10368000174E0C3637797F1CFFB23771022F43D3A8
:1036900030712E79002E01D0761E2E71104E123E02
:1036A0003679012E167908D07600361D2CE00C4EA6
:1036B000B61D3071B61D30712EE07600B61C0CE0E0
:1036C000760066447618FF36C136377B7772F77A14
:1036D0003772777BB7726646761CF6B2B44603E063
:1036E000280000205F040020252EE9D310E076009A
:1036F00066447618FF36C136377B7772F77A3772B1
:10370000777BB7726646761CF6B2B446252EEED3AA
:10371000654E3076F0757076644E7679012E19D04C
:103720005779002F68D07E00F3B25C001B195C183B
:1037300011235B01E418E076A0762077761CF4B2C2
:103740006600A4196418E318D876987618777F1E57
:1037500057715CE0554F56790A3F3F793F09BE42A9
:1037600026D2761C73009C465671DBB25E009B1914
:103770004F4C5F18E65C112464013C19E6764C4E10
:103780009B195E78A6769B78237763465B1CDBB239
:103790005C001B19464C11265F187601E45CBE19CB
:1037A000F476434C1B195C78B4769B7833772EE023
:1037B0007600B61CF7B23D4EBC46123677716E7974
:1037C000BE4216D267467E006644B646384F7446FF
:1037D000BE5D6718112464013F19FE76344E7644AD
:1037E0007478BC76B4783C7764466C712F4C18348E
:1037F00063712E4B58710AE02C4B5B1F1C79240718
:10380000240F1C715B1F1C792407240F1C71274B8C
:1038100018335C79012C17D09B1D5C79641CE4B2D1
:103820005C71022C14D358716B79002B01D05B1E94
:103830006B711E4B52795B79012B0BD05200121D1C
:103840001124D2B2640126E0184958711E31487122
:103850000AB0F0BD5200921C1124D2B264010BE0F8
:103860005300D3185B181B199D7FDD765D7F9D7615
:10387000DD7F521C1D77D2B2252AF1D30DE0530013
:10388000D3185B181B199D7FDD765D7F9D76DD7FEC
:10389000521C1D77D2B2252AF1D303498031887298
:1038A0004872C872D4E700003F05002016000020CF
:1038B000F07D00000E480021027A002A0BD0827BA6
:1038C000521CD2B28273FA2A05D381730172094B5A
:1038D000417201221A70C27B002A07D00278521C62
:1038E000D2B20270FA2A00D3C173704701707047D8
:1038F0005200002089000020F0B5544C544BE5786C
:103900005449554A0020012D05D01C78052C26D29B
:10391000641C1C70F0BDE070087010704F49514A73
:1039200008704F491746087018704F49107008709A
:103930003E784E4A722373439A180B785C001D1927
:10394000541960705B1C5055DBB2A0700B70262BB5
:10395000F3D3761CF2B23A70052AE8D9F0BD002004
:1039600018703D480E780478330020460F30C7B2F7
:103970003A4805783A48007804F014F80705091029
:10398000171E26622C00FF2C20D3012021E0334893
:10399000FF2D01D20F3513E002201AE0002C02D0D7
:1039A0000F3C147016E0032013E02D4BFF2801D2CA
:1039B0000F3049E004200CE02848002D02D00F3DD4
:1039C000057007E0052004E0FF2C01D2177001E02C
:1039D00006200870234F0020387021481F490378C3
:1039E00015780C782148397872260A4671430918EF
:1039F00060310D74CC734B74521CD1B239700529EF
:103A0000F1D9002139701848002101703A7817491E
:103A1000722353435B1804786100651859190E79B5
:103A20004E70CE785E554D798D70641CE1B2017098
:103A30002529F0D3521CD0B238700528E3D9F0BD47
:103A4000074B0028A1D00F381870C3E76A00002088
:103A50004101002073010020740000207500002047
:103A60007600002078000020660000201F03002060
:103A7000FEB579497948CB7800780090784A794D3D
:103A800079480024012B17D0117800295FD000213C
:103A9000117029460C787549784A0F787449137863
:103AA0000E787449764A0D78734912780978002C9B
:103AB00050D0012C76D168E0CC707249724E0C70F7
:103AC0000B78D454EC54F454C4545B1CDBB20B702C
:103AD000052BF5D96D4D0C706A482C7000786C4937
:103AE0007222019050434718287800990646FCF747
:103AF00009FB6848017070003118781844707C54D4
:103B00008470761CF0B228702628EDD301995D48A8
:103B1000491CC9B201700529DED95F4D19212878E9
:103B2000FCF7F0FA5149087068781921FCF7EAFAB5
:103B30004F490870A8781921FCF7E4FA4D4908703C
:103B40004D4804704D4804704D480470FEBD01207E
:103B50001070FEBD0078440004194F48005D884293
:103B600007D84D48201844789C4202D8807890426B
:103B700008D94148C9190170404899190170404855
:103B800051190EE0374801210BE00C461C43144349
:103B900009D03948C91B01703848991B0170384851
:103BA000511B017021E02F4A002111700278521C34
:103BB000D2B20270009B9A4200D301700078364C5A
:103BC00041004518605D1921FCF79CFA27492C1922
:103BD000087060781921FCF795FA25490870A078DB
:103BE0001921FCF78FFA23490870264F00263E70F2
:103BF000214A2249224815780C78037838787221B6
:103C0000024648432249521C401860300574C47370
:103C10004374D0B238700528F0D91C483E7000219A
:103C2000017039781A4B0A4672246143CB18047824
:103C30006100651859190E794E70CE785E554D7930
:103C40008D70641CE1B201702529F0D3521CD1B2F1
:103C500039700529E3D9FEBD6A0000206E000020FE
:103C60004101002073010020D701002074000020D2
:103C700075000020760000207100002072000020F6
:103C80007300002078000020090200206600002058
:103C90001F0300207700002011010020F0B5B54976
:103CA000B548CB78B54A002499B0012B06D00178ED
:103CB00005294AD2491C017019B0F0BDCC70B04939
:103CC000B04EB14B0C70054608782C541454345443
:103CD0001C54401CC0B208700528F5D9AB4E0C70BE
:103CE000A74834700078AA4A262141438F18A94A70
:103CF0007223014659438A1831784B00CD18531965
:103D00005C7054559C707C54491CC9B23170262992
:103D1000F2D3401C9A49C0B208700528E0D99E4DE4
:103D200032212878FCF7EEF99C4908706878322136
:103D3000FCF7E8F99A490870A8783221FCF7E2F913
:103D40009849087098480470B6E7002101709748B8
:103D50003224037891480193077891487C43017895
:103D60009048E4B20078179432244C43E4B216949D
:103D700032244443E4B215942B247C43E4B21494DB
:103D80002B244C43E4B213942B244443E4B2129406
:103D900024247C43E4B2119424244C43E4B20994D7
:103DA00024244443E4B208941D247C43E4B20794E1
:103DB0001D244C43E4B210941D244443E4B2059402
:103DC00016247C43E4B20E9416244C43E4B20494CB
:103DD00016244443E4B20C943C01E41BE4B20D9479
:103DE0000C01641AE4B20B940401241AE4B20F9497
:103DF000FC06240E0694CC06240E0A94C406240E57
:103E000018945E4A6A4C6B4D6B4E1278012B07D0AA
:103E1000130003F0C7FD080D161F28313A43537AEB
:103E2000130003F0BFFD08050E172029323B457231
:103E30001798207016982870159830704F480121F7
:103E400034E01498207013982870129830704B4802
:103E500002212BE011982070099828700898307082
:103E60004648032122E00798207010982870059892
:103E700030704248042119E00E9820700498287090
:103E80000C9830703D48052110E00D9820700B987B
:103E900028700F9830703948062107E00698207086
:103EA0000A982870189830703448072101702CE067
:103EB0002770297030700020304925E02770297064
:103EC00030702E48002101702F480278521CD2B267
:103ED0000270019B9A4200D301700078410047189C
:103EE0002D483221C05DFCF70DF92C4908702A4895
:103EF00032213F187878FCF705F929490870B8781D
:103F00003221FCF7FFF8274908701D4F0020387058
:103F100023782C7835781F4EC0B202467221484370
:103F2000801960300374C4734574521CD0B2387069
:103F30000528F1D9002038701448002101703A7822
:103F40001449722353435B180478610065185919AA
:103F50000E794E70CE785E554D798D70641CE1B24D
:103F600001702529F0D3521CD1B239700529E4D94A
:103F7000A2E600006A000020410100207301002039
:103F80007800002009020020D701002066000020F0
:103F90003B0200201F0300201101002074000020BC
:103FA0007500002076000020880000206E000020B0
:103FB00071000020720000207300002010B559210C
:103FC0000448162288230160026003600468002C04
:103FD000F9D010BD0001005010B559210448162237
:103FE00088230160026003600468002CF9D010BDD2
:103FF00000010050F8B57A487A4AC1787A4B00241B
:10400000012905D0107805284FD2401C1070F8BD4A
:104010007649C470764D774E0C70087814541C5451
:104020002C543454401CC0B208700528F5D9724E87
:104030000C706E4834700078704A262141438F1806
:104040006F4972224243521831784B00CD185319F0
:104050005C7054559C707C54491CC9B2317026293F
:10406000F2D3401C6149C0B208700528E1D9654807
:10407000654D047028783221FCF744F863490870D4
:1040800068783221FCF73EF861490870A87832213F
:10409000FCF738F85F4908705F4804705F480470A7
:1040A0005F4804705F480470F8BD4F48147007788B
:1040B00056485A4900780A7884465548584906783F
:1040C0005448504B05785448097800781B78002FE5
:1040D00004D0012F1FD0022F59D127E05F00DB1938
:1040E000494FFF5C874207D8474FDF197B789342DF
:1040F00002D8BB788B4208D9474B604418704748B8
:1041000092190270464849191DE037480121017093
:10411000454804703BE044480178491CC9B201702D
:10412000322934D30470304802210CE0074617438B
:104130000F430AD0384B6746C01B18703748921B94
:1041400002703748491B017021E027485B1C04704E
:104150002C48D9B2354A01701278914200D30470CC
:104160000078294D41004618A85D1921FBF7CAFFC8
:1041700026497519087068781921FBF7C3FF24498F
:104180000870A8781921FBF7BDFF2249087017496C
:10419000214A0C70214C1278214B0092227816484B
:1041A0001F789446002101701049154A097872233E
:1041B0004B439A180378009C5D005E1995196C704A
:1041C00064465B1C9455DBB2AF700370262BF1D3B1
:1041D000491C064AC9B211700529E3D9F8BD00008F
:1041E0006A000020410100207301002078000020B7
:1041F00009020020D7010020660000203B020020B9
:104200001F0300207700002011010020740000200F
:104210007500002076000020710000207200002050
:104220007300002088000020A50100206E000020FF
:1042300006498A691202FCD408600A2804D18869F8
:104240000002FCD40D20086070470000000005400B
:10425000F8B5244E0024F178234B2448012913D0CB
:104260000188234D491C8AB201210280012A14D001
:104270001746FF3FCD3F05D005277F02BA420ED13A
:10428000022010E019700FE0F470048000221C700E
:1042900011461046FBF7D6FFF8BD1C7004E0154F21
:1042A000BA4203D103201870297006E0124DAA42C9
:1042B00003D104801148F17001701878002808D0EB
:1042C000012809D002280AD00328E5D100F0C2FB5A
:1042D000F8BD00F015F8F8BD00F0C0F8F8BD00F02A
:1042E0008FFAF8BD6A0000207B00002080000020CB
:1042F0007C000020840D0000941100005700002075
:10430000FEB54948494D01780024494E012905D0A0
:104310002878022817D2401C2870FEBD00220470A5
:1043200011461046FBF78EFF42482C70047042483D
:104330000470424804704248047042480470424885
:1043400034700470FEBD00202870394801783C4864
:104350000078401CC4B237480029077836480678F0
:10436000364805783748007802D0012953D133E028
:104370004100401835490090085C1921FBF7C2FE46
:10438000014633480170019130490098401802906D
:1043900040781921FBF7B6FE01462E4801700091C6
:1043A000029819218078FBF7ADFE2B49214A08704D
:1043B000019928187918117000991F4A7118117005
:1043C0001E49192C08701E48047024D30021017066
:1043D0001748012101701EE01D4A16491278BA1AC9
:1043E0000A701C4A14491278B21A0A701A4A134900
:1043F0001278AA1A0A701249192C0C700BD30022D9
:104400000A700B49401C0A700E4AC0B21070022894
:1044100001D9022008700948027807480178054848
:104420000078FBF70FFFFEBD7C0000207900002024
:104430008200002071000020720000207300002024
:104440006F000020770000207E0000201101002076
:10445000740000207500002076000020F0B5D748D9
:10446000D74E0178D74D00248FB0012923D0304694
:10447000067828460078731C401CC2B2D248DBB2D2
:1044800000780693D14B411C1F78C9B27B1CDBB26C
:104490000993CF4B1B7800937B00FB18CD4F0893FB
:1044A000DB190793330003F07DFA091C68C4FDC4CF
:1044B000FDC4FDFCFB000022047011461046FBF712
:1044C000C1FE2C70C4483470C44A0470017854543E
:1044D000491CC9B201703229F8D3C1480470BA48E6
:1044E00067E12A70052A7DD300222A70262842D24D
:1044F000BA4DBC4EBC4C3088113080B23080FBF7D6
:1045000034FEFBF729FEC0B22621FBF7FBFD21702C
:10451000685C0128EFD00120CAB2A854AB488B08D0
:104520000370AD4800220270AA4A5C001B19D55CDA
:104530009A18547897784A008B18017872260A46A0
:104540007143AA4E521C8E19F1184D70F4548F709D
:10455000D1B201700729F0D39B480178491C017042
:1045600099480078322862D395480178491C017037
:1045700000209B49ABE09448F1E72A700A2A56D301
:104580009A482C7060309A49027C0A7004929949CA
:10459000C27B0A700292417C97488C460170924817
:1045A000252101708C48002101708F490D78690028
:1045B0006C1803787222194651438C4A5B1C8E1882
:1045C00031190A46203A977F4F70577F3755D27F6F
:1045D0008A70D9B201700729EBD36D1E2A06824971
:1045E000120E00E023E00A70DDD100217F4C017043
:1045F0000278722513466A431519049E6E70029E56
:10460000A6546246AA705B1CDAB20270072AEFD386
:1046100073480278521CD2B20270502A07D301703C
:104620006748069A027068480170684801700FB0C8
:10463000F0BD2A70142AFAD300222A70082835D235
:10464000654A00231370644A12789446D200131806
:10465000262B20D2694A002414705E4C089D645DAC
:104660000D94079C64780594079CA47804945C00DE
:104670001C19137872261D4675435C4E0D9FAD19AB
:104680002E197770059F2F555B1C049DDBB2B5700A
:104690001370072BEDD363465B1C4F4ADBB202E07D
:1046A00089E053E015E01370052BCCD34BE046496D
:1046B00008780828BBD34248069A02704348099AF2
:1046C0000270009B9A4201D3002202700020087001
:1046D000ADE72A70142AAAD300222A70082832D201
:1046E0003948414A0170002010703B480078C000F2
:1046F000401A0C9008308446604626281BDA3F4852
:10470000002101703349089A8E5C079902460C9883
:104710004F788D7841004418107872230146584331
:10472000324B491CC0180019467607768576C8B208
:1047300010700728F0D32C480178491CC9B20170C9
:104740000529D9D3B3E720480170B0E72A700A2AB7
:10475000BED32C70082824D21F4A14701E4A127827
:104760009446D2001218262A14D2244B1F4D1C70D6
:104770005300D318214A7227127816467E437619C1
:10478000F7187C70F454521CD2B21C4EBC703270BC
:10479000072AEFD363465B1C0F4ADBB21370052B6D
:1047A000DCD3094801700178082991D30449069A9D
:1047B0000A7004703BE7FF21014837E77C000020C6
:1047C00082000020790000207E0000207700002079
:1047D0006E000020110100206F000020090200205F
:1047E0007A00002068000020660000201F030020DF
:1047F000710000207200002073000020780000206B
:10480000F0B58848884E0178884C8BB001295ED07D
:10481000304605780795874920460E780078711C48
:10482000834AC9B205911178009171007118401C3A
:10483000834E0391C0B2804A804F8919052D2070A4
:1048400056D3082852D300252570252010703846ED
:1048500000220270784A127853009446D5180278E4
:10486000722314465A43774B641CD61872191346A8
:10487000203B9F7F57705F7F7755DB7F9370E2B25D
:104880000270072AEBD363465B1E6B4A1B061B0EA6
:104890001370DDD100220270694A039B4C78D75C0B
:1048A0008D78684B017872260A467143CE1877706E
:1048B0005C54521CD1B2B57001700729F2D35D4827
:1048C00005990170009A914210D30021A8E00025BB
:1048D00005702A4629462846FBF7B4FC5A4825703D
:1048E0000570544805705948057035700BB0F0BD1F
:1048F00008287DD30025257012201070384600222C
:1049000002704D4A137806229C4653430278722463
:10491000154662434B4C6D1C1619F2181446203C88
:10492000E77E5770A77EF754247F9470EAB2027036
:10493000072AEBD363465B1E3F4A1B061B0E137010
:10494000DDD1002202703E4A039B4D78D75C8A7805
:1049500094463C4A037872261C4673439E1877702F
:10496000D5546346B370641CE3B20370072BF1D3D4
:10497000314C00232370002303702F4B1C78062337
:1049800025465D430678722373439B185B199F7A13
:104990001F715F7ADF70DF7A5F71761CF3B203708C
:1049A000072BEFD3641C244BE4B21C70122CE2D30F
:1049B00000230370CE780C794D79017872270B466D
:1049C0007943891860310E74CC734D745B1CD9B275
:1049D00001700729F1D31D480178491CC9B2017043
:1049E00006290BD30022027012480599017000E0DD
:1049F00004E0009B5B1E994200DB027014480178C2
:104A0000491CC9B20170642900D26FE7002101700E
:104A10000798054A401CC0B210700528F5D30B4812
:104A2000017063E77C0000207A00002079000020FC
:104A30006E00002077000020660000207800002033
:104A4000110100201F030020820000207E000020B2
:104A50007F000020FEB5B848B84D01780024012938
:104A60001AD0B748B8490378B648B84AB84E2F7834
:104A700000780978127836780296B64E5B1C367844
:104A80000196B54E36780096DEB23B0002F08AFF02
:104A9000052A6AA8C5F4A700002204701146104632
:104AA000FBF7D0FBA64819210470AC480470AC4851
:104AB00004702C70AB4D2878FBF724FBA1490870DB
:104AC00068781921FBF71EFB9F490870A878192107
:104AD000FBF718FB9D4908709D4804709D480470C1
:104AE0009D48C6E0964B082E1E7078D31C70029E1F
:104AF000974B3018C0B21870019E964B7118C9B20E
:104B00001970009E944BB218D2B2904F1A70FBF7F6
:104B100099FB92480178491CC9B201700A295ED9F3
:104B200004702878914A401C28708F4804708C4883
:104B30000178491CC9B201701278914200D3047007
:104B40000078884C41004518605D1921FBF7DAFABE
:104B50007C492C19087060781921FBF7D3FA7A493F
:104B6000087037E00301181A794BC0B218700B01B6
:104B7000591A784BC9B2197013019A1A764BD2B2EE
:104B8000714E724F1A70FBF75DFB77480178491C34
:104B9000C9B20170282922D904702878734A401CB0
:104BA00028706F480178491CC9B20170127891428F
:104BB00000D3047000786B4C41004518605D1921EA
:104BC000FBF7A0FA5F492C19087060781921FBF7F0
:104BD00099FA3070A0781921FBF794FA3870FEBD6D
:104BE0005F48604A007841004318D05C58499A18E1
:104BF0000870584B51781970574B92781A70FBF720
:104C000021FB59480178491CC9B201705029E6D9E5
:104C100004702878401C28708CE0494B062E1E70CA
:104C2000DDD31C70029E4A4B301AC0B21870019E30
:104C3000484B711AC9B21970009E474BB21AD2B2D2
:104C40001A70FBF7FFFA45480178491CC9B2017098
:104C50000F29C4D904702978454A491C2970424952
:104C60000C7001785454491CC9B201703229F8D330
:104C700040480470FEBDFFE73148052E0670F9D3A9
:104C800004703C48007826282ED23B4F3B4E388893
:104C9000113080B23880FBF768FAFBF75DFAC0B2DA
:104CA0002621FBF72FFA32483170405C0128EED004
:104CB0002F480122CBB2C2543148324B4A00047013
:104CC0008A18017872270E467E43F618B7187C7052
:104CD000491CB454C9B2BC7001700729F1D32548EE
:104CE0000178491C017002E02249401C08702148EB
:104CF00000783228BED316482C7004701548194D20
:104D00000470154804701648007841004618A85DE4
:104D10001921FBF7F7F90B49751908706878192103
:104D2000FBF7F0F908490870A8781921FBF7EAF9B0
:104D30000649087009489CE77C000020820000209A
:104D4000790000207400002075000020760000200B
:104D50007100002072000020730000206F0000200E
:104D600077000020110100207F0000206E0000204D
:104D7000090200207E00002068000020660000205C
:104D8000780000201F030020F8B5284E0024F17899
:104D9000274B284801290DD00188274D491C8AB28C
:104DA00001210280012A0ED0CD27FF00BA420CD18A
:104DB000197019E0F470048000221C70114610462E
:104DC000FBF740FAF8BD1C700EE01C4FBA4201D14F
:104DD000022008E01A4FBA4201D1032003E0194F24
:104DE000BA4203D104201870297006E0164DAA4279
:104DF00003D104801548F17001701878030002F0A7
:104E0000D1FD0505080B0E110400DBE700F0D2F917
:104E1000F8BD00F01DF8F8BD00F056FBF8BD00F03D
:104E20009FFDF8BD00F0E8FFF8BD00006A0000201B
:104E30007B000020800000207C000020520D00003C
:104E40006E0F000092130000581B00005700002056
:104E5000FEB5C348C34D0178C34E0024012952D08A
:104E60002878401CC0B2287005287DD32C703046AD
:104E70000278BE480178481CC0B2002A5AD0012AE4
:104E800073D0262972D2BA4FBA4EBB490888113066
:104E900080B20880FBF769F9FBF75EF9C0B2262102
:104EA000FBF730F93170785C0D460128EDD0012018
:104EB000C9B27854B14801782846FBF723F9B048C5
:104EC0000B460170AF48B04904705C001B19CE5C02
:104ED00059184C788978AD4A8C4669006B1801786E
:104EE00072270D467D43AD18EF187E70EC54491CB7
:104EF0006546C9B2BD7001700729F0D39B4801789F
:104F0000491C017022E10022047011461046FBF793
:104F100099F99B48032101702C709D483470944A84
:104F2000047001785454491CC9B201703229F8D375
:104F30008E4869E026293ED28D4F8F4E8D4D3088A8
:104F4000113080B23080FBF710F9FBF705F9C0B2E1
:104F50002621FBF7D7F82970785C0128EFD00120D3
:104F6000CAB2B854874802E04FE04FE0ECE0844B0F
:104F700004701B78844A5D005B19D55C9A18009513
:104F8000537895784A009C468A18017872270E4615
:104F90007E437E4F009BF719BE1873706346491C11
:104FA000BB54C9B2B57001700729EED36F480178C0
:104FB000491C017001E06D4908706C480078322886
:104FC00023D369486B4D0178724E491C01706A4FBA
:104FD0002C703888113080B23880FBF7C6F8FBF7A8
:104FE000BBF8C0B21421FBF78DF86B4A2878115436
:104FF0000121315469490C54401CC0B22870322838
:10500000E7D36748047067480470FEBD5948002123
:10501000017058485F490078095C019100294DD022
:10502000012972D00021574A584D43001170C4180D
:10503000137872271E467E437619371979705B1CE8
:105040003155DBB2B9701370072BF1D3514A1154AB
:1050500048480178491CC9B201702629D9D3504863
:105060000178491CC9B201703229CED900243E4EC4
:105070000470434D347028784B4B4100421842492C
:10508000885C18705218494B51781970484B9278C7
:105090001A70FBF7D7F82878401CC0B22870052892
:1050A00001D9022030703A48314A047001785454D2
:1050B000491CC9B201703229F8D339E731490022BD
:1050C0002F4B0A701B78304A5C001B19D45C9A186D
:1050D0000094557892789446420084180A78722792
:1050E00013467A43294F009ED7193A1956703D55F9
:1050F000664696705B1CDAB20A70072AEED3019AF4
:105100002449521C0A54A3E7FFE7244A224C115CAD
:10511000184D491CC9B21154235C994298D90021F9
:10512000115415490888113080B20880FBF71DF82A
:10513000FBF712F8C0B21421FAF7E4FF2878154AF9
:105140002154115C491C82E708490870074800781F
:10515000322800D259E70448FF210170FEBD00004B
:105160007C00002079000020820000207E000020CA
:105170000902002066000020680000206E00002068
:105180007700002078000020110100201F0300207C
:105190006F00002073010020A501002041010020C4
:1051A0007F0000207A0000207100002072000020A3
:1051B00073000020F0B5B649B6488FB00A78007881
:1051C00000900020012A7BD0B349B54A0C781278B0
:1051D000B249521CD2B209789446621CD2B2491C20
:1051E0000792B04AB04BB14FC9B2002C67D0B04D56
:1051F0002D786D1CEDB20695AE4D2E78751CEDB276
:10520000059535467600AE19AB4D7519012CA34CAA
:1052100021707DD00A294FD32070A7482521805DB9
:1052200010700790687818700290A87838708446DB
:10523000A2480170A24A00201070A04805786800BA
:105240002C1813787220194641439E485B1C0E1897
:105250003019014620398F7F47704F7F3755C97FFE
:105260008170D8B210700728EBD36D1E93482906C1
:10527000090E0170DED192490022924B0A70087823
:10528000722604464643F018079D4570029D9D55C1
:1052900065468570641CE0B208700728EFD3844827
:1052A000069901700C2907D902708248059901708E
:1052B000009B994200D302700FB0F0BD00E03AE0CD
:1052C00008707E497F4C08707C4E009930780690BB
:1052D000FAF718FF77480022017079484B000270F6
:1052E000754AC918555C89184B7889788C46069997
:1052F0004A008A18017872270E467E433619B7187D
:105300007D70B3546646491CBE70C9B2017000E09E
:1053100061E00729EED306986849401CC0B20870C6
:105320002628D1D36349002008705C4908705A4987
:1053300008705B494DE0594C14292170BCD3614978
:1053400020704C78147004940A781A7002928A784B
:105350003A700192594A107059480021574A017019
:10536000157858496A00AC18037872225A435618C7
:10537000321917795770D7783755567996705B1C64
:10538000DAB20270072AEFD36D1C4C4AE8B21070F3
:105390002628E1D34A4A0020107014787223634310
:1053A0005B186033049D1D74029DDD73019D5D7467
:1053B000641CE3B21370072BEFD3394962460A70BD
:1053C000142ABBD308703449079A0A703949087007
:1053D0003749087070E70A29FCD337492070895D86
:1053E00011700991697819700291A9783970019149
:1053F000324925220A70324A002010702F48057861
:1054000068002C1813787220194641432D485B1C04
:105410000E183019014620398F7F47704F7F37555E
:10542000C97F8170D8B210700728EBD36D1E234955
:105430002806000E0870DED121490022214C0A7096
:1054400008787225034668430519099E6E70029E0E
:1054500026540198A8705B1CD8B208700728EFD3B7
:10546000134906980870052807D90A70114805994C
:105470000170009B994200D3027009486146017097
:105480006429A7D3027004480799017014E700004B
:105490007C0000206E0000208200002079000020A7
:1054A0007F000020710000207200002073000020A7
:1054B0007E000020770000201101002066000020FF
:1054C000780000201F030020F0B5FF49FF4B0C7847
:1054D0000020FF4A8FB0012C21D01146FE4A0978E6
:1054E0001278FC4C521CD2B20A92FC4A1278551C1B
:1054F000EDB20995247800944C1CE4B20894550050
:10550000F74C521915190792002911D0012951D0D1
:1055100002297DD003297CD00521ED4847E00870A1
:10552000EE4908701870EC4910700870ED49C9E038
:10553000ED4800210170EC48032100780B90FAF748
:10554000E1FD00291DD1E94801700799615C0C91CA
:1055500069780591A9788C460B994A008A180178D8
:1055600072260B467343E24E0C9F9B199E18777070
:10557000059F9F54491C6346C9B2B3700170072947
:10558000EDD30B99D848491CC9B201702629D2D352
:10559000D1480A99017014290AD300210170CF4A19
:1055A00009981070009B984246D3117044E0017036
:1055B0000FB0F0BDCC4800210170CB48032100782A
:1055C0000B90FAF79FFD01291ED1C84800210170F8
:1055D0000799615C0D9169780591A9788C460B99C2
:1055E0004A008A18017872260B467343C04E0D9FFD
:1055F0009B199E187770059F9F54491C6346C9B23A
:10560000B37001700729EDD30B98B749401C01E036
:1056100015E059E0C0B208702628CED3AE490A98EA
:1056200008701428C4D300220A70AC490998087085
:10563000009B984200D30A70A5480899B7E7AA488A
:1056400000210170A848032100780B90FAF75AFD59
:1056500002291ED1A548002101700799615C0D91B6
:1056600069788C46A97804910B994A008A180178C8
:1056700072270E467E439E4F0D9BF719BE1873701E
:105680006346BB54491C049BC9B2B370017007291F
:10569000EDD30B999448491CC9B201702629D1D386
:1056A0008D490A980870142882D3002008708B4A0C
:1056B00009991170009B994200D310708449089A8F
:1056C0000A708C49087073E71978491CC9B21970BF
:1056D0000229F8D30020187085484078002806D1A8
:1056E00083480178002902D18078002848D07D487D
:1056F000017848000D18605D1921FAF703FD7E4915
:105700002D190870029068781921FAF7FBFC7B4983
:1057100008700790A8781921FAF7F4FC7849087006
:1057200004907148002101706F48032100780590B2
:10573000FAF7E8FC00291CD16C48017005994A0071
:105740008918037872221D465543694A029EAD1896
:105750006A1857785B1CBE1B56706F5C079EBE1B99
:105760006E549678049D751B9570DAB20270072A04
:10577000E7D305985C49401CC0B208702628D3D3F3
:105780005C48007802900F2854D3594800790028CB
:1057900006D15748C178002902D14079002849D064
:1057A00050480178480008180519E8781921FAF7D7
:1057B000A9FC51490870049028791921FAF7A2FC34
:1057C0004E490870039068791921FAF79BFC4C49FF
:1057D0000870079044480021017043480321007875
:1057E0000690FAF78FFC01291DD140480021017075
:1057F00006994A008918037872221D4655433C4A8F
:10580000049EAD186A1857785B1CBE1B56706F5CFF
:10581000039EBE1B6E549678079D751B9570DAB279
:105820000270072AE7D306992F48491CC9B20170B4
:105830002629D2D302981E2871D32D48C07900287A
:1058400006D12B488179002902D1007A00286FD037
:1058500024480078410040180619B0791921FAF758
:1058600051FC254905460870F0791921FAF74AFCE0
:10587000224904460870307A1921FAF743FC20497E
:105880000870039018480021017017480321007820
:105890000490FAF737FC02293AD114490020087025
:1058A0000498420080180B7872221E465643104A14
:1058B000B618321857787F1B5770375C3F1B375428
:1058C0009778039EBE1B1DE07C000020790000201D
:1058D000820000206E0000207F0000207700002062
:1058E00011010020730100206600002078000020D4
:1058F0001F0300207E00002074000020750000209F
:105900007600002096705B1CDAB20A70072ACAD3B0
:1059100004990F48491CC9B201702629B5D30298D1
:105920001F2800D344E60B480178491C3FE6FFE7F7
:10593000094A0020094910700B78DB1CDBB20B70A0
:10594000092B01D30421117002490870EBE7000014
:10595000660000207E0000208200002073010020ED
:10596000F0B5FE48FE4C0178FE4E8BB0012929D0DF
:1059700030460678FC48002E00788446FB480078C4
:105980000590FB4800780490FA480378FA480178BB
:10599000FA4802783ED0F34F20463F7800787F1CCB
:1059A000FFB20897F64F451C3F78EDB20397012EE2
:1059B0007ED0022E7DD0032E7CD0EA4904200870D0
:1059C0000BB0F0BD002505702A4629462846FAF797
:1059D00039FCEB4819210570EA4805703570EA4832
:1059E00025700570E048E94C0570E0480570E04816
:1059F00005702078FAF786FBDE4908706078192177
:105A0000FAF780FBDC490870A0781921FAF77AFBD5
:105A1000DA49D4E76046D44EC018C0B23070059E53
:105A2000D24B7118C9B21970049ED14BB218D2B2C0
:105A3000D04D1A70FAF706FC2078401CC0B22070D6
:105A40001928BDD3C748D14E0178491C0170CC48F4
:105A5000007841004718F05D1921FAF753FB2870D0
:105A6000BD1968781921FAF74DFBC3490870A87869
:105A70001921FAF747FBC149002508702570C44C6D
:105A8000C44EC54F2570C548217845543088113023
:105A900080B23080FAF769FBFAF75EFBC0B20A21E8
:105AA000FAF730FB20783954401CC0B2207002E075
:105AB00004E098E023E13228E5D381E726284AD2A2
:105AC000B34800240470B248B44C0078245C012C24
:105AD0003AD0B34DB04E2C5C641CE4B22C54365C0E
