:020000040000FA
:10000000F8030020F1000000F5000000D50000001A
:1000100000000000000000000000000000000000E0
:10002000000000000000000000000000F9000000D7
:100030000000000000000000FB000000FD000000C8
:10004000FF000000FF000000FF000000FF000000B4
:10005000FF000000FF000000FF000000FF000000A4
:10006000FF000000FF000000FF000000FF00000094
:10007000656C0000FF000000FF000000FF000000B2
:10008000FF000000FF000000FF000000FF00000074
:10009000FF000000FF000000FF000000FF00000064
:1000A000FF000000FF000000FF000000FF00000054
:1000B000FF000000FF000000FF000000FF00000044
:1000C0000348854600F08AF800480047A172000006
:1000D000F803002004207146084202D0EFF30980A3
:1000E00001E0EFF308807146004A10474924000000
:1000F00003480047FEE7FEE7FEE7FEE7FEE7FEE710
:10010000C100000030B50B4601460020202201242A
:1001100009E00D46D5409D4205D31D469540491B3B
:100120002546954040191546521E002DF1DC30BD84
:1001300070B500242546002801DA01244042002938
:1001400001DA01254942FFF7DDFFAC4200D0404211
:10015000002C00D0494270BD0549064A086850434A
:10016000054A8018086040087047014908607047D8
:10017000900000206D4EC64139300000F0B51FB42C
:100180000646002082B005464024019100901BE005
:10019000019922460F46304600F042F8049A059B2A
:1001A000801A994110D310461946224600F028F8CB
:1001B000361A8F410197224601200021009F00F04E
:1001C0001FF838184D4100902046641E0028DFDCDF
:1001D000019B00982946324607B0F0BD064C012528
:1001E000064E05E0E36807CC2B430C3C98471034DF
:1001F000B442F7D3FFF768FFA0740000C07400009A
:1002000010B5202A04DB0146203A9140002010BDA1
:10021000914020239C1A0346E3401943904010BDAF
:1002200010B5202A04DB0846203AD040002110BD3A
:100230000B46D340D0402024A21A914008431946CF
:1002400010BD000070B5094D0023074C2D7807E064
:100250005E009E19A055361971705B1CB270DBB23E
:10026000AB42F5D370BD00006801002057000020AC
:10027000F7B51D4A8E468446D1781C4D00241C4E8D
:100280001C4B1D4F1D48012905D0297808290ED285
:10029000491C2970FEBDD4701C703C700022047093
:1002A00011461046FFF7CEFF2C703470FEBD2C7047
:1002B0003578E90711D01C703C7004706D1CE9B2F0
:1002C0003170052903D9517811700121D17002785C
:1002D00039781878FFF7B6FFFEBD61461970714690
:1002E000397002990170E9E73200002043000020D4
:1002F000080100203A0000203B0000203C000020C4
:1003000000B50548C178012905D10021C1700A4610
:100310000846FFF797FF00BD32000020F8B52948D6
:100320004378002B2CD005250146274E2D07274F5B
:10033000CA780024012B07D00121022B21D0032BE6
:100340001ED1012A29D032E0012A08D11D480022FD
:10035000C47004700C211E4802F05EF8B4611948A4
:100360000178491CC9B20170142909D9047044707C
:10037000686B38406863686B0321890208436863CF
:10038000F8BDC4700470B1614470686B3840686334
:10039000686B6863B462F462F8BDC4700470B161E4
:1003A0006A6B3A406A636A6B6A63B462F4620278A9
:1003B000521CD2B20270052AEED904704170C1708D
:1003C000F8BD00000100002000420050F3F3FFF3ED
:1003D0004040005070B52848066B284903248A1C09
:1003E00001250B1F0020012E17D0087048701178CE
:1003F000491CC9B21170322909D310705178491CB7
:10040000C9B251700A2902D350705C70DD701B496B
:100410009A78091D012A11D014E0107050700A78E2
:10042000521CD2B20A70322AF1D308704A78521C98
:10043000D2B24A700A2AEAD34870E6E79870087088
:10044000487088700A78521CD2B20A70322A10D3CF
:1004500008704A78521CD2B24A703C2A09D34870BC
:100460008A78521CD2B28A703C2A02D388705C709F
:10047000DD70FFF753FF70BD004200500500002003
:10048000F8B5B1480024C278B04D012A7ED10026CB
:10049000C670AF480670AF48067042E0AE480178BB
:1004A0002046FFF72FFEC8B2AA490870410047183E
:1004B000AA481921C05DFFF725FEA9490870A74881
:1004C00019213F187878FFF71DFEA6490870B87803
:1004D0001921FFF717FEA44F3870A4480188113185
:1004E00089B201800846FFF740FEFFF735FEC0B233
:1004F0001921FFF707FE9A480278600023189C48EC
:100500004A43C254974A181812784A4342703A78BC
:100510004A43827097480655974806552E55641CE5
:10052000A4B2964800788442B8D3F8BD8A480178CE
:100530002046FFF7E7FDC8B286490870410047181A
:1005400086481921C05DFFF7DDFD854E1921307009
:1005500082483F187878FFF7D5FD82490870B8784F
:100560001921FFF7CFFD804F83493870285D00289F
:100570008148005D38D0401C08557C480188113105
:1005800089B201800846FFF7F0FD00E01DE0FFF7AB
:10059000E3FDC0B20521FFF7B5FD7748C91C005D3A
:1005A000814210D27448002101557248005D002834
:1005B0007AD0600022186E48815410184170817002
:1005C0006C4801552955641CA4B26C4F387884429C
:1005D000ACD35F480178491CC9B201701429A4D377
:1005E000002101700E46A9E0401C08555F480188B3
:1005F000113189B201800846FFF7B7FDFFF7ACFD66
:10060000C0B20321FFF77EFD5B48491C005D8142BB
:10061000D9D25949002008555648005D002827D0F6
:100620006000534920180A5C317819234B439446E3
:100630009A420FD34E4A1926821800925378494A9B
:1006400012787243934205D3009A93783A787243B2
:1006500093422ED2464A614411544249801842784E
:1006600009785118417081783A7889188170AAE721
:10067000600021183E48425C002A08D10B189C46B5
:100680005B78002B03D163469B78002B0DD0337829
:10069000D21A42540818334942780978511A4170E5
:1006A00081783A78891AE1E707E03248012101555B
:1006B00089E730490020085585E732781920424300
:1006C00060002B4920180A54264A19231278401832
:1006D0005A434270397859438170E6E723490888C4
:1006E000113080B20880FFF740FDFFF735FD397803
:1006F000FFF71EFD8CB2285D0128EFD001202855A0
:100700001C49002008551C4908551348017820460B
:10071000FFF7F8FCC8B20F490870410042180F48B3
:10072000835C60002118124843540C4B0818D218FF
:10073000537843709178761C8170B6B21048008867
:10074000001D8642CAD3F8BD3200002050010020AF
:10075000430000204100002036000020C00000209F
:100760003E0000203F00002040000020300000201C
:100770006801002008010020F00000205700002040
:10078000500000200248016AC20111430162704713
:1007900000020050F3B58BB00C46FFF7F3FF0B9847
:1007A00000287448016813D004221143016010200E
:1007B00000F0F0F90120C00409906F480090042077
:1007C00008906E486E49201888420ED800251DE01A
:1007D00089088900491C0160012000F0DBF9002034
:1007E0000990684800900220EAE7674866492018A7
:1007F0004942884202D80125640007E06348634902
:100800002018494288427DD20325A4000026F643E1
:10081000089F22E039460098FFF774FC5C49844643
:1008200041185C48814217D2554B02225B1C534849
:1008300061465143401C0818984209D8A14201D989
:10084000081B00E0601AB04202D2060004920CD0ED
:100850005148521C8242EAD97F1C212FDAD900204C
:100860000696C0430190089E54E00999A8030843E6
:1008700001217A028902511A08430499891E08430A
:100880003C490862042000F085F9691C794300980E
:10089000FFF738FC049948430DB0F0BD314600988D
:1008A000FFF730FC3A4942183A498A4231D20221D4
:1008B000324B02464A435B1CD7185B429F4224D806
:1008C000A24201D9121B00E0A21A019B9A421CD23B
:1008D0000192069B0F469A4217D10999A803084333
:1008E000012172028902511A0843B91E08432149A5
:1008F0000862042000F04EF9691C71430098FFF76C
:1009000001FC00E008E07843C6E7234A491C914215
:10091000CED9761C212EC1D90B9800280FD01F49A3
:1009200014480162042000F035F91DA0006803900E
:100930001048016A0013014203D00020ACE71949B6
:10094000EEE7080301D50C4800E00E488A03A3D463
:100950000A04920F03AB9B5CCA058904D20DC90E31
:10096000891C8008921C59435043FFF7CBFB800041
:1009700092E700000002005000805101FF1E0AFAB9
:10098000FFE0F505001BB700800F05FDC08782FE64
:10099000FF95E7FFBF77CC00010200001844080074
:1009A0000102020416400000044982070A6801D0CF
:1009B0009208920002430A60704700000002005053
:1009C00008B511A0006800901048016A00130142A8
:1009D00001D0002008BD080301D50D4800E00D48F6
:1009E0008A03F7D40A04920F6B469B5CCA058904FC
:1009F000D20DC90E891C8008921C59435043FFF741
:100A000081FB800008BD00000102020400020050CA
:100A100000805101001BB70070B503F0DFF92D48CD
:100A200041682D4A114041604168032529434160D6
:100A30000120FFF7B9FF012000F0ACF800062749BC
:100A4000000E087009D10420FFF7AEFF102000F05F
:100A5000A1F80021072000F08BF8214800F046F8AB
:100A6000204C08262660304600F094F80120A06053
:100A7000606928436061A168E0018143A160A168C9
:100A80000143A16060690321090688436061052074
:100A90000007416B144A11404163416B03229202EB
:100AA00011434163A06804210843A06060690721E5
:100AB000090288436061A0683043A0606069090151
:100AC0008843606106F02AF802490020C0310860BE
:100AD00070BD000040000050FCFCFFFF0000002043
:100AE000006CDC0200020050F3F3FFF3F8B51E4C7B
:100AF0000546E66810201D49064048108D4201D980
:100B00000D4602E0854200D205462068042738439E
:100B10002060102000F03EF8206907210843206182
:100B2000A06900090001A06120688007800F0128EA
:100B30000ED069007804FFF72DFEE6680546102008
:100B400006400121022000F013F8002E06D008E034
:100B500069000020FFF71EFE0546F2E72068B84353
:100B600020606808F8BD00000002005080F0FA0222
:100B700010B5074A93691B091B010B439361116967
:100B8000C908C9000143116105F0C8FF10BD00008C
:100B90000002005010B50749074A05E00B46491E00
:100BA000002B01DC002010BDD4680346A343F5D11F
:100BB000012010BD80F5200000020050F0B5FE4875
:100BC000FE498DB0C37809880B91C9B20A91FC49DE
:100BD000012409780C9101468A79C979002B15D135
:100BE00083785B1CDBB28370962B0FD3F54BC470FC
:100BF0001C705C704C259D704125DD7033251D7186
:100C00000A9D5D710C9D9D71DA711972857C0023BE
:100C1000002D09D0457C6D1CEDB245740F2D03D31A
:100C20004374FF2505718374E74D2E78002E62D042
:100C30000023E1482B7084744374E44B1C70C57826
:100C4000E348002D0378099301D1F02B2ED01F0724
:100C5000DF4B3F0F1D7901955B790393072F06D07A
:100C60000B2F04D0954246D1039B8B4243D1099B65
:100C70000F2B05D01D09D04B1E79B5423BD01D71FD
:100C8000D44D68780890D248C37806932B780793A0
:100C9000467880783B0006F073F9102E0C0C1A2E63
:100CA000303885FF2EFDFCFBFA2EF92EC548047066
:100CB00002E0C4480223037044704C238370412334
:100CC000C370332303710A9B43710C9B71E10A2E9D
:100CD00001D9FF2E0FD11C280DD82E70EC70002EDC
:100CE00009D0FF2E05D0A87000F074FB287868703A
:100CF00032E1089828700DB0F0BD0C28FBD8B64939
:100D00008871B6484C71047038E1B54F330006F075
:100D100037F908060BFB16192B364205EBE7A749F6
:100D200000200880A6490BE00B990029E3D0002899
:100D3000E1D0A3490880FE202870EC70DBE79F49D2
:100D400008800DE00B999D4A0029D4D09C49088069
:100D50000B9B984204D2002010800880FF2000E006
:100D6000FD202870EC70F7E09E49002805D0002097
:100D700008709A480470FC20DEE70C70F9E791488F
:100D800002230370062343708370BB78C370002373
:100D9000037143710DE118214843B8800698484318
:100DA000F880D9E0844BDF7B1B7B012F9C46824B74
:100DB0005B7B08932FD1804F0023FB734640019B40
:100DC0000698834F584046400398864220D17F1CA6
:100DD000002003460397039EF65C3602704000260F
:100DE000C70B03D0804F4000784000E04000761CE5
:100DF000F6B280B2082EF3D35B1CDBB2042BEAD32D
:100E000063461E02089B6C4FF3189BB2834210D0BE
:100E1000FF202870EC706B48022303700823437096
:100E2000042383700023C370037163464371089BDE
:100E3000BFE06046000901F01BFB6C4E3070387B50
:100E40000007000F01F014FB7070787B000901F0BF
:100E50000FFBB070787B0007000F01F009FBF0700A
:100E60005848082104704170032181700021C1702D
:100E700001713B7B43717A7B8271BE79C671FE79C9
:100E80000672BB71FA713973797369E7F7E0CDE0E7
:100E90003BE027E018E0FFE7012E6FD0022E00D0E4
:100EA00029E7454B0225DC731873069C5C73454BA0
:100EB0001D70099E5E709D700025DD701D7158715A
:100EC0009C71DA71197216E7032EE9D8002EE7D06B
:100ED0000828E5D80A362E706E70EC70A870A2E073
:100EE000047008E707980028DAD00E2802D00E20F8
:100EF0002870EC703E48414906703E4804703E48F8
:100F0000047000200880F6E638E0314BDB785F00A3
:100F1000DB193B4F0193DF19330006F031F80A0764
:100F20001F2F313A737373737306E4E6069905292C
:100F3000B6D2002806D03248019944547878002867
:100F400006D009E02E49019A00208854787003E009
:100F500008987870A878B8702048C1E706980528E6
:100F60009ED227480199405C002899D07878687013
:100F70002870B878A87000F02DFAF3E6FB20DBE6C5
:100F8000069805288CD21E490198085C0028F5D1E6
:100F9000B1E6069B052B96D20A48022404700C2465
:100FA000447004248470C3707B780371BB784371F0
:100FB00000238371C27151E00C0000204E0000201C
:100FC00050000020A30000201F000020030000208C
:100FD0002A0000203200002066000020620000206D
:100FE0005A0000205900002021100000210000209C
:100FF0006E0000206F0000207000002078000020AC
:1010000094000020761FF1B24A008A182D498B5CAB
:10101000002B00D18C545218507006999170687052
:101020002870A970084600F0D5F995E70D23002E29
:1010300016D0012EACD124480221017023494370FF
:10104000097881702249C97AC17019210171212161
:101050004171182181715721C171432101724AE602
:1010600019480224047043704C2383704123C370D9
:10107000332303710A9B4371164B9B7999E71449FB
:10108000321F1548097C130005F07AFF0A07070E86
:101090000E0E0707070707062DE6079AB2420CD087
:1010A00029E6EC7014741BE7079AB242D7D10B9A69
:1010B000002AD4D0069A002AD1D1054A0029F0D0BE
:1010C00019E6000094000020A3000020000000208A
:1010D0000C0000206600002056000020F0B5AC484F
:1010E000AD4EC378AB48AE490778AC48AD4A91B035
:1010F000012B5ED0AC4BAD4C1F8823786578A4786B
:101100005B1CA646AA4CDBB29C466D1C2478EBB255
:101110000E9373465B1CDBB20D9333461B78641C45
:101120005B1CDBB20C93E3B2039303461C78631D94
:10113000DBB20B930B461B78DD1FEDB20A9515460B
:101140002D78AE46AD1FEDB2099525460935EDB2B5
:101150000895DD1DEDB2079575462D1FEDB206957C
:10116000651FEDB202951D460835083BEDB2DBB2B6
:101170000595E41F1093E4B2864B75460494ED1C6C
:101180001B78EDB25B1EDBB20193884B6446002FE7
:101190001C703AD0042C0AD300241C70854BDF88C5
:1011A000854B1B889F4271D983485B1C038011B01B
:1011B000F0BD774B0024DC707C4B1C705C709C7025
:1011C0003470052373700323B3707C4B7C4E1C700A
:1011D00002E074556D1C1D701D78BD42F9D304707A
:1011E0000C707348147004707648784D047072481F
:1011F0000480754804802878002804D10022114614
:101200001046FFF71FF82C70D1E7042CCFD3002431
:101210001C700E9F5F701E2F15D35C700D9F9F700A
:10122000002F10D09C700C9B3370052B0BD93470A1
:101230005F4B039F1F70052F05D91C70544F01236E
:10124000FB70604F3B703678330005F099FE060462
:10125000090E141A202414700B9B03700A9B0EE0D5
:101260000C70099B1370089B0EE00470079B0B70B9
:10127000069B13700FE01470029B0370059B0B70AC
:1012800009E00C701570049B037004E01DE004700D
:10129000109B0B701570494B019C10E06300E51822
:1012A0004B4BEF183B46203B9E7F7E70BC46484E22
:1012B0005F7F7755DB7F6746BB70404B641E1C70B9
:1012C0003E4B1C78002CE9D15AE0384B0E9F5F70E2
:1012D0001E2F15D35C700D9F9F70002F10D09C7037
:1012E0000C9B3370052B0BD93470314B039F1F704F
:1012F000052F05D91C70264F0123FB70314F3B7021
:101300003678330005F03CFE0604090E141A1F233C
:1013100014700B9B03700A9B0EE00C70099B1370FA
:10132000089B0EE00470079B0B70069B13700EE089
:101330001470029B0370059B0B7008E00C70157015
:10134000049B037003E00470109B0B7015701B4B23
:10135000019C10E06300E5181D4BEF183B46203B55
:101360009E7F7E70BC461A4E5F7F7755DB7F674657
:10137000BB70124B641E1C70104B1C78002CE9D102
:1013800003781348037009784170117881700EE773
:101390003200002057000020080100203A00002001
:1013A0003B0000203C0000204E000020F000002008
:1013B000470000205A000020520000203800002082
:1013C00020010020110000205400002056000020C1
:1013D00068010020F8B50146FB4800240078FA2691
:1013E000FA4D27460A286FD9F94A0C2010700B00D5
:1013F00005F0C6FD07154E88AEE2F7051400F54965
:10140000600020180A5C2A5442184019537843702F
:10141000641C9278E4B28270102CF1D3F8BD0521DF
:101420002046FEF76FFE002908D001290CD00229C2
:1014300010D0032917D004291DD024E06000201803
:101440002F544019467014E0600020182E544019A3
:1014500047700EE0600020182E54AF2140194170F3
:10146000C82181700FE0600020182F549621401988
:101470004170877007E06000C82120182954962128
:10148000401941708670641CE4B2102CC7D3F8BDBB
:1014900007212046FEF736FE00290CD0012914D082
:1014A000022919D0032924D004290ED0052913D0EC
:1014B00006290AD018E0600020182E54192142197C
:1014C00051704B2090700FE0DEE0600020182E5429
:1014D00040194770322106E0600020182E5419216F
:1014E000401941704B218170641CE4B2102CCFD3A1
:1014F000F8BD6000962120182954C8214019417078
:101500008770F1E7A00709D0A007800F01280CD051
:10151000022810D0E043800707D014E060002018B4
:101520002E544019477087700DE0600020182F542A
:101530004019477006E06000C82120182954962100
:10154000401941708670641CE4B2102CDAD3F8BDE7
:1015500005212046FEF7D6FD002908D001290ED02E
:10156000022911D0032917D0042920D01AE06000E5
:1015700020182F54401946703221817012E060000B
:1015800020182E54192104E06000962120182954B7
:10159000C8214019417004E0600020182E54401901
:1015A00047708770641CE4B2102CD1D3F8BD600082
:1015B00020182E546421ECE7A00713D0A007800F59
:1015C000012815D002281BD060009621201829542C
:1015D000C821401941708770641CE4B2102CEBD311
:1015E000F8BD12E0600020182F5440194670F2E751
:1015F000600020182F544019467032218170EBE7AB
:10160000600020182F549621E3E709212046FEF7B9
:1016100079FD002910D0012913D002292FD00329E8
:1016200018D0042918D0052922D0062914D007295A
:1016300025D008290ED016E0600020182E5419215C
:1016400005E06100642061186854481909E04019F8
:10165000417012E0322100E064216000201829541A
:10166000401947708670641CE4B2102CCDD3B7E7E4
:10167000600020182F54401946708770F3E760000F
:1016800020182F549621E2E710290BD248000918A0
:101690005048425C2A700818417869708078A870B8
:1016A000012178E01039042003220B0005F068FCCA
:1016B0000D09172334404C7F94AAB7F4F2F10800C7
:1016C0008EE72F706E703220A8709620E870C820C8
:1016D00028716F71AE711920E8714B2032E02F70C4
:1016E0006E70AF70EE702F716F719621A971C82165
:1016F000E9712F72E7E019212E706970AF70EE70FA
:1017000064222A716F71AE71E9712F726E72AF72BD
:10171000EE722F49087063E7C82028709620687021
:10172000AE70EF702E716E7149E02948027057E774
:101730002E706F70AF70EF702E716F71AE71AF2041
:10174000E871C8202872F0E707212046FEF7DAFC8E
:1017500000290CD0012912D0022908D003291DD05C
:1017600004290CD0052902D0062908D00EE060001B
:1017700020182E541921401941704B2105E06000BA
:1017800020182E544019477032218170641CE4B235
:10179000102CD9D307210E48017021E76000962153
:1017A00020182954C821401941708770EEE72E7027
:1017B0006F70AF70EE70AF202871C8206871AF7184
:1017C000EF712E72B1E7000032000020C00000204F
:1017D00036000020C87300002F706E703220A87091
:1017E000EE70192028716F71AE71EF712F72962013
:1017F0006872C820A872EF7264202E736873AF738A
:101800000521C8E72F706E70AF70EF702E71322017
:1018100068719620A871C820E8712F7285E70921A8
:101820002046FEF76FFC002910D0012913D00229B1
:101830002AD0032914D004290DD005291DD006294A
:1018400009D0072920D008290AD010E0600020180C
:101850002E54192101E0642103E04019417011E088
:101860003221600020182954401947708670641C8A
:10187000E4B2102CD3D309218DE7600020182F5437
:10188000401946708770F2E7600020182F549621A7
:10189000E3E71DE00EE0FFE72E706F70AF70EE70B3
:1018A000192129716F71AE716421E9712F726E7205
:1018B000AF210AE02F706F70AE70EF702E716F71F4
:1018C000AF71EE712E726E721921A972EF7220E75C
:1018D000084861006118425C6A540A184919537833
:1018E0004B70641C9278E4B28A700C2CF1D30C20FB
:1018F0000FE70000C8730000F0B52D482D4A847929
:101900000123002C05D04679851E0021012E0BD025
:1019100016E028482038016A890104D5016A84024A
:10192000A14301629360F0BD417141708170C1704B
:101930000171298016680127BF073E431660936036
:101940009668F607F60FEED093602A881A4E521C5E
:1019500092B22A80B24201D32980F0BD8278521C13
:10196000D2B282703C2A0ED38170C278521CD2B29D
:10197000C2703C2A07D3C1700279521CD2B20271E4
:10198000182A00D301714278002AE6D18278002A11
:10199000E3D1C278002AE0D10279002A05D0A24220
:1019A000DBD102220270C171F0BD0370C371F0BDC2
:1019B00066000020200001403822000030B5154AA2
:1019C000154800211368435493695B0403D4491CF0
:1019D000C9B21429F6D30125022402290F4B01783C
:1019E00002D0FD290CD00EE0FD2905D14178F02967
:1019F00002D18078FE2801D05C7030BD5D7030BDB2
:101A0000C079FE2804D05C7090682043906030BD9F
:101A10005D70F9E700000540AC0000201F000020C9
:101A200030B5124A00205478002C1DD00021104BF4
:101A3000012C07D0022C17D11954401CC0B2142815
:101A4000FAD310E001241470084C0B341D186D7883
:101A50002554401CC0B20628F8D300201954401C5D
:101A6000C0B21428FAD3517030BD00001F0000200E
:101A7000AC00002030B5284B00201C78002C16D07C
:101A80002649012C14D00022254D032C25D0042CEE
:101A900031D0022C0BD1FD240C601C1864780C6032
:101AA000401CC0B20828F8D3FE2008601A7030BD70
:101AB000FC220A604C220A6041220A6033220A603A
:101AC000174C241F225C0A60401CC0B20428F9D3C2
:101AD000FE2008600220187030BD1A70FA230B60D7
:101AE0000A600A600E220A602A5C0A60401CC0B2CA
:101AF0000528F9D30CE01A70FA230B600A600A601B
:101B00000F220A602A5C0A60401CC0B20528F9D383
:101B1000FE20086030BD0000A3000020000005404A
:101B20002500002010B50D490B78002B0ED00022A7
:101B300001240B48012B02D0022B04D006E00A70CE
:101B40004178017001E00A700270C47001F0B8FCC5
:101B500004F0B4FFFFF732F810BD0000660000206B
:101B600032000020F0B52A4B2A4DD87800240128F5
:101B700005D02878032819D2401C2870F0BD2648CB
:101B8000DC700470254E264F002234703C701146E4
:101B90001046FEF757FB23482C7004701E48FF21A7
:101BA0000170347020483C700480F0BD0020287023
:101BB0001E481F490578681E08701E480DE0610028
:101BC00066183218114620394F7F87558E7F567020
:101BD000C97F91701649641E0C7015490C78002C51
:101BE000EDD10D49097801700C49097841700C4913
:101BF000097881700C480188491C89B20180A9428A
:101C0000D3D900210180587818700120D870F0BD18
:101C100032000020430000203A0000203B0000205A
:101C20003C00002008010020540000205700002044
:101C300038000020680100200A492222CA6048605A
:101C4000012008610869C007FCD10868400606D574
:101C500008684022104308600020C04370470020FD
:101C60007047000000C00050024801680122114383
:101C70000160704700C0005005490022CA604860FA
:101C8000012008610869C007FCD18868704700001E
:101C900000C00050054A2123D360506091600120AC
:101CA00010611069C007FCD17047000000C00050EF
:101CB000F8B50124240502F09FF8FFF7D5FF2E495F
:101CC00008682022104308602046FFF7D5FF2B4C00
:101CD00060702B48FFF7D0FFA0702948001DFFF768
:101CE000CBFF2849887126480830FFF7C5FF2649F1
:101CF000087023480C30FFF7BFFF2449C0B20880AA
:101D00001F481030FFF7B8FF2149C0B208801C48B7
:101D10001430FFF7B1FF1F49087019481830FFF75A
:101D2000ABFF1D49087016481C30FFF7A5FF1B4983
:101D30000870134820300446FFF79EFF1849194EDB
:101D400008700025241D2046FFF796FF69006F18D4
:101D5000F055241D2046FFF78FFFBF197870241D12
:101D60002046FFF789FF6D1CEDB2B870052DE9D351
:101D70000D4900200860F8BD00C00050320000206E
:101D80000400100066000020590000204E000020D2
:101D9000500000201400002012000020130000203A
:101DA000160000209400002000010050F8B53448CF
:101DB000012401782405012961D10021017002F07C
:101DC0001BF8FFF751FF2F480168202211430160E3
:101DD0002046FFF731FF2C4D20466978FFF75AFF68
:101DE000201DA978FFF756FF294928488979FFF770
:101DF00051FF26482749001D0978FFF74BFF23486C
:101E0000254908300988FFF745FF204823490C3051
:101E10000988FFF73FFF1D48214910300978FFF777
:101E200039FF1A481F4914300978FFF733FF174864
:101E30001D4918300978FFF72DFF14481B491C3045
:101E400004460978FFF726FF194E002568002F1871
:101E5000241DF15D2046FFF71DFFBF19241D797871
:101E60002046FFF717FF241DB9782046FFF712FF21
:101E70006D1CEDB2052DE9D30E4900200860F8BDB8
:101E80006200002000C00050320000200800100056
:101E900066000020590000204E0000205000002065
:101EA0001500002012000020130000201600002062
:101EB0009400002000010050F0B5FE48FF4FC178AB
:101EC000FD48FF4C00888BB0012909D0002870D054
:101ED000FC48017808296BD2491C01700BB0F0BD99
:101EE0000025F4490028CD7004D0F7480078002878
:101EF0002AD02EE0002211461046FEF7A3F9F34C3B
:101F0000257016E0F24E3088411C3180FEF72DF925
:101F1000308811303080FEF71FF9C0B21E21FEF765
:101F2000F1F8EC4A20781154EB493D540D54401C13
:101F30002070EA48217800788142E3D3E1483221D9
:101F40000170E74805702FE0002211461046FEF7A9
:101F500079F9DC483D700570E24819210580E248B6
:101F60000580E2480570E2480570E248257005707A
:101F7000E148E34C0570E14805702078FEF7C2F8AF
:101F800081004018DF49087060781921FEF7BAF81F
:101F900081004118DC480170A0781921FEF7B2F8E1
:101FA00081004018D9490870C748057096E700E0DD
:101FB000DFE0C64800210170C84ED3E0D449204676
:101FC0000978FEF79FF8CD48017048000D18CC48FD
:101FD0001921405D0090FEF795F8CA4908700490F9
:101FE000C74819212D1868780390FEF78BF8C64969
:101FF00008700690A87819210290FEF783F805462C
:10200000C2480570385D002815D0012851D002283B
:10201000B1485AD0015DAF4A491CC9B20155125DA1
:10202000914245D9002101556000BA492018095C48
:10203000002971D167E0A848A64A015D491CC9B2D0
:102040000155125D914233D90021015505210098B7
:10205000FEF758F8014660002018AE4A0790105C61
:102060000090814213D805210398FEF74BF80246F1
:10207000A8480799081803904078824207D805219C
:102080000298FEF73FF80399897888420ED9049A9E
:102090000099A0488918079A81540799081842782E
:1020A0000699511841708178491940E0012038554E
:1020B00054E0600097492018009A0A544018039A87
:1020C0004270029981700220F1E7015D7D4A491C4E
:1020D000C9B2015512787D4D91423FD90021015579
:1020E000032038557A4C2088FEF73FF820881130BD
:1020F0002080FEF731F8C0B20A21FEF703F87548D8
:102100002A7881542AE0834A83185A78002A03D116
:102110009B786E4A002B0CD0049B7E4AC91A11543E
:10212000801842780699511A41708178491B817054
:1021300014E000203855664C15462088FEF715F847
:10214000208811302080FEF707F8C0B21E21FDF76D
:10215000D9FF604A28781154002139545B4801782E
:10216000491C01705948317804788C4200D225E727
:10217000B4E60021017068488188C68857484D0838
:10218000007809903218574808920188481C80B29C
:10219000954201D3AB1A02E0AE4205D3731B514AFC
:1021A0008B4201DD108099E6444852490778554832
:1021B000524B0078002F84465348007806905348CD
:1021C000007805900A783E484B49007809781B78DA
:1021D00002D0012F63D11BE05F00DB19484FFF5C89
:1021E000874207D8464FDF197B78934202D8BB78E5
:1021F0008B420AD960442070069B3E48D218027078
:10220000059A3D488918017049E02C49012045E0B4
:10221000074617430F430BD06346C01A2070069B36
:102220003448D21A02700598334A081A107036E002
:102230002248002202705B1C3048D9B2344B017036
:102240001B7899420DD3294902700B785B1CDBB2D5
:102250000B70052B05D90A70164A0121D170244A4A
:10226000117000784100471825481921C05DFDF71D
:1022700049FF8100411823480170214819213F1866
:102280007878FDF73FFF810040181F490870B87843
:102290001921FDF737FF810040181C4908700F49CC
:1022A00008980F787F1E854254D308490020087093
:1022B00018483EE0320000204E00002008010020B7
:1022C0003A00002043000020560000203800002083
:1022D0003000002020010020F000002057000020E6
:1022E0003900002052000020540000204700002048
:1022F000110000203B0000203C0000204100002095
:10230000C00000203E0000203F00002040000020D0
:1023100036000020680100205A0000205300D51824
:102320002B18DE7846551D795D705D799D70521CC5
:102330000A700A78BA42F1DB099922784B00C91871
:10234000081820382F494277097881772E49097873
:10235000C177C3E52D480078401EC2B2AE4215D306
:102360002B4B2C481A700CE069006E18321811467D
:1023700020394F7F87558E7F5670C97F91706D1EB3
:102380001D701D78002DEFD1217833E02049002009
:1023900008701E480078401EC30F181845100CE046
:1023A00048001C4B0E18F018C7789F5503794370EE
:1023B000437983701648491C0170154801788D4295
:1023C000EEDC0270134A0DE058001E18B1180846E2
:1023D0002038477F9755867F4E70C07F88700C48A5
:1023E0005B1E03700A4803789D42EDDB680021788C
:1023F000281880180170034909784170024909784A
:1024000081706BE53B0000203C000020570000205D
:102410003800002068010020F0B500230125944613
:1024200003272A469A400A4209D006685C003A46C9
:10243000A2409643224664469440264306605B1CB5
:10244000082BEED3F0BD0000044603A004F088FD85
:10245000204604F065FFFEE7496E20486172642063
:102460004661756C742048616E646C65720A000088
:102470000F2801D90007000F0A2801D2303000E0F0
:102480003730C0B270470000F0B53A4BFF24D8781F
:102490000025012806D03848017803291BD2491CA1
:1024A0000170F0BD354EDD70354F357035483D70EB
:1024B0000022057011461046FDF7C4FE2E48057037
:1024C00031480570314805803148058034702D4809
:1024D0003D700570F0BD002101702E48C2882B4868
:1024E00001888A4202D9491C0180F0BD2A482B4943
:1024F0000078401E08702A480DE069006E183218F6
:10250000114620394F7F87558E7F5670C97F917055
:1025100022496D1E0D7021490D78002DEDD1174A0D
:10252000174D117801702978164E417031788170FD
:102530001749184F0888401C80B20880BF8887421E
:10254000D3D20020088010490F78002F06D0012F29
:1025500009D0587818700120D870F0BD10702C7018
:102560003070012003E01070287034700220087071
:10257000F0BD000032000020430000203A0000209F
:102580003B0000203C0000200801002052000020F9
:10259000540000205A00002057000020380000207E
:1025A00068010020F8B595489649C2789448964D40
:1025B00000780026954C964F012A60D00A78521C6C
:1025C000D2B20A70052A59D30E7092490B789249FB
:1025D0000A78511CC9B2012B7ED082427DD28F492C
:1025E0000888113080B20880FDF7BFFDFDF7B4FD0B
:1025F0008349C0B20978FDF785FD89480170785C90
:102600000128ECD0864801210078395485494300DF
:102610000978C0184A008918834A525C2A54824AB1
:10262000401989184A784270897881707A4801780F
:10263000491C01707848017832291FD30670794807
:10264000744A0178491CC9B20170127891420DD3C5
:10265000067076480178491CC9B20170052905D970
:10266000067066490120C87071490870267020788C
:102670003E54401CC0B220701828F8D3F8BD5F4A01
:10268000D6706C4A16700E706B490E7065490E70EC
:102690006A490E7060490E70267002E07E54491C33
:1026A000217021788142F9D365490A78002A1BD02C
:1026B0000E705D4C19212078FDF724FD61490870EA
:1026C00060781921FDF71EFD5F490870A078192177
:1026D000FDF718FD5D4901E014E08CE008705448F6
:1026E000067052480670F8BD267007E04A008A1846
:1026F000AE54521956709670491C2170217881424F
:10270000F4D3D6E74B4B1B78002B03D02878002856
:1027100047D140E082423CD240490888113080B223
:102720000880FDF722FDFDF717FD3549C0B2097895
:10273000FDF7E8FC3A480170785C0128ECD0384895
:10274000012100783954374943000978C0184A00FC
:102750008918354A525C2A54334A401989184A78F4
:102760004270897881702C480178491C01702A4890
:1027700001783229B7D306702E480178491C0170C0
:10278000267020783E54401CC0B220703228F8D306
:10279000F8BD2148EAE76878002802D1A878002827
:1027A00019D02670274A2849284813780F780278CC
:1027B0002078410041186E5C401CF61A6E5449198D
:1027C0004E78C0B2F61B4E708E78B61A8E7020709E
:1027D0001828EDD3F8BD1748067014480178491C35
:1027E000C9B201700A29F5D9067011490120087093
:1027F0000249C870F8BD08481BE7000032000020FD
:10280000570000204300002068010020370000200E
:102810005001002036000020480000203000002039
:102820003800002041000020C000002047000020A8
:1028300011000020080100203900002020010020A4
:10284000560000203E0000203F00002040000020F5
:1028500010B53448018811310180811C08780A289C
:102860003ED008DC030004F08BFB0A1D2023262940
:102870002C2F3235381AFB2841D008DC0B2832D0F7
:102880000C2833D00D2834D00E2808D134E0FC2891
:1028900042D0FD2836D0FE2841D0FF2836D00A206D
:1028A000087010BDFDF72CFD10BD04F0D1F810BD6F
:1028B000FDF7E6FD10BD03F0E5FF10BDFFF772FE6A
:1028C00010BD01F0A7FA10BD01F09AF810BD00F09C
:1028D000A5FF10BDFFF7F0FA10BD00F013FE10BD0C
:1028E000FEF7FCFB10BD01F09FFB10BD02F06AF883
:1028F00010BD02F0C9FF10BD00F004FB10BDFA22AC
:10290000002101E00022FA21002002E0002211460D
:10291000FA20FDF7ADFC10BDFFF724F910BDFFF75D
:10292000B3FD10BD30000020F8B5002404F002FA19
:102930003A4800214170384E552339480127076134
:10294000DA091BD00022521CD2B21E2AFBD301612D
:102950000022521CD2B2642AFBD35A06641C130E06
:10296000E4B2082CEBD3AA240023076122060AD480
:102970000022521CD2B20F2AFBD309E0521CD2B261
:102980000F2AFBD3E3E70022521CD2B21E2AFBD34C
:1029900001610022521CD2B2642AFBD362065B1C86
:1029A000140EDBB2042BE0D3002335780022761C12
:1029B00007612C0605D40024641CE4B20F2CFBD361
:1029C00004E00024641CE4B21E2CFBD3016100244B
:1029D000641CE4B2642CFBD36C06521C250ED2B2EC
:1029E000082AE5D30D4A5478641CE4B25470032CD1
:1029F0000DD1054607610024641CE4B20F2CFBD303
:102A000029610024641CE4B2642CFBD351705B1C6C
:102A10009BB2482BC9D3F8BDB0010020570000205D
:102A20004042005010B5FDF7F7FF01F0D7F9032140
:102A30002548090201600168022211430160012159
:102A40004160016880221143016020480024046035
:102A5000032210211E48FFF7DFFC1D480122402100
:102A60004038FFF7D9FC1A48012210214030FFF707
:102A7000D3FC18480461174840388461164C14216F
:102A8000204604F033F960681021084360600802B2
:102A9000124908604B21C901204604F0E7F8104CA8
:102AA00001213222C906204604F0B4F82168A003AF
:102AB000014321600B4921620B49616208492031C1
:102AC0000A6802430A6010BD004000400001005047
:102AD00040400050404200500000054000E100E04E
:102AE00000000140FF0000081BB70000F8B5364D9C
:102AF0000024E879012824D1EC710321287AFDF71C
:102B000001FB68720D2801D90D2068722F48314FE2
:102B100004702F480470687A41004618B85D192186
:102B2000FDF7F0FA2C49F619087070781921FDF7B5
:102B3000E9FA2A490870B0781921FDF7E3FA284923
:102B400008702A7927482849012A12D0047002788F
:102B50005300D318CC545B18521C5C70D2B29C70DA
:102B60000270182AF3D3EC7000202C70C043A871B7
:102B7000F8BD174A13785B1C1B061B0E1370F7D0A9
:102B8000124B14701A78192A1BD2521C1A70047036
:102B9000114D124C124B2D7824781B785543544319
:102BA0005A43EDB2E6B2D3B20278540014190D556F
:102BB0006418521C6670D2B2A3700270182AF3D344
:102BC000F8BD2C71F8BD00006E0000204C00002004
:102BD000F0000020797400003E0000203F0000203B
:102BE000400000203800002068010020F8B53B4973
:102BF0003B4BCC793B4A0020012C0ED1C8711070A0
:102C000018700C7A4C72384C2070384CE5786D1C7A
:102C1000EDB2E5700C2D00D3E0700C79012C05D0DD
:102C2000C87008700020C0438871F8BD1C78641C0F
:102C3000E4B21C70042CF8D3187015782C4C2D4E6F
:102C40000C2D3CD22C49062D1DD20D702070C0B227
:102C500006210746FDF756FAA9420ED12348274B15
:102C6000C078410041185A5C780038183254C918AD
:102C70004A7880194270897881707F1CF8B2207080
:102C80001828E4D317E0AA1FD7B20F702070C0B283
:102C900006210646FDF736FAB94207D171007218CF
:102CA000144900208854511848708870761CF0B27E
:102CB00020701828EBD30B486D1C0570F8BD2070F0
:102CC00022785300D318F0549B19521C5870D2B27A
:102CD00098702270182AF3D30871F8BD6E00002096
:102CE000F00000204C0000200801002038010020E6
:102CF00038000020680100204200002079740000A4
:102D0000F0B5434E434BF079434D444A002401282B
:102D100005D1F471307A70722C705C701470377950
:102D20003F494048012F0FD01F787F1CFFB21F7012
:102D3000022F25D31C702F783B0004F021F90825C1
:102D4000282D3135393D41442B462A78757AAA42DF
:102D500017D20470344D54001619AC5D761975788D
:102D6000B77803785E009E198C5576185B1C7570D9
:102D7000DBB2B7700370182BF3D32748521C0270D4
:102D8000F0BD34711C70F0BD0123137002E0072305
:102D9000137002232B7028E0042313700323F9E738
:102DA000062313700423F5E7022313700523F1E7CC
:102DB000032313700623EDE7052313700723E9E7C8
:102DC00014700823E6E7047003785D005D194C5524
:102DD0006D185B1C6C70DBB2AC700370182BF3D3F6
:102DE00034700023F470DB43B371047013780278FD
:102DF00055076D0F9D4205D1550055194C556D185D
:102E00006C70AC70521CD2B20270182AEFD3F0BDB5
:102E10006E000020F00000204C000020080100207F
:102E20006801002038000020FE730000F0B52D4B33
:102E30002D4FD8792D4D2E4E0022012818D1DA7150
:102E40003A702A70187A58722A488178491CC9B297
:102E500081700C2900D3827081783478A14205D129
:102E6000491CC9B281700C2900D3827080783070FF
:102E70001C7921482149012C14D002700478650086
:102E800065194A556D18641C6A70E4B2AA70047022
:102E9000182CF3D3FF203070DA7000201A70C04372
:102EA0009871F0BD2C78641CE4B22C700F2C02D306
:102EB0002A701A713A7002703378114A5C001B193B
:102EC000D55C9A18567893780278540014190D55E9
:102ED0006418521C6670D2B2A3700270182AF3D321
:102EE000F0BD00006E0000204C000020F00000202B
:102EF0004100002038010020380000206801002037
:102F000079740000F8B53E4C6078002865D060897F
:102F10000025401C81B23B4801266181FA2904D377
:102F200065700A210170C67002E0C178012923D1C1
:102F3000C57035483549057002785300D318CD5413
:102F40005B18521C5D70D2B29D700270182AF3D3C8
:102F50002F4B304F0570304A017855545D542F4A3D
:102F60007D545554491CC9B201701829F3D32C491A
:102F7000FF2008702B480570A07801281ED1A5708D
:102F8000207805210746FDF7BDF840B260710621A3
:102F90006156814204DDE278002A0FD1002F0DD95D
:102FA000032801D0052804D1884202D121790129C2
:102FB0000FD0E6712671A071E77027720521207A83
:102FC000FDF7A0F8030003F0DBFF0606090C0F1263
:102FD0001518E571EEE7FFF789FDF8BD00F024F85C
:102FE000F8BDFFF723FFF8BDFFF700FEF8BD00F0C6
:102FF000A1F8F8BDFFF784FEF8BD00F0C5F9F8BDF3
:103000006E000020320000203800002068010020FF
:103010000801002050010020F000002038010020AD
:103020004100002020010020F0B53A4C3A4DE279F1
:103030003A4900203A4B012A17D1E07108700C225E
:103040001A70384A5678761CF6B256700C2E00D399
:10305000507056782F78BE4205D1761CF6B2567065
:103060000C2E00D3507052782A7027792E4E012FE3
:103070002E4A0F781ED07F1CFFB20F70022F18D37C
:103080000870197800293ED0491EC9B219704B004A
:10309000CB18D0549B18587098701723591AC9B27E
:1030A00031704B00C9185054891848708870FF203F
:1030B0002870F0BD7F1CFFB20F70032FF9D308708A
:1030C000197800291BD0491EC8B218702978184CED
:1030D0004B00CD18615D4300C318D1542D196C7895
:1030E0009B185C70AD789D701723181AC0B23070B1
:1030F0004300C0181154801844708570F0BD2071D1
:103100000C201870F0BDE07020700020C043A0714A
:10311000F0BD00006E00002041000020F000002003
:103120004C000020380100203800002068010020F9
:1031300079740000F8B58949894BC879894A012812
:103140000DD10020C871884C187020700C7A4C7218
:103150001479641CE4B214710C2C00D310717F48F4
:103160000079012873D17E48804B0078804F8149D7
:10317000002807D0012837D002286BD00878002813
:1031800067D19BE0002477493C700C79774A610055
:1031900061188C468B183978CA070BD1734A65467B
:1031A000565D4A008D18734A56555E78AA185670B7
:1031B0009D789570491CC9B239701829EBD36A4AB9
:1031C0001178491CC9B211700C2976D300211170F5
:1031D000634A401C1070641C6248E2B202710C2AFF
:1031E00000D301710179B6E000245E493C700B798F
:1031F0005E4A590059188C468A183978CC070BD08A
:103200005A4C6546665D4C000D195A4C6655567809
:103210002C1966709578A570491CC9B239701829A7
:10322000EBD351490A78521CD2B20A70082A44D30F
:1032300010220A704A49401C08705B1C4948D9B2E8
:1032400001710C2901D300210171C9B283E034E07E
:1032500000E039E000243C70127954001219D418AF
:10326000A57864789A5C3B785E009E198A5576183A
:103270005B1C7470DBB2B5703B70182BF3D33A490A
:103280000B785B1CDBB20B70082B16D310230B7072
:103290003349401C087019211046FCF733FF3649AA
:1032A000087019212046FCF72DFF344908701921B8
:1032B0002846FCF727FF32490870F8BD48780028F7
:1032C00002D1887800283FD0002038702A4B2B4A42
:1032D0002B481B78127800783C78650065194E5DA4
:1032E000641CF61A4E556D186E78E4B2B61A6E70FC
:1032F000AE78361AAE703C70182CEDD30C78002CDA
:1033000005D14C78002C02D18C78002C1CD00024E4
:103310003C70E4B2650065194E5D641CF61A4E55AA
:103320006D186E78E4B2B61A6E70AE78361AAE705A
:103330003C70182CEDD308780028BED148780028BE
:10334000BBD188780028B8D104480021C170017031
:10335000491E8171FF210B480170F8BD6E000020ED
:103360004C00002038010020F0000020797400009B
:1033700038000020680100203E0000203F000020AF
:103380004000002041000020F8B5424E0024F079B2
:103390003146414D0F7A012823D1F47177723F49AC
:1033A00038462C701D3808703D483E49047078003E
:1033B00038180090085C1921FCF7A4FE3A490870FF
:1033C000384900984018009040781921FCF79AFE7F
:1033D00036490870009819218078FCF793FE34492B
:1033E000087032793348012A2C4A3349137822D0A5
:1033F0005B1C1B061B0E13701CD014702F4A137815
:103400002A7893423FD2521ED3B22B700470254AC1
:103410005C001B19D55C9A18537896780278540092
:1034200014190D556418521C6370D2B2A670027044
:10343000182AF3D3F8BD5B1CDBB21370022BF9D34F
:1034400014702A78192A1BD2521C2A700470164B49
:10345000164D174C1B782D7824785343554354430D
:10346000DBB2EDB2E4B20278560096198B557618AD
:10347000521C7570D2B2B4700270182AF3D3F8BD22
:1034800034712F70F8BD34700020F470C043B071F7
:10349000F8BD00006E0000204C000020F00000206D
:1034A00008010020FE7300003E0000203F000020C5
:1034B000400000203800002068010020200100208A
:1034C0000E480021027A002A0BD0827B521CD2B215
:1034D0008273FA2A05D381730172094B417201226A
:1034E0001A70C27B002A07D00278521CD2B2027036
:1034F000FA2A00D3C1737047017070470C00002096
:1035000062000020F0B5B448B44AC378B449B54865
:1035100000248AB0012B06D01378052B24D25B1C23
:1035200013700AB0F0BDAC4BAF4DDC702B785B1C58
:103530002B70AE4BFF251C70AD4B1D7004700C70D2
:10354000AC4814700480AC48AE4D0480AB480470A5
:10355000AB4804702878002804D100221146104698
:10356000FCF770FE2C70DCE700231370A64A13886A
:10357000A24A1278521CD2B205929C4A002B1678AD
:10358000974A15789A4A1478964A127809D09F4B30
:10359000DF88984B1B889F427ED996485B1C03802E
:1035A000BFE7904B914F1B7803935B1CDBB20893F2
:1035B0008F4B1B789E465B1EDBB20793884B1B78B4
:1035C0009C465B1CDBB20693039B5B1EDBB2039342
:1035D00073465B1CDBB2049363465B1EDBB209934C
:1035E000330003F0CDFC0B070D141A2129303439B8
:1035F0003D414700FF2A01D2089A11E0012237E03D
:103600007B4A002C01D0079B12E0022230E0FF2D04
:1036100001D2069A13E003222AE0002A02D0039A7C
:10362000027036E0042223E0714AFF2C02D2049B90
:1036300013702EE005221BE0002D02D0099A0A70BB
:1036400027E0062214E0FF2DE3D3072210E0684AAA
:10365000002CD8D108220BE0FF2ACDD3092207E0A5
:10366000002DEBD10A2203E0614AFF2CDFD30B22AD
:103670003A700EE0002AD2D100233B705F4A059CCD
:103680001470052C05D91370534B0122DA705C4B72
:103690001A700A78017800E004E055480078FCF7D9
:1036A000D1FD3EE74F4B514F1B7804930F33DBB2F4
:1036B00008934F4B1B789E460F3BDBB20793484B5A
:1036C0001B789C460F33DBB20693049B0F3BDBB2A7
:1036D000049373460F33DBB2039363460F3BDBB2B5
:1036E0000993330003F04CFC0B070D141A21293009
:1036F00034393D414700FF2A01D2089A11E00122E6
:1037000037E03B4A002C01D0079B12E0022230E058
:10371000FF2D01D2069A13E003222AE0002A02D0EC
:10372000049A027036E0042223E0314AFF2C02D2D0
:10373000039B13702EE005221BE0002D02D0099A96
:103740000A7027E0062214E0FF2DE3D3072210E0E1
:10375000274A002CD8D108220BE0FF2ACDD309221A
:1037600007E0002DEBD10A2203E0214AFF2CDFD332
:103770000B223A700EE0002AD2D100233B701F4A80
:10378000059C1470052C05D91370134B0122DA70B7
:103790001B4B1A701E4A1F4B1278521E1A701E4A7B
:1037A0000DE06B00EE18B4182346203B5F7F975561
:1037B0009E7F6670DB7FA370164B6D1E1D70154BD0
:1037C0001D78002DEDD10A4B1B78137000785070D6
:1037D00008789070A5E60000320000204300002029
:1037E0003C0000203B000020F000002008010020E9
:1037F0003A00002052000020540000204700002022
:1038000011000020560000204E0000205A00002029
:10381000570000203800002068010020F8B5614AF8
:103820006148D1780678614D0024614F012906D0A6
:1038300060480178082941D2491C0170F8BDD47054
:103840005D495E4A0C7008E05D4B14541C545D4B9E
:103850001C545D4B1C54401C08700878B042F3D3D4
:103860005448192104702C705848594D0470287818
:10387000FCF748FC387068781921FCF743FC55497F
:103880000870A8781921FCF73DFC5349534D087086
:103890002878002804D1002211461046FCF7D2FCFB
:1038A0004F480088002807D04E4804804E480480C6
:1038B0004E4804704E4804702C70F8BD047048489F
:1038C0000088002808D04B48C388464801888B42AE
:1038D00002D9491C0180F8BD394934480B78007879
:1038E000002B02D0012B39D105E0192801D2401D4F
:1038F00004E0012031E0052802D9401F28702DE0A6
:1039000032480C7001783C4B491CC9B201701B78DD
:1039100099420CD3354904700B785B1CDBB20B70F9
:10392000052B04D90C700121D170314A1170007837
:103930004100441826481921005DFCF7E3FB38706C
:103940002348192124186078FCF7DCFB2149087012
:10395000A0781921FCF7D6FB1F4908701649761E7E
:103960000E7026480DE059005C18221811462039C7
:103970004E7F06558C7F5470C97F91700E495B1E37
:103980000B700D490B78002BEDD13A7829784A431A
:103990000270104A12784A4342700F4A12784A4322
:1039A0008270F8BD32000020570000203D0000204A
:1039B0003E0000204300002038000020F0000020DE
:1039C00008010020200100203801002041000020D3
:1039D000C00000203F0000204000002056000020D2
:1039E0004E0000205200002054000020470000201C
:1039F000110000205A00002036000020680100203D
:103A0000FEB5DF48E04AC178DE4815780688DF4811
:103A100001290478DE4880780090DD4840780290E3
:103A2000DB48007810D0DB4909784A1CD3B2D64A6B
:103A30001278521ED7B2D84A002E1278D54E7DD0B9
:103A400006297CD23370FEBDCD4A0021D1701921E8
:103A5000FCF758FBD1490870019019210298FCF736
:103A600051FBCF490870029019210098FCF74AFBDE
:103A7000CC49002E0870009011D0CB49002008706E
:103A8000CA49CF4E0880CA490880CA494870CA4905
:103A90000870CA4908703178002933D047E0C94F0F
:103AA000002038701AE021463046FCF72BFBBE4858
:103AB000012C017001D1F00714D048000A18B44855
:103AC000835C70003118C0484354B14BD21853780E
:103AD0000818437091788170761C3E703E78AE4233
:103AE000E1D325E001980A21484371007218B649D4
:103AF0000A23885402985118584348700098584334
:103B00008870E9E7AF49B04B087007E0540014191A
:103B10001855E4186070A070521C0A700A78AA4206
:103B2000F4D3AA490870AA490870AA4908703070ED
:103B30009849002008709849087001E006E05AE0B2
:103B4000487088709C4908709D49C4E0282900D2BB
:103B500078E700233370012C11D0680029189A48A7
:103B6000081820389949427F0A709949827F0A7063
:103B7000C17F98480170934993480F702EE08649A1
:103B8000002A09D0914A1070914A02981070914A07
:103B9000009810700B70EEE78048142200785043B4
:103BA0008A4A10707E48142200785043884A107068
:103BB0007C48142200785043864A10700120087017
:103BC000D9E76200A5182B181A46203A567F4655A9
:103BD000957F5D70D27F9A70641E0C700C78002CFB
:103BE000EFD17A49097801707949097841707949AA
:103BF00009788170FEBD002131707749CE886B490C
:103C00000B889E4202D95B1C0B80FEBD6D490F7074
:103C100015E04B006C4FCE18F3199E46203B9C4696
:103C20005F7F3346684E491EF75463469E7F734656
:103C30005E706346DE7F73469E70624B1970614B07
:103C400019780029E5D1614E5F4933780B70604BDC
:103C50001B784B705F4B1B788B7057490B784E4924
:103C60005B1C4978DBB2491CC9B2012C35D04E48E7
:103C70000778781CC5B278003F1845483818002AE4
:103C800057D0012AC1D1424A0629D25D3270504A2A
:103C90004678167082784F4802703F4A5170B4D906
:103CA0000020414950700D70A542AED3414C0870C0
:103CB00025786D1CEDB22570032DA6D920701070EB
:103CC00092780A703C49052B0B709ED908702C49DC
:103CD0000120C87039490870FEBD2F4C002A06D05B
:103CE00000203B49307008703A4908701FE030707E
:103CF000374A02981070374A009810702D4861704A
:103D000042789142E8D90021521CD2B26170AD1EB6
:103D10004270AA420ADD41702748052B037005D97D
:103D2000017017490120C8702449087001202070D3
:103D3000FEBD174AD25D3270254A437813708278EF
:103D40002448254B02701A4A1088401C80B210800B
:103D50009B888342ECD200201080134AA542157044
:103D600000D310700C4B02295970E1D958701178AA
:103D70009970012119700F4908701070FEBD000084
:103D8000320000204E0000205700002036000020A6
:103D9000C000002043000020080100203E00002059
:103DA0003F00002040000020410000205200002081
:103DB00054000020200100204700002011000020B6
:103DC0005600002038000020680100203A00002042
:103DD0003B0000203C0000205A00002010B5592173
:103DE0000448162288230160026003600468002CE6
:103DF000F9D010BD0001005010B559210448162219
:103E000088230160026003600468002CF9D010BDB3
:103E100000010050F8B56848694FC1786748002430
:103E200001291ED00178491CC9B20170042952D35E
:103E30000021017038460778624866490678624872
:103E40000A7805786148644904786148634B0078D2
:103E500009781B78002F3FD0012F5AD0022F71D143
:103E600063E05549604ACC705D495E4B0C70167832
:103E700007E0550055195C55ED186C70AC70521C7C
:103E80000A700A78B242F4D358495A4D0C7053491B
:103E90003C700C7004705648192104704C48047032
:103EA0004C4804704C4804702878FCF72BF94549BD
:103EB000087068781921FCF725F943490870A8783B
:103EC0001921FCF71FF9414908704B4804704B4811
:103ED00004704B480470F8BD5F00DF19454BDB5D93
:103EE000834207D8434BFB185F78974202D89B78F0
:103EF0008B4208D9364B8019187036485219027017
:103F0000354809191DE02E4801210170002038496B
:103F100048E037480178491CC9B20170322942D3C0
:103F200000210170264802210BE0074617430F438A
:103F300009D0274B801B18702648521B0270264858
:103F4000091B01702FE01E48002202705B1C2348F1
:103F5000D9B22C4B01701B7899420DD327490270BE
:103F60000B785B1CDBB20B70052B05D90A70124A6B
:103F70000121D170204A117000781E4C4100451873
:103F8000605D1921FCF7BEF80E492C1908706078A5
:103F90001921FCF7B7F80C490870A0781921FCF733
:103FA000B1F80A4908700C4802780A4801780848B4
:103FB0000078FCF747F9F8BD3200002043000020EC
:103FC000080100203E0000203F00002040000020AB
:103FD0003A0000203B0000203C000020410000206F
:103FE000380000206801002057000020F000002069
:103FF00020010020C0000020110000204700002008
:10400000560000203600002006498A691202FCD4BE
:1040100008600A2804D188690002FCD40D200860D9
:104020007047000000000540F8B5254E0021F078EB
:10403000244A254D012810D02B88244C0120002B28
:1040400016D01F46FF3FCD3F05D005277F02BB425C
:1040500010D1022712E0107011E0F1702980117068
:104060001B480022017011461046FCF7EBF8F8BD22
:10407000117004E0174FBB4202D103271770207064
:104080005B1C9BB2144C2B80A34203D129801049A6
:10409000F07008701078002808D0012809D0022894
:1040A0000AD00328E3D100F0FDFAF8BD00F016F8BD
:1040B000F8BD00F0C1F8F8BD00F02AFAF8BD000024
:1040C00032000020450000204A0000204600002069
:1040D00011000020840D000094110000FEB5494835
:1040E000494D01780024494E01291AD02878401CF6
:1040F000C0B22870022828D30020287030460178EA
:1041000043480078401CC4B242480029077842481E
:104110000678424805784248007817D0012968D1CE
:1041200048E00022047011461046FCF78BF839482D
:104130002C70047038480470384804703448047097
:1041400037480470374834700470FEBD4100401891
:1041500035490090085C1921FBF7D4FF014633482C
:10416000017001913049009840180290407819215F
:10417000FBF7C8FF01462E480170009102981921F3
:104180008078FBF7BFFF2B49224A08700199281855
:10419000791811700099204A711811701F49192C53
:1041A00008701B48047024D30021017017480121B6
:1041B00001701EE01D4A17491278BA1A0A701C4A8B
:1041C00015491278B21A0A701A4A14491278AA1AB2
:1041D0000A700F49192C0C700BD300220A700B497E
:1041E000401C0A700E4AC0B21070032801D9022088
:1041F00008700A4802780848017806480078FCF7F9
:1042000021F8FEBD46000020430000204C000020A5
:10421000370000203A0000203B0000203C00002036
:104220004100002048000020C00000203E00002087
:104230003F00002040000020F0B5A548A54C0178C3
:1042400085B0012920D02778A3487A1C0078D5B200
:10425000401CA34AC6B2A148137800785A1CD2B2B7
:104260000192A04A411C127800925A009A189E4B63
:104270000292D218C9B23B0002F082FE09205F9F71
:10428000D39FD39FD3FBFA00002505702A46294609
:104290002846FBF7D7FF9048954A0570934825704C
:1042A000057001785554491CC9B201703229F8D300
:1042B000904805708948057005B0F0BD864A042E07
:1042C0001670F9D30023854D137018282AD2884F11
:1042D000894E8A490888113080B20880FBF745FF73
:1042E000FBF73AFFC0B21821FBF70CFF3170785C86
:1042F0000128EED0307801213954794A81081170B3
:104300004A008A187849460086198B5C7C48511807
:1043100083554A7830184270897881702878401C1B
:10432000287000E0297028783228C5D32078714998
:10433000401C207000200870BEE767480A2E0670F7
:10434000BAD3002101706E486E4A40304179117035
:1043500001916D4A817911700091C0796B49844651
:104360000870654817210170654863490B7859004A
:104370005E183218114620394F7F87558E7F567050
:10438000C97F91705B1E19065B4A090E1170ECD152
:10439000019901700099417061468170554801781A
:1043A000491CC9B20170502986D3002101704B48C5
:1043B000257001704A4801707EE7474F142E3E7009
:1043C000BAD300233B70082854D24B4B00261E70F2
:1043D000494B1B789C46DB001B18182B0BD2424E16
:1043E000029FF75D5E009E19454B9F555778F31865
:1043F0005F7096789E7063465B1C3F4EDBB23370F5
:10440000032BE5D336E0354A1078082894D325707D
:10441000334801990170009B99422ED20020107000
:104420004AE72D4F142E3E7086D300233B70082898
:1044300020D22A480170304803702B4B029E9B5DAE
:10444000039353780293927894460378039EDF0097
:104450007F1A7A00BF182A4A5B1CBF183E76029E5C
:104460007E766646DAB2BE760270032AEDD3CAE7DC
:104470002BE005E019480170C5E700210170CDE788
:10448000154B0A2E1E7097D300221A70082814D2DA
:10449000194B1A701A4B184E3678B446F600361877
:1044A0007700F6199A55F6187270B2706646761C47
:1044B000F6B2114F032E3E70EDD30848017001781B
:1044C0000829ADD325700270F6E6FF202070F3E6D0
:1044D000460000204C00002043000020480000203F
:1044E0004100002036000020C000002037000020DE
:1044F000500100204400002038000020300000203F
:10450000680100203A0000203B0000203C00002011
:10451000FEB55948594E0178594C01293FD03046D3
:1045200005782046019500785649401CC3B256488C
:104530000278501CC0B28446087856009219554E35
:1045400000928646514952489219052D237036D360
:10455000082B23D30023237017230B70DDB26B00CD
:10456000EE1834182346203B5F7F87559E7F667088
:10457000DB7FA3706D1E2B061B0E0B70EED1454B1F
:10458000009C41491B5D03705378437092788270A0
:1045900060460870F44501D300200870FEBD002578
:1045A00005702A4629462846FBF74CFE3A482570F6
:1045B000057035480570394805703570FEBD082B0B
:1045C00046D3002323700B230B70DDB22E46062347
:1045D0005D432C182346203B9F7E4755DD7E65704A
:1045E0001B7FA370761E33061B0E0B70EDD1294B7B
:1045F000009C254E1B5D0370537843709378837045
:1046000000270C78062363431B185D7ADD709D7AC2
:104610001D71DD7A5D71641CE3B20B700B2BF0D35E
:104620001B48D17840304171117981715179C17144
:104630001A480178491CC9B20170062908D30770CD
:1046400072466046521E39463070944500DB317028
:1046500013480178491CC9B201706429AED3002106
:1046600001700198054A401CC0B210700528A5D3FE
:104670000A480170FEBD00004600002044000020F2
:1046800043000020360000204100002038000020B8
:1046900068010020C00000204C00002048000020DD
:1046A00049000020FEB5B448B44D0178002401292A
:1046B0001AD0B348B4490378B248B44AB44E2F78FC
:1046C00000780978127836780296B24E5B1C3678FC
:1046D0000196B14E36780096DEB23B0002F050FCF7
:1046E000052A6FADCAF96E0000220470114610460B
:1046F000FBF7A8FDA24819210470A8480470A84837
:1047000004702C70A74D2878FBF7FCFC9D490870BD
:1047100068781921FBF7F6FC9B490870A8781921E5
:10472000FBF7F0FC994908709948047099480470A7
:104730009948CBE0924B082E1E703FD31C70029E0E
:10474000934B3018C0B21870019E924B7118C9B2C9
:104750001970009F904BBA18D2B28C4E1A70FBF7AA
:1047600071FD8E480178491CC9B201700A2925D90A
:10477000047028788D4A401C28708B480470884843
:104780000178491CC9B201701278914200D30470BB
:104790000078844C41004518605D1921FBF7B2FC9C
:1047A00078492C19087060781921FBF7ABFC764921
:1047B0000870A0781921FBF7A5FC3070FEBD03013D
:1047C000181A734BC0B218700B01591A714BC9B249
:1047D000197013019A1A704BD2B26B4E6B4F1A704C
:1047E000FBF730FD70480178491CC9B201702829D7
:1047F000E4D9047028786D4A401C28706848017814
:10480000491CC9B201701278914200D3047000783B
:10481000644C41004518605D1921FBF773FC594950
:104820002C19087060781921FBF76CFC3070A078A7
:104830001921FBF767FC3870FEBD5948544B0178CD
:1048400048000A185749885C18705218514B517823
:104850001970514B92781A70FBF7F4FC52480178AA
:10486000491CC9B201705029E6D904702878401C4F
:1048700028707CE0424B062E1E70DDD31C70029E19
:10488000434B301AC0B21870019E424B711AC9B224
:104890001970009E404BB21AD2B21A70FBF7D2FCCC
:1048A0003E480178491CC9B201700F29C4D904706F
:1048B00029783F4A491C29703B490C7001785454AF
:1048C000491CC9B201703229F8D33A480470FEBDC0
:1048D000FFE72B48062E0670F9D3047035480078A0
:1048E000182846D2344F354E3888113080B238807F
:1048F000FBF73BFCFBF730FCC0B21821FBF702FCD6
:104900002B483170405C0128EED0294930780122D3
:104910000A54410041182A48445408184470254953
:1049200084700878401C0870224800783228CED362
:1049300017482C70047017481A4D047016480470FC
:104940001748007841004618A85D1921FBF7DAFBEB
:104950000C497519087068781921FBF7D3FB0A49CF
:104960000870A8781921FBF7CDFB084908700B489F
:10497000ACE71049D6E70000460000204C000020BC
:10498000430000203E0000203F00002040000020A7
:104990003A0000203B0000203C00002037000020AF
:1049A00041000020C0000020490000203600002007
:1049B0005001002048000020300000203800002076
:1049C00068010020F8B5284E0024F0782749284DCA
:1049D00001280AD02A88274B0120002A10D0CD2791
:1049E000FF00BA420ED108701BE0F4702C80002248
:1049F0000C7011461046FBF725FC1F480470F8BDEB
:104A00000C700EE01D4FBA4201D1022708E01C4F86
:104A1000BA4201D1032703E01A4FBA4202D1042758
:104A20000F701870521C92B2174B2A809A4203D111
:104A30002C80114AF07010700878030002F0A0FA80
:104A40000505080B0E110400D9E700F08BF9F8BD3D
:104A500000F01CF8F8BD00F0A9FAF8BD00F05AFC0F
:104A6000F8BD00F075FEF8BD3200002045000020C2
:104A70004A0000204600002011000020520D0000D6
:104A80006E0F000092130000581B0000F8B5A148FB
:104A9000A14C0178A14EA24D0027012942D02078D7
:104AA000401CC0B2207004287ED3277028460278AC
:104AB0009C489D4D00789D4C411CC9B2002A47D0AE
:104AC000012A72D0974F182870D29949088811305E
:104AD00080B20880FBF749FBFBF73EFBC0B2182110
:104AE000FBF710FB93482170405C0128EDD0914901
:104AF000247801200855904801782046FBF702FBF6
:104B0000317048000918600022186B5C8B48491905
:104B100083544B7810184370897881703878401C22
:104B20003870EFE00022077011461046FBF78AFB51
:104B300003203070277082482F707E4A07700178FA
:104B40005754491CC9B201703229F8D3754854E052
:104B5000182854D276490888113080B20880FBF7B3
:104B600004FBFBF7F9FAC0B21821FBF7CBFA714846
:104B70002170405C0128EDD020786E4A012111544B
:104B8000317843004A008918C3186A5C6B48491998
:104B9000C2544A7818184270897881706148017847
:104BA000491C01705F4802E028E02AE0A9E0007893
:104BB000322823D35A48634E0178491C017027706C
:104BC000614C01255A490888113080B20880FBF7F2
:104BD000CCFAFBF7C1FAC0B21421FBF793FA534A9F
:104BE0005A4B1078195425543754401CC0B21070D9
:104BF0003228E7D35648077056480770F8BD494831
:104C0000CFE70020504F2070C0B2395C002910D08F
:104C1000012923D04100421848498B5C5B088B5422
:104C200051184A7852084A708A7852088A700021CE
:104C300031E031784A008A189446AB5C41003F4A23
:104C40004118535462465219944653783B4A891886
:104C50004B70624692788A7001211CE039493B4BC7
:104C60000A5C521CD2B20A541B5C9A4214D900222C
:104C70000A542F490888113080B20880FBF775FA72
:104C8000FBF76AFAC0B21421FBF73CFA2F4A2078EE
:104C90001154395C491C39542078401CC0B2207032
:104CA0001828B1D32A480178491CC9B201703229A9
:104CB000A4D900241A4F04703C703078264A410071
:104CC0004118685C10704A19244B51781970244BB4
:104CD00092781A70FBF7B6FA3078401CC0B2307088
:104CE000052801D9022038701548124A047001784D
:104CF0005454491CC9B201703229F8D309480470D0
:104D0000F8BD397038783228FAD30548FF21017090
:104D1000F8BD0000460000204300002041000020B4
:104D20004C00002048000020C00000203800002077
:104D300030000020500100203600002068010020D3
:104D400037000020F0000020080100202001002092
:104D500049000020440000203A0000203B000020D1
:104D60003C000020F0B58448844902788DB0844F1F
:104D70000978844C0091012A5AD0834802788348EC
:104D800001788348491C0378C9B25B1CD8B28446B9
:104D9000501CC0B20390002A72D07E480078401C9C
:104DA000C0B208907C4803785E00581C9E193B46B0
:104DB000F318012A754AC0B211707DD00A2935D383
:104DC000002111707549BA5D0A70019274495A78D0
:104DD0000A7003929A78734994460A7072491722AE
:104DE0000A700B461D7869006E1832191146203979
:104DF0004F7FA7558E7F5670C97F91706D1E290613
:104E0000090E1970EED10199217003996170614604
:104E1000A1706049089A0A700C2A07D900220A700A
:104E20005D490870009B984200D30A700DB0F0BD38
:104E3000002101705C4801700646307800990546F3
:104E4000FBF760F9544801704800091868007A5C63
:104E500028182254C9194A7800194270897881703B
:104E60006D1CE8B230701828E7D34B490020087059
:104E7000464908704449087045490870D6E7FFE77D
:104E8000424814290170D1D300210170434822788F
:104E9000027006924248627802704248A578057016
:104EA000414817460170CAB2510053181919CE78FB
:104EB000E6540B794B7000E01AE04B798B70521C72
:104EC000D1B201701829EED32E48069940304171B5
:104ED0008771C5712E48614601701429A6D300213F
:104EE00001702948039A02702B480170294840E05C
:104EF0000A299BD3002111702849BA5D0A700692D5
:104F000027495A780A70019226499A780A702649E8
:104F10000A9217220A700B461D7869006E18321922
:104F2000114620394F7FA7558E7F5670C97F9170EB
:104F30006D1E2906090E1970EED10699217001998E
:104F400061700A99A1701349089A0A70052A07D955
:104F500000220A7010490870009B984200D30A7022
:104F60000B4861460170642988D30021017006480E
:104F7000039901705AE70000460000203600002027
:104F8000C0000020680100204C00002043000020E9
:104F90004900002048000020410000203A00002085
:104FA0003B0000203C00002038000020F0B5CB4939
:104FB000CB4A087889B001281ED010460278CA482A
:104FC000C8490078401CC5B2C8480378581CC4B210
:104FD0000878511C0090C8B2039058001F18C448AC
:104FE0003E18002A13D0012A40D0022A5DD0032A9D
:104FF0007ED00521BA4836E000200870BB49087011
:10500000BC490870B84910700870BB497DE0BB48C6
:1050100000210170B948032100780690FBF772F86F
:1050200000290BD1B248C25D069841004118B4482E
:105030004254727808184270B17881700699AF486E
:10504000491CC9B201701829E4D3A748142D057072
:105050000AD300210170A5480470009A944200D33D
:1050600001709F480399017009B0F0BDA348002169
:105070000170A248032100780690FBF743F801294C
:105080000BD19B48C25D0698410041189C48425490
:10509000727808184270B178817006999748491C57
:1050A000C9B201701829E4D3CFE7944800210170F8
:1050B0009248032100780690FBF724F802290BD1CF
:1050C0008B48C25D0698410041188D484254727861
:1050D00008184270B178817006998848491CC9B295
:1050E00001701829E4D38049142D0D70BCD300E061
:1050F0000DE0002008707D490C70009A944200D3A6
:1051000008707749039A0A707E490870ACE77948BD
:105110000178491CC9B201700229A5D30021017090
:105120007548774C00782178420003908018704AC7
:105130008518002905D16178002902D1A1780029BC
:1051400034D06B49085C1921FAF7DCFF6E4908700E
:10515000059068781921FAF7D5FF6C490746087061
:10516000A8781921FAF7CEFF6949644E08700290B9
:1051700000203070C0B203210490FAF7C3FF002969
:105180000ED1049841004018225C0599511A21540F
:1051900000194178C91B417082780299511A8170B7
:1051A0000498401CC0B230701828E3D355480078EA
:1051B00004900F283CD3E078002805D120790028FE
:1051C00002D16079002833D0E8781921FAF79AFFE4
:1051D0004D490870079028791921FAF793FF4B4938
:1051E0000746087068791921FAF78CFF4849434E41
:1051F0000870059000203070C0B203210290FAF7C9
:1052000081FF01290ED1029841004018225C0799C4
:10521000511A215400194178C91B417082780599AF
:10522000511A81700298401CC0B230701828E3D324
:1052300004981E283AD3A079002805D1E0790028E7
:1052400002D1207A002839D0A8791921FAF75AFF1B
:105250002D4908700290E8791921FAF753FF2B497C
:1052600008700190287A1921FAF74CFF284907465F
:105270000870224D00202870C0B203210646FAF7BC
:1052800041FF02290DD170003018225C0299511A99
:105290002154001942780199511A41708178C91B33
:1052A0008170761CF0B228701828E5D304981F2866
:1052B00000D3D9E613480178491CD4E608490020F8
:1052C0000870039A0C4BD21CD2B21A70092A01D36F
:1052D00004220A700B490870ECE700004600002029
:1052E0004C00002036000020490000204100002032
:1052F000C0000020430000200801002038000020EA
:1053000068010020480000203E0000203F000020EF
:1053100040000020F0B5FA48FA4D01780024FA4E1A
:1053200085B001292AD030460778F848002F007848
:105330000390F74800780290F64800780190F6480C
:105340000378F6480178F64802783ED02846067879
:10535000701CC0B28446EC480078401CC0B200907B
:10536000F048012F007804907ED0022F7DD0032FCB
:105370007CD0E5490420087005B0F0BD002204701F
:1053800011461046FAF75EFFE64832210470E648FF
:1053900004703470E5482C700470DC480470DC48FC
:1053A0000470DC480470E24C2078FAF7ABFEDA496E
:1053B000087060783221FAF7A5FED8490870A07805
:1053C0003221FAF79FFED649D5E70398CF4EC01891
:1053D000C0B23070029ECE4B7118C9B21970019ED6
:1053E000CC4BB218D2B21A70FAF72CFF2878401CB6
:1053F000C0B228703228BFD3C348CD4E0178491CB3
:105400000170C848007841004718F05D3221FAF772
:1054100079FEC149BE19087070783221FAF772FE20
:10542000BE490870B0783221FAF76CFEBC49C24E12
:1054300008702C70BF4DC14F2C70C148297844545E
:105440003088113080B23080FAF78FFEFAF784FE90
:10545000C0B20A21FAF756FE28783954401CC0B26F
:1054600028703228E9D387E701E083E0FEE0182EB8
:1054700039D2B0480470AF48B14D00782D5C012D91
:105480002AD0B04DAD4F2E5C761CF6B22E543F5C48
:10549000BE420DD32C5445004619AB4DAF5DFF1AEB
:1054A000AF5575196E78761A6E70AE78B61AAE7002
:1054B00045004619A44DAF5D002F0DD175196E78CA
:1054C000002E09D1AD78002D06D18E4E35786D1C99
:1054D00035709B4E01253554401C964DC0B2287046
:1054E0001828C8D302E0874861460170854D2878A6
:1054F0003228B8D384480099017004998948491C1E
:10550000C9B2924A01701278914200D304700078B7
:10551000874E41004718F05D3221FAF7F3FD7E49CE
:10552000BE19087070783221FAF7ECFD7B490870DB
:10553000B0783221FAF7E6FD79497F4E08702C7079
:105540007C4D7F4F2C7028783C543088113080B2CD
:105550003080FAF70AFEFAF7FFFDC0B20A21FAF727
:10556000D1FD764A28781154401CC0B228703228E8
:10557000E9D301E76B480078450040196C4D029073
:1055800040190190182E43D26A48047069486C4D46
:1055900000782D5C012D34D06A4F684D3E5C761C3E
:1055A000F6B23E542D5CAE420DD33C544500664FDE
:1055B00045197E5DF6187E55ED196E7876186E7079
:1055C000AE78B618AE70450046195F4DB446AF5D73
:1055D000574D029EAD5DAF4213D15B4D66467719C4
:1055E000019D7E786D78AE420BD1019DBE78AD787D
:1055F000AE4206D1434D2E78761C2E70504E0125BA
:105600003554401C4B4DC0B228701828BED302E060
:105610003C48614601703B4800783228A9D33A489B
:105620000099017042480299475C32213846FAF7E6
:1056300069FD0146384801700198322146783046AC
:10564000FAF760FD354908700198322185782846BF
:10565000FAF758FD0146324801702A4804702B4879
:1056600007702B4806702B48057085E60398274E77
:10567000C01AC0B23070029B254E591AC9B231709F
:10568000019B244F9A1AD2B23A70FAF7DBFD2878C0
:10569000401CC0B228703228E7D32C701B481A4D2A
:1056A000047034703C701F482C700178274A491CE4
:1056B000C9B201701278914200D3047000781C4C7A
:1056C00041004618A05D3221FAF71CFD1249341939
:1056D000087060783221FAF715FD10490870A0783B
:1056E0003221FAF70FFD0E49087010480178491C65
:1056F000C9B201700229B8D3042028703CE600002A
:1057000046000020480000204C0000203A00002005
:105710003B0000203C0000203E0000203F00002015
:1057200040000020410000204300002044000020F1
:10573000C0000020380000203000002020010020A0
:1057400050010020F00000206801002036000020F9
:10575000F8B5434800270178424C434D434E012998
:1057600010D10022077011461046FAF76BFD404831
:10577000077040480770404807704048077027701E
:105780002F7037703B480178491CC9B2017003295A
:1057900064D9077039480178491CC9B201702829B9
:1057A00008D9077034480178491CC9B2017005292D
:1057B00000D9077030480078030001F0E1FB0604CF
:1057C0000B121921293037702078401D207028785D
:1057D000C01F13E02F703078801F307020780930A0
:1057E00014E027702878C01D28703078001F15E05D
:1057F00037702078401F20702878083028700EE01D
:105800002F703078C01C30702078C01F207006E0E8
:1058100027702878083828703078C01C30701848F5
:10582000172101701748164909784A008B188C46D1
:105830001A18114620398F7F57704F7FC754C97F80
:1058400091706146491E09060D4A090E1170EAD190
:10585000217801702978417031788170F8BD00009D
:10586000460000203A0000203B0000203C000020C1
:1058700041000020430000204C0000204400002094
:105880003800002068010020F8B5274E0024F07889
:105890002649274D012809D02A88264B0120002AB5
:1058A0000DD0254FBA420CD1087019E0F4702C804D
:1058B00000220C7011461046FAF7C4FCF8BD0C70BB
:1058C0000EE01E4FBA4201D1022708E01C4FBA4237
:1058D00001D1032703E01B4FBA4202D104270F7006
:1058E0001870521C92B27D239B012A809A4203D1E8
:1058F0002C80154AF07010700878030001F040FB0E
:105900000505080B0E110400D8E700F01FF8F8BDDC
:1059100000F0BCF9F8BD00F083FCF8BD00F032FDEA
:10592000F8BD00F04FFEF8BD320000204500002019
:105930004A00002046000020640A0000E61400002F
:1059400044160000CE19000011000020F0B5C04838
:10595000C04D01788BB0012927D028460778C04D6B
:10596000BE4829780078491CCEB2401CC1B2781CD0
:10597000C0B20390BB48B84C02781346521CD0B258
:1059800022780092B84AB94C12780992521CD2B2CD
:1059900004925A009A18B64B0592D2183B0001F0B7
:1059A000EFFA05184F8ECDFEFD000024047022464C
:1059B00021462046FAF746FCAA482C700470AA48F3
:1059C0000470AC480470AC480470A44804700BB078
:1059D000F0BD2E70062EFAD300232B70A74C172390
:1059E0002370A24B403BA54C247865006619A44661
:1059F000F5182C46203C677F9F55A67F6E70E47F8C
:105A0000AC706446641E24069C4D240E2C70EAD1B2
:105A1000974D059E934CAD5D1D7055785D709278E5
:105A20009A708E4A32291170D1D300211170894A9F
:105A3000039B13702070009A9042C8D32170C6E770
:105A40002E70062EC3D300232B708C4E874D3370DF
:105A5000403D8A4B1B785E009C469E197319DF7887
:105A6000AF551E795E705E799E7063465B1CDBB23B
:105A7000824E172B3370ECD37D4D059E794BAD5D77
:105A800065715578A5719278E271744A3229117066
:105A90009DD3002111701870009A904200D31970A4
:105AA0006C4A7448117003785B1CDBB20370022BE4
:105AB0008DD90170022010706B48017087E72E703D
:105AC000062E84D300232B706C4B17241C706B4B59
:105AD000664D1B78403D5C001E199C467419234698
