:020000040000FA
:1000000068050020CD010000D10100007901000049
:1000100000000000000000000000000000000000E0
:10002000000000000000000000000000D5010000FA
:100030000000000000000000D7010000D90100000E
:10004000DB010000DB010000DB010000DB01000040
:10005000DB010000DB010000DB010000DB01000030
:10006000DB010000DB010000DB010000DB01000020
:1000700031750000DB010000DB010000DB01000046
:10008000DB010000DB010000DB010000DB01000000
:10009000DB010000DB010000DB010000DB010000F0
:1000A000DB010000DB010000DB010000DB010000E0
:1000B000DB010000DB010000DB010000DB010000D0
:1000C00000F002F800F048F80CA030C808382418F6
:1000D0002D18A246671EAB4654465D46AC4201D180
:1000E00000F03AF87E460F3E0FCCB646012633426A
:1000F00000D0FB1AA246AB46334318478478000071
:10010000A4780000103A02D378C878C1FAD8520710
:1001100001D330C830C101D504680C6070470000BD
:100120000023002400250026103A01D378C1FBD813
:10013000520700D330C100D50B60704710B5782945
:1001400002D100F067F810BD002010BD1FB500F00F
:100150002BF91FBD10B510BD00F062FA1146FFF774
:10016000F5FF07F00BFB00F07AFA03B4FFF7F2FF9C
:1001700003BC00F081FA000004207146084202D05E
:10018000EFF3098001E0EFF308807146004A104761
:100190009523000030B40C490C684A682368106845
:1001A000C0181060241D121D8C4207D28A4208D24A
:1001B0000C604A6030BC4000400870470C00DC3CDA
:1001C000F6E70A00DC3AF3E70003002006480047A0
:1001D000FEE7FEE7FEE7FEE7FEE7FEE70348044929
:1001E000024A044B70470000C10000006803002071
:1001F00068050020680300200FB4054910B503AA64
:10020000029800F0E1F910BC08BC04B018470000E7
:100210007000002070B504460D4621461068C046A7
:10022000C0462188090502D50F4A7A4402E00E4AE9
:100230007A440E3223460021243305E006070009E4
:10024000360F965D5E54491C0028F7D120780023B4
:10025000000705D5702D03D0002901D002231132EB
:10026000204600F059F970BD27770000F3B5044629
:10027000002081B020622046E168884700287AD0BB
:10028000252802D06268A16871E0E1682046002557
:10029000884706460020E0610746A0612A2E0AD062
:1002A000304607F05AFA002827D0B8000019303E2F
:1002B0000090866119E00298BA00121902C8916193
:1002C00002902046E1688847012F064617D1E06971
:1002D00000281FDA202085431CE000980A2180694D
:1002E000484300998019303888612046E168884782
:1002F000064607F032FA0028EFD1012F0AD02E2E41
:1003000008D12046E16888470646202005437F1C27
:10031000022FC3DBA069002803DA4042A06101205C
:100320000543E80701D010208543002E23D0304636
:100330004138192803D80120C00205432036204641
:1003400025603146029A1546FFF7F8FE00280BD0CB
:10035000012806D0ED1DE808C000083002908AE7A9
:1003600009E02D1D029586E762683046A168904736
:10037000206A401C7EE7206AFEBD00000B4A30B5B3
:1003800011460B4C60310B46DC3B0CC1372106E0BB
:10039000020C8D0012185A51064A504300190A46A1
:1003A000491E002AF4DC30BD0120E7E7A00200204E
:1003B000E119D666CD0D0100002203098B422CD332
:1003C000030A8B4211D300239C464EE003460B43A5
:1003D0003CD4002243088B4231D303098B421CD307
:1003E000030A8B4201D394463FE0C3098B4201D3F9
:1003F000CB01C01A524183098B4201D38B01C01A31
:10040000524143098B4201D34B01C01A52410309A7
:100410008B4201D30B01C01A5241C3088B4201D356
:10042000CB00C01A524183088B4201D38B00C01A03
:10043000524143088B4201D34B00C01A5241411A2A
:1004400000D201465241104670475DE0CA0F00D00D
:100450004942031000D34042534000229C46030906
:100460008B422DD3030A8B4212D3FC22890112BA8C
:10047000030A8B420CD3890192118B4208D3890164
:1004800092118B4204D389013AD0921100E089097C
:10049000C3098B4201D3CB01C01A524183098B425D
:1004A00001D38B01C01A524143098B4201D34B0146
:1004B000C01A524103098B4201D30B01C01A5241A9
:1004C000C3088B4201D3CB00C01A524183088B4230
:1004D00001D38B00C01A5241D9D243088B4201D3B9
:1004E0004B00C01A5241411A00D2014663465241A4
:1004F0005B10104601D34042002B00D549427047A3
:1005000063465B1000D3404201B50020C046C046A0
:1005100002BD704770477047FFB504460D4681B075
:10052000243000902168880604D51022E0699143A8
:10053000216000E00120A84201DD471B00E0002708
:100540000498A1697A191018081AA0612078C006C9
:1005500002D42046C046C046002608E003986268E0
:10056000A168805D9047206A401C761C2062049838
:100570008642F3DB2078C0060AD52046C046C04636
:1005800006E06268A16830209047206A401C206223
:1005900038467F1E0028F4DC07E000986268A168F6
:1005A000405D9047206A401C206228466D1E00284E
:1005B000F3DC2046C046C0462078000602D5022063
:1005C00005B0F0BD0120FBE7084B70B50D467B443C
:1005D00000F013F80446284607F0C6F8002802D0B9
:1005E0000020C04370BD204670BD00009D7100001A
:1005F00001694A1C02610878704700B58FB002910A
:100600000021059105490193794403911146049015
:100610006846FFF72BFE0FB000BD0000E5FFFFFFAF
:10062000754600F025F8AE46050069465346C008F9
:10063000C000854618B020B5FFF7D0FD60BC00278C
:100640004908B6460026C0C5C0C5C0C5C0C5C0C59E
:10065000C0C5C0C5C0C5403D49008D46704710B5F6
:100660000446C046C0462046FFF77FFD10BD00008F
:10067000004870470803002001491820ABBEFEE780
:10068000260002007047000030B5064C00235D00D4
:100690005D1960552D195B1C6970DBB2AA70182BAF
:1006A000F5D330BDDA010020F7B51D4A8E468446E9
:1006B000D1781C4D00241C4E1C4B1D4F1D48012998
:1006C00005D0297808290ED2491C2970FEBDD470A6
:1006D0001C703C700022047011461046FFF7D4FFD6
:1006E0002C703470FEBD2C703578E90711D01C7069
:1006F0003C7004706D1CE9B23170052903D9517842
:1007000011700121D170027839781878FFF7BCFF99
:10071000FEBD614619707146397002990170E9E7B2
:100720002600002036000020120100202E000020AC
:100730002F0000203000002000B50548C1780129B5
:1007400005D10021C1700A460846FFF79DFF00BD94
:1007500026000020F8B529484378002B2CD0052529
:100760000146274E2D07274FCA780024012B07D0BA
:100770000121022B21D0032B1ED1012A29D032E0E6
:10078000012A08D11D480022C47004700C211E48A3
:1007900001F0E8FDB46119480178491CC9B2017043
:1007A000142909D904704470686B38406863686B19
:1007B0000321890208436863F8BDC4700470B16105
:1007C0004470686B38406863686B6863B462F46255
:1007D000F8BDC4700470B1616A6B3A406A636A6BB9
:1007E0006A63B462F4620278521CD2B20270052AC3
:1007F000EED904704170C170F8BD000056000020B1
:1008000000420050F3F3FFF34040005070B5284819
:10081000066B284903248A1C01250B1F0020012E8A
:1008200017D0087048701178491CC9B2117032296C
:1008300009D310705178491CC9B251700A2902D3EA
:1008400050705C70DD701B499A78091D012A11D027
:1008500014E0107050700A78521CD2B20A70322A1A
:10086000F1D308704A78521CD2B24A700A2AEAD3ED
:100870004870E6E798700870487088700A78521CD3
:10088000D2B20A70322A10D308704A78521CD2B2FF
:100890004A703C2A09D348708A78521CD2B28A70B6
:1008A0003C2A02D388705C70DD70FFF753FF70BD87
:1008B000004200505A000020F0B57F497F4CCB78B1
:1008C00000207F4A89B0012B07D07E490B780A2B84
:1008D00052D25B1C0B7009B0F0BDC8707A49107021
:1008E00009787A4D0591764E059930780690FFF794
:1008F00063FD77484A000170002020707548891810
:100900000A18937856789C46435C069882002078B3
:1009100011184F00C9196B544919401C4E70674695
:10092000C0B28F7020700428F1D306996448491C26
:10093000C9B201700629D6D300250446664E674F1A
:1009400025703088FFF71AFD308811303080FFF7AE
:1009500021FCC0B21421FFF72FFD614A2078115409
:10096000012139545F490D54401CC0B22070062843
:10097000E7D354480570AEE70020087056490B884D
:100980005B1C0B8010704E4954480D78405D0790F9
:10099000002804D0012827D0022846D146E04A4842
:1009A00001782846FFF708FD49484A0001700020F9
:1009B0002070484889180A1893785778425C9C46FA
:1009C000AE00217870184300C3184048491CC25437
:1009D0001818477063468370C8B220700428F0D39B
:1009E00007983E49401C5DE03E493D4E485D344F0E
:1009F000401CC0B24855725D904254D90020485501
:100A0000354D2888411C2980FFF7B8FC2888113013
:100A10002880FFF7BFFBC0B21421FFF7CDFC387868
:100A200031542E490A5C521C0A543CE02648017895
:100A30002846FFF7C1FC2648264A01700020207096
:100A4000480008180090214E105C1921FFF7B4FCF3
:100A500081004018C7B21F490098401800904078A4
:100A60001921FFF7A9FC81004018C0B2039000983B
:100A700019218078FFF7A0FC81004018C0B284469D
:100A8000AA00207811184B00C91877548919039BC4
:100A90004B70401C6346C0B28B7020700428F0D3AA
:100AA0000E490020485506480178491CC9B201701A
:100AB000062900D267E70EE7260000202C00002060
:100AC00035000020360000202A000020DA01002036
:100AD00034000020B000002024000020120100207B
:100AE00044010020E00000200248016AC2011143D5
:100AF0000162704700020050F3B58BB00C46FFF75F
:100B0000F3FF0B9800287448016813D004221143A6
:100B10000160102000F0F0F90120C00409906F4836
:100B20000090042008906E486E49201888420ED824
:100B300000251DE089088900491C0160012000F0A2
:100B4000DBF900200990684800900220EAE7674836
:100B5000664920184942884202D80125640007E00E
:100B6000634863492018494288427DD20325A40086
:100B70000026F643089F22E039460098FFF71CFC48
:100B80005C49844641185C48814217D2554B022289
:100B90005B1C534861465143401C0818984209D8D1
:100BA000A14201D9081B00E0601AB04202D206003F
:100BB00004920CD05148521C8242EAD97F1C212F4A
:100BC000DAD900200696C0430190089E54E00999A6
:100BD000A803084301217A028902511A08430499A3
:100BE000891E08433C490862042000F085F9691C0D
:100BF00079430098FFF7E0FB049948430DB0F0BD3E
:100C000031460098FFF7D8FB3A4942183A498A42E0
:100C100031D20221324B02464A435B1CD7185B4259
:100C20009F4224D8A24201D9121B00E0A21A019BC4
:100C30009A421CD20192069B0F469A4217D10999FB
:100C4000A8030843012172028902511A0843B91E00
:100C5000084321490862042000F04EF9691C7143E1
:100C60000098FFF7A9FB00E008E07843C6E7234AB5
:100C7000491C9142CED9761C212EC1D90B9800284F
:100C80000FD01F4914480162042000F035F91DA05F
:100C9000006803901048016A0013014203D000204D
:100CA000ACE71949EEE7080301D50C4800E00E480F
:100CB0008A03A3D40A04920F03AB9B5CCA05890480
:100CC000D20DC90E891C8008921C59435043FFF76E
:100CD00073FB800092E70000000200500080510189
:100CE000FF1E0AFAFFE0F505001BB700800F05FDA7
:100CF000C08782FEFF95E7FFBF77CC0001020000AE
:100D0000184408000102020416400000044982074A
:100D10000A6801D09208920002430A6070470000FE
:100D20000002005008B511A0006800901048016A48
:100D30000013014201D0002008BD080301D50D4871
:100D400000E00D488A03F7D40A04920F6B469B5CBF
:100D5000CA058904D20DC90E891C8008921C59430A
:100D60005043FFF729FB800008BD00000102020488
:100D70000002005000805101001BB70070B502F066
:100D8000BBFD2D4841682D4A114041604168032553
:100D9000294341600120FFF7B9FF012000F0ACF8C2
:100DA00000062749000E087009D10420FFF7AEFFA6
:100DB000102000F0A1F80021072000F08BF8214856
:100DC00000F046F8204C08262660304600F094F8E3
:100DD0000120A060606928436061A168E00181434F
:100DE000A160A1680143A1606069032109068843ED
:100DF000606105200007416B144A11404163416B5B
:100E00000322920211434163A06804210843A060B9
:100E100060690721090288436061A0683043A060CF
:100E2000606909018843606106F0DEFA024900202A
:100E3000C031086070BD000040000050FCFCFFFFA6
:100E40004A000020006CDC0200020050F3F3FFF3C4
:100E5000F8B51E4C0546E66810201D4906404810AE
:100E60008D4201D90D4602E0854200D20546206838
:100E7000042738432060102000F03EF82069072145
:100E800008432061A06900090001A0612068800773
:100E9000800F01280ED069007804FFF72DFEE66868
:100EA0000546102006400121022000F013F8002E14
:100EB00006D008E069000020FFF71EFE0546F2E7B5
:100EC0002068B84320606808F8BD000000020050A8
:100ED00080F0FA0210B5074A93691B091B010B4306
:100EE00093611169C908C9000143116106F07CFAD8
:100EF00010BD00000002005010B50749074A05E088
:100F00000B46491E002B01DC002010BDD4680346AF
:100F1000A343F5D1012010BD80F520000002005050
:100F2000F0B5FD48FD4987B0C37889790191014644
:100F30008E79CD7900220124002B14D18178491CAF
:100F4000C9B2817096290ED3F549C4700C704C70EB
:100F50004C238B704123CB7036230B71019B4B715B
:100F60008A71CE710D72817C002909D0417C491CA7
:100F7000C9B241740F2903D34274FF2101718274F5
:100F8000E8490B78002B64D000220A70E248E64959
:100F9000847442740C70C278E448002A017800918D
:100FA00001D1F0292ED00F07E0493F0F0A790492B2
:100FB00049790391072F06D00B2F04D0B24248D1B4
:100FC0000399A94245D100990F2905D00A09D249B0
:100FD0000B799A423DD00A71D548D44A40780290A4
:100FE000D349D07809780591517892783B0006F082
:100FF000A7FB10300C0C1A3032303ABE30D7E7FD68
:10100000FB30FA30C648047002E0C5480221017086
:1010100044704C2181704121C170362101710199C8
:101020004171002173E10A2901D9FF2911D11C2A3C
:101030000FD8BF4D00292970EC700AD0FF2906D0C7
:10104000AA70104600F03EFB28786870F6E002981F
:10105000287007B0F0BD0C2AFBD8B04882714471EB
:10106000B448047097E0AC4BDF7B1B7B012F9C46A0
:10107000A94B5B7B00930DD0A94802210170082188
:101080004170042181700021C1700171614641717C
:1010900083713DE1A04F0023FB735140049AA34F9D
:1010A000504041400398814211D0A148FF21017076
:1010B000C4709B4802210170082141700421817095
:1010C0000021C17001716146417100991FE100204A
:1010D00001467F1C7A5C120250400022C30B03D0F1
:1010E000954B4000584000E04000521CD2B280B204
:1010F000082AF3D3491CC9B20429EBD361460A027A
:101100000099854F511889B28142CED160460009BD
:1011100001F054F9894D2870387B0007000F01F069
:101120004DF96870787B000901F048F9A870787B68
:101130000007000F01F042F9E870794808210470B7
:101140004170032181700021C17001713A7B4271AD
:101150007B7B8371BD79C571FD790572BA71FB71B5
:10116000397379737248FD210170C47066E00129FA
:1011700011D0022900D06CE767490223CC730A73AF
:10118000487367490B70009C4C708B700023CB70C8
:101190000B714A717CE06648FB210170C47058E70E
:1011A0000329FCD80029FAD0082AF8D860480A3167
:1011B00001704170C470827010467DE0047048E791
:1011C000059A5B48002AEAD00E2A02D00E2202704D
:1011D000C4705B4801705B485C4904705A480470F5
:1011E0000020088035E7B9E069E0FFE74F4BDB7886
:1011F0005F00DB19564F0093DF190B0006F0A0FAD1
:101200000A08200731394C4C4C4C4C0621E7C2E708
:101210000528C4D2002A06D04D4800994454787855
:10122000002806D00AE04A49009A002088547870C5
:1012300004E03F48029979708078B8703D48BDE776
:101240000528ACD242480099405C0028A7D0384D10
:10125000787868702870B878A87000F033FAEC706D
:10126000ECE705289BD23A490098085C002892D107
:10127000EFE6052893D22A4902220A700C224A700E
:1012800004228A70C87078780871B8784871002094
:101290008871CE710D72DCE6491FC9B24B00CB18C4
:1012A0002B49CD5C002D00D1CC5459184A70887060
:1012B0001F494A700A70887000F004FABEE70D22D8
:1012C000002916D001298DD115480221017021492C
:1012D0004270097881701049C97AC1701921017171
:1012E00021214171182181715721C171432101725E
:1012F000AFE60B480221017042704C218170412100
:10130000C1703621017114490978417101998171C7
:10131000C67105729DE60000110000204E000020FD
:101320008400002000000020580000200B00002056
:1013300026000020470000202110000002000020AD
:101340006200002063000020640000206C00002088
:10135000A10000204A00002042000020081F0300D6
:1013600006F0EEF90A07070606060707070707064D
:101370006FE60598054A88428DD10548017C002911
:1013800089D1D4700474034818E7000026000020B7
:101390001100002046000020F0B5BC4EBC4BF07898
:1013A0000021BC4ABC4CBD4D87B001283BD0BC4895
:1013B00007787F1CFFB20770042F5DD30170477858
:1013C0007F1CFFB247701E2F1AD3417087787F1C95
:1013D0003F063F0E877013D081701878401CC0B252
:1013E000187005280CD9AF48197007787F1CFFB218
:1013F0000770142F04D901700120F070AA4E3070CC
:10140000A3480778A5483B0000780090C01CC0B2F4
:101410000390A0480678A048007806F091F9062FBE
:10142000343A40464C519A48F17001709F4FA048A1
:1014300039703B785E009E19815536185B1C7170BF
:10144000DBB2B1703B70182BF3D31170217095484B
:10145000297001709448974A01708D48964C4170EC
:101460008F4B1170107819542154401CC0B2107069
:101470000628F7D39148017007B0F0BD761D29709A
:101480001670C01F0FE021700098801F2870093669
:101490000FE01170C01D20700098001F0FE0761F34
:1014A00029701670083020700AE0217003982870A7
:1014B000F61F167004E01170083820700398287029
:1014C00073487F4F4678330006F03AF9060422400D
:1014D0005E7C9AB8754B3970197012780092227838
:1014E00003922A788F009446CAB2B9184C000C199E
:1014F0006F49009D0D556118039D4D7064468C70B9
:10150000521CD1B219700429EED3761C4670B3E791
:1015100002233B701F46654BBF0019701178019183
:101520002178009129788C461A78019DB9184C00D1
:101530000C195F49521C0D556118009D4D70644691
:101540008C70D1B219700429EED3DEE701233B7011
:101550001F46564BBF0019701178009121780291F7
:1015600029788C461A78009DB9184C000C195049FE
:10157000521C0D556118029D4D7064468C70D1B29D
:1015800019700429EED3C0E705233B701F46474B73
:10159000BF001970117800912178039129788C4649
:1015A0001A78009DB9184C000C194149521C0D5570
:1015B0006118039D4D7064468C70D1B21970042976
:1015C000EED3A2E703233B701F46384BBF001970D0
:1015D000117804912178009129788C461A78049D1D
:1015E000B9184C000C193249521C0D556118009D58
:1015F0004D7064468C70D1B219700429EED384E723
:1016000004233B701F46294BBF00197011780491C9
:101610002178039129788C461A78049DB9184C00DA
:101620000C192349521C0D556118039D4D706446D9
:101630008C70D1B219700429EED366E73970127834
:101640000092227803922A781849944600220A7060
:101650001B4A1778BC000B78009EE21855005519FC
:10166000134A5B1C5655AA18039E56706546957022
:10167000DAB20A70042AEED37F1C114AFBB213704F
:10168000062BE3D300214170F6E60000260000207F
:10169000120100202E0000202F000020300000202A
:1016A000E00000203A000020160000202C0000205E
:1016B000DA01002035000020440100202D00002028
:1016C0002B000020F8B50146F94800240078FA26DE
:1016D000F84D27460A286FD9F7480C2202700B00F4
:1016E00006F02EF80715487FA4D9F1051400F34839
:1016F00061006118425C6A540A18491953784B70AA
:10170000641C9278E4B28A70102CF1D3F8BD0521E4
:101710002046FEF751FE002908D001290CD00229ED
:1017200010D0032912D0042918D01EE06000201820
:101730002F54401946700FE0600020182E544019B5
:10174000477009E0600020182E540BE0600020185C
:101750002F54962140194170877006E09621600051
:1017600020182954401946708670641CE4B2102C6D
:10177000CDD3F8BD07212046FEF71EFE00290CD070
:10178000012912D0022918D0032922D004290CD013
:10179000052912D0062908D016E0600021186E54E1
:1017A00032204919487088700EE0600020182E54CD
:1017B00040194770322106E0CEE0600020182E5418
:1017C0003221401941708170641CE4B2102CD1D3D5
:1017D000F8BD600096212018295440194670877082
:1017E000F2E7A00709D0A007800F01280CD002283B
:1017F00010D0E043800707D013E0600020182E547B
:101800004019477087700CE0600020182F54401971
:10181000477005E060009621201829544019467051
:101820008670641CE4B2102CDBD3F8BD0521204681
:10183000FEF7C2FD002908D001290ED0022911D0DF
:10184000032916D004291AD020E0600020182F5454
:10185000401946703221817018E0600020182E5423
:10186000322110E06000962120182954401946705A
:101870000BE0600020182E544019477005E060000E
:1018800020182E549621401941708770641CE4B2D0
:10189000102CCBD3F8BDA00711D0A007800F0128D2
:1018A00012D0022818D0962160002018295440191F
:1018B00046708770641CE4B2102CECD3F8BD600055
:1018C00020182F54F3E70EE0600020182F54401921
:1018D000467032218170EDE7600020182F54962168
:1018E00040194170E5E709212046FEF765FD002912
:1018F00010D0012913D0022929D0032914D004299A
:101900000DD005291CD0062909D007291FD0082988
:101910000AD010E0600020182E54322101E09621F8
:1019200003E04019417010E0322160002018295472
:10193000401947708670641CE4B2102CD3D3F8BDF4
:10194000600020182F54401946708770F3E760003C
:1019500020182F549621E4E710290BD248000918CB
:101960005648425C2A700818417869708078A870DF
:1019700001217DE01039042003220B0005F0E0FE78
:101980000D091520313A437B85A0ACE6F6F408003A
:10199000D5E72F7032206E70A8709621E9702E71F5
:1019A0006F71AE71E871287221E02F706E70AF70A8
:1019B000EE702F716F719621A971EE712F72DEE0BA
:1019C00032212E706970AF70EE7096222A716F719D
:1019D000AE71E9712F726E72AF72EA723649087099
:1019E000F8BD962028706E70AE70EF7047E03248F8
:1019F0000270F8BD2E706F70AF70EF702E716F7146
:101A0000AE71EE713FE007212046FEF7D5FC0029BC
:101A100012D0012909D002290ED0032914D004299B
:101A200003D0052918D006291DD1600020182E5496
:101A300040194770322115E0600021186E543220A1
:101A40004919487088700EE06000962120182954CA
:101A500040194670877006E0600020182E5432212D
:101A6000401941708170641CE4B2102CCBD3072163
:101A700011480170F8BD2E706F70AF70EE702E714E
:101A80006E71AF71EF712E72B1E72F706E703220F0
:101A9000A870EE7028716F71AE71EF7196202F7281
:101AA0006872AE72EF722E736873AF730521DFE751
:101AB00026000020B00000202A000020A4780000AA
:101AC0002F706E70AF70EF702E713220687196209B
:101AD000A871EE712F728AE709212046FEF76CFC8F
:101AE000002910D0012913D002292AD0032914D0AB
:101AF00004290DD005291DD0062909D0072920D099
:101B000008290AD010E0600020182E54322101E08C
:101B1000962103E04019417011E032216000201845
:101B20002954401947708670641CE4B2102CD3D33A
:101B300009219DE7600020182F54401946708770D6
:101B4000F2E7600020182F549621E3E72E706F70A3
:101B5000AF70EE70322129716F71AE719621E9710B
:101B60002F726E72AE720DE00EE0FFE72F706F7095
:101B7000AE70EF702E716F71AF71EE712E726E726A
:101B80003221A972EF7229E7084861006118425CAE
:101B90006A540A18491953784B70641C9278E4B25D
:101BA0008A700C2CF1D30C2018E70000A4780000F8
:101BB000F0B52D482D4A84790123002C05D04679B3
:101BC000851E0021012E0BD016E028482038016A1E
:101BD000890104D5016A8402A14301629360F0BDCA
:101BE000417141708170C1700171298016680127AF
:101BF000BF073E43166093609668F607F60FEED077
:101C000093602A881A4E521C92B22A80B24201D3A3
:101C10002980F0BD8278521CD2B282703C2A0ED349
:101C20008170C278521CD2B2C2703C2A07D3C170F4
:101C30000279521CD2B20271182A00D30171427883
:101C4000002AE6D18278002AE3D1C278002AE0D1C6
:101C50000279002A05D0A242DBD102220270C171B2
:101C6000F0BD0370C371F0BD4E00002020000140A4
:101C7000EC2C000030B5154A154800211368435478
:101C800093695B0403D4491CC9B21429F6D3012516
:101C9000022402290F4B017802D0FD290CD00EE05E
:101CA000FD2905D14178F02902D18078FE2801D0A4
:101CB0005C7030BD5D7030BDC079FE2804D05C70B2
:101CC00090682043906030BD5D70F9E700000540EA
:101CD0008D0000200000002030B5124A002054780A
:101CE000002C1DD00021104B012C07D0022C17D145
:101CF0001954401CC0B21428FAD310E00124147007
:101D0000084C0B341D186D782554401CC0B20628B1
:101D1000F8D300201954401CC0B21428FAD35170D3
:101D200030BD0000000000208D00002030B5284BA1
:101D300000201C78002C16D02649012C14D000223B
:101D4000254D032C25D0042C31D0022C0BD1FD24A1
:101D50000C601C1864780C60401CC0B20828F8D3D2
:101D6000FE2008601A7030BDFC220A604C220A6016
:101D700041220A6036220A60174C241F225C0A6046
:101D8000401CC0B20428F9D3FE200860022018705D
:101D900030BD1A70FA230B600A600A600E220A60D6
:101DA0002A5C0A60401CC0B20528F9D30CE01A7006
:101DB000FA230B600A600A600F220A602A5C0A603C
:101DC000401CC0B20528F9D3FE20086030BD0000D9
:101DD00084000020000005400600002010B50D49D9
:101DE0000B78002B0ED0002201240B48012B02D0CF
:101DF000022B04D006E00A704178017001E00A70FD
:101E00000270C47001F0F6F905F0BEFAFFF788F829
:101E100010BD00004E000020260000200A492222AA
:101E2000CA604860012008610869C007FCD10868E1
:101E3000400606D508684022104308600020C043D1
:101E4000704700207047000000C000500248016841
:101E5000012211430160704700C000500549002273
:101E6000CA604860012008610869C007FCD1886821
:101E70007047000000C00050054A2123D360506025
:101E80009160012010611069C007FCD1704700000B
:101E900000C00050F8B50124240501F01FFDFFF734
:101EA000D5FF2E4908682022104308602046FFF71E
:101EB000D5FF2B4C60702B48FFF7D0FFA07029484E
:101EC000001DFFF7CBFF2849887126480830FFF72F
:101ED000C5FF2649087023480C30FFF7BFFF24498F
:101EE000C0B208801F481030FFF7B8FF2149C0B2C8
:101EF00008801C481430FFF7B1FF1F4908701948CB
:101F00001830FFF7ABFF1D49087016481C30FFF76B
:101F1000A5FF1B490870134820300446FFF79EFFB9
:101F20001849194E08700025241D2046FFF796FF1A
:101F300069006F18F055241D2046FFF78FFFBF1969
:101F40007870241D2046FFF789FF6D1CEDB2B87034
:101F5000052DE9D30D4900200860F8BD00C00050F0
:101F600026000020040010004E0000204900002040
:101F7000420000204400002019000020170000202B
:101F8000180000201B000020A100002000010050CC
:101F9000F8B53448012401782405012961D10021D4
:101FA000017001F09BFCFFF751FF2F4801682022D0
:101FB000114301602046FFF731FF2C4D2046697820
:101FC000FFF75AFF201DA978FFF756FF2949284837
:101FD0008979FFF751FF26482749001D0978FFF747
:101FE0004BFF2348254908300988FFF745FF204863
:101FF00023490C300988FFF73FFF1D482149103065
:102000000978FFF739FF1A481F4914300978FFF79C
:1020100033FF17481D4918300978FFF72DFF144882
:102020001B491C3004460978FFF726FF194E00258E
:1020300068002F18241DF15D2046FFF71DFFBF1912
:10204000241D79782046FFF717FF241DB978204614
:10205000FFF712FF6D1CEDB2052DE9D30E490020EC
:102060000860F8BD4700002000C000502600002096
:10207000080010004E00002049000020420000200F
:10208000440000201A000020170000201800002043
:102090001B000020A100002000010050F0B5A14964
:1020A0000024CA7885B0012A44D09F4900220A70D2
:1020B0009E4801789C4800780746FEF77DF99C48C9
:1020C0009C4C017048000D18605D01901921009032
:1020D000FEF772F99849064608702C1960781921A4
:1020E0000390FEF769F9954905460870A078192113
:1020F0000290FEF761F99249044608709148C05D6C
:102100008446002843D001287ED002287DD08E4905
:102110008E4AC85D401CC0B2C855D25D904275D988
:102120000020C85539460C22894B51435A5C002A7D
:102130006DD1B7E0874ECC70874D844F34703078C6
:10214000410041188248445408184470847028881B
:10215000411C2980FEF712F9288811302880FEF7EB
:1021600019F8C0B21421FEF727F9307839547549AF
:102170000C5475490C54401CC0B230701828DED382
:102180007648322101707648047005B0F0BD6E4883
:102190006E4AC15D491CC9B2C155D25D9142BED9DA
:1021A0000021C15505210098FEF706F902460C20D2
:1021B000784367490090085C824214D8052103984F
:1021C000FEF7FAF802466248009908180090407835
:1021D000824208D805210298FEF7EEF801460098E1
:1021E0008078814220D95B4800210170B800844684
:1021F000584F604639784018420082185448835C32
:102200009B198354101803E012E02BE049E050E0E2
:102210004278491C52194270827812198270C8B2F1
:1022200038700428E4D374E046480121C15570E0B9
:102230004848002101704649BB000278019D9C1866
:102240006600A4190D556418039D6570521C029D0B
:10225000D2B2A5700270042AEFD33A496046401CFE
:10226000C85556E038483D4AC15D2F4D491CC9B29A
:10227000C155127891424CD90021C15531480321F2
:10228000354CC1552088FEF779F820881130208020
:10229000FDF780FFC0B20A21FEF78EF82B482A789E
:1022A000815436E0CA185178002902D19278002A68
:1022B0001AD028490870B90018468C46254F624646
:1022C000397852185300D218835C491C9B1B8354E5
:1022D00012185378C9B25B1B537093781B1B937011
:1022E00039700429EAD314E0164D1B4E0446E85514
:1022F0003088FEF743F8308811303080FDF74AFF10
:10230000C0B21421FEF758F80748104A007811545B
:102310002C5405480178491CC9B20170062900D225
:10232000C6E632E726000020350000202A00002003
:1023300034000020B00000203100002032000020D6
:102340003300002012010020E000002044010020A2
:10235000DA0100202C00002024000020360000209C
:102360002D000020F0B500230125944603272A46BE
:102370009A400A4209D006685C003A46A240964359
:10238000224664469440264306605B1C082BEED32D
:10239000F0BD0000044603A0FDF72EFF204605F027
:1023A0002DFAFEE7496E2048617264204661756C23
:1023B000742048616E646C65720A00000F2801D9B0
:1023C0000007000F0A2801D2303000E03730C0B2D9
:1023D00070470000F8B586488649C3788648874F1D
:1023E0000022012B43D00B785B1CDBB20B70062B59
:1023F0003CD30A708249834B09780091834C1B7847
:1024000024785B1CDDB2804BA4466600A4191B78BF
:102410007F4E5B1CA619012939463F78DBB257D0A5
:10242000002F7DD07B4C25786D1CEDB225701A2DC8
:102430000BD322700A707449142B0B7005D90A70E3
:102440006B4A0121D170744A11706E4909780029D4
:1024500067D04B00C918714A0818127820387049A3
:102460004277097881776F490978C177F8BD604B69
:10247000DA703A700A7063490A7064490A706549F3
:102480000A7069490B78002B13D00A70604C19212F
:102490002078FDF791FF6549087060781921FDF7F4
:1024A0008BFF63490870A0781921FDF785FF61490A
:1024B00047E061490A700B785C001C19025524182A
:1024C0005B1C6270DBB2A2700B70182BF3D3DDE7DC
:1024D000002F05D0012F2BD00478002C39D132E009
:1024E0004B4B4F4F1C5D4D4B062D1C7073783B7052
:1024F000B7784C4E3770434E357002D33270012599
:102500000D704D490A70307886004B480278B1183A
:102510004D004D1938494C5569184B708F7001E0CA
:102520003EE058E0521CD1B201700429EDD3F8BD51
:10253000384803785B1CDBB203702C2BF7D3027096
:1025400002200870F8BD4478002C02D18478002C59
:102550001AD03A49354C0A70354B364A27781D78DF
:1025600014780A785300D318C65C521CF61BC65464
:102570001B185E78D2B2761B5E709E78361B9E70FA
:102580000A70182AEDD3F8BD1F480A700370142B87
:10259000F9D902702049012008701549C870F8BDAA
:1025A0001B4B1A4F1C5D1D4B182D1C701C4B747857
:1025B0001C701C4BB4781C70124B1D7000D244E789
:1025C0001A7063465B1CDBB23B70009CA34200D3D5
:1025D0003A70012008701148017807484030417175
:1025E0000F49097881710F490978C171F8BD000060
:1025F0002600002036000020DA0100201201002011
:102600002A0000202D0000203A0000203400002085
:10261000B000002044010020160000202E00002001
:102620002F00002030000020460000203100002054
:1026300032000020330000202C0000202B0000205E
:1026400010B53048018811310180811C08780928B3
:1026500039D008DC030005F073F8091B1E2124277C
:102660002A2D303318000E283CD008DC0A282DD043
:102670000B282ED00C282FD00D2806D12FE0FB28B8
:1026800033D0FD2834D0FF2836D00A20087010BD82
:10269000FEF752F810BD04F031FE10BDFEF70CF944
:1026A00010BD04F0F9FC10BDFFF794FE10BD01F061
:1026B00031F910BD00F092FF10BD00F07FFE10BD9B
:1026C000FFF7ECFC10BD00F0B7FD10BDFEF764FE97
:1026D00010BD01F02DFA10BD01F034FF10BD03F064
:1026E00065FA10BD00F042FB10BDFA22002101E0A6
:1026F0000022FA21002002E000221146FA20FDF714
:10270000D3FF10BD24000020F0B500233A48394E15
:10271000037055243948194601270761E2091BD087
:102720000022521CD2B21E2AFBD301610022521C8D
:10273000D2B2642AFBD362065B1C140EDBB2082BF8
:10274000EBD3AA240023076122060AD40022521CDC
:10275000D2B20F2AFBD309E0521CD2B20F2AFBD30C
:10276000E3E70022521CD2B21E2AFBD301610022F1
:10277000521CD2B2642AFBD362065B1C140EDBB27D
:10278000042BE0D3002335780022761C07612C0649
:1027900005D40024641CE4B20F2CFBD304E0002415
:1027A000641CE4B21E2CFBD301610024641CE4B25F
:1027B000642CFBD36C06521C250ED2B2082AE5D33A
:1027C0000D4A1478641CE4B21470032C0DD1054634
:1027D00007610024641CE4B20F2CFBD329610024A0
:1027E000641CE4B2642CFBD311705B1C9BB2482BBD
:1027F000C9D3F0BDDA01002048000020404200505B
:1028000010B5FEF7BBFA01F077F80321254809025D
:1028100001600168022211430160012141600168E9
:10282000802211430160204800240460032210210B
:102830001E48FFF797FD1D48012240214038FFF751
:1028400091FD1A48012210214030FFF78BFD1848F6
:102850000461174840388461164C1421204604F066
:10286000ABFE6068102108436060080212490860EE
:102870004B21C901204604F05FFE104C0121322299
:10288000C906204604F02CFE2168A0030143216004
:102890000B4921620B496162084920310A680243F1
:1028A0000A6010BD00400040000100504040005050
:1028B000404200500000054000E100E000000140FF
:1028C000FF0000081BB70000F8B55C4C5C4EE079D7
:1028D0005C4D0022012804D1E271207A60722A70D6
:1028E0003270277958485949594B012F33D03778DE
:1028F0007F1CFFB23770022F2CD332702E78002E3F
:1029000062D0761EF4B22C70524D66001A70A41973
:102910002E5D64196578A778B646AC464A48002112
:1029200001704B490B789D0002787446A9184E003F
:102930008E194649521C8C55644671184C708F7024
:10294000D1B201700429EFD35B1C4148D9B20170A8
:102950000629E3D3F8BD2E780096677ABE422AD2C4
:102960003C4C75001A707519665D2C196578A7784E
:10297000B446AE4634480021017035490B789D00BD
:1029800002786446A9184E008E193049521C8C55A5
:10299000744671184C708F70D1B201700429EFD356
:1029A0005B1C2B48D9B201700629E3D30098254956
:1029B000401C0870F8BD284822710A210170274880
:1029C000027027480270F8BD0D78002D05D14D78B2
:1029D000002D02D18D78002D2AD020491A70097857
:1029E0001F4A1D4C8E46117825788C4600210170B7
:1029F00017490C78A6000378F1184A008A18134981
:102A00005B1C8F5C7F1B8F5451184A787746D21B12
:102A10004A708A786746D21B8A70D9B2017004293D
:102A2000E9D3641C0A49E2B20A70062ADED3F8BD73
:102A3000E27000202270C043A071F8BD6200002047
:102A4000E0000020400000202C000020DA010020DF
:102A500035000020DA78000031000020320000202C
:102A600033000020F0B52B4B2B4ADC792B4800219A
:102A7000012C04D1D971017011701C7A5C721C791F
:102A8000012C2AD11478641CE4B21470022C05D3F2
:102A9000117002780C2A01D2521C02700478204D69
:102AA0002048214A062C19D22C7001705B7A1F49EC
:102AB0005D005B19CD5C59184B788F78A6000278C1
:102AC000B1184C000C191849521C0D5561184B7067
:102AD0008F70D1B201700429F1D3F0BD0C2C12D249
:102AE000A41FE3B22B7001709D000378EC18660000
:102AF000A4191155A4185B1C6170DBB2A17003709E
:102B0000042BF2D3F0BDD97000201970C043987126
:102B10001971F0BD62000020E0000020400000209C
:102B2000350000202C000020DA010020DA780000B7
:102B3000F8B5394A394BD0790021394C394D012843
:102B400005D1D171107A50722170197029701679DF
:102B50003548364F012E18D01E78761C3606360EB4
:102B60001E7011D019702378042B48D22A78920055
:102B7000D21AD21CD2B20270500010183954C019A7
:102B8000417081705B1C2370F8BD1D786D1CEDB227
:102B90001D70022DF8D3197023780093557AAB423B
:102BA0002BD2234A234B1170009D6E00AD195E5D40
:102BB000EB185D789F78B646AC46002101701C4941
:102BC0000B789D0002787446A9184E008E1917499B
:102BD000521C8C55644671184C708F70D1B20170C4
:102BE0000429EFD35B1C1249DAB20A70062AE4D337
:102BF00000990B48491C0170F8BD117104E0287858
:102C0000052803D2401C28702170F8BD11700020E7
:102C1000D170C0439071F8BD62000020E000002038
:102C200040000020120100202C000020DA010020CA
:102C300035000020DA780000F0B54549454CCA79E6
:102C4000454D0020012A04D1C871287020700A7AED
:102C50004A723F49424A0E794049424B012E1ED0EA
:102C60001870404B08701E78B4000B78E5186F00A0
:102C7000ED195055AD185B1C6870DBB2A8700B7075
:102C8000042BF2D3761C374BF4B21C70062CE8D31D
:102C90002F49C87008700020C0438871F0BD2678A5
:102CA000761CF6B226700F2E08D320702C78032CD9
:102CB00002D2641C2C7001E0254C20712C78002C71
:102CC0001ED0012C03D0022C1AD0032CE6D1187090
:102CD000244B08701E78B4000B78E5186F00ED19CE
:102CE0005055AD185B1C6870DBB2A8700B70042BDC
:102CF000F2D3761C1B4BF4B21C70062CE8D3F0BD4B
:102D0000134C1870657A184C6E00AD19665D2C195D
:102D10006578A778B646AC4600200870114804785C
:102D2000A5000A787346A818460086190C48521C5C
:102D300083556346301843708770D0B208700428FA
:102D4000EFD3641C0748E2B20270062AE4D3F0BD58
:102D500062000020E0000020400000202C00002045
:102D6000DA01002035000020DA780000F8B5474885
:102D70004178002976D041890024491C89B24181DB
:102D80004348FA2906D341494C700A2101700121B8
:102D9000C17002E0C17801292FD1C4703D483E497D
:102DA00004703E483B4A04701678B30002789D18C0
:102DB0006F00ED194C556D18521C6C70D2B2AC708E
:102DC0000270042AF2D3761C324AF3B21370062B37
:102DD000E8D3334A334B344D344E047001785454A5
:102DE0005C546C547454491CC9B201701829F5D351
:102DF0002F49FF2008702F480470244DA87801281F
:102E000020D1AC70287805210646FDF7D5FA40B2EE
:102E1000687106216956814204DDEA78002A11D1E1
:102E2000002E0FD9032801D0052804D1884202D1F1
:102E30002979012911D00121E97101212971A87194
:102E4000EE702E720521287AFDF7B6FA030004F021
:102E500077FC06070A0D10131619EC71EDE701E077
:102E6000FFF732FDF8BD00F027F8F8BDFFF7E4FEEC
:102E7000F8BDFFF7F7FDF8BD00F082F8F8BDFFF7E9
:102E800057FEF8BD00F0DEF8F8BD0000620000203B
:102E90002600002035000020DA0100202C00002050
:102EA000E000002012010020A8010020760100208F
:102EB0003400002044010020F0B52B4D2B4BE97964
:102EC00000202B4C012902D1E871187020702F7955
:102ED0000026F6432749284A012F15D02378062BD0
:102EE0003ED208709E000C7835196F00ED195055D0
:102EF000AD18641C6870E4B2A8700C70042CF2D396
:102F00001B485B1C0370F0BD1E78761CF6B21E7069
:102F1000022EF8D3187023780F2B1ED25B1CDBB265
:102F20002370072BEFD208702C7A144865006519BE
:102F3000445D2818457887789B001B1F0A789818ED
:102F4000460086190C48521C84553018457087700D
:102F5000D0B208700428F1D3F0BD20702871F0BD04
:102F6000E8702870AE71F0BD62000020E000002023
:102F7000400000202C000020DA010020DA78000058
:102F8000F0B5294B1879012830D1284A0021107852
:102F9000401CC4B226481470022C05D3117002786C
:102FA0000C2A01D2521C02700478224D2248234A76
:102FB000062C1CD20526341BE4B22C7001705B7AFF
:102FC0001F495D005D194B5D69184D788F78A4002D
:102FD0000278A1184E008E191849521C8B55711891
:102FE0004D708F70D1B201700429F1D3F0BD0C2C5B
:102FF00013D20B231B1BDBB22B7001709D000378D7
:10300000EC186600A4191155A4185B1C6170DBB2A2
:10301000A1700370042BF2D3F0BDD9700020197099
:10302000C04398711971F0BD62000020E0000020DB
:1030300040000020350000202C000020DA01002094
:10304000DA780000FEB56048C179047A012940D1E0
:103050000025C57144725D485F4E05705C481921BA
:1030600005705C48057060002718F05DFDF7A4F955
:103070005A49BE190870019070781921FDF79CF922
:10308000574908700090B0781921FDF795F9554916
:10309000844608705448057054490020087052480E
:1030A000007886000B78019FF21855005519504A98
:1030B0005B1C5755AA18009F577065469570DAB289
:1030C0000A70042AEED3401C4749C0B20870062893
:1030D000E2D33D4A1079012837D03D490878401C99
:1030E0000006000E08702FD00020087037490B78BA
:1030F000002B62D05B1EDBB20B703B4A364910706E
:103100005C001B19CC5C59184B7838488F78A44662
:103110009E460021017034490B789D000278644678
:10312000A9184E008E193249521C8C5574467118DC
:103130004C708F70D1B201700429EFD35B1C2A4907
:10314000DAB20A70062AE4D3FEBD204908781928AD
:103150002FD2401C0870244A0023204C137025787D
:103160001F4E20493478454344430978EDB241432A
:10317000E4B21E48AE46A446CFB2002101701A49FF
:103180000B789D0002787446A9184E008E191849D4
:10319000521C8C55644671184C708F70D1B20170FE
:1031A0000429EFD35B1C1049DAB20A70062AE4D373
:1031B000FEBD002010710C70FEBD1070D07000209C
:1031C000C0439071FEBD000062000020400000205E
:1031D000E000002012010020DA7800003100002019
:1031E0003200002033000020350000202C00002099
:1031F000DA0100200E480021027A002A0BD0827BDF
:10320000521CD2B28273FA2A05D381730172094B20
:10321000417201221A70C27B002A07D00278521C28
:10322000D2B20270FA2A00D3C1737047017070479E
:103230001100002047000020F0B55548554BC578D7
:1032400055480021554C564A89B0012D06D01D78AD
:10325000052D11D26D1C1D7009B0F0BD4C4DE970EB
:10326000FF25257011704F4A4F4C11702278521C67
:10327000227001701970EFE7002119704849077832
:103280000E78711CC9B2039144490D786B1ED9B2F6
:103290000791444909784B1CDBB20593731EDBB2DE
:1032A00006936B1CDBB204934B1EDBB208933B000E
:1032B00004F046FA0B070D131A21283035393D4228
:1032C0004700FF2E01D2039811E0012137E0002DC5
:1032D00001D0079812E0022131E0324BFF2901D2E0
:1032E000059813E003212AE0002E02D00698107002
:1032F00038E0042123E0FF2D02D20498207031E051
:1033000005211CE0274B002902D00898187029E0FD
:10331000062114E0234BFF29E2D307210FE0002D03
:10332000D7D108210BE0FF2ECDD3092107E01D4B9B
:103330000029EAD10A2102E0FF2DDED30B21017022
:1033400010E0002ED2D100210170184803785B1CD8
:10335000DBB20370142B05D901700D490120C87030
:10336000134908701348002101700E4E237812494A
:10337000157834780278560096198B557618521CB9
:103380007570D2B2B4700270182AF3D364E70000EB
:103390002600002036000020120100202E00002010
:1033A0002F00002030000020E00000203A00002024
:1033B000160000202C000020DA010020F8B5784922
:1033C000784FCA780024012A6DD0774900220A700C
:1033D0007648754D0188734CC91D01802878215CA1
:1033E000491C2154FCF7D6FEC0B20521FCF7E4FFCE
:1033F0002E78A05D814255D20020A0556C480178FE
:103400003046FCF7D9FF6B486B4F017048000D1830
:10341000785D1921FCF7D0FF684904460870EF1960
:1034200078781921FCF7C8FF654905460870B87817
:103430001921FCF7C1FF634908706349895D0029C0
:10344000314656D00C224A436149604B895D9B5CF2
:103450000F466743BB420BD85C4B0F46D2185378DC
:103460006F43BB4204D892784F4F41438A4273D98D
:103470000021584FB2003970544994463A78634657
:103480009B185E009B19CE5C521C361BCE545B18F9
:103490005E78D2B2761B5E709E78361A9E703A7055
:1034A000042AEBD373E04B4DCC70484E2C70287837
:1034B00041004118745489194C708C7042493C5435
:1034C0000C543A490888421C0A80FCF757FFFCF765
:1034D00061FEC0B21921FCF76FFF3D4A28781A310E
:1034E0001154401CC0B228701828E0D33A48047028
:1034F000F8BD0C225143354A354F8C46525CB95DBC
:103500000B4663439A420CD3304A0F4662445378C9
:103510006F43BB4205D39278234B2D4F41438A42E0
:103520001BD200212B4FB2003970284994463A78BB
:1035300063469B185E009B19CE5C521C3619CE5414
:103540005B185E78D2B276195E709E7836189E70DF
:103550003A70042AEBD31AE00CE01B4801211C4608
:103560008155FCF717FEC0B20A21FCF725FF207831
:1035700039540CE0144900208855FCF70BFEC0B20A
:103580001921FCF719FF12483A781A31815406487C
:103590000178491CC9B20170062900D218E7F8BDAC
:1035A00026000020E000002035000020240000203C
:1035B0002A00002034000020B0000020310000204C
:1035C000320000203300002012010020DA01002028
:1035D000440100202C00002036000020F0B5B04847
:1035E000B14A8BB0C178AF4D127800920023AF4C36
:1035F000AF786E782A78012907D0AD490878282855
:103600007AD2401C08700BB0F0BD0021C1701921A6
:103610001046FCF7D1FEA7490870079019213046E3
:10362000FCF7CAFEA4490870069019213846FCF739
:10363000C3FEA249087005900098012831D00020EF
:1036400020709A4C009920780690FCF7B5FE9C48B3
:10365000002201709B484B000270924AC918535CCB
:1036600089184F788D7806998C000278A1184E0041
:103670008E199549521C8B5571184F708D70D1B2AF
:1036800001700429F1D306988849401CC0B2087023
:103690000628D6D38649002008708C4908708849CE
:1036A000B0E700202070874880490978CA0724D0F5
:1036B00000220270079A32235A43D6B2069A5A431E
:1036C000D4B2059A5A43D2B294468F000378FA18BE
:1036D000550055197C4A5B1C5655AA18547065460E
:1036E0009570DAB20270042AF0D3491C6F4AC9B24D
:1036F00011700629D8D3CDE71DE000220270079A89
:1037000014235A43D6B2069A5A43D5B2059A5A435D
:10371000D2B294468F000378FA18540014196A4AFA
:103720005B1C1655A218557064469470DAB202708C
:10373000042AF0D3D9E70B7000991846012951D01B
:103740005F49634E0A785300D318EF5C37705B19FA
:103750000597604D5E782E7001969D785E4B521CE9
:103760001D70D2B202950A70009B9A4200D3087075
:103770000521217053485449002202704B4A1278A7
:1037800004929200131F9C4603786446E418650077
:103790006419D5180E5D6F00ED194E5564186D183B
:1037A00066786E705B1CA478DBB2AC700370042B7F
:1037B000EAD3049B3D4A5B1E1B061B0E1370DBD134
:1037C00000220270D2B25300D318059CCC545B186F
:1037D000019C5C70521C029CD2B29C700270042A44
:1037E000F0D310E739490B78002B43D0384B1A70CF
:1037F000384A1670384A1770087005212170314810
:10380000314900220270294A1278059292009446AA
:10381000121F0378D418650064196546ED180E5D13
:103820006F00ED194E5564186D1866786E705B1C4C
:10383000A478DBB2AC700370042BEAD3059B1B4A5F
:103840005B1E1B061B0E1370DBD100220270204C86
:10385000204B214A25781E78147802785300D3181B
:10386000CD545B18521C5E70D2B29C700270042A58
:10387000F3D3C8E60F4A142312785A43144B1A7034
:103880000D4A142312785A43124B1A700B4A142310
:1038900012785A43104B1A7001220A70ADE70000EB
:1038A00026000020B00000202A0000203500002063
:1038B00036000020310000203200002033000020BC
:1038C000340000202C000020DA010020120100202A
:1038D0002E0000202F0000203000002010B55921BC
:1038E0000448162288230160026003600468002CEB
:1038F000F9D010BD0001005010B55921044816221E
:1039000088230160026003600468002CF9D010BDB8
:1039100000010050F8B56B486B4DC0786B4E002429
:1039200001281ED02878401CC0B2287004284CD32F
:103930002C703046077866486949067865480A78E9
:103940000078684984466448674B0578634809787D
:1039500000781B78002F39D0012F54D0022F51D17D
:103960005CE058486249C4706048047002785300B3
:10397000D318CC545B18521C5C70D2B29C7002708D
:10398000182AF3D35B481921047057483470047027
:1039900059482C7004705148584D047050480470B8
:1039A000504804702878FCF707FD4949087068788A
:1039B0001921FCF701FD47490870A8781921FCF787
:1039C000FBFC454908704E480470F8BD5F00DB19E8
:1039D0004A4FFF5C874207D8484FDF197B789342F4
:1039E00002D8BB788B4208D93C4B801918703C48F0
:1039F000624402703B4849191DE0344801210170BE
:103A00003D48047048E03C480178491CC9B2017047
:103A1000322941D304702D4802210CE00746174398
:103A20000F430AD02D4B801B18702D486346D21AC5
:103A300002702C48491B01702EE024485B1C047066
:103A40002948D9B22F4A0170127891420DD32E49DC
:103A500004700A78521CD2B20A70062A05D90C707A
:103A6000184A0121D170294A11700078234D410074
:103A70004618A85D1921FCF79FFC154975190870B7
:103A800068781921FCF798FC12490870A878192168
:103A9000FCF792FC104908701448114B04700F4C4D
:103AA000104A1E78124925781378027854001419A8
:103AB0000D556418521C6670D2B2A3700270182A99
:103AC000F3D3F8BD260000203600002012010020AC
:103AD0003100002032000020330000202E000020A2
:103AE0002F00002030000020340000202C00002097
:103AF000DA010020E000002044010020B000002096
:103B0000460000202A0000203A0000201600002075
:103B100006498A691202FCD408600A2804D188691F
:103B20000002FCD40D200860704700000000054032
:103B3000F8B5254E0022F178244B2548012910D0F4
:103B400004880121234D002C16D02746FF3FCD3F8E
:103B500005D005277F02BC4211D102220CE019706A
:103B60000BE0F27002801C481A70027000221146AD
:103B70001046FCF789FDF8BD1A7029700BE0174F4D
:103B8000BC4201D10322F7E7154DAC4203D10280BC
:103B9000144AF17011700188491C018018780028BE
:103BA00008D0012809D002280AD00328E3D100F068
:103BB0003DFBF8BD00F018F8F8BD00F0C7F8F8BDFF
:103BC00000F0CAFAF8BD00002600002038000020EE
:103BD0003E0000203900002041000020840D00003C
:103BE0009411000016000020FEB54A484A4D0178A5
:103BF00000244A4E01291AD02878401CC0B22870EF
:103C000002282AD3002028703046017844480078E2
:103C1000401CC4B24348002907784348067843480B
:103C200005784348007819D001296AD14AE000227A
:103C3000047011461046FCF727FD3A482C700470BA
:103C400039480470394804703548047038480470A5
:103C500038483470047038480470FEBD4100401884
:103C600036490090085C1921FCF7A6FB0146344850
:103C70000170019131490098401802904078192153
:103C8000FCF79AFB01462F48017000910298192118
:103C90008078FCF791FB2C49224A0870019928187A
:103CA000791811700099204A711811701F49192C48
:103CB00008701B48047024D30021017017480121AB
:103CC00001701EE01E4A17491278BA1A0A701D4A7E
:103CD00015491278B21A0A701B4A14491278AA1AA6
:103CE0000A700F49192C0C700BD300220A700B4973
:103CF000401C0A700E4AC0B21070032801D902207D
:103D000008700A4802780848017806480078FCF7ED
:103D1000BBFCFEBD39000020360000204000002022
:103D20002B0000202E0000202F000020300000205B
:103D3000340000203700002041000020B0000020A7
:103D4000310000203200002033000020F0B5F4489C
:103D5000F44C0178F44F00258DB0012930D0204675
:103D60000278F349F1480B780078F2490893097812
:103D70001646491CC9B20A91EF49521C0978D4B2BF
:103D80004B1CDBB20793089BEC4A5B1CDBB206932F
:103D90001378401C5A1CD2B20492E94AC0B212787D
:103DA00000925A009A18E74B0292D21801923300FF
:103DB00003F0C6FC09215FC7FEC7FEC7FEFDFC007D
:103DC0000022057011461046FCF75EFCD748DE4A1B
:103DD0000570257038463D7001785554491CC9B2AC
:103DE00001703229F8D3D4480570D2480570D04804
:103DF00005700DB0F0BDCD4A04281070F9D3002035
:103E00001070CC4A0A981070032823D90022C948A0
:103E1000062902701ED23A70CA4A4D004D19565DED
:103E2000AA180396384655789778AC468B000278E6
:103E3000039E99184D004D19C449521C4E556646B3
:103E400069184E708F70D1B201700429EFD3BA484F
:103E500007990170B649069808703228C9D3B1484D
:103E600006210470BA480170B34900200870B149B6
:103E7000C5E0AE490A280870BBD300200870AD49E0
:103E80000A98087003284AD30020087005223A7067
:103E9000AE4BB04A00201070A34800780490800018
:103EA000844615786046401941004618F1180846C6
:103EB0002038077D9F55467D4E70807D88706D1C33
:103EC000E8B210700428ECD304989749401E00060D
:103ED000000E0870DED10021104611709C4A9949ED
:103EE00012789446550052198D5C51184E788F788F
:103EF0000278510053189549521CCD5459184E70F0
:103F00008F70D1B201700429F2D361469048491CE8
:103F1000C9B20170009A914201D300210170854815
:103F20000178491CC9B20170502997D30021017052
:103F30007C480470804801707D4801707F480170A2
:103F400057E77A4914280870FAD30D700521814883
:103F5000397000210170744909780A9189008C46F2
:103F60000578614649194A00784B8E18F2181146B7
:103F700020390F7D9F554B7D5370897D91706D1C4D
:103F8000E9B201700429EBD30A9A6749521E12065E
:103F9000120E0A70DDD1002101706A49029A8D5C0F
:103FA00001994F788E780278510002E0B4E072E017
:103FB00027E053186549521CCD5459184F708E7024
:103FC000D1B201700429EED35C4804990170009AC3
:103FD000914201D3002101705549069A0A70082ABE
:103FE000AED3504A14700278521CD2B20270009BB9
:103FF0009A4201D300220270002008704E490870D6
:10400000F7E64A49142808709AD30D704F49514871
:104010003D7000220270444A12789446960003785C
:10402000F218550055196A18177B4F55557B557076
:10403000957B95705B1CDAB20270042AEFD363465D
:104040005B1C394ADBB21370052BE2D300220270ED
:104050003C4A029BD55C019A5378927801784E00D5
:104060008F193A4E491CBE19203635777377C9B27D
:10407000B27701700429F1D3304804990170009A95
:10408000914201D300210170089829490828B7D32B
:1040900024480470B0E725490A280870B0D30D7091
:1040A0000521397029492B48002202701E4A1278D6
:1040B0000692920094460578624652195300D6182B
:1040C00073181A46203A177D8F55567D5E70927D83
:1040D0009A706D1CEAB20270042AECD3069B124A55
:1040E0005B1E1B061B0E1370DED1002202700378CC
:1040F0005D005D194A556D185B1C6A70DBB2AA70D1
:104100000370042BF3D30C49079808700828BED31A
:10411000044804700A706CE6FF2102480FE70000B3
:1041200039000020400000202B0000203600002035
:1041300041000020370000203B0000203400002018
:104140002A000020B0000020A8010020DA01002091
:10415000760100202C000020F8B52848284F01786F
:10416000284D0024284E01292BD03878401CC0B29D
:104170003870082824D33C70297830460278062904
:1041800031D22248224B0470540012199C5CD21880
:1041900053789778A6469C468D0003787446EA18B3
:1041A000560096191B4A5B1C94556446B21854700D
:1041B0009770DAB20270042AEFD31248491C0170DA
:1041C000F8BD0022047011461046FCF75DFA124853
:1041D0003C700470347011482C70047010480470E6
:1041E00010480470F8BD521C2C70D0B20E493070CB
:1041F00009788842F6D33470F8BD000039000020F9
:10420000360000203B000020340000202B0000205E
:10421000B0000020DA010020400000203C00002017
:1042200037000020760100202A000020F0B5B348B6
:104230000024017885B0012922D0B148B84B077815
:10424000B04800780390B04800780290AF480078FA
:104250000190AF481B780678AE485D000178AE4803
:104260005B190278AD48AF4D00785D19401C009392
:10427000C0B23B0003F064FA052F76B5CFFF74009F
:104280000022047011461046FCF7FEF99D48A44D2B
:1042900004709D48A34E04709C4804702878410027
:1042A0004718F05D1921FCF787F89949BE19087085
:1042B00070781921FCF780F896490870B0781921B8
:1042C000FCF77AF894490870944804709648047092
:1042D0002C708B48CCE0914B0828187040D31C7090
:1042E0000398884B8019C0B21870029D864B6918DC
:1042F000C9B21970019E854BB218D2B2854F864D56
:104300001A70FCF7C1F988480178491CC9B20170DC
:104310000A2925D904707A48854A0178491C017018
:10432000824804707E480178491CC9B20170127835
:10433000914200D3047000787A4C41004618A05D89
:104340001921FCF739F8724934190870607819217D
:10435000FCF732F83870A0781921FCF72DF8287096
:1043600005B0F0BD3001801B664BC0B218700B0168
:10437000591A654BC9B2197013019A1A634BD2B21C
:10438000644D654E1A70FCF77FF968480178491C46
:10439000C9B201702829E3D904705948644A0178E8
:1043A000491C01705E480178491CC9B2017012783D
:1043B000914200D3047000785A4C41004718E05DE8
:1043C0001921FBF7F9FF52493C190870607819214F
:1043D000FBF7F2FF2870A0781921FBF7EDFF307092
:1043E000BEE750480099484A405C4649474B087030
:1043F00069781170AA781A70FCF746F94B48017871
:10440000491CC9B201705029AAD904703C480178EE
:10441000491C017070E0414B06281870A0D31C7035
:104420000398384B801BC0B21870029D364B691A36
:10443000C9B21970019D354BAA1AD2B21A70FCF795
:1044400023F939480178491CC9B201700F2987D96D
:104450002B4904700A78521C0A703449354A0C7092
:1044600001785454491CC9B201703229F8D332483A
:10447000047075E7FFE7294906280870B0D30C706F
:104480002D490E78062E13D22748B7000470027803
:10449000B9184B00CB182949521CCC5459184C70F0
:1044A0008C70D1B201700429F1D32348761C0670B8
:1044B00023480178491CC9B20170322990D31049B0
:1044C0000C7004700F4804700F4804700F4804709B
:1044D00014480099405C1921FBF76EFF0C490870E5
:1044E00068781921FBF768FF0A490870A878192134
:1044F000FBF762FF084908700B48B9E73900002054
:10450000400000202E0000202F000020300000205E
:10451000310000203200002033000020360000204F
:1045200034000020B00000202B0000203C000020C0
:104530002A000020A80100203B000020DA01002012
:1045400041000020F8B5274E0023F178264A27487D
:1045500001290AD004880121254D002C0ED0CD2739
:10456000FF00BC420DD1117009E0F370038013709D
:10457000002211461046FCF787F8F8BD1370297029
:1045800015E01C4FBC4201D10223F7E71A4FBC4291
:1045900001D10323F2E7194FBC4201D10423EDE717
:1045A000174DAC4203D10380164BF170197001888E
:1045B000491C01801078030003F0C2F80505080BC0
:1045C0000E110400D9E700F097F9F8BD00F01CF8CF
:1045D000F8BD00F0CFFCF8BD00F032FFF8BD01F0EF
:1045E0007FF9F8BD26000020380000203E000020A2
:1045F00039000020520D00006E0F000092130000E1
:10460000581B000016000020F0B5A748A74D017800
:10461000A74E002485B001293ED02878401CC0B2A6
:104620002870042836D32C70304603780393A249AF
:10463000A048097800784A1CD2B29446401C8A00EF
:10464000C7B2002B41D0012B7ED006291BD29B483C
:104650009B4B04704C0009195C5CC9184E78897832
:1046600000910378D1184D004D1996495B1C4C55AB
:1046700069184E70009D8D70D9B201700429F0D375
:104680008D48614601708B48282F077002D38848F7
:10469000FF21017005B0F0BD0022047011461046E4
:1046A000FBF7F2FF8848032101702C7083483470B7
:1046B000864A047001785454491CC9B201703229E9
:1046C000F8D37D4804707B484DE0062921D27B4811
:1046D0007D4B04701B787A495D005B19CD5C5918DD
:1046E00002954B780193897800910378029ED11846
:1046F0004D004D1973495B1C4E556918019E4E7053
:10470000009D8D70D9B201700429EED36A486146CC
:1047100001706848322F0770BCD303996448491C64
:1047200001706B486B4D6C4E6C4F047028881130D3
:1047300080B22880FBF722FEFBF72CFDC0B21421CB
:10474000FBF73AFE624A00E00FE01078644B315408
:10475000012119543C54401CC0B210703228E5D3DA
:10476000604804706048047094E759480021017063
:1047700057485B490078095C0091002951D0012914
:1047800072D000274D494F4A0F7085000B78EC1806
:104790006600A419165D5B1C76081655A418667889
:1047A000DBB276086670A6787608A6700B70042BCC
:1047B000ECD34B490F5446480178491CC9B20170EB
:1047C0000629D5D347480178491CC9B2017032295E
:1047D000CAD90024364E04703B4D34702878434BC0
:1047E000410042183649885C18705218404B517885
:1047F0001970404B92781A70FBF746FF2878401CDE
:10480000C0B22870052801D9022030702B482F4AE9
:10481000047001785454491CC9B201703229F8D38C
:104820004FE726490022284B0A701B78244A5C0077
:104830001B19D65C9A1854789278870094460B78A6
:10484000FA18550055191F4A5B1C5655AA18547082
:1048500065469570DAB20A70052AF0D30099204AAD
:10486000491C1154A7E7FFE71C4A1B4C115C184D6B
:10487000491CC9B21154235C99429CD9002111549E
:1048800014490888113080B20880FBF777FDFBF7E8
:1048900081FCC0B21421FBF78FFD28782154104908
:1048A0000A5C521C0A5486E73900002036000020BA
:1048B00040000020410000203B0000202B00002091
:1048C000B0000020DA01002034000020A801002000
:1048D0002C0000202400002044010020E0000020E3
:1048E000120100203C000020370000202E00002094
:1048F0002F00002030000020F0B5F84BF849187860
:104900000C78F849F84DF94AF94E8BB0012821D0BE
:10491000F8480778F8480378F8485B1C0078DBB261
:10492000401CC0B20890781CC0B20790F448002F19
:1049300049D0012FF04F3B707ED00A2B7DD300234E
:104940003B70F04B1F783B0002F0FAFE06F4F3F2E6
:10495000F1F0EFEE00201870EB4FE74B3870187055
:10496000E44B18703070E24D214628780790FBF731
:1049700023FDE5480A460170DA4800210170DA4952
:104980005300D2188E5C511807984B788F788000AE
:104990008446D4486146027889184D004D19D349A0
:1049A000521C4E5569184B708F70D1B2017004299A
:1049B000EFD30799CE48491CC9B201700629D2D35A
:1049C0000020CE49C8E2CC4D142B2B7052D30024CA
:1049D0002C70CE4D13782B700293CD4D53782B70E5
:1049E0000493CC4B95781D7003950B46347011469B
:1049F00000221A70BE4A1278944696001C7832192A
:104A0000550055196A18177B4F55557B5570641C16
:104A1000957BE4B295701C70042CEFD36446641C43
:104A2000B34AE4B21470062CE2D300221A701D7847
:104A30006C002C19641801E01EE01BE02034029E7B
:104A40002677049E6677039EA6776D1CECB21C70D9
:104A5000042CECD3A949089B0B70142B0AD30A70C1
:104A6000A449079B0B70A8490A70AB490A70A54975
:104A70000A7002700BB0F0BD0A2BFBD300233B7011
:104A8000A04B1F783B0002F05BFE06042C5682A56B
:104A9000C8EB002333709A480B7000780A904200EC
:104AA00080182A5C40190492467880780290980019
:104AB00084460878624613185A009B188B4A049D56
:104AC000D5549A185670401C029BC0B2937008705F
:104AD0000428EED38A480A9951E08A487F1C07705F
:104AE000F5E002233370002685480E7000780A90A6
:104AF000420080182A5C4019029242780192807824
:104B00009E0084460878029D33185A009B18774A05
:104B1000401CD5549A18019D55706346C0B29370DD
:104B200008700428EED3D5E7E0E1BCE198E174E138
:104B300047E121E1F8E001233370002670480E7050
:104B400000780990420080182A5C4019049242784B
:104B5000019280789E0084460878049D33185A009C
:104B60009B18624A401CD5549A18019D55706346A3
:104B7000C0B2937008700428EED361480999491CAB
:104B8000C9B20170A142A8D300210170A5E7052395
:104B9000337000265A480E7000780990460080193C
:104BA0002A5C401905924278039280789E008446E0
:104BB0000878059D33185A009B184C4A401CD55460
:104BC0009B18039D5D706546C0B29D7008700428F7
:104BD000EED3D2E703233370002649480E700078E5
:104BE0000A90420080182A5C40190592427804928B
:104BF00080789E0084460878059D33185A009B18DB
:104C00003A4A401CD5549A18049D55706346C0B268
:104C1000937008700428EED35CE7042333700026F9
:104C200037480E7000780990420080182A5C4019BD
:104C300005924278049280789E0084460878059D0B
:104C400033185A009B18294A401CD5549A18049DC1
:104C500055706346C0B2937008700428EED38CE799
:104C600000232748337000780A9041004018295CDF
:104C700040198C46417803918078029019480021B0
:104C800001701B490F78BD0002786346AE187100B1
:104C9000761816498B557618039B7370531C02992E
:104CA000DBB2B1700370042BEED37F1C1048F9B255
:104CB00001700629E2D30A991148491CC9B2017052
:104CC000A14201D3002101700E49002008700B4958
:104CD00008980870642821D2CCE600003900002032
:104CE0002A0000202C000020B0000020DA01002063
:104CF0002B00002040000020360000203C00002057
:104D00007601002012010020340000202E00002037
:104D10002F000020300000203B0000200020087001
:104D20008E4807990170A5E6002333708C480B70FC
:104D300000780490420080182A5C4019069242785C
:104D4000029280789E0084460878069D33185A00A7
:104D50009B18844A401CD5549A18029D557063468E
:104D6000C0B2937008700428EED37D4804994CE0DB
:104D70007D487F1C07707DE602233370002678484B
:104D80000E7000780790460080192A5C4019049242
:104D90004278039280789E0084460878049D3318F8
:104DA0005A009B186F4A401CD5549B18039D5D7098
:104DB0006546C0B29D7008700428EED36848079914
:104DC00023E001233370002665480E7000780890B8
:104DD000460080192A5C401901924278049280783A
:104DE0009E0084460878019D33185A009B185D4A3E
:104DF000401CD5549B18049D5D706546C0B29D70E3
:104E000008700428EED356480899491CC9B20170AD
:104E1000A142ADD300210170AAE70523337000261B
:104E20004F480E7000780490420080182A5C4019A8
:104E300006924278019280789E0084460878069D0A
:104E400033185A009B18474A401CD5549A18019DA4
:104E500055706346C0B2937008700428EED384E79F
:104E60000323337000263E480E70007807904200FE
:104E700080182A5C401904924278039280789E0040
:104E800084460878049D33185A009B18354A401C04
:104E9000D5549A18039D55706346C0B2937008703C
:104EA0000428EED38AE70423337000262C480E70C2
:104EB00000780790420080182A5C401903924278DB
:104EC000069280789E0084460878039D33185A0025
:104ED0009B18244A401CD5549A18069D5570634669
:104EE000C0B2937008700428EED367E700231C4813
:104EF00033700078089041004018295C40198C46B6
:104F00004178049180780190184800210170184977
:104F10000F78BE0002786546B31859005B18114936
:104F2000CD545918049D4D70531C019DDBB28D70FA
:104F30000370042BEED37F1C0D48F9B201700629D3
:104F4000E2D308990648491CC9B20170A14201D3B5
:104F5000002101700449002008708BE5400000200A
:104F600076010020DA010020120100202C00002030
:104F70002B000020FEB5FE49FE4D0878FE4A0128B0
:104F80001FD010460678FE48FC4C00782378401C61
:104F9000C1B2FC48FC4C02780093731CDBB29C4607
:104FA000501C5300D3181A19C0B2002E13D0012E72
:104FB00055D0022E7ED0032E7DD0EF4905200870FB
:104FC000FEBD00200870EF4908702870EC49107091
:104FD0000870EE49F3E7EE4F0025EE4E3D70357058
:104FE000E45C53789278AD000195EA4E3678AD19BD
:104FF0006F00EF19E84D761CEC557F197B70BA7085
:10500000F6B2E44F042E3E7001D2019DEDE7E04F71
:1050100003263E70DF4F00253D70B5000195DD4E43
:105020003678AF197D007F19DB4D761CEC557F1962
:105030007B70BA70F6B2D74F042E3E7001D2019D3C
:10504000EDE7CF4A14291170BAD30023CD4913706C
:105050000870009A90423BD2C748614682E0CC4D2E
:1050600001272F70CB4E00253570E55C547893787E
:10507000BF00C84A12789646BA1856009619C64A12
:105080009555B218547093707246521CD2B2C14EEC
:10509000042A3270EDD3BE4A042717700026BD4A99
:1050A000BF001670BB4A12789646BE187200B2183E
:1050B000B94E01E00EE057E0B5549619747072468F
:1050C000B370521CD2B2B34E042A3270EAD3B8E79E
:1050D0000B70C1E7AE4D02272F70AE4D00262E702B
:1050E000E45C53789278BD000195AA4E3678AF19EA
:1050F0007D007F19A84D761CEC557F197B70BA7026
:10510000F6B2A44F042E3E7001D2019DEDE7A04DF2
:1051100005272F709F4D00262E70BD0001959D4ED6
:105120003678AF197D007F199B4D761CEC557F19A1
:105130007B70BA70F6B2974F042E3E7001D2019D7B
:10514000EDE78F4A1429117000D239E70021117060
:105150008C4A1070009B984200D3117086486246BA
:1051600002708E480170FEBD2878401CC0B22870C5
:105170000228F8D30020287087480078002806D13C
:1051800085484178002902D18078002856D07F4890
:10519000017848000D18605D1921FBF70DF9804971
:1051A000064608702F1978781921FBF705F97D4913
:1051B00005460870B8781921FBF7FEF87A49744A59
:1051C000087001460020734B1070187080008446F0
:1051D000704A60461778C019420082186E487F1CDA
:1051E000835C9B1B835410184278521B4270827858
:1051F000521A8270F8B2674A04281070E8D3644AE1
:10520000032010700023634A800013708446614AB3
:1052100060461778C019420082185F487F1C835C83
:105220009B1B835410184278521B42708278521A8A
:105230008270F8B2574A04281070E8D357480078B3
:1052400000900F2860D35448007B002806D15248B4
:10525000417B002902D1807B002855D04B48007843
:10526000410040180719F8781921FBF7A5F84C49B7
:105270000646087038791921FBF79EF8494905461A
:10528000087078791921FBF797F8474901220870CF
:105290003F4900270A703F4B3F4992001F709446D8
:1052A0003C4B62461F78D2195300D2188B5C7F1C8E
:1052B0009B1B8B54521853785B1B537093781B1AAB
:1052C0009370FAB2334B042A1A70E9D3304A04239C
:1052D0001370304A002717709A0094462D4B62468F
:1052E0001F78D2195300D2188B5C7F1C9B1B8B54E8
:1052F000521853785B1B537093781B1A9370FAB251
:10530000244B042A1A70E9D300981E2878D3224D22
:10531000287E002805D1687E002802D1A87E0028BA
:1053200077D01A480078410040180719B879192138
:10533000FBF742F81A4906460870F8791921FBF77D
:105340003BF8184904460870387A1921FBF734F8FD
:1053500015490F4A08700221117000230D4F890072
:105360003B708C463978624652185300D2181DE0C3
:105370003900002036000020400000202A000020D4
:105380003C00002034000020B0000020120100206A
:105390002B0000202C000020DA0100203B00002020
:1053A000310000203200002033000020AB5C491C9B
:1053B0009B1BAB5452195378C9B21B1B5370937883
:1053C0001B1A937039700429CCD3194A0521117026
:1053D000002289003A708C463A78614689184B0061
:1053E000C9186B5C521C9B1B6B5449194B781B1BD7
:1053F0004B708B781B1A8B70D1B239700429EBD3A8
:1054000000981F2801D3AEE603E00A480178491C42
:10541000A8E609490020094A08701378DB1CDBB2B2
:105420001370092B01D304220A7002490870ECE7BB
:105430002B0000203B000020400000201201002033
:10544000FEB5FE49FE480A78012A26D00578FD48B7
:10545000002D0778FC4800788446FC4800780090CE
:10546000FB480378FB480178FB48027844D0F448B5
:10547000FB4E0078401CC0B20190F84836780078A6
:105480000296441CE4B2012D7ED0022D7DD0032D66
:105490007CD0EB4904200870FEBD00240C70F04D58
:1054A000F0492C700C700470EC4822460470EE48F1
:1054B00021460470ED4804702046FBF7E5F8E1480A
:1054C0000470E1480470E14804702878E84C410019
:1054D0004518605D3221FAF76FFFDD492C1908701D
:1054E00060783221FAF768FFDA490870A078322133
:1054F000FAF762FFD849CEE7F818D24DC0B2D24BC6
:1055000061442870C9B21970009DD04BAA18D2B25C
:10551000CF4C1A70FBF7B8F8D44E3078401CC0B2AC
:1055200030703228B8D3C648D14D0178491C01707B
:10553000CB48007841004718E85D3221FAF73CFF7C
:1055400020707C1960783221FAF736FFC149087063
:10555000A0783221FAF730FFBF4900250870BF4814
:10556000C44C05703570C44EC44F2570C4482178B2
:1055700045543088113080B23080FAF7FFFEFAF7D8
:1055800009FEC0B2052102E00CE09FE025E1FAF738
:1055900013FF2078491D3954401CC0B220703228B6
:1055A000E4D3FEBD062849D2B24800240470B148B5
:1055B000B34C0078245C012C39D0B24CAF4E255C42
:1055C0006D1CEDB22554365CB5421CD30025255424
:1055D000AD4C25708400A446AB4D64462F78E41989
:1055E00065006519A94C7F1C665DF61A66552C1975
:1055F00065786D1A6570A578AD1AA570FCB2A24DDC
:10560000042C2C70E8D30C24A04D44432E5D002EB6
:105610000DD164196578002D09D1A478002C06D12C
:105620008E4C25786D1C2570954D01242C54401C02
:10563000904CC0B220700628B9D301E087480470AE
:10564000864801783729ACD3002404707C4801993E
:10565000017002998248491CC9B28D4A01701278C2
:10566000914200D304700178814D48000E18A85D66
:105670003221FAF7A1FE764975190870687832214F
:10568000FAF79AFE73490870A8783221FAF794FE67
:105690007149784D0870784E784F2C707848297889
:1056A00044543088113080B23080FAF767FEFAF740
:1056B00071FDC0B20521FAF77FFE2878491D3954E3
:1056C000401CC0B228703228E8D3FEBD644D2D784E
:1056D0006E00AD19664E0295AD190095062851D29F
:1056E0006448002404706348654C0078245C012CF5
:1056F00041D0644C614E255C6D1CEDB22554365C86
:10570000B5421CD3002525545F4C25708400A44667
:105710005D4D64462F78E419650065195B4C7F1C6C
:10572000665DF61866552C1965786D186570A57854
:10573000AD18A570FCB2544D042C2C70E8D30C2489
:10574000524D44432F5D4A4D029EAD5DAF4212D192
:105750004E4D6419009D66786D78AE420BD1A578E8
:10576000009CA478A54206D13C4C25786D1C257080
:10577000434D01242C54401C3E4CC0B220700628DE
:10578000B1D301E0354804703448017837299CD3FF
:10579000002101702A480199017035480299465C40
:1057A00032213046FAF708FE294908700098322164
:1057B00045782846FAF700FE2649087000983221FD
:1057C00084782046FAF7F8FD234908701D480670D2
:1057D0001D4805701D480470FEBDF81A194C63463B
:1057E000C0B2194D591A2070C9B22970009B174ECA
:1057F0009A1AD2B23270FAF747FF1C480178491C56
:10580000C9B201703229E7D3002404701448204A39
:105810000178491CC9B201701278914200D304701A
:1058200000784100471812483221C05DFAF7C4FDE4
:10583000074908700E483F1878782BE0390000209F
:10584000400000202E0000202F000020300000200B
:105850003100002032000020330000203B000020F7
:1058600034000020360000203700002041000020D6
:10587000B00000202C000020240000204401002063
:10588000A8010020E00000202B000020DA01002009
:105890002A0000203221FAF78FFD0C490870B878F1
:1058A0003221FAF789FD0A4908700A480B49047049
:1058B0002C700948347004700A78521CD2B20A70F5
:1058C000022A89D304210170FEBD000032000020AD
:1058D000330000202E000020400000203700002070
:1058E000F0B5A64800270178A54CA64DA64E87B076
:1058F000012912D10022077011461046FAF7C4FEA2
:10590000A2480770A2480770A2480770A248077013
:1059100027702F70A148377007709D480178491C87
:10592000C9B2017003297DD907709B480178491CD1
:10593000C9B20170282908D9077096480178491C16
:10594000C9B20170052900D9077092480078030098
:1059500001F0F6FE06040B12192129303770207869
:10596000401D20702878C01F13E02F703078801FF2
:1059700030702078093014E027702878C01D287016
:105980003078001F15E037702078401F207028788D
:10599000083028700EE02F703078C01C30702078EE
:1059A000C01F207006E027702878083828703078EB
:1059B000C01C307079487A4A01780B0001F0C0FEB3
:1059C000060421405F7C99B61770764A17702378D9
:1059D00003932B78BF009C46337801931478039E81
:1059E0003B195D005D19704B641C5E556646EB18F3
:1059F0005E70019D9D70E3B21370042BEED3491CC1
:105A0000B9E002231370674A1770247802942C7847
:105A1000019434789F00A44614783B195D005D1909
:105A2000614B00E0A8E0029E5E55EB18019E5E709F
:105A300065469D70641CE3B21370042BECD3DEE763
:105A4000012313701A46574B1F7023789C462B78FE
:105A50000293337896000193524A674614783519B9
:105A60006B00ED18504B641C5F55ED18029F6F7072
:105A7000019FE3B2AF701370042BEDD3BFE7052392
:105A80001370484A9B001770247801942C78009476
:105A900037789C46147863461B195D005D19424BAC
:105AA000019E5E55EB18009E5E709F70641CE3B211
:105AB0001370042BEED3A2E703231370394A177037
:105AC000247800942C78049434789F00A4461478A9
:105AD000009E3B195D005D19334B641C5E55EB184D
